{
	"RPS.sol": {
		"RPS": {
			"abi": [
				{
					"inputs": [
						{
							"internalType": "address",
							"name": "_timeUnit",
							"type": "address"
						},
						{
							"internalType": "address",
							"name": "_commitReveal",
							"type": "address"
						}
					],
					"stateMutability": "nonpayable",
					"type": "constructor"
				},
				{
					"inputs": [],
					"name": "addPlayer",
					"outputs": [],
					"stateMutability": "payable",
					"type": "function"
				},
				{
					"inputs": [
						{
							"internalType": "uint256",
							"name": "",
							"type": "uint256"
						}
					],
					"name": "allowPlayers",
					"outputs": [
						{
							"internalType": "address",
							"name": "",
							"type": "address"
						}
					],
					"stateMutability": "view",
					"type": "function"
				},
				{
					"inputs": [],
					"name": "cancelGame",
					"outputs": [],
					"stateMutability": "nonpayable",
					"type": "function"
				},
				{
					"inputs": [],
					"name": "commitReveal",
					"outputs": [
						{
							"internalType": "contract CommitReveal",
							"name": "",
							"type": "address"
						}
					],
					"stateMutability": "view",
					"type": "function"
				},
				{
					"inputs": [
						{
							"internalType": "uint256",
							"name": "choice",
							"type": "uint256"
						}
					],
					"name": "input",
					"outputs": [],
					"stateMutability": "nonpayable",
					"type": "function"
				},
				{
					"inputs": [],
					"name": "numInput",
					"outputs": [
						{
							"internalType": "uint256",
							"name": "",
							"type": "uint256"
						}
					],
					"stateMutability": "view",
					"type": "function"
				},
				{
					"inputs": [],
					"name": "numPlayer",
					"outputs": [
						{
							"internalType": "uint256",
							"name": "",
							"type": "uint256"
						}
					],
					"stateMutability": "view",
					"type": "function"
				},
				{
					"inputs": [
						{
							"internalType": "address",
							"name": "",
							"type": "address"
						}
					],
					"name": "player_choice",
					"outputs": [
						{
							"internalType": "uint256",
							"name": "",
							"type": "uint256"
						}
					],
					"stateMutability": "view",
					"type": "function"
				},
				{
					"inputs": [
						{
							"internalType": "address",
							"name": "",
							"type": "address"
						}
					],
					"name": "player_not_played",
					"outputs": [
						{
							"internalType": "bool",
							"name": "",
							"type": "bool"
						}
					],
					"stateMutability": "view",
					"type": "function"
				},
				{
					"inputs": [
						{
							"internalType": "uint256",
							"name": "",
							"type": "uint256"
						}
					],
					"name": "players",
					"outputs": [
						{
							"internalType": "address",
							"name": "",
							"type": "address"
						}
					],
					"stateMutability": "view",
					"type": "function"
				},
				{
					"inputs": [],
					"name": "reward",
					"outputs": [
						{
							"internalType": "uint256",
							"name": "",
							"type": "uint256"
						}
					],
					"stateMutability": "view",
					"type": "function"
				},
				{
					"inputs": [],
					"name": "timeLimit",
					"outputs": [
						{
							"internalType": "uint256",
							"name": "",
							"type": "uint256"
						}
					],
					"stateMutability": "view",
					"type": "function"
				},
				{
					"inputs": [],
					"name": "timeUnit",
					"outputs": [
						{
							"internalType": "contract TimeUnit",
							"name": "",
							"type": "address"
						}
					],
					"stateMutability": "view",
					"type": "function"
				}
			],
			"devdoc": {
				"kind": "dev",
				"methods": {},
				"version": 1
			},
			"evm": {
				"assembly": "    /* \"RPS.sol\":125:3317  contract RPS {... */\n  mstore(0x40, 0x80)\n    /* \"RPS.sol\":237:238  0 */\n  0x00\n    /* \"RPS.sol\":213:238  uint public numPlayer = 0 */\n  0x02\n  sstore\n    /* \"RPS.sol\":265:266  0 */\n  0x00\n    /* \"RPS.sol\":244:266  uint public reward = 0 */\n  0x03\n  sstore\n    /* \"RPS.sol\":467:673  address[] public allowPlayers = [0x5B38Da6a701c568545dCfcB03FcB875f56beddC4, 0xAb8483F64d9C6d1EcF9b849Ae677dD3315835cb2,0x4B20993Bc481177ec7E8f571ceCaE8A9e22C02db,0x78731D3Ca6b7E34aC0F824c42a7cC18A495cabaB] */\n  mload(0x40)\n  dup1\n  0x80\n  add\n  0x40\n  mstore\n  dup1\n    /* \"RPS.sol\":500:542  0x5B38Da6a701c568545dCfcB03FcB875f56beddC4 */\n  0x5b38da6a701c568545dcfcb03fcb875f56beddc4\n    /* \"RPS.sol\":467:673  address[] public allowPlayers = [0x5B38Da6a701c568545dCfcB03FcB875f56beddC4, 0xAb8483F64d9C6d1EcF9b849Ae677dD3315835cb2,0x4B20993Bc481177ec7E8f571ceCaE8A9e22C02db,0x78731D3Ca6b7E34aC0F824c42a7cC18A495cabaB] */\n  0xffffffffffffffffffffffffffffffffffffffff\n  and\n  0xffffffffffffffffffffffffffffffffffffffff\n  and\n  dup2\n  mstore\n  0x20\n  add\n    /* \"RPS.sol\":544:586  0xAb8483F64d9C6d1EcF9b849Ae677dD3315835cb2 */\n  0xab8483f64d9c6d1ecf9b849ae677dd3315835cb2\n    /* \"RPS.sol\":467:673  address[] public allowPlayers = [0x5B38Da6a701c568545dCfcB03FcB875f56beddC4, 0xAb8483F64d9C6d1EcF9b849Ae677dD3315835cb2,0x4B20993Bc481177ec7E8f571ceCaE8A9e22C02db,0x78731D3Ca6b7E34aC0F824c42a7cC18A495cabaB] */\n  0xffffffffffffffffffffffffffffffffffffffff\n  and\n  0xffffffffffffffffffffffffffffffffffffffff\n  and\n  dup2\n  mstore\n  0x20\n  add\n    /* \"RPS.sol\":587:629  0x4B20993Bc481177ec7E8f571ceCaE8A9e22C02db */\n  0x4b20993bc481177ec7e8f571cecae8a9e22c02db\n    /* \"RPS.sol\":467:673  address[] public allowPlayers = [0x5B38Da6a701c568545dCfcB03FcB875f56beddC4, 0xAb8483F64d9C6d1EcF9b849Ae677dD3315835cb2,0x4B20993Bc481177ec7E8f571ceCaE8A9e22C02db,0x78731D3Ca6b7E34aC0F824c42a7cC18A495cabaB] */\n  0xffffffffffffffffffffffffffffffffffffffff\n  and\n  0xffffffffffffffffffffffffffffffffffffffff\n  and\n  dup2\n  mstore\n  0x20\n  add\n    /* \"RPS.sol\":630:672  0x78731D3Ca6b7E34aC0F824c42a7cC18A495cabaB */\n  0x78731d3ca6b7e34ac0f824c42a7cc18a495cabab\n    /* \"RPS.sol\":467:673  address[] public allowPlayers = [0x5B38Da6a701c568545dCfcB03FcB875f56beddC4, 0xAb8483F64d9C6d1EcF9b849Ae677dD3315835cb2,0x4B20993Bc481177ec7E8f571ceCaE8A9e22C02db,0x78731D3Ca6b7E34aC0F824c42a7cC18A495cabaB] */\n  0xffffffffffffffffffffffffffffffffffffffff\n  and\n  0xffffffffffffffffffffffffffffffffffffffff\n  and\n  dup2\n  mstore\n  pop\n  0x07\n  swap1\n  0x04\n  tag_1\n  swap3\n  swap2\n  swap1\n  tag_2\n  jump\t// in\ntag_1:\n  pop\n    /* \"RPS.sol\":703:704  0 */\n  0x00\n    /* \"RPS.sol\":680:704  uint public numInput = 0 */\n  0x08\n  sstore\n    /* \"RPS.sol\":734:737  300 */\n  0x012c\n    /* \"RPS.sol\":710:737  uint public timeLimit = 300 */\n  0x09\n  sstore\n    /* \"RPS.sol\":744:896  constructor(address _timeUnit, address _commitReveal){... */\n  callvalue\n  dup1\n  iszero\n  tag_3\n  jumpi\n  0x00\n  dup1\n  revert\ntag_3:\n  pop\n  mload(0x40)\n  sub(codesize, bytecodeSize)\n  dup1\n  bytecodeSize\n  dup4\n  codecopy\n  dup2\n  dup2\n  add\n  0x40\n  mstore\n  dup2\n  add\n  swap1\n  tag_4\n  swap2\n  swap1\n  tag_5\n  jump\t// in\ntag_4:\n    /* \"RPS.sol\":827:836  _timeUnit */\n  dup2\n    /* \"RPS.sol\":807:815  timeUnit */\n  0x00\n  dup1\n    /* \"RPS.sol\":807:837  timeUnit = TimeUnit(_timeUnit) */\n  0x0100\n  exp\n  dup2\n  sload\n  dup2\n  0xffffffffffffffffffffffffffffffffffffffff\n  mul\n  not\n  and\n  swap1\n  dup4\n  0xffffffffffffffffffffffffffffffffffffffff\n  and\n  mul\n  or\n  swap1\n  sstore\n  pop\n    /* \"RPS.sol\":875:888  _commitReveal */\n  dup1\n    /* \"RPS.sol\":847:859  commitReveal */\n  0x01\n  0x00\n    /* \"RPS.sol\":847:889  commitReveal = CommitReveal(_commitReveal) */\n  0x0100\n  exp\n  dup2\n  sload\n  dup2\n  0xffffffffffffffffffffffffffffffffffffffff\n  mul\n  not\n  and\n  swap1\n  dup4\n  0xffffffffffffffffffffffffffffffffffffffff\n  and\n  mul\n  or\n  swap1\n  sstore\n  pop\n    /* \"RPS.sol\":744:896  constructor(address _timeUnit, address _commitReveal){... */\n  pop\n  pop\n    /* \"RPS.sol\":125:3317  contract RPS {... */\n  jump(tag_8)\ntag_2:\n  dup3\n  dup1\n  sload\n  dup3\n  dup3\n  sstore\n  swap1\n  0x00\n  mstore\n  keccak256(0x00, 0x20)\n  swap1\n  dup2\n  add\n  swap3\n  dup3\n  iszero\n  tag_9\n  jumpi\n  swap2\n  0x20\n  mul\n  dup3\n  add\ntag_10:\n  dup3\n  dup2\n  gt\n  iszero\n  tag_11\n  jumpi\n  dup3\n  mload\n  dup3\n  exp(0x0100, 0x00)\n  dup2\n  sload\n  dup2\n  0xffffffffffffffffffffffffffffffffffffffff\n  mul\n  not\n  and\n  swap1\n  dup4\n  0xffffffffffffffffffffffffffffffffffffffff\n  and\n  mul\n  or\n  swap1\n  sstore\n  pop\n  swap2\n  0x20\n  add\n  swap2\n  swap1\n  0x01\n  add\n  swap1\n  jump(tag_10)\ntag_11:\ntag_9:\n  pop\n  swap1\n  pop\n  tag_12\n  swap2\n  swap1\n  tag_13\n  jump\t// in\ntag_12:\n  pop\n  swap1\n  jump\t// out\ntag_13:\ntag_14:\n  dup1\n  dup3\n  gt\n  iszero\n  tag_15\n  jumpi\n  0x00\n  dup2\n  0x00\n  swap1\n  sstore\n  pop\n  0x01\n  add\n  jump(tag_14)\ntag_15:\n  pop\n  swap1\n  jump\t// out\n    /* \"#utility.yul\":88:205   */\ntag_17:\n    /* \"#utility.yul\":197:198   */\n  0x00\n    /* \"#utility.yul\":194:195   */\n  dup1\n    /* \"#utility.yul\":187:199   */\n  revert\n    /* \"#utility.yul\":334:460   */\ntag_19:\n    /* \"#utility.yul\":371:378   */\n  0x00\n    /* \"#utility.yul\":411:453   */\n  0xffffffffffffffffffffffffffffffffffffffff\n    /* \"#utility.yul\":404:409   */\n  dup3\n    /* \"#utility.yul\":400:454   */\n  and\n    /* \"#utility.yul\":389:454   */\n  swap1\n  pop\n    /* \"#utility.yul\":334:460   */\n  swap2\n  swap1\n  pop\n  jump\t// out\n    /* \"#utility.yul\":466:562   */\ntag_20:\n    /* \"#utility.yul\":503:510   */\n  0x00\n    /* \"#utility.yul\":532:556   */\n  tag_29\n    /* \"#utility.yul\":550:555   */\n  dup3\n    /* \"#utility.yul\":532:556   */\n  tag_19\n  jump\t// in\ntag_29:\n    /* \"#utility.yul\":521:556   */\n  swap1\n  pop\n    /* \"#utility.yul\":466:562   */\n  swap2\n  swap1\n  pop\n  jump\t// out\n    /* \"#utility.yul\":568:690   */\ntag_21:\n    /* \"#utility.yul\":641:665   */\n  tag_31\n    /* \"#utility.yul\":659:664   */\n  dup2\n    /* \"#utility.yul\":641:665   */\n  tag_20\n  jump\t// in\ntag_31:\n    /* \"#utility.yul\":634:639   */\n  dup2\n    /* \"#utility.yul\":631:666   */\n  eq\n    /* \"#utility.yul\":621:684   */\n  tag_32\n  jumpi\n    /* \"#utility.yul\":680:681   */\n  0x00\n    /* \"#utility.yul\":677:678   */\n  dup1\n    /* \"#utility.yul\":670:682   */\n  revert\n    /* \"#utility.yul\":621:684   */\ntag_32:\n    /* \"#utility.yul\":568:690   */\n  pop\n  jump\t// out\n    /* \"#utility.yul\":696:839   */\ntag_22:\n    /* \"#utility.yul\":753:758   */\n  0x00\n    /* \"#utility.yul\":784:790   */\n  dup2\n    /* \"#utility.yul\":778:791   */\n  mload\n    /* \"#utility.yul\":769:791   */\n  swap1\n  pop\n    /* \"#utility.yul\":800:833   */\n  tag_34\n    /* \"#utility.yul\":827:832   */\n  dup2\n    /* \"#utility.yul\":800:833   */\n  tag_21\n  jump\t// in\ntag_34:\n    /* \"#utility.yul\":696:839   */\n  swap3\n  swap2\n  pop\n  pop\n  jump\t// out\n    /* \"#utility.yul\":845:1352   */\ntag_5:\n    /* \"#utility.yul\":924:930   */\n  0x00\n    /* \"#utility.yul\":932:938   */\n  dup1\n    /* \"#utility.yul\":981:983   */\n  0x40\n    /* \"#utility.yul\":969:978   */\n  dup4\n    /* \"#utility.yul\":960:967   */\n  dup6\n    /* \"#utility.yul\":956:979   */\n  sub\n    /* \"#utility.yul\":952:984   */\n  slt\n    /* \"#utility.yul\":949:1068   */\n  iszero\n  tag_36\n  jumpi\n    /* \"#utility.yul\":987:1066   */\n  tag_37\n  tag_17\n  jump\t// in\ntag_37:\n    /* \"#utility.yul\":949:1068   */\ntag_36:\n    /* \"#utility.yul\":1107:1108   */\n  0x00\n    /* \"#utility.yul\":1132:1196   */\n  tag_38\n    /* \"#utility.yul\":1188:1195   */\n  dup6\n    /* \"#utility.yul\":1179:1185   */\n  dup3\n    /* \"#utility.yul\":1168:1177   */\n  dup7\n    /* \"#utility.yul\":1164:1186   */\n  add\n    /* \"#utility.yul\":1132:1196   */\n  tag_22\n  jump\t// in\ntag_38:\n    /* \"#utility.yul\":1122:1196   */\n  swap3\n  pop\n    /* \"#utility.yul\":1078:1206   */\n  pop\n    /* \"#utility.yul\":1245:1247   */\n  0x20\n    /* \"#utility.yul\":1271:1335   */\n  tag_39\n    /* \"#utility.yul\":1327:1334   */\n  dup6\n    /* \"#utility.yul\":1318:1324   */\n  dup3\n    /* \"#utility.yul\":1307:1316   */\n  dup7\n    /* \"#utility.yul\":1303:1325   */\n  add\n    /* \"#utility.yul\":1271:1335   */\n  tag_22\n  jump\t// in\ntag_39:\n    /* \"#utility.yul\":1261:1335   */\n  swap2\n  pop\n    /* \"#utility.yul\":1216:1345   */\n  pop\n    /* \"#utility.yul\":845:1352   */\n  swap3\n  pop\n  swap3\n  swap1\n  pop\n  jump\t// out\n    /* \"RPS.sol\":125:3317  contract RPS {... */\ntag_8:\n  dataSize(sub_0)\n  dup1\n  dataOffset(sub_0)\n  0x00\n  codecopy\n  0x00\n  return\nstop\n\nsub_0: assembly {\n        /* \"RPS.sol\":125:3317  contract RPS {... */\n      mstore(0x40, 0x80)\n      jumpi(tag_1, lt(calldatasize, 0x04))\n      shr(0xe0, calldataload(0x00))\n      dup1\n      0x90d5d0c3\n      gt\n      tag_15\n      jumpi\n      dup1\n      0xc08d1fe5\n      gt\n      tag_16\n      jumpi\n      dup1\n      0xc08d1fe5\n      eq\n      tag_11\n      jumpi\n      dup1\n      0xce6e1c4e\n      eq\n      tag_12\n      jumpi\n      dup1\n      0xd84c1ac9\n      eq\n      tag_13\n      jumpi\n      dup1\n      0xf71d96cb\n      eq\n      tag_14\n      jumpi\n      jump(tag_1)\n    tag_16:\n      dup1\n      0x90d5d0c3\n      eq\n      tag_8\n      jumpi\n      dup1\n      0x9d7b3f2d\n      eq\n      tag_9\n      jumpi\n      dup1\n      0xa040478d\n      eq\n      tag_10\n      jumpi\n      jump(tag_1)\n    tag_15:\n      dup1\n      0x086f7815\n      eq\n      tag_2\n      jumpi\n      dup1\n      0x190cf745\n      eq\n      tag_3\n      jumpi\n      dup1\n      0x228cb733\n      eq\n      tag_4\n      jumpi\n      dup1\n      0x27b5db8a\n      eq\n      tag_5\n      jumpi\n      dup1\n      0x3c6a7f9b\n      eq\n      tag_6\n      jumpi\n      dup1\n      0x55d07388\n      eq\n      tag_7\n      jumpi\n    tag_1:\n      0x00\n      dup1\n      revert\n        /* \"RPS.sol\":680:704  uint public numInput = 0 */\n    tag_2:\n      callvalue\n      dup1\n      iszero\n      tag_17\n      jumpi\n      0x00\n      dup1\n      revert\n    tag_17:\n      pop\n      tag_18\n      tag_19\n      jump\t// in\n    tag_18:\n      mload(0x40)\n      tag_20\n      swap2\n      swap1\n      tag_21\n      jump\t// in\n    tag_20:\n      mload(0x40)\n      dup1\n      swap2\n      sub\n      swap1\n      return\n        /* \"RPS.sol\":385:434  mapping(address => bool) public player_not_played */\n    tag_3:\n      callvalue\n      dup1\n      iszero\n      tag_22\n      jumpi\n      0x00\n      dup1\n      revert\n    tag_22:\n      pop\n      tag_23\n      0x04\n      dup1\n      calldatasize\n      sub\n      dup2\n      add\n      swap1\n      tag_24\n      swap2\n      swap1\n      tag_25\n      jump\t// in\n    tag_24:\n      tag_26\n      jump\t// in\n    tag_23:\n      mload(0x40)\n      tag_27\n      swap2\n      swap1\n      tag_28\n      jump\t// in\n    tag_27:\n      mload(0x40)\n      dup1\n      swap2\n      sub\n      swap1\n      return\n        /* \"RPS.sol\":244:266  uint public reward = 0 */\n    tag_4:\n      callvalue\n      dup1\n      iszero\n      tag_29\n      jumpi\n      0x00\n      dup1\n      revert\n    tag_29:\n      pop\n      tag_30\n      tag_31\n      jump\t// in\n    tag_30:\n      mload(0x40)\n      tag_32\n      swap2\n      swap1\n      tag_21\n      jump\t// in\n    tag_32:\n      mload(0x40)\n      dup1\n      swap2\n      sub\n      swap1\n      return\n        /* \"RPS.sol\":901:1525  function addPlayer() public payable {... */\n    tag_5:\n      tag_33\n      tag_34\n      jump\t// in\n    tag_33:\n      stop\n        /* \"RPS.sol\":144:168  TimeUnit public timeUnit */\n    tag_6:\n      callvalue\n      dup1\n      iszero\n      tag_35\n      jumpi\n      0x00\n      dup1\n      revert\n    tag_35:\n      pop\n      tag_36\n      tag_37\n      jump\t// in\n    tag_36:\n      mload(0x40)\n      tag_38\n      swap2\n      swap1\n      tag_39\n      jump\t// in\n    tag_38:\n      mload(0x40)\n      dup1\n      swap2\n      sub\n      swap1\n      return\n        /* \"RPS.sol\":467:673  address[] public allowPlayers = [0x5B38Da6a701c568545dCfcB03FcB875f56beddC4, 0xAb8483F64d9C6d1EcF9b849Ae677dD3315835cb2,0x4B20993Bc481177ec7E8f571ceCaE8A9e22C02db,0x78731D3Ca6b7E34aC0F824c42a7cC18A495cabaB] */\n    tag_7:\n      callvalue\n      dup1\n      iszero\n      tag_40\n      jumpi\n      0x00\n      dup1\n      revert\n    tag_40:\n      pop\n      tag_41\n      0x04\n      dup1\n      calldatasize\n      sub\n      dup2\n      add\n      swap1\n      tag_42\n      swap2\n      swap1\n      tag_43\n      jump\t// in\n    tag_42:\n      tag_44\n      jump\t// in\n    tag_41:\n      mload(0x40)\n      tag_45\n      swap2\n      swap1\n      tag_46\n      jump\t// in\n    tag_45:\n      mload(0x40)\n      dup1\n      swap2\n      sub\n      swap1\n      return\n        /* \"RPS.sol\":213:238  uint public numPlayer = 0 */\n    tag_8:\n      callvalue\n      dup1\n      iszero\n      tag_47\n      jumpi\n      0x00\n      dup1\n      revert\n    tag_47:\n      pop\n      tag_48\n      tag_49\n      jump\t// in\n    tag_48:\n      mload(0x40)\n      tag_50\n      swap2\n      swap1\n      tag_21\n      jump\t// in\n    tag_50:\n      mload(0x40)\n      dup1\n      swap2\n      sub\n      swap1\n      return\n        /* \"RPS.sol\":174:206  CommitReveal public commitReveal */\n    tag_9:\n      callvalue\n      dup1\n      iszero\n      tag_51\n      jumpi\n      0x00\n      dup1\n      revert\n    tag_51:\n      pop\n      tag_52\n      tag_53\n      jump\t// in\n    tag_52:\n      mload(0x40)\n      tag_54\n      swap2\n      swap1\n      tag_55\n      jump\t// in\n    tag_54:\n      mload(0x40)\n      dup1\n      swap2\n      sub\n      swap1\n      return\n        /* \"RPS.sol\":272:318  mapping (address => uint) public player_choice */\n    tag_10:\n      callvalue\n      dup1\n      iszero\n      tag_56\n      jumpi\n      0x00\n      dup1\n      revert\n    tag_56:\n      pop\n      tag_57\n      0x04\n      dup1\n      calldatasize\n      sub\n      dup2\n      add\n      swap1\n      tag_58\n      swap2\n      swap1\n      tag_25\n      jump\t// in\n    tag_58:\n      tag_59\n      jump\t// in\n    tag_57:\n      mload(0x40)\n      tag_60\n      swap2\n      swap1\n      tag_21\n      jump\t// in\n    tag_60:\n      mload(0x40)\n      dup1\n      swap2\n      sub\n      swap1\n      return\n        /* \"RPS.sol\":710:737  uint public timeLimit = 300 */\n    tag_11:\n      callvalue\n      dup1\n      iszero\n      tag_61\n      jumpi\n      0x00\n      dup1\n      revert\n    tag_61:\n      pop\n      tag_62\n      tag_63\n      jump\t// in\n    tag_62:\n      mload(0x40)\n      tag_64\n      swap2\n      swap1\n      tag_21\n      jump\t// in\n    tag_64:\n      mload(0x40)\n      dup1\n      swap2\n      sub\n      swap1\n      return\n        /* \"RPS.sol\":1531:1929  function input(uint choice) public  {... */\n    tag_12:\n      callvalue\n      dup1\n      iszero\n      tag_65\n      jumpi\n      0x00\n      dup1\n      revert\n    tag_65:\n      pop\n      tag_66\n      0x04\n      dup1\n      calldatasize\n      sub\n      dup2\n      add\n      swap1\n      tag_67\n      swap2\n      swap1\n      tag_43\n      jump\t// in\n    tag_67:\n      tag_68\n      jump\t// in\n    tag_66:\n      stop\n        /* \"RPS.sol\":2673:3210  function cancelGame() public {... */\n    tag_13:\n      callvalue\n      dup1\n      iszero\n      tag_69\n      jumpi\n      0x00\n      dup1\n      revert\n    tag_69:\n      pop\n      tag_70\n      tag_71\n      jump\t// in\n    tag_70:\n      stop\n        /* \"RPS.sol\":440:464  address[] public players */\n    tag_14:\n      callvalue\n      dup1\n      iszero\n      tag_72\n      jumpi\n      0x00\n      dup1\n      revert\n    tag_72:\n      pop\n      tag_73\n      0x04\n      dup1\n      calldatasize\n      sub\n      dup2\n      add\n      swap1\n      tag_74\n      swap2\n      swap1\n      tag_43\n      jump\t// in\n    tag_74:\n      tag_75\n      jump\t// in\n    tag_73:\n      mload(0x40)\n      tag_76\n      swap2\n      swap1\n      tag_46\n      jump\t// in\n    tag_76:\n      mload(0x40)\n      dup1\n      swap2\n      sub\n      swap1\n      return\n        /* \"RPS.sol\":680:704  uint public numInput = 0 */\n    tag_19:\n      sload(0x08)\n      dup2\n      jump\t// out\n        /* \"RPS.sol\":385:434  mapping(address => bool) public player_not_played */\n    tag_26:\n      mstore(0x20, 0x05)\n      dup1\n      0x00\n      mstore\n      keccak256(0x00, 0x40)\n      0x00\n      swap2\n      pop\n      sload\n      swap1\n      0x0100\n      exp\n      swap1\n      div\n      0xff\n      and\n      dup2\n      jump\t// out\n        /* \"RPS.sol\":244:266  uint public reward = 0 */\n    tag_31:\n      sload(0x03)\n      dup2\n      jump\t// out\n        /* \"RPS.sol\":901:1525  function addPlayer() public payable {... */\n    tag_34:\n        /* \"RPS.sol\":967:968  2 */\n      0x02\n        /* \"RPS.sol\":955:964  numPlayer */\n      dup1\n      sload\n        /* \"RPS.sol\":955:968  numPlayer < 2 */\n      lt\n        /* \"RPS.sol\":947:969  require(numPlayer < 2) */\n      tag_78\n      jumpi\n      0x00\n      dup1\n      revert\n    tag_78:\n        /* \"RPS.sol\":995:996  0 */\n      0x00\n        /* \"RPS.sol\":983:992  numPlayer */\n      sload(0x02)\n        /* \"RPS.sol\":983:996  numPlayer > 0 */\n      gt\n        /* \"RPS.sol\":979:1056  if (numPlayer > 0) {... */\n      iszero\n      tag_79\n      jumpi\n        /* \"RPS.sol\":1034:1041  players */\n      0x06\n        /* \"RPS.sol\":1042:1043  0 */\n      0x00\n        /* \"RPS.sol\":1034:1044  players[0] */\n      dup2\n      sload\n      dup2\n      lt\n      tag_80\n      jumpi\n      tag_81\n      tag_82\n      jump\t// in\n    tag_81:\n    tag_80:\n      swap1\n      0x00\n      mstore\n      keccak256(0x00, 0x20)\n      add\n      0x00\n      swap1\n      sload\n      swap1\n      0x0100\n      exp\n      swap1\n      div\n      0xffffffffffffffffffffffffffffffffffffffff\n      and\n        /* \"RPS.sol\":1020:1044  msg.sender != players[0] */\n      0xffffffffffffffffffffffffffffffffffffffff\n      and\n        /* \"RPS.sol\":1020:1030  msg.sender */\n      caller\n        /* \"RPS.sol\":1020:1044  msg.sender != players[0] */\n      0xffffffffffffffffffffffffffffffffffffffff\n      and\n      sub\n        /* \"RPS.sol\":1012:1045  require(msg.sender != players[0]) */\n      tag_84\n      jumpi\n      0x00\n      dup1\n      revert\n    tag_84:\n        /* \"RPS.sol\":979:1056  if (numPlayer > 0) {... */\n    tag_79:\n        /* \"RPS.sol\":1086:1093  1 ether */\n      0x0de0b6b3a7640000\n        /* \"RPS.sol\":1073:1082  msg.value */\n      callvalue\n        /* \"RPS.sol\":1073:1093  msg.value == 1 ether */\n      eq\n        /* \"RPS.sol\":1065:1094  require(msg.value == 1 ether) */\n      tag_85\n      jumpi\n      0x00\n      dup1\n      revert\n    tag_85:\n        /* \"RPS.sol\":1120:1130  msg.sender */\n      caller\n        /* \"RPS.sol\":1101:1130  allowPlayers[0] != msg.sender */\n      0xffffffffffffffffffffffffffffffffffffffff\n      and\n        /* \"RPS.sol\":1101:1113  allowPlayers */\n      0x07\n        /* \"RPS.sol\":1114:1115  0 */\n      0x00\n        /* \"RPS.sol\":1101:1116  allowPlayers[0] */\n      dup2\n      sload\n      dup2\n      lt\n      tag_86\n      jumpi\n      tag_87\n      tag_82\n      jump\t// in\n    tag_87:\n    tag_86:\n      swap1\n      0x00\n      mstore\n      keccak256(0x00, 0x20)\n      add\n      0x00\n      swap1\n      sload\n      swap1\n      0x0100\n      exp\n      swap1\n      div\n      0xffffffffffffffffffffffffffffffffffffffff\n      and\n        /* \"RPS.sol\":1101:1130  allowPlayers[0] != msg.sender */\n      0xffffffffffffffffffffffffffffffffffffffff\n      and\n      eq\n      iszero\n        /* \"RPS.sol\":1101:1163  allowPlayers[0] != msg.sender && allowPlayers[1] != msg.sender */\n      dup1\n      iszero\n      tag_89\n      jumpi\n      pop\n        /* \"RPS.sol\":1153:1163  msg.sender */\n      caller\n        /* \"RPS.sol\":1134:1163  allowPlayers[1] != msg.sender */\n      0xffffffffffffffffffffffffffffffffffffffff\n      and\n        /* \"RPS.sol\":1134:1146  allowPlayers */\n      0x07\n        /* \"RPS.sol\":1147:1148  1 */\n      0x01\n        /* \"RPS.sol\":1134:1149  allowPlayers[1] */\n      dup2\n      sload\n      dup2\n      lt\n      tag_90\n      jumpi\n      tag_91\n      tag_82\n      jump\t// in\n    tag_91:\n    tag_90:\n      swap1\n      0x00\n      mstore\n      keccak256(0x00, 0x20)\n      add\n      0x00\n      swap1\n      sload\n      swap1\n      0x0100\n      exp\n      swap1\n      div\n      0xffffffffffffffffffffffffffffffffffffffff\n      and\n        /* \"RPS.sol\":1134:1163  allowPlayers[1] != msg.sender */\n      0xffffffffffffffffffffffffffffffffffffffff\n      and\n      eq\n      iszero\n        /* \"RPS.sol\":1101:1163  allowPlayers[0] != msg.sender && allowPlayers[1] != msg.sender */\n    tag_89:\n        /* \"RPS.sol\":1101:1196  allowPlayers[0] != msg.sender && allowPlayers[1] != msg.sender && allowPlayers[2] != msg.sender */\n      dup1\n      iszero\n      tag_93\n      jumpi\n      pop\n        /* \"RPS.sol\":1186:1196  msg.sender */\n      caller\n        /* \"RPS.sol\":1167:1196  allowPlayers[2] != msg.sender */\n      0xffffffffffffffffffffffffffffffffffffffff\n      and\n        /* \"RPS.sol\":1167:1179  allowPlayers */\n      0x07\n        /* \"RPS.sol\":1180:1181  2 */\n      0x02\n        /* \"RPS.sol\":1167:1182  allowPlayers[2] */\n      dup2\n      sload\n      dup2\n      lt\n      tag_94\n      jumpi\n      tag_95\n      tag_82\n      jump\t// in\n    tag_95:\n    tag_94:\n      swap1\n      0x00\n      mstore\n      keccak256(0x00, 0x20)\n      add\n      0x00\n      swap1\n      sload\n      swap1\n      0x0100\n      exp\n      swap1\n      div\n      0xffffffffffffffffffffffffffffffffffffffff\n      and\n        /* \"RPS.sol\":1167:1196  allowPlayers[2] != msg.sender */\n      0xffffffffffffffffffffffffffffffffffffffff\n      and\n      eq\n      iszero\n        /* \"RPS.sol\":1101:1196  allowPlayers[0] != msg.sender && allowPlayers[1] != msg.sender && allowPlayers[2] != msg.sender */\n    tag_93:\n        /* \"RPS.sol\":1101:1229  allowPlayers[0] != msg.sender && allowPlayers[1] != msg.sender && allowPlayers[2] != msg.sender && allowPlayers[3] != msg.sender */\n      dup1\n      iszero\n      tag_97\n      jumpi\n      pop\n        /* \"RPS.sol\":1219:1229  msg.sender */\n      caller\n        /* \"RPS.sol\":1200:1229  allowPlayers[3] != msg.sender */\n      0xffffffffffffffffffffffffffffffffffffffff\n      and\n        /* \"RPS.sol\":1200:1212  allowPlayers */\n      0x07\n        /* \"RPS.sol\":1213:1214  3 */\n      0x03\n        /* \"RPS.sol\":1200:1215  allowPlayers[3] */\n      dup2\n      sload\n      dup2\n      lt\n      tag_98\n      jumpi\n      tag_99\n      tag_82\n      jump\t// in\n    tag_99:\n    tag_98:\n      swap1\n      0x00\n      mstore\n      keccak256(0x00, 0x20)\n      add\n      0x00\n      swap1\n      sload\n      swap1\n      0x0100\n      exp\n      swap1\n      div\n      0xffffffffffffffffffffffffffffffffffffffff\n      and\n        /* \"RPS.sol\":1200:1229  allowPlayers[3] != msg.sender */\n      0xffffffffffffffffffffffffffffffffffffffff\n      and\n      eq\n      iszero\n        /* \"RPS.sol\":1101:1229  allowPlayers[0] != msg.sender && allowPlayers[1] != msg.sender && allowPlayers[2] != msg.sender && allowPlayers[3] != msg.sender */\n    tag_97:\n        /* \"RPS.sol\":1098:1295  if(allowPlayers[0] != msg.sender && allowPlayers[1] != msg.sender && allowPlayers[2] != msg.sender && allowPlayers[3] != msg.sender){... */\n      iszero\n      tag_101\n      jumpi\n        /* \"RPS.sol\":1243:1248  false */\n      0x00\n        /* \"RPS.sol\":1235:1290  require(false, \"You are not allowed to play this game\") */\n      tag_102\n      jumpi\n      mload(0x40)\n      0x08c379a000000000000000000000000000000000000000000000000000000000\n      dup2\n      mstore\n      0x04\n      add\n      tag_103\n      swap1\n      tag_104\n      jump\t// in\n    tag_103:\n      mload(0x40)\n      dup1\n      swap2\n      sub\n      swap1\n      revert\n    tag_102:\n        /* \"RPS.sol\":1098:1295  if(allowPlayers[0] != msg.sender && allowPlayers[1] != msg.sender && allowPlayers[2] != msg.sender && allowPlayers[3] != msg.sender){... */\n    tag_101:\n        /* \"RPS.sol\":1314:1323  msg.value */\n      callvalue\n        /* \"RPS.sol\":1304:1310  reward */\n      0x03\n      0x00\n        /* \"RPS.sol\":1304:1323  reward += msg.value */\n      dup3\n      dup3\n      sload\n      tag_105\n      swap2\n      swap1\n      tag_106\n      jump\t// in\n    tag_105:\n      swap3\n      pop\n      pop\n      dup2\n      swap1\n      sstore\n      pop\n        /* \"RPS.sol\":1365:1369  true */\n      0x01\n        /* \"RPS.sol\":1333:1350  player_not_played */\n      0x05\n        /* \"RPS.sol\":1333:1362  player_not_played[msg.sender] */\n      0x00\n        /* \"RPS.sol\":1351:1361  msg.sender */\n      caller\n        /* \"RPS.sol\":1333:1362  player_not_played[msg.sender] */\n      0xffffffffffffffffffffffffffffffffffffffff\n      and\n      0xffffffffffffffffffffffffffffffffffffffff\n      and\n      dup2\n      mstore\n      0x20\n      add\n      swap1\n      dup2\n      mstore\n      0x20\n      add\n      0x00\n      keccak256\n      0x00\n        /* \"RPS.sol\":1333:1369  player_not_played[msg.sender] = true */\n      0x0100\n      exp\n      dup2\n      sload\n      dup2\n      0xff\n      mul\n      not\n      and\n      swap1\n      dup4\n      iszero\n      iszero\n      mul\n      or\n      swap1\n      sstore\n      pop\n        /* \"RPS.sol\":1379:1386  players */\n      0x06\n        /* \"RPS.sol\":1392:1402  msg.sender */\n      caller\n        /* \"RPS.sol\":1379:1403  players.push(msg.sender) */\n      swap1\n      dup1\n      0x01\n      dup2\n      sload\n      add\n      dup1\n      dup3\n      sstore\n      dup1\n      swap2\n      pop\n      pop\n      0x01\n      swap1\n      sub\n      swap1\n      0x00\n      mstore\n      keccak256(0x00, 0x20)\n      add\n      0x00\n      swap1\n      swap2\n      swap1\n      swap2\n      swap1\n      swap2\n      0x0100\n      exp\n      dup2\n      sload\n      dup2\n      0xffffffffffffffffffffffffffffffffffffffff\n      mul\n      not\n      and\n      swap1\n      dup4\n      0xffffffffffffffffffffffffffffffffffffffff\n      and\n      mul\n      or\n      swap1\n      sstore\n      pop\n        /* \"RPS.sol\":1413:1422  numPlayer */\n      0x02\n      0x00\n        /* \"RPS.sol\":1413:1424  numPlayer++ */\n      dup2\n      sload\n      dup1\n      swap3\n      swap2\n      swap1\n      tag_108\n      swap1\n      tag_109\n      jump\t// in\n    tag_108:\n      swap2\n      swap1\n      pop\n      sstore\n      pop\n        /* \"RPS.sol\":1469:1470  1 */\n      0x01\n        /* \"RPS.sol\":1456:1465  numPlayer */\n      sload(0x02)\n        /* \"RPS.sol\":1456:1470  numPlayer == 1 */\n      sub\n        /* \"RPS.sol\":1453:1519  if(numPlayer == 1){... */\n      tag_110\n      jumpi\n        /* \"RPS.sol\":1485:1493  timeUnit */\n      0x00\n      dup1\n      sload\n      swap1\n      0x0100\n      exp\n      swap1\n      div\n      0xffffffffffffffffffffffffffffffffffffffff\n      and\n        /* \"RPS.sol\":1485:1506  timeUnit.setStartTime */\n      0xffffffffffffffffffffffffffffffffffffffff\n      and\n      0xa63f7c53\n        /* \"RPS.sol\":1485:1508  timeUnit.setStartTime() */\n      mload(0x40)\n      dup2\n      0xffffffff\n      and\n      0xe0\n      shl\n      dup2\n      mstore\n      0x04\n      add\n      0x00\n      mload(0x40)\n      dup1\n      dup4\n      sub\n      dup2\n      0x00\n      dup8\n      dup1\n      extcodesize\n      iszero\n      dup1\n      iszero\n      tag_111\n      jumpi\n      0x00\n      dup1\n      revert\n    tag_111:\n      pop\n      gas\n      call\n      iszero\n      dup1\n      iszero\n      tag_113\n      jumpi\n      returndatasize\n      0x00\n      dup1\n      returndatacopy\n      revert(0x00, returndatasize)\n    tag_113:\n      pop\n      pop\n      pop\n      pop\n        /* \"RPS.sol\":1453:1519  if(numPlayer == 1){... */\n    tag_110:\n        /* \"RPS.sol\":901:1525  function addPlayer() public payable {... */\n      jump\t// out\n        /* \"RPS.sol\":144:168  TimeUnit public timeUnit */\n    tag_37:\n      0x00\n      dup1\n      sload\n      swap1\n      0x0100\n      exp\n      swap1\n      div\n      0xffffffffffffffffffffffffffffffffffffffff\n      and\n      dup2\n      jump\t// out\n        /* \"RPS.sol\":467:673  address[] public allowPlayers = [0x5B38Da6a701c568545dCfcB03FcB875f56beddC4, 0xAb8483F64d9C6d1EcF9b849Ae677dD3315835cb2,0x4B20993Bc481177ec7E8f571ceCaE8A9e22C02db,0x78731D3Ca6b7E34aC0F824c42a7cC18A495cabaB] */\n    tag_44:\n      0x07\n      dup2\n      dup2\n      sload\n      dup2\n      lt\n      tag_114\n      jumpi\n      0x00\n      dup1\n      revert\n    tag_114:\n      swap1\n      0x00\n      mstore\n      keccak256(0x00, 0x20)\n      add\n      0x00\n      swap2\n      pop\n      sload\n      swap1\n      0x0100\n      exp\n      swap1\n      div\n      0xffffffffffffffffffffffffffffffffffffffff\n      and\n      dup2\n      jump\t// out\n        /* \"RPS.sol\":213:238  uint public numPlayer = 0 */\n    tag_49:\n      sload(0x02)\n      dup2\n      jump\t// out\n        /* \"RPS.sol\":174:206  CommitReveal public commitReveal */\n    tag_53:\n      0x01\n      0x00\n      swap1\n      sload\n      swap1\n      0x0100\n      exp\n      swap1\n      div\n      0xffffffffffffffffffffffffffffffffffffffff\n      and\n      dup2\n      jump\t// out\n        /* \"RPS.sol\":272:318  mapping (address => uint) public player_choice */\n    tag_59:\n      mstore(0x20, 0x04)\n      dup1\n      0x00\n      mstore\n      keccak256(0x00, 0x40)\n      0x00\n      swap2\n      pop\n      swap1\n      pop\n      sload\n      dup2\n      jump\t// out\n        /* \"RPS.sol\":710:737  uint public timeLimit = 300 */\n    tag_63:\n      sload(0x09)\n      dup2\n      jump\t// out\n        /* \"RPS.sol\":1531:1929  function input(uint choice) public  {... */\n    tag_68:\n        /* \"RPS.sol\":1598:1599  2 */\n      0x02\n        /* \"RPS.sol\":1585:1594  numPlayer */\n      dup1\n      sload\n        /* \"RPS.sol\":1585:1599  numPlayer == 2 */\n      eq\n        /* \"RPS.sol\":1577:1600  require(numPlayer == 2) */\n      tag_117\n      jumpi\n      0x00\n      dup1\n      revert\n    tag_117:\n        /* \"RPS.sol\":1618:1635  player_not_played */\n      0x05\n        /* \"RPS.sol\":1618:1647  player_not_played[msg.sender] */\n      0x00\n        /* \"RPS.sol\":1636:1646  msg.sender */\n      caller\n        /* \"RPS.sol\":1618:1647  player_not_played[msg.sender] */\n      0xffffffffffffffffffffffffffffffffffffffff\n      and\n      0xffffffffffffffffffffffffffffffffffffffff\n      and\n      dup2\n      mstore\n      0x20\n      add\n      swap1\n      dup2\n      mstore\n      0x20\n      add\n      0x00\n      keccak256\n      0x00\n      swap1\n      sload\n      swap1\n      0x0100\n      exp\n      swap1\n      div\n      0xff\n      and\n        /* \"RPS.sol\":1610:1648  require(player_not_played[msg.sender]) */\n      tag_118\n      jumpi\n      0x00\n      dup1\n      revert\n    tag_118:\n        /* \"RPS.sol\":1676:1677  0 */\n      0x00\n        /* \"RPS.sol\":1666:1672  choice */\n      dup2\n        /* \"RPS.sol\":1666:1677  choice == 0 */\n      eq\n        /* \"RPS.sol\":1666:1692  choice == 0 || choice == 1 */\n      dup1\n      tag_119\n      jumpi\n      pop\n        /* \"RPS.sol\":1691:1692  1 */\n      0x01\n        /* \"RPS.sol\":1681:1687  choice */\n      dup2\n        /* \"RPS.sol\":1681:1692  choice == 1 */\n      eq\n        /* \"RPS.sol\":1666:1692  choice == 0 || choice == 1 */\n    tag_119:\n        /* \"RPS.sol\":1666:1707  choice == 0 || choice == 1 || choice == 2 */\n      dup1\n      tag_120\n      jumpi\n      pop\n        /* \"RPS.sol\":1706:1707  2 */\n      0x02\n        /* \"RPS.sol\":1696:1702  choice */\n      dup2\n        /* \"RPS.sol\":1696:1707  choice == 2 */\n      eq\n        /* \"RPS.sol\":1666:1707  choice == 0 || choice == 1 || choice == 2 */\n    tag_120:\n        /* \"RPS.sol\":1666:1722  choice == 0 || choice == 1 || choice == 2 || choice == 3 */\n      dup1\n      tag_121\n      jumpi\n      pop\n        /* \"RPS.sol\":1721:1722  3 */\n      0x03\n        /* \"RPS.sol\":1711:1717  choice */\n      dup2\n        /* \"RPS.sol\":1711:1722  choice == 3 */\n      eq\n        /* \"RPS.sol\":1666:1722  choice == 0 || choice == 1 || choice == 2 || choice == 3 */\n    tag_121:\n        /* \"RPS.sol\":1666:1737  choice == 0 || choice == 1 || choice == 2 || choice == 3 || choice == 4 */\n      dup1\n      tag_122\n      jumpi\n      pop\n        /* \"RPS.sol\":1736:1737  4 */\n      0x04\n        /* \"RPS.sol\":1726:1732  choice */\n      dup2\n        /* \"RPS.sol\":1726:1737  choice == 4 */\n      eq\n        /* \"RPS.sol\":1666:1737  choice == 0 || choice == 1 || choice == 2 || choice == 3 || choice == 4 */\n    tag_122:\n        /* \"RPS.sol\":1658:1738  require(choice == 0 || choice == 1 || choice == 2 || choice == 3 || choice == 4) */\n      tag_123\n      jumpi\n      0x00\n      dup1\n      revert\n    tag_123:\n        /* \"RPS.sol\":1776:1782  choice */\n      dup1\n        /* \"RPS.sol\":1748:1761  player_choice */\n      0x04\n        /* \"RPS.sol\":1748:1773  player_choice[msg.sender] */\n      0x00\n        /* \"RPS.sol\":1762:1772  msg.sender */\n      caller\n        /* \"RPS.sol\":1748:1773  player_choice[msg.sender] */\n      0xffffffffffffffffffffffffffffffffffffffff\n      and\n      0xffffffffffffffffffffffffffffffffffffffff\n      and\n      dup2\n      mstore\n      0x20\n      add\n      swap1\n      dup2\n      mstore\n      0x20\n      add\n      0x00\n      keccak256\n        /* \"RPS.sol\":1748:1782  player_choice[msg.sender] = choice */\n      dup2\n      swap1\n      sstore\n      pop\n        /* \"RPS.sol\":1824:1829  false */\n      0x00\n        /* \"RPS.sol\":1792:1809  player_not_played */\n      0x05\n        /* \"RPS.sol\":1792:1821  player_not_played[msg.sender] */\n      0x00\n        /* \"RPS.sol\":1810:1820  msg.sender */\n      caller\n        /* \"RPS.sol\":1792:1821  player_not_played[msg.sender] */\n      0xffffffffffffffffffffffffffffffffffffffff\n      and\n      0xffffffffffffffffffffffffffffffffffffffff\n      and\n      dup2\n      mstore\n      0x20\n      add\n      swap1\n      dup2\n      mstore\n      0x20\n      add\n      0x00\n      keccak256\n      0x00\n        /* \"RPS.sol\":1792:1829  player_not_played[msg.sender] = false */\n      0x0100\n      exp\n      dup2\n      sload\n      dup2\n      0xff\n      mul\n      not\n      and\n      swap1\n      dup4\n      iszero\n      iszero\n      mul\n      or\n      swap1\n      sstore\n      pop\n        /* \"RPS.sol\":1839:1847  numInput */\n      0x08\n      0x00\n        /* \"RPS.sol\":1839:1849  numInput++ */\n      dup2\n      sload\n      dup1\n      swap3\n      swap2\n      swap1\n      tag_124\n      swap1\n      tag_109\n      jump\t// in\n    tag_124:\n      swap2\n      swap1\n      pop\n      sstore\n      pop\n        /* \"RPS.sol\":1875:1876  2 */\n      0x02\n        /* \"RPS.sol\":1863:1871  numInput */\n      sload(0x08)\n        /* \"RPS.sol\":1863:1876  numInput == 2 */\n      sub\n        /* \"RPS.sol\":1859:1923  if (numInput == 2) {... */\n      tag_125\n      jumpi\n        /* \"RPS.sol\":1892:1912  _checkWinnerAndPay() */\n      tag_126\n        /* \"RPS.sol\":1892:1910  _checkWinnerAndPay */\n      tag_127\n        /* \"RPS.sol\":1892:1912  _checkWinnerAndPay() */\n      jump\t// in\n    tag_126:\n        /* \"RPS.sol\":1859:1923  if (numInput == 2) {... */\n    tag_125:\n        /* \"RPS.sol\":1531:1929  function input(uint choice) public  {... */\n      pop\n      jump\t// out\n        /* \"RPS.sol\":2673:3210  function cancelGame() public {... */\n    tag_71:\n        /* \"RPS.sol\":2728:2729  1 */\n      0x01\n        /* \"RPS.sol\":2715:2724  numPlayer */\n      sload(0x02)\n        /* \"RPS.sol\":2715:2729  numPlayer == 1 */\n      eq\n        /* \"RPS.sol\":2715:2771  numPlayer == 1 && timeUnit.elapsedSeconds() >= timeLimit */\n      dup1\n      iszero\n      tag_129\n      jumpi\n      pop\n        /* \"RPS.sol\":2762:2771  timeLimit */\n      sload(0x09)\n        /* \"RPS.sol\":2733:2741  timeUnit */\n      0x00\n      dup1\n      sload\n      swap1\n      0x0100\n      exp\n      swap1\n      div\n      0xffffffffffffffffffffffffffffffffffffffff\n      and\n        /* \"RPS.sol\":2733:2756  timeUnit.elapsedSeconds */\n      0xffffffffffffffffffffffffffffffffffffffff\n      and\n      0xbc06b8cd\n        /* \"RPS.sol\":2733:2758  timeUnit.elapsedSeconds() */\n      mload(0x40)\n      dup2\n      0xffffffff\n      and\n      0xe0\n      shl\n      dup2\n      mstore\n      0x04\n      add\n      0x20\n      mload(0x40)\n      dup1\n      dup4\n      sub\n      dup2\n      dup7\n      gas\n      staticcall\n      iszero\n      dup1\n      iszero\n      tag_131\n      jumpi\n      returndatasize\n      0x00\n      dup1\n      returndatacopy\n      revert(0x00, returndatasize)\n    tag_131:\n      pop\n      pop\n      pop\n      pop\n      mload(0x40)\n      returndatasize\n      not(0x1f)\n      0x1f\n      dup3\n      add\n      and\n      dup3\n      add\n      dup1\n      0x40\n      mstore\n      pop\n      dup2\n      add\n      swap1\n      tag_132\n      swap2\n      swap1\n      tag_133\n      jump\t// in\n    tag_132:\n        /* \"RPS.sol\":2733:2771  timeUnit.elapsedSeconds() >= timeLimit */\n      lt\n      iszero\n        /* \"RPS.sol\":2715:2771  numPlayer == 1 && timeUnit.elapsedSeconds() >= timeLimit */\n    tag_129:\n        /* \"RPS.sol\":2712:3187  if(numPlayer == 1 && timeUnit.elapsedSeconds() >= timeLimit){... */\n      iszero\n      tag_134\n      jumpi\n        /* \"RPS.sol\":2786:2810  address payable  account */\n      0x00\n        /* \"RPS.sol\":2821:2828  players */\n      0x06\n        /* \"RPS.sol\":2829:2830  0 */\n      0x00\n        /* \"RPS.sol\":2821:2831  players[0] */\n      dup2\n      sload\n      dup2\n      lt\n      tag_135\n      jumpi\n      tag_136\n      tag_82\n      jump\t// in\n    tag_136:\n    tag_135:\n      swap1\n      0x00\n      mstore\n      keccak256(0x00, 0x20)\n      add\n      0x00\n      swap1\n      sload\n      swap1\n      0x0100\n      exp\n      swap1\n      div\n      0xffffffffffffffffffffffffffffffffffffffff\n      and\n        /* \"RPS.sol\":2786:2832  address payable  account = payable(players[0]) */\n      swap1\n      pop\n        /* \"RPS.sol\":2846:2853  account */\n      dup1\n        /* \"RPS.sol\":2846:2862  account.transfer */\n      0xffffffffffffffffffffffffffffffffffffffff\n      and\n        /* \"RPS.sol\":2846:2870  account.transfer(reward) */\n      0x08fc\n        /* \"RPS.sol\":2863:2869  reward */\n      sload(0x03)\n        /* \"RPS.sol\":2846:2870  account.transfer(reward) */\n      swap1\n      dup2\n      iszero\n      mul\n      swap1\n      mload(0x40)\n      0x00\n      mload(0x40)\n      dup1\n      dup4\n      sub\n      dup2\n      dup6\n      dup9\n      dup9\n      call\n      swap4\n      pop\n      pop\n      pop\n      pop\n      iszero\n      dup1\n      iszero\n      tag_139\n      jumpi\n      returndatasize\n      0x00\n      dup1\n      returndatacopy\n      revert(0x00, returndatasize)\n    tag_139:\n      pop\n        /* \"RPS.sol\":2772:2881  {... */\n      pop\n        /* \"RPS.sol\":2712:3187  if(numPlayer == 1 && timeUnit.elapsedSeconds() >= timeLimit){... */\n      jump(tag_140)\n    tag_134:\n        /* \"RPS.sol\":2912:2913  2 */\n      0x02\n        /* \"RPS.sol\":2899:2908  numPlayer */\n      dup1\n      sload\n        /* \"RPS.sol\":2899:2913  numPlayer == 2 */\n      eq\n        /* \"RPS.sol\":2899:2930  numPlayer == 2 && numInput == 1 */\n      dup1\n      iszero\n      tag_141\n      jumpi\n      pop\n        /* \"RPS.sol\":2929:2930  1 */\n      0x01\n        /* \"RPS.sol\":2917:2925  numInput */\n      sload(0x08)\n        /* \"RPS.sol\":2917:2930  numInput == 1 */\n      eq\n        /* \"RPS.sol\":2899:2930  numPlayer == 2 && numInput == 1 */\n    tag_141:\n        /* \"RPS.sol\":2899:2972  numPlayer == 2 && numInput == 1 && timeUnit.elapsedSeconds() >= timeLimit */\n      dup1\n      iszero\n      tag_142\n      jumpi\n      pop\n        /* \"RPS.sol\":2963:2972  timeLimit */\n      sload(0x09)\n        /* \"RPS.sol\":2934:2942  timeUnit */\n      0x00\n      dup1\n      sload\n      swap1\n      0x0100\n      exp\n      swap1\n      div\n      0xffffffffffffffffffffffffffffffffffffffff\n      and\n        /* \"RPS.sol\":2934:2957  timeUnit.elapsedSeconds */\n      0xffffffffffffffffffffffffffffffffffffffff\n      and\n      0xbc06b8cd\n        /* \"RPS.sol\":2934:2959  timeUnit.elapsedSeconds() */\n      mload(0x40)\n      dup2\n      0xffffffff\n      and\n      0xe0\n      shl\n      dup2\n      mstore\n      0x04\n      add\n      0x20\n      mload(0x40)\n      dup1\n      dup4\n      sub\n      dup2\n      dup7\n      gas\n      staticcall\n      iszero\n      dup1\n      iszero\n      tag_144\n      jumpi\n      returndatasize\n      0x00\n      dup1\n      returndatacopy\n      revert(0x00, returndatasize)\n    tag_144:\n      pop\n      pop\n      pop\n      pop\n      mload(0x40)\n      returndatasize\n      not(0x1f)\n      0x1f\n      dup3\n      add\n      and\n      dup3\n      add\n      dup1\n      0x40\n      mstore\n      pop\n      dup2\n      add\n      swap1\n      tag_145\n      swap2\n      swap1\n      tag_133\n      jump\t// in\n    tag_145:\n        /* \"RPS.sol\":2934:2972  timeUnit.elapsedSeconds() >= timeLimit */\n      lt\n      iszero\n        /* \"RPS.sol\":2899:2972  numPlayer == 2 && numInput == 1 && timeUnit.elapsedSeconds() >= timeLimit */\n    tag_142:\n        /* \"RPS.sol\":2895:3187  if (numPlayer == 2 && numInput == 1 && timeUnit.elapsedSeconds() >= timeLimit) {... */\n      iszero\n      tag_146\n      jumpi\n        /* \"RPS.sol\":2988:3012  address payable account1 */\n      0x00\n        /* \"RPS.sol\":3023:3030  players */\n      0x06\n        /* \"RPS.sol\":3031:3032  0 */\n      0x00\n        /* \"RPS.sol\":3023:3033  players[0] */\n      dup2\n      sload\n      dup2\n      lt\n      tag_147\n      jumpi\n      tag_148\n      tag_82\n      jump\t// in\n    tag_148:\n    tag_147:\n      swap1\n      0x00\n      mstore\n      keccak256(0x00, 0x20)\n      add\n      0x00\n      swap1\n      sload\n      swap1\n      0x0100\n      exp\n      swap1\n      div\n      0xffffffffffffffffffffffffffffffffffffffff\n      and\n        /* \"RPS.sol\":2988:3034  address payable account1 = payable(players[0]) */\n      swap1\n      pop\n        /* \"RPS.sol\":3048:3072  address payable account2 */\n      0x00\n        /* \"RPS.sol\":3083:3090  players */\n      0x06\n        /* \"RPS.sol\":3091:3092  1 */\n      0x01\n        /* \"RPS.sol\":3083:3093  players[1] */\n      dup2\n      sload\n      dup2\n      lt\n      tag_150\n      jumpi\n      tag_151\n      tag_82\n      jump\t// in\n    tag_151:\n    tag_150:\n      swap1\n      0x00\n      mstore\n      keccak256(0x00, 0x20)\n      add\n      0x00\n      swap1\n      sload\n      swap1\n      0x0100\n      exp\n      swap1\n      div\n      0xffffffffffffffffffffffffffffffffffffffff\n      and\n        /* \"RPS.sol\":3048:3094  address payable account2 = payable(players[1]) */\n      swap1\n      pop\n        /* \"RPS.sol\":3108:3116  account1 */\n      dup2\n        /* \"RPS.sol\":3108:3125  account1.transfer */\n      0xffffffffffffffffffffffffffffffffffffffff\n      and\n        /* \"RPS.sol\":3108:3135  account1.transfer(reward/2) */\n      0x08fc\n        /* \"RPS.sol\":3133:3134  2 */\n      0x02\n        /* \"RPS.sol\":3126:3132  reward */\n      sload(0x03)\n        /* \"RPS.sol\":3126:3134  reward/2 */\n      tag_153\n      swap2\n      swap1\n      tag_154\n      jump\t// in\n    tag_153:\n        /* \"RPS.sol\":3108:3135  account1.transfer(reward/2) */\n      swap1\n      dup2\n      iszero\n      mul\n      swap1\n      mload(0x40)\n      0x00\n      mload(0x40)\n      dup1\n      dup4\n      sub\n      dup2\n      dup6\n      dup9\n      dup9\n      call\n      swap4\n      pop\n      pop\n      pop\n      pop\n      iszero\n      dup1\n      iszero\n      tag_156\n      jumpi\n      returndatasize\n      0x00\n      dup1\n      returndatacopy\n      revert(0x00, returndatasize)\n    tag_156:\n      pop\n        /* \"RPS.sol\":3149:3157  account2 */\n      dup1\n        /* \"RPS.sol\":3149:3166  account2.transfer */\n      0xffffffffffffffffffffffffffffffffffffffff\n      and\n        /* \"RPS.sol\":3149:3176  account2.transfer(reward/2) */\n      0x08fc\n        /* \"RPS.sol\":3174:3175  2 */\n      0x02\n        /* \"RPS.sol\":3167:3173  reward */\n      sload(0x03)\n        /* \"RPS.sol\":3167:3175  reward/2 */\n      tag_157\n      swap2\n      swap1\n      tag_154\n      jump\t// in\n    tag_157:\n        /* \"RPS.sol\":3149:3176  account2.transfer(reward/2) */\n      swap1\n      dup2\n      iszero\n      mul\n      swap1\n      mload(0x40)\n      0x00\n      mload(0x40)\n      dup1\n      dup4\n      sub\n      dup2\n      dup6\n      dup9\n      dup9\n      call\n      swap4\n      pop\n      pop\n      pop\n      pop\n      iszero\n      dup1\n      iszero\n      tag_159\n      jumpi\n      returndatasize\n      0x00\n      dup1\n      returndatacopy\n      revert(0x00, returndatasize)\n    tag_159:\n      pop\n        /* \"RPS.sol\":2974:3187  {... */\n      pop\n      pop\n        /* \"RPS.sol\":2895:3187  if (numPlayer == 2 && numInput == 1 && timeUnit.elapsedSeconds() >= timeLimit) {... */\n    tag_146:\n        /* \"RPS.sol\":2712:3187  if(numPlayer == 1 && timeUnit.elapsedSeconds() >= timeLimit){... */\n    tag_140:\n        /* \"RPS.sol\":3196:3203  reset() */\n      tag_160\n        /* \"RPS.sol\":3196:3201  reset */\n      tag_161\n        /* \"RPS.sol\":3196:3203  reset() */\n      jump\t// in\n    tag_160:\n        /* \"RPS.sol\":2673:3210  function cancelGame() public {... */\n      jump\t// out\n        /* \"RPS.sol\":440:464  address[] public players */\n    tag_75:\n      0x06\n      dup2\n      dup2\n      sload\n      dup2\n      lt\n      tag_162\n      jumpi\n      0x00\n      dup1\n      revert\n    tag_162:\n      swap1\n      0x00\n      mstore\n      keccak256(0x00, 0x20)\n      add\n      0x00\n      swap2\n      pop\n      sload\n      swap1\n      0x0100\n      exp\n      swap1\n      div\n      0xffffffffffffffffffffffffffffffffffffffff\n      and\n      dup2\n      jump\t// out\n        /* \"RPS.sol\":1935:2667  function _checkWinnerAndPay() private {... */\n    tag_127:\n        /* \"RPS.sol\":1983:1996  uint p0Choice */\n      0x00\n        /* \"RPS.sol\":1999:2012  player_choice */\n      0x04\n        /* \"RPS.sol\":1999:2024  player_choice[players[0]] */\n      0x00\n        /* \"RPS.sol\":2013:2020  players */\n      0x06\n        /* \"RPS.sol\":2021:2022  0 */\n      0x00\n        /* \"RPS.sol\":2013:2023  players[0] */\n      dup2\n      sload\n      dup2\n      lt\n      tag_165\n      jumpi\n      tag_166\n      tag_82\n      jump\t// in\n    tag_166:\n    tag_165:\n      swap1\n      0x00\n      mstore\n      keccak256(0x00, 0x20)\n      add\n      0x00\n      swap1\n      sload\n      swap1\n      0x0100\n      exp\n      swap1\n      div\n      0xffffffffffffffffffffffffffffffffffffffff\n      and\n        /* \"RPS.sol\":1999:2024  player_choice[players[0]] */\n      0xffffffffffffffffffffffffffffffffffffffff\n      and\n      0xffffffffffffffffffffffffffffffffffffffff\n      and\n      dup2\n      mstore\n      0x20\n      add\n      swap1\n      dup2\n      mstore\n      0x20\n      add\n      0x00\n      keccak256\n      sload\n        /* \"RPS.sol\":1983:2024  uint p0Choice = player_choice[players[0]] */\n      swap1\n      pop\n        /* \"RPS.sol\":2034:2047  uint p1Choice */\n      0x00\n        /* \"RPS.sol\":2050:2063  player_choice */\n      0x04\n        /* \"RPS.sol\":2050:2075  player_choice[players[1]] */\n      0x00\n        /* \"RPS.sol\":2064:2071  players */\n      0x06\n        /* \"RPS.sol\":2072:2073  1 */\n      0x01\n        /* \"RPS.sol\":2064:2074  players[1] */\n      dup2\n      sload\n      dup2\n      lt\n      tag_168\n      jumpi\n      tag_169\n      tag_82\n      jump\t// in\n    tag_169:\n    tag_168:\n      swap1\n      0x00\n      mstore\n      keccak256(0x00, 0x20)\n      add\n      0x00\n      swap1\n      sload\n      swap1\n      0x0100\n      exp\n      swap1\n      div\n      0xffffffffffffffffffffffffffffffffffffffff\n      and\n        /* \"RPS.sol\":2050:2075  player_choice[players[1]] */\n      0xffffffffffffffffffffffffffffffffffffffff\n      and\n      0xffffffffffffffffffffffffffffffffffffffff\n      and\n      dup2\n      mstore\n      0x20\n      add\n      swap1\n      dup2\n      mstore\n      0x20\n      add\n      0x00\n      keccak256\n      sload\n        /* \"RPS.sol\":2034:2075  uint p1Choice = player_choice[players[1]] */\n      swap1\n      pop\n        /* \"RPS.sol\":2085:2109  address payable account0 */\n      0x00\n        /* \"RPS.sol\":2120:2127  players */\n      0x06\n        /* \"RPS.sol\":2128:2129  0 */\n      0x00\n        /* \"RPS.sol\":2120:2130  players[0] */\n      dup2\n      sload\n      dup2\n      lt\n      tag_171\n      jumpi\n      tag_172\n      tag_82\n      jump\t// in\n    tag_172:\n    tag_171:\n      swap1\n      0x00\n      mstore\n      keccak256(0x00, 0x20)\n      add\n      0x00\n      swap1\n      sload\n      swap1\n      0x0100\n      exp\n      swap1\n      div\n      0xffffffffffffffffffffffffffffffffffffffff\n      and\n        /* \"RPS.sol\":2085:2131  address payable account0 = payable(players[0]) */\n      swap1\n      pop\n        /* \"RPS.sol\":2141:2165  address payable account1 */\n      0x00\n        /* \"RPS.sol\":2176:2183  players */\n      0x06\n        /* \"RPS.sol\":2184:2185  1 */\n      0x01\n        /* \"RPS.sol\":2176:2186  players[1] */\n      dup2\n      sload\n      dup2\n      lt\n      tag_174\n      jumpi\n      tag_175\n      tag_82\n      jump\t// in\n    tag_175:\n    tag_174:\n      swap1\n      0x00\n      mstore\n      keccak256(0x00, 0x20)\n      add\n      0x00\n      swap1\n      sload\n      swap1\n      0x0100\n      exp\n      swap1\n      div\n      0xffffffffffffffffffffffffffffffffffffffff\n      and\n        /* \"RPS.sol\":2141:2187  address payable account1 = payable(players[1]) */\n      swap1\n      pop\n        /* \"RPS.sol\":2223:2231  p1Choice */\n      dup3\n        /* \"RPS.sol\":2218:2219  3 */\n      0x03\n        /* \"RPS.sol\":2213:2214  1 */\n      0x01\n        /* \"RPS.sol\":2202:2210  p0Choice */\n      dup7\n        /* \"RPS.sol\":2202:2214  p0Choice + 1 */\n      tag_177\n      swap2\n      swap1\n      tag_106\n      jump\t// in\n    tag_177:\n        /* \"RPS.sol\":2201:2219  (p0Choice + 1) % 3 */\n      tag_178\n      swap2\n      swap1\n      tag_179\n      jump\t// in\n    tag_178:\n        /* \"RPS.sol\":2201:2231  (p0Choice + 1) % 3 == p1Choice */\n      eq\n        /* \"RPS.sol\":2201:2265  (p0Choice + 1) % 3 == p1Choice || (p0Choice + 3) % 5 == p1Choice */\n      dup1\n      tag_180\n      jumpi\n      pop\n        /* \"RPS.sol\":2257:2265  p1Choice */\n      dup3\n        /* \"RPS.sol\":2252:2253  5 */\n      0x05\n        /* \"RPS.sol\":2247:2248  3 */\n      0x03\n        /* \"RPS.sol\":2236:2244  p0Choice */\n      dup7\n        /* \"RPS.sol\":2236:2248  p0Choice + 3 */\n      tag_181\n      swap2\n      swap1\n      tag_106\n      jump\t// in\n    tag_181:\n        /* \"RPS.sol\":2235:2253  (p0Choice + 3) % 5 */\n      tag_182\n      swap2\n      swap1\n      tag_179\n      jump\t// in\n    tag_182:\n        /* \"RPS.sol\":2235:2265  (p0Choice + 3) % 5 == p1Choice */\n      eq\n        /* \"RPS.sol\":2201:2265  (p0Choice + 1) % 3 == p1Choice || (p0Choice + 3) % 5 == p1Choice */\n    tag_180:\n        /* \"RPS.sol\":2197:2661  if ((p0Choice + 1) % 3 == p1Choice || (p0Choice + 3) % 5 == p1Choice) {... */\n      iszero\n      tag_183\n      jumpi\n        /* \"RPS.sol\":2313:2321  account0 */\n      dup2\n        /* \"RPS.sol\":2313:2330  account0.transfer */\n      0xffffffffffffffffffffffffffffffffffffffff\n      and\n        /* \"RPS.sol\":2313:2338  account0.transfer(reward) */\n      0x08fc\n        /* \"RPS.sol\":2331:2337  reward */\n      sload(0x03)\n        /* \"RPS.sol\":2313:2338  account0.transfer(reward) */\n      swap1\n      dup2\n      iszero\n      mul\n      swap1\n      mload(0x40)\n      0x00\n      mload(0x40)\n      dup1\n      dup4\n      sub\n      dup2\n      dup6\n      dup9\n      dup9\n      call\n      swap4\n      pop\n      pop\n      pop\n      pop\n      iszero\n      dup1\n      iszero\n      tag_185\n      jumpi\n      returndatasize\n      0x00\n      dup1\n      returndatacopy\n      revert(0x00, returndatasize)\n    tag_185:\n      pop\n        /* \"RPS.sol\":2197:2661  if ((p0Choice + 1) % 3 == p1Choice || (p0Choice + 3) % 5 == p1Choice) {... */\n      jump(tag_186)\n    tag_183:\n        /* \"RPS.sol\":2389:2397  p0Choice */\n      dup4\n        /* \"RPS.sol\":2384:2385  3 */\n      0x03\n        /* \"RPS.sol\":2379:2380  1 */\n      0x01\n        /* \"RPS.sol\":2368:2376  p1Choice */\n      dup6\n        /* \"RPS.sol\":2368:2380  p1Choice + 1 */\n      tag_187\n      swap2\n      swap1\n      tag_106\n      jump\t// in\n    tag_187:\n        /* \"RPS.sol\":2367:2385  (p1Choice + 1) % 3 */\n      tag_188\n      swap2\n      swap1\n      tag_179\n      jump\t// in\n    tag_188:\n        /* \"RPS.sol\":2367:2397  (p1Choice + 1) % 3 == p0Choice */\n      eq\n        /* \"RPS.sol\":2367:2431  (p1Choice + 1) % 3 == p0Choice || (p1Choice + 3) % 5 == p0Choice */\n      dup1\n      tag_189\n      jumpi\n      pop\n        /* \"RPS.sol\":2423:2431  p0Choice */\n      dup4\n        /* \"RPS.sol\":2418:2419  5 */\n      0x05\n        /* \"RPS.sol\":2413:2414  3 */\n      0x03\n        /* \"RPS.sol\":2402:2410  p1Choice */\n      dup6\n        /* \"RPS.sol\":2402:2414  p1Choice + 3 */\n      tag_190\n      swap2\n      swap1\n      tag_106\n      jump\t// in\n    tag_190:\n        /* \"RPS.sol\":2401:2419  (p1Choice + 3) % 5 */\n      tag_191\n      swap2\n      swap1\n      tag_179\n      jump\t// in\n    tag_191:\n        /* \"RPS.sol\":2401:2431  (p1Choice + 3) % 5 == p0Choice */\n      eq\n        /* \"RPS.sol\":2367:2431  (p1Choice + 1) % 3 == p0Choice || (p1Choice + 3) % 5 == p0Choice */\n    tag_189:\n        /* \"RPS.sol\":2363:2661  if ((p1Choice + 1) % 3 == p0Choice || (p1Choice + 3) % 5 == p0Choice) {... */\n      iszero\n      tag_192\n      jumpi\n        /* \"RPS.sol\":2479:2487  account1 */\n      dup1\n        /* \"RPS.sol\":2479:2496  account1.transfer */\n      0xffffffffffffffffffffffffffffffffffffffff\n      and\n        /* \"RPS.sol\":2479:2504  account1.transfer(reward) */\n      0x08fc\n        /* \"RPS.sol\":2497:2503  reward */\n      sload(0x03)\n        /* \"RPS.sol\":2479:2504  account1.transfer(reward) */\n      swap1\n      dup2\n      iszero\n      mul\n      swap1\n      mload(0x40)\n      0x00\n      mload(0x40)\n      dup1\n      dup4\n      sub\n      dup2\n      dup6\n      dup9\n      dup9\n      call\n      swap4\n      pop\n      pop\n      pop\n      pop\n      iszero\n      dup1\n      iszero\n      tag_194\n      jumpi\n      returndatasize\n      0x00\n      dup1\n      returndatacopy\n      revert(0x00, returndatasize)\n    tag_194:\n      pop\n        /* \"RPS.sol\":2363:2661  if ((p1Choice + 1) % 3 == p0Choice || (p1Choice + 3) % 5 == p0Choice) {... */\n      jump(tag_195)\n    tag_192:\n        /* \"RPS.sol\":2578:2586  account0 */\n      dup2\n        /* \"RPS.sol\":2578:2595  account0.transfer */\n      0xffffffffffffffffffffffffffffffffffffffff\n      and\n        /* \"RPS.sol\":2578:2607  account0.transfer(reward / 2) */\n      0x08fc\n        /* \"RPS.sol\":2605:2606  2 */\n      0x02\n        /* \"RPS.sol\":2596:2602  reward */\n      sload(0x03)\n        /* \"RPS.sol\":2596:2606  reward / 2 */\n      tag_196\n      swap2\n      swap1\n      tag_154\n      jump\t// in\n    tag_196:\n        /* \"RPS.sol\":2578:2607  account0.transfer(reward / 2) */\n      swap1\n      dup2\n      iszero\n      mul\n      swap1\n      mload(0x40)\n      0x00\n      mload(0x40)\n      dup1\n      dup4\n      sub\n      dup2\n      dup6\n      dup9\n      dup9\n      call\n      swap4\n      pop\n      pop\n      pop\n      pop\n      iszero\n      dup1\n      iszero\n      tag_198\n      jumpi\n      returndatasize\n      0x00\n      dup1\n      returndatacopy\n      revert(0x00, returndatasize)\n    tag_198:\n      pop\n        /* \"RPS.sol\":2621:2629  account1 */\n      dup1\n        /* \"RPS.sol\":2621:2638  account1.transfer */\n      0xffffffffffffffffffffffffffffffffffffffff\n      and\n        /* \"RPS.sol\":2621:2650  account1.transfer(reward / 2) */\n      0x08fc\n        /* \"RPS.sol\":2648:2649  2 */\n      0x02\n        /* \"RPS.sol\":2639:2645  reward */\n      sload(0x03)\n        /* \"RPS.sol\":2639:2649  reward / 2 */\n      tag_199\n      swap2\n      swap1\n      tag_154\n      jump\t// in\n    tag_199:\n        /* \"RPS.sol\":2621:2650  account1.transfer(reward / 2) */\n      swap1\n      dup2\n      iszero\n      mul\n      swap1\n      mload(0x40)\n      0x00\n      mload(0x40)\n      dup1\n      dup4\n      sub\n      dup2\n      dup6\n      dup9\n      dup9\n      call\n      swap4\n      pop\n      pop\n      pop\n      pop\n      iszero\n      dup1\n      iszero\n      tag_201\n      jumpi\n      returndatasize\n      0x00\n      dup1\n      returndatacopy\n      revert(0x00, returndatasize)\n    tag_201:\n      pop\n        /* \"RPS.sol\":2363:2661  if ((p1Choice + 1) % 3 == p0Choice || (p1Choice + 3) % 5 == p0Choice) {... */\n    tag_195:\n        /* \"RPS.sol\":2197:2661  if ((p0Choice + 1) % 3 == p1Choice || (p0Choice + 3) % 5 == p1Choice) {... */\n    tag_186:\n        /* \"RPS.sol\":1973:2667  {... */\n      pop\n      pop\n      pop\n      pop\n        /* \"RPS.sol\":1935:2667  function _checkWinnerAndPay() private {... */\n      jump\t// out\n        /* \"RPS.sol\":3216:3315  function reset() private {... */\n    tag_161:\n        /* \"RPS.sol\":3260:3261  0 */\n      0x00\n        /* \"RPS.sol\":3251:3257  reward */\n      0x03\n        /* \"RPS.sol\":3251:3261  reward = 0 */\n      dup2\n      swap1\n      sstore\n      pop\n        /* \"RPS.sol\":3278:3285  players */\n      0x06\n      0x00\n        /* \"RPS.sol\":3271:3285  delete players */\n      tag_203\n      swap2\n      swap1\n      tag_204\n      jump\t// in\n    tag_203:\n        /* \"RPS.sol\":3307:3308  0 */\n      0x00\n        /* \"RPS.sol\":3295:3304  numPlayer */\n      0x02\n        /* \"RPS.sol\":3295:3308  numPlayer = 0 */\n      dup2\n      swap1\n      sstore\n      pop\n        /* \"RPS.sol\":3216:3315  function reset() private {... */\n      jump\t// out\n    tag_204:\n      pop\n      dup1\n      sload\n      0x00\n      dup3\n      sstore\n      swap1\n      0x00\n      mstore\n      keccak256(0x00, 0x20)\n      swap1\n      dup2\n      add\n      swap1\n      tag_206\n      swap2\n      swap1\n      tag_207\n      jump\t// in\n    tag_206:\n      pop\n      jump\t// out\n    tag_207:\n    tag_208:\n      dup1\n      dup3\n      gt\n      iszero\n      tag_209\n      jumpi\n      0x00\n      dup2\n      0x00\n      swap1\n      sstore\n      pop\n      0x01\n      add\n      jump(tag_208)\n    tag_209:\n      pop\n      swap1\n      jump\t// out\n        /* \"#utility.yul\":7:84   */\n    tag_210:\n        /* \"#utility.yul\":44:51   */\n      0x00\n        /* \"#utility.yul\":73:78   */\n      dup2\n        /* \"#utility.yul\":62:78   */\n      swap1\n      pop\n        /* \"#utility.yul\":7:84   */\n      swap2\n      swap1\n      pop\n      jump\t// out\n        /* \"#utility.yul\":90:208   */\n    tag_211:\n        /* \"#utility.yul\":177:201   */\n      tag_240\n        /* \"#utility.yul\":195:200   */\n      dup2\n        /* \"#utility.yul\":177:201   */\n      tag_210\n      jump\t// in\n    tag_240:\n        /* \"#utility.yul\":172:175   */\n      dup3\n        /* \"#utility.yul\":165:202   */\n      mstore\n        /* \"#utility.yul\":90:208   */\n      pop\n      pop\n      jump\t// out\n        /* \"#utility.yul\":214:436   */\n    tag_21:\n        /* \"#utility.yul\":307:311   */\n      0x00\n        /* \"#utility.yul\":345:347   */\n      0x20\n        /* \"#utility.yul\":334:343   */\n      dup3\n        /* \"#utility.yul\":330:348   */\n      add\n        /* \"#utility.yul\":322:348   */\n      swap1\n      pop\n        /* \"#utility.yul\":358:429   */\n      tag_242\n        /* \"#utility.yul\":426:427   */\n      0x00\n        /* \"#utility.yul\":415:424   */\n      dup4\n        /* \"#utility.yul\":411:428   */\n      add\n        /* \"#utility.yul\":402:408   */\n      dup5\n        /* \"#utility.yul\":358:429   */\n      tag_211\n      jump\t// in\n    tag_242:\n        /* \"#utility.yul\":214:436   */\n      swap3\n      swap2\n      pop\n      pop\n      jump\t// out\n        /* \"#utility.yul\":523:640   */\n    tag_213:\n        /* \"#utility.yul\":632:633   */\n      0x00\n        /* \"#utility.yul\":629:630   */\n      dup1\n        /* \"#utility.yul\":622:634   */\n      revert\n        /* \"#utility.yul\":769:895   */\n    tag_215:\n        /* \"#utility.yul\":806:813   */\n      0x00\n        /* \"#utility.yul\":846:888   */\n      0xffffffffffffffffffffffffffffffffffffffff\n        /* \"#utility.yul\":839:844   */\n      dup3\n        /* \"#utility.yul\":835:889   */\n      and\n        /* \"#utility.yul\":824:889   */\n      swap1\n      pop\n        /* \"#utility.yul\":769:895   */\n      swap2\n      swap1\n      pop\n      jump\t// out\n        /* \"#utility.yul\":901:997   */\n    tag_216:\n        /* \"#utility.yul\":938:945   */\n      0x00\n        /* \"#utility.yul\":967:991   */\n      tag_248\n        /* \"#utility.yul\":985:990   */\n      dup3\n        /* \"#utility.yul\":967:991   */\n      tag_215\n      jump\t// in\n    tag_248:\n        /* \"#utility.yul\":956:991   */\n      swap1\n      pop\n        /* \"#utility.yul\":901:997   */\n      swap2\n      swap1\n      pop\n      jump\t// out\n        /* \"#utility.yul\":1003:1125   */\n    tag_217:\n        /* \"#utility.yul\":1076:1100   */\n      tag_250\n        /* \"#utility.yul\":1094:1099   */\n      dup2\n        /* \"#utility.yul\":1076:1100   */\n      tag_216\n      jump\t// in\n    tag_250:\n        /* \"#utility.yul\":1069:1074   */\n      dup2\n        /* \"#utility.yul\":1066:1101   */\n      eq\n        /* \"#utility.yul\":1056:1119   */\n      tag_251\n      jumpi\n        /* \"#utility.yul\":1115:1116   */\n      0x00\n        /* \"#utility.yul\":1112:1113   */\n      dup1\n        /* \"#utility.yul\":1105:1117   */\n      revert\n        /* \"#utility.yul\":1056:1119   */\n    tag_251:\n        /* \"#utility.yul\":1003:1125   */\n      pop\n      jump\t// out\n        /* \"#utility.yul\":1131:1270   */\n    tag_218:\n        /* \"#utility.yul\":1177:1182   */\n      0x00\n        /* \"#utility.yul\":1215:1221   */\n      dup2\n        /* \"#utility.yul\":1202:1222   */\n      calldataload\n        /* \"#utility.yul\":1193:1222   */\n      swap1\n      pop\n        /* \"#utility.yul\":1231:1264   */\n      tag_253\n        /* \"#utility.yul\":1258:1263   */\n      dup2\n        /* \"#utility.yul\":1231:1264   */\n      tag_217\n      jump\t// in\n    tag_253:\n        /* \"#utility.yul\":1131:1270   */\n      swap3\n      swap2\n      pop\n      pop\n      jump\t// out\n        /* \"#utility.yul\":1276:1605   */\n    tag_25:\n        /* \"#utility.yul\":1335:1341   */\n      0x00\n        /* \"#utility.yul\":1384:1386   */\n      0x20\n        /* \"#utility.yul\":1372:1381   */\n      dup3\n        /* \"#utility.yul\":1363:1370   */\n      dup5\n        /* \"#utility.yul\":1359:1382   */\n      sub\n        /* \"#utility.yul\":1355:1387   */\n      slt\n        /* \"#utility.yul\":1352:1471   */\n      iszero\n      tag_255\n      jumpi\n        /* \"#utility.yul\":1390:1469   */\n      tag_256\n      tag_213\n      jump\t// in\n    tag_256:\n        /* \"#utility.yul\":1352:1471   */\n    tag_255:\n        /* \"#utility.yul\":1510:1511   */\n      0x00\n        /* \"#utility.yul\":1535:1588   */\n      tag_257\n        /* \"#utility.yul\":1580:1587   */\n      dup5\n        /* \"#utility.yul\":1571:1577   */\n      dup3\n        /* \"#utility.yul\":1560:1569   */\n      dup6\n        /* \"#utility.yul\":1556:1578   */\n      add\n        /* \"#utility.yul\":1535:1588   */\n      tag_218\n      jump\t// in\n    tag_257:\n        /* \"#utility.yul\":1525:1588   */\n      swap2\n      pop\n        /* \"#utility.yul\":1481:1598   */\n      pop\n        /* \"#utility.yul\":1276:1605   */\n      swap3\n      swap2\n      pop\n      pop\n      jump\t// out\n        /* \"#utility.yul\":1611:1701   */\n    tag_219:\n        /* \"#utility.yul\":1645:1652   */\n      0x00\n        /* \"#utility.yul\":1688:1693   */\n      dup2\n        /* \"#utility.yul\":1681:1694   */\n      iszero\n        /* \"#utility.yul\":1674:1695   */\n      iszero\n        /* \"#utility.yul\":1663:1695   */\n      swap1\n      pop\n        /* \"#utility.yul\":1611:1701   */\n      swap2\n      swap1\n      pop\n      jump\t// out\n        /* \"#utility.yul\":1707:1816   */\n    tag_220:\n        /* \"#utility.yul\":1788:1809   */\n      tag_260\n        /* \"#utility.yul\":1803:1808   */\n      dup2\n        /* \"#utility.yul\":1788:1809   */\n      tag_219\n      jump\t// in\n    tag_260:\n        /* \"#utility.yul\":1783:1786   */\n      dup3\n        /* \"#utility.yul\":1776:1810   */\n      mstore\n        /* \"#utility.yul\":1707:1816   */\n      pop\n      pop\n      jump\t// out\n        /* \"#utility.yul\":1822:2032   */\n    tag_28:\n        /* \"#utility.yul\":1909:1913   */\n      0x00\n        /* \"#utility.yul\":1947:1949   */\n      0x20\n        /* \"#utility.yul\":1936:1945   */\n      dup3\n        /* \"#utility.yul\":1932:1950   */\n      add\n        /* \"#utility.yul\":1924:1950   */\n      swap1\n      pop\n        /* \"#utility.yul\":1960:2025   */\n      tag_262\n        /* \"#utility.yul\":2022:2023   */\n      0x00\n        /* \"#utility.yul\":2011:2020   */\n      dup4\n        /* \"#utility.yul\":2007:2024   */\n      add\n        /* \"#utility.yul\":1998:2004   */\n      dup5\n        /* \"#utility.yul\":1960:2025   */\n      tag_220\n      jump\t// in\n    tag_262:\n        /* \"#utility.yul\":1822:2032   */\n      swap3\n      swap2\n      pop\n      pop\n      jump\t// out\n        /* \"#utility.yul\":2038:2098   */\n    tag_221:\n        /* \"#utility.yul\":2066:2069   */\n      0x00\n        /* \"#utility.yul\":2087:2092   */\n      dup2\n        /* \"#utility.yul\":2080:2092   */\n      swap1\n      pop\n        /* \"#utility.yul\":2038:2098   */\n      swap2\n      swap1\n      pop\n      jump\t// out\n        /* \"#utility.yul\":2104:2246   */\n    tag_222:\n        /* \"#utility.yul\":2154:2163   */\n      0x00\n        /* \"#utility.yul\":2187:2240   */\n      tag_265\n        /* \"#utility.yul\":2205:2239   */\n      tag_266\n        /* \"#utility.yul\":2214:2238   */\n      tag_267\n        /* \"#utility.yul\":2232:2237   */\n      dup5\n        /* \"#utility.yul\":2214:2238   */\n      tag_215\n      jump\t// in\n    tag_267:\n        /* \"#utility.yul\":2205:2239   */\n      tag_221\n      jump\t// in\n    tag_266:\n        /* \"#utility.yul\":2187:2240   */\n      tag_215\n      jump\t// in\n    tag_265:\n        /* \"#utility.yul\":2174:2240   */\n      swap1\n      pop\n        /* \"#utility.yul\":2104:2246   */\n      swap2\n      swap1\n      pop\n      jump\t// out\n        /* \"#utility.yul\":2252:2378   */\n    tag_223:\n        /* \"#utility.yul\":2302:2311   */\n      0x00\n        /* \"#utility.yul\":2335:2372   */\n      tag_269\n        /* \"#utility.yul\":2366:2371   */\n      dup3\n        /* \"#utility.yul\":2335:2372   */\n      tag_222\n      jump\t// in\n    tag_269:\n        /* \"#utility.yul\":2322:2372   */\n      swap1\n      pop\n        /* \"#utility.yul\":2252:2378   */\n      swap2\n      swap1\n      pop\n      jump\t// out\n        /* \"#utility.yul\":2384:2526   */\n    tag_224:\n        /* \"#utility.yul\":2450:2459   */\n      0x00\n        /* \"#utility.yul\":2483:2520   */\n      tag_271\n        /* \"#utility.yul\":2514:2519   */\n      dup3\n        /* \"#utility.yul\":2483:2520   */\n      tag_223\n      jump\t// in\n    tag_271:\n        /* \"#utility.yul\":2470:2520   */\n      swap1\n      pop\n        /* \"#utility.yul\":2384:2526   */\n      swap2\n      swap1\n      pop\n      jump\t// out\n        /* \"#utility.yul\":2532:2695   */\n    tag_225:\n        /* \"#utility.yul\":2635:2688   */\n      tag_273\n        /* \"#utility.yul\":2682:2687   */\n      dup2\n        /* \"#utility.yul\":2635:2688   */\n      tag_224\n      jump\t// in\n    tag_273:\n        /* \"#utility.yul\":2630:2633   */\n      dup3\n        /* \"#utility.yul\":2623:2689   */\n      mstore\n        /* \"#utility.yul\":2532:2695   */\n      pop\n      pop\n      jump\t// out\n        /* \"#utility.yul\":2701:2955   */\n    tag_39:\n        /* \"#utility.yul\":2810:2814   */\n      0x00\n        /* \"#utility.yul\":2848:2850   */\n      0x20\n        /* \"#utility.yul\":2837:2846   */\n      dup3\n        /* \"#utility.yul\":2833:2851   */\n      add\n        /* \"#utility.yul\":2825:2851   */\n      swap1\n      pop\n        /* \"#utility.yul\":2861:2948   */\n      tag_275\n        /* \"#utility.yul\":2945:2946   */\n      0x00\n        /* \"#utility.yul\":2934:2943   */\n      dup4\n        /* \"#utility.yul\":2930:2947   */\n      add\n        /* \"#utility.yul\":2921:2927   */\n      dup5\n        /* \"#utility.yul\":2861:2948   */\n      tag_225\n      jump\t// in\n    tag_275:\n        /* \"#utility.yul\":2701:2955   */\n      swap3\n      swap2\n      pop\n      pop\n      jump\t// out\n        /* \"#utility.yul\":2961:3083   */\n    tag_226:\n        /* \"#utility.yul\":3034:3058   */\n      tag_277\n        /* \"#utility.yul\":3052:3057   */\n      dup2\n        /* \"#utility.yul\":3034:3058   */\n      tag_210\n      jump\t// in\n    tag_277:\n        /* \"#utility.yul\":3027:3032   */\n      dup2\n        /* \"#utility.yul\":3024:3059   */\n      eq\n        /* \"#utility.yul\":3014:3077   */\n      tag_278\n      jumpi\n        /* \"#utility.yul\":3073:3074   */\n      0x00\n        /* \"#utility.yul\":3070:3071   */\n      dup1\n        /* \"#utility.yul\":3063:3075   */\n      revert\n        /* \"#utility.yul\":3014:3077   */\n    tag_278:\n        /* \"#utility.yul\":2961:3083   */\n      pop\n      jump\t// out\n        /* \"#utility.yul\":3089:3228   */\n    tag_227:\n        /* \"#utility.yul\":3135:3140   */\n      0x00\n        /* \"#utility.yul\":3173:3179   */\n      dup2\n        /* \"#utility.yul\":3160:3180   */\n      calldataload\n        /* \"#utility.yul\":3151:3180   */\n      swap1\n      pop\n        /* \"#utility.yul\":3189:3222   */\n      tag_280\n        /* \"#utility.yul\":3216:3221   */\n      dup2\n        /* \"#utility.yul\":3189:3222   */\n      tag_226\n      jump\t// in\n    tag_280:\n        /* \"#utility.yul\":3089:3228   */\n      swap3\n      swap2\n      pop\n      pop\n      jump\t// out\n        /* \"#utility.yul\":3234:3563   */\n    tag_43:\n        /* \"#utility.yul\":3293:3299   */\n      0x00\n        /* \"#utility.yul\":3342:3344   */\n      0x20\n        /* \"#utility.yul\":3330:3339   */\n      dup3\n        /* \"#utility.yul\":3321:3328   */\n      dup5\n        /* \"#utility.yul\":3317:3340   */\n      sub\n        /* \"#utility.yul\":3313:3345   */\n      slt\n        /* \"#utility.yul\":3310:3429   */\n      iszero\n      tag_282\n      jumpi\n        /* \"#utility.yul\":3348:3427   */\n      tag_283\n      tag_213\n      jump\t// in\n    tag_283:\n        /* \"#utility.yul\":3310:3429   */\n    tag_282:\n        /* \"#utility.yul\":3468:3469   */\n      0x00\n        /* \"#utility.yul\":3493:3546   */\n      tag_284\n        /* \"#utility.yul\":3538:3545   */\n      dup5\n        /* \"#utility.yul\":3529:3535   */\n      dup3\n        /* \"#utility.yul\":3518:3527   */\n      dup6\n        /* \"#utility.yul\":3514:3536   */\n      add\n        /* \"#utility.yul\":3493:3546   */\n      tag_227\n      jump\t// in\n    tag_284:\n        /* \"#utility.yul\":3483:3546   */\n      swap2\n      pop\n        /* \"#utility.yul\":3439:3556   */\n      pop\n        /* \"#utility.yul\":3234:3563   */\n      swap3\n      swap2\n      pop\n      pop\n      jump\t// out\n        /* \"#utility.yul\":3569:3687   */\n    tag_228:\n        /* \"#utility.yul\":3656:3680   */\n      tag_286\n        /* \"#utility.yul\":3674:3679   */\n      dup2\n        /* \"#utility.yul\":3656:3680   */\n      tag_216\n      jump\t// in\n    tag_286:\n        /* \"#utility.yul\":3651:3654   */\n      dup3\n        /* \"#utility.yul\":3644:3681   */\n      mstore\n        /* \"#utility.yul\":3569:3687   */\n      pop\n      pop\n      jump\t// out\n        /* \"#utility.yul\":3693:3915   */\n    tag_46:\n        /* \"#utility.yul\":3786:3790   */\n      0x00\n        /* \"#utility.yul\":3824:3826   */\n      0x20\n        /* \"#utility.yul\":3813:3822   */\n      dup3\n        /* \"#utility.yul\":3809:3827   */\n      add\n        /* \"#utility.yul\":3801:3827   */\n      swap1\n      pop\n        /* \"#utility.yul\":3837:3908   */\n      tag_288\n        /* \"#utility.yul\":3905:3906   */\n      0x00\n        /* \"#utility.yul\":3894:3903   */\n      dup4\n        /* \"#utility.yul\":3890:3907   */\n      add\n        /* \"#utility.yul\":3881:3887   */\n      dup5\n        /* \"#utility.yul\":3837:3908   */\n      tag_228\n      jump\t// in\n    tag_288:\n        /* \"#utility.yul\":3693:3915   */\n      swap3\n      swap2\n      pop\n      pop\n      jump\t// out\n        /* \"#utility.yul\":3921:4067   */\n    tag_229:\n        /* \"#utility.yul\":3991:4000   */\n      0x00\n        /* \"#utility.yul\":4024:4061   */\n      tag_290\n        /* \"#utility.yul\":4055:4060   */\n      dup3\n        /* \"#utility.yul\":4024:4061   */\n      tag_223\n      jump\t// in\n    tag_290:\n        /* \"#utility.yul\":4011:4061   */\n      swap1\n      pop\n        /* \"#utility.yul\":3921:4067   */\n      swap2\n      swap1\n      pop\n      jump\t// out\n        /* \"#utility.yul\":4073:4244   */\n    tag_230:\n        /* \"#utility.yul\":4180:4237   */\n      tag_292\n        /* \"#utility.yul\":4231:4236   */\n      dup2\n        /* \"#utility.yul\":4180:4237   */\n      tag_229\n      jump\t// in\n    tag_292:\n        /* \"#utility.yul\":4175:4178   */\n      dup3\n        /* \"#utility.yul\":4168:4238   */\n      mstore\n        /* \"#utility.yul\":4073:4244   */\n      pop\n      pop\n      jump\t// out\n        /* \"#utility.yul\":4250:4512   */\n    tag_55:\n        /* \"#utility.yul\":4363:4367   */\n      0x00\n        /* \"#utility.yul\":4401:4403   */\n      0x20\n        /* \"#utility.yul\":4390:4399   */\n      dup3\n        /* \"#utility.yul\":4386:4404   */\n      add\n        /* \"#utility.yul\":4378:4404   */\n      swap1\n      pop\n        /* \"#utility.yul\":4414:4505   */\n      tag_294\n        /* \"#utility.yul\":4502:4503   */\n      0x00\n        /* \"#utility.yul\":4491:4500   */\n      dup4\n        /* \"#utility.yul\":4487:4504   */\n      add\n        /* \"#utility.yul\":4478:4484   */\n      dup5\n        /* \"#utility.yul\":4414:4505   */\n      tag_230\n      jump\t// in\n    tag_294:\n        /* \"#utility.yul\":4250:4512   */\n      swap3\n      swap2\n      pop\n      pop\n      jump\t// out\n        /* \"#utility.yul\":4518:4698   */\n    tag_82:\n        /* \"#utility.yul\":4566:4643   */\n      0x4e487b7100000000000000000000000000000000000000000000000000000000\n        /* \"#utility.yul\":4563:4564   */\n      0x00\n        /* \"#utility.yul\":4556:4644   */\n      mstore\n        /* \"#utility.yul\":4663:4667   */\n      0x32\n        /* \"#utility.yul\":4660:4661   */\n      0x04\n        /* \"#utility.yul\":4653:4668   */\n      mstore\n        /* \"#utility.yul\":4687:4691   */\n      0x24\n        /* \"#utility.yul\":4684:4685   */\n      0x00\n        /* \"#utility.yul\":4677:4692   */\n      revert\n        /* \"#utility.yul\":4704:4873   */\n    tag_231:\n        /* \"#utility.yul\":4788:4799   */\n      0x00\n        /* \"#utility.yul\":4822:4828   */\n      dup3\n        /* \"#utility.yul\":4817:4820   */\n      dup3\n        /* \"#utility.yul\":4810:4829   */\n      mstore\n        /* \"#utility.yul\":4862:4866   */\n      0x20\n        /* \"#utility.yul\":4857:4860   */\n      dup3\n        /* \"#utility.yul\":4853:4867   */\n      add\n        /* \"#utility.yul\":4838:4867   */\n      swap1\n      pop\n        /* \"#utility.yul\":4704:4873   */\n      swap3\n      swap2\n      pop\n      pop\n      jump\t// out\n        /* \"#utility.yul\":4879:5103   */\n    tag_232:\n        /* \"#utility.yul\":5019:5053   */\n      0x596f7520617265206e6f7420616c6c6f77656420746f20706c61792074686973\n        /* \"#utility.yul\":5015:5016   */\n      0x00\n        /* \"#utility.yul\":5007:5013   */\n      dup3\n        /* \"#utility.yul\":5003:5017   */\n      add\n        /* \"#utility.yul\":4996:5054   */\n      mstore\n        /* \"#utility.yul\":5088:5095   */\n      0x2067616d65000000000000000000000000000000000000000000000000000000\n        /* \"#utility.yul\":5083:5085   */\n      0x20\n        /* \"#utility.yul\":5075:5081   */\n      dup3\n        /* \"#utility.yul\":5071:5086   */\n      add\n        /* \"#utility.yul\":5064:5096   */\n      mstore\n        /* \"#utility.yul\":4879:5103   */\n      pop\n      jump\t// out\n        /* \"#utility.yul\":5109:5475   */\n    tag_233:\n        /* \"#utility.yul\":5251:5254   */\n      0x00\n        /* \"#utility.yul\":5272:5339   */\n      tag_299\n        /* \"#utility.yul\":5336:5338   */\n      0x25\n        /* \"#utility.yul\":5331:5334   */\n      dup4\n        /* \"#utility.yul\":5272:5339   */\n      tag_231\n      jump\t// in\n    tag_299:\n        /* \"#utility.yul\":5265:5339   */\n      swap2\n      pop\n        /* \"#utility.yul\":5348:5441   */\n      tag_300\n        /* \"#utility.yul\":5437:5440   */\n      dup3\n        /* \"#utility.yul\":5348:5441   */\n      tag_232\n      jump\t// in\n    tag_300:\n        /* \"#utility.yul\":5466:5468   */\n      0x40\n        /* \"#utility.yul\":5461:5464   */\n      dup3\n        /* \"#utility.yul\":5457:5469   */\n      add\n        /* \"#utility.yul\":5450:5469   */\n      swap1\n      pop\n        /* \"#utility.yul\":5109:5475   */\n      swap2\n      swap1\n      pop\n      jump\t// out\n        /* \"#utility.yul\":5481:5900   */\n    tag_104:\n        /* \"#utility.yul\":5647:5651   */\n      0x00\n        /* \"#utility.yul\":5685:5687   */\n      0x20\n        /* \"#utility.yul\":5674:5683   */\n      dup3\n        /* \"#utility.yul\":5670:5688   */\n      add\n        /* \"#utility.yul\":5662:5688   */\n      swap1\n      pop\n        /* \"#utility.yul\":5734:5743   */\n      dup2\n        /* \"#utility.yul\":5728:5732   */\n      dup2\n        /* \"#utility.yul\":5724:5744   */\n      sub\n        /* \"#utility.yul\":5720:5721   */\n      0x00\n        /* \"#utility.yul\":5709:5718   */\n      dup4\n        /* \"#utility.yul\":5705:5722   */\n      add\n        /* \"#utility.yul\":5698:5745   */\n      mstore\n        /* \"#utility.yul\":5762:5893   */\n      tag_302\n        /* \"#utility.yul\":5888:5892   */\n      dup2\n        /* \"#utility.yul\":5762:5893   */\n      tag_233\n      jump\t// in\n    tag_302:\n        /* \"#utility.yul\":5754:5893   */\n      swap1\n      pop\n        /* \"#utility.yul\":5481:5900   */\n      swap2\n      swap1\n      pop\n      jump\t// out\n        /* \"#utility.yul\":5906:6086   */\n    tag_234:\n        /* \"#utility.yul\":5954:6031   */\n      0x4e487b7100000000000000000000000000000000000000000000000000000000\n        /* \"#utility.yul\":5951:5952   */\n      0x00\n        /* \"#utility.yul\":5944:6032   */\n      mstore\n        /* \"#utility.yul\":6051:6055   */\n      0x11\n        /* \"#utility.yul\":6048:6049   */\n      0x04\n        /* \"#utility.yul\":6041:6056   */\n      mstore\n        /* \"#utility.yul\":6075:6079   */\n      0x24\n        /* \"#utility.yul\":6072:6073   */\n      0x00\n        /* \"#utility.yul\":6065:6080   */\n      revert\n        /* \"#utility.yul\":6092:6283   */\n    tag_106:\n        /* \"#utility.yul\":6132:6135   */\n      0x00\n        /* \"#utility.yul\":6151:6171   */\n      tag_305\n        /* \"#utility.yul\":6169:6170   */\n      dup3\n        /* \"#utility.yul\":6151:6171   */\n      tag_210\n      jump\t// in\n    tag_305:\n        /* \"#utility.yul\":6146:6171   */\n      swap2\n      pop\n        /* \"#utility.yul\":6185:6205   */\n      tag_306\n        /* \"#utility.yul\":6203:6204   */\n      dup4\n        /* \"#utility.yul\":6185:6205   */\n      tag_210\n      jump\t// in\n    tag_306:\n        /* \"#utility.yul\":6180:6205   */\n      swap3\n      pop\n        /* \"#utility.yul\":6228:6229   */\n      dup3\n        /* \"#utility.yul\":6225:6226   */\n      dup3\n        /* \"#utility.yul\":6221:6230   */\n      add\n        /* \"#utility.yul\":6214:6230   */\n      swap1\n      pop\n        /* \"#utility.yul\":6249:6252   */\n      dup1\n        /* \"#utility.yul\":6246:6247   */\n      dup3\n        /* \"#utility.yul\":6243:6253   */\n      gt\n        /* \"#utility.yul\":6240:6276   */\n      iszero\n      tag_307\n      jumpi\n        /* \"#utility.yul\":6256:6274   */\n      tag_308\n      tag_234\n      jump\t// in\n    tag_308:\n        /* \"#utility.yul\":6240:6276   */\n    tag_307:\n        /* \"#utility.yul\":6092:6283   */\n      swap3\n      swap2\n      pop\n      pop\n      jump\t// out\n        /* \"#utility.yul\":6289:6522   */\n    tag_109:\n        /* \"#utility.yul\":6328:6331   */\n      0x00\n        /* \"#utility.yul\":6351:6375   */\n      tag_310\n        /* \"#utility.yul\":6369:6374   */\n      dup3\n        /* \"#utility.yul\":6351:6375   */\n      tag_210\n      jump\t// in\n    tag_310:\n        /* \"#utility.yul\":6342:6375   */\n      swap2\n      pop\n        /* \"#utility.yul\":6397:6463   */\n      0xffffffffffffffffffffffffffffffffffffffffffffffffffffffffffffffff\n        /* \"#utility.yul\":6390:6395   */\n      dup3\n        /* \"#utility.yul\":6387:6464   */\n      sub\n        /* \"#utility.yul\":6384:6487   */\n      tag_311\n      jumpi\n        /* \"#utility.yul\":6467:6485   */\n      tag_312\n      tag_234\n      jump\t// in\n    tag_312:\n        /* \"#utility.yul\":6384:6487   */\n    tag_311:\n        /* \"#utility.yul\":6514:6515   */\n      0x01\n        /* \"#utility.yul\":6507:6512   */\n      dup3\n        /* \"#utility.yul\":6503:6516   */\n      add\n        /* \"#utility.yul\":6496:6516   */\n      swap1\n      pop\n        /* \"#utility.yul\":6289:6522   */\n      swap2\n      swap1\n      pop\n      jump\t// out\n        /* \"#utility.yul\":6528:6671   */\n    tag_235:\n        /* \"#utility.yul\":6585:6590   */\n      0x00\n        /* \"#utility.yul\":6616:6622   */\n      dup2\n        /* \"#utility.yul\":6610:6623   */\n      mload\n        /* \"#utility.yul\":6601:6623   */\n      swap1\n      pop\n        /* \"#utility.yul\":6632:6665   */\n      tag_314\n        /* \"#utility.yul\":6659:6664   */\n      dup2\n        /* \"#utility.yul\":6632:6665   */\n      tag_226\n      jump\t// in\n    tag_314:\n        /* \"#utility.yul\":6528:6671   */\n      swap3\n      swap2\n      pop\n      pop\n      jump\t// out\n        /* \"#utility.yul\":6677:7028   */\n    tag_133:\n        /* \"#utility.yul\":6747:6753   */\n      0x00\n        /* \"#utility.yul\":6796:6798   */\n      0x20\n        /* \"#utility.yul\":6784:6793   */\n      dup3\n        /* \"#utility.yul\":6775:6782   */\n      dup5\n        /* \"#utility.yul\":6771:6794   */\n      sub\n        /* \"#utility.yul\":6767:6799   */\n      slt\n        /* \"#utility.yul\":6764:6883   */\n      iszero\n      tag_316\n      jumpi\n        /* \"#utility.yul\":6802:6881   */\n      tag_317\n      tag_213\n      jump\t// in\n    tag_317:\n        /* \"#utility.yul\":6764:6883   */\n    tag_316:\n        /* \"#utility.yul\":6922:6923   */\n      0x00\n        /* \"#utility.yul\":6947:7011   */\n      tag_318\n        /* \"#utility.yul\":7003:7010   */\n      dup5\n        /* \"#utility.yul\":6994:7000   */\n      dup3\n        /* \"#utility.yul\":6983:6992   */\n      dup6\n        /* \"#utility.yul\":6979:7001   */\n      add\n        /* \"#utility.yul\":6947:7011   */\n      tag_235\n      jump\t// in\n    tag_318:\n        /* \"#utility.yul\":6937:7011   */\n      swap2\n      pop\n        /* \"#utility.yul\":6893:7021   */\n      pop\n        /* \"#utility.yul\":6677:7028   */\n      swap3\n      swap2\n      pop\n      pop\n      jump\t// out\n        /* \"#utility.yul\":7034:7214   */\n    tag_236:\n        /* \"#utility.yul\":7082:7159   */\n      0x4e487b7100000000000000000000000000000000000000000000000000000000\n        /* \"#utility.yul\":7079:7080   */\n      0x00\n        /* \"#utility.yul\":7072:7160   */\n      mstore\n        /* \"#utility.yul\":7179:7183   */\n      0x12\n        /* \"#utility.yul\":7176:7177   */\n      0x04\n        /* \"#utility.yul\":7169:7184   */\n      mstore\n        /* \"#utility.yul\":7203:7207   */\n      0x24\n        /* \"#utility.yul\":7200:7201   */\n      0x00\n        /* \"#utility.yul\":7193:7208   */\n      revert\n        /* \"#utility.yul\":7220:7405   */\n    tag_154:\n        /* \"#utility.yul\":7260:7261   */\n      0x00\n        /* \"#utility.yul\":7277:7297   */\n      tag_321\n        /* \"#utility.yul\":7295:7296   */\n      dup3\n        /* \"#utility.yul\":7277:7297   */\n      tag_210\n      jump\t// in\n    tag_321:\n        /* \"#utility.yul\":7272:7297   */\n      swap2\n      pop\n        /* \"#utility.yul\":7311:7331   */\n      tag_322\n        /* \"#utility.yul\":7329:7330   */\n      dup4\n        /* \"#utility.yul\":7311:7331   */\n      tag_210\n      jump\t// in\n    tag_322:\n        /* \"#utility.yul\":7306:7331   */\n      swap3\n      pop\n        /* \"#utility.yul\":7350:7351   */\n      dup3\n        /* \"#utility.yul\":7340:7375   */\n      tag_323\n      jumpi\n        /* \"#utility.yul\":7355:7373   */\n      tag_324\n      tag_236\n      jump\t// in\n    tag_324:\n        /* \"#utility.yul\":7340:7375   */\n    tag_323:\n        /* \"#utility.yul\":7397:7398   */\n      dup3\n        /* \"#utility.yul\":7394:7395   */\n      dup3\n        /* \"#utility.yul\":7390:7399   */\n      div\n        /* \"#utility.yul\":7385:7399   */\n      swap1\n      pop\n        /* \"#utility.yul\":7220:7405   */\n      swap3\n      swap2\n      pop\n      pop\n      jump\t// out\n        /* \"#utility.yul\":7411:7587   */\n    tag_179:\n        /* \"#utility.yul\":7443:7444   */\n      0x00\n        /* \"#utility.yul\":7460:7480   */\n      tag_326\n        /* \"#utility.yul\":7478:7479   */\n      dup3\n        /* \"#utility.yul\":7460:7480   */\n      tag_210\n      jump\t// in\n    tag_326:\n        /* \"#utility.yul\":7455:7480   */\n      swap2\n      pop\n        /* \"#utility.yul\":7494:7514   */\n      tag_327\n        /* \"#utility.yul\":7512:7513   */\n      dup4\n        /* \"#utility.yul\":7494:7514   */\n      tag_210\n      jump\t// in\n    tag_327:\n        /* \"#utility.yul\":7489:7514   */\n      swap3\n      pop\n        /* \"#utility.yul\":7533:7534   */\n      dup3\n        /* \"#utility.yul\":7523:7558   */\n      tag_328\n      jumpi\n        /* \"#utility.yul\":7538:7556   */\n      tag_329\n      tag_236\n      jump\t// in\n    tag_329:\n        /* \"#utility.yul\":7523:7558   */\n    tag_328:\n        /* \"#utility.yul\":7579:7580   */\n      dup3\n        /* \"#utility.yul\":7576:7577   */\n      dup3\n        /* \"#utility.yul\":7572:7581   */\n      mod\n        /* \"#utility.yul\":7567:7581   */\n      swap1\n      pop\n        /* \"#utility.yul\":7411:7587   */\n      swap3\n      swap2\n      pop\n      pop\n      jump\t// out\n\n    auxdata: 0xa26469706673582212200cb3732f57e300ab3a828ec93d6563156ccab25de7105136b3ef58c6004493c564736f6c634300081a0033\n}\n",
				"bytecode": {
					"linkReferences": {},
					"object": "60806040525f6002555f6003556040518060800160405280735b38da6a701c568545dcfcb03fcb875f56beddc473ffffffffffffffffffffffffffffffffffffffff1673ffffffffffffffffffffffffffffffffffffffff16815260200173ab8483f64d9c6d1ecf9b849ae677dd3315835cb273ffffffffffffffffffffffffffffffffffffffff1673ffffffffffffffffffffffffffffffffffffffff168152602001734b20993bc481177ec7e8f571cecae8a9e22c02db73ffffffffffffffffffffffffffffffffffffffff1673ffffffffffffffffffffffffffffffffffffffff1681526020017378731d3ca6b7e34ac0f824c42a7cc18a495cabab73ffffffffffffffffffffffffffffffffffffffff1673ffffffffffffffffffffffffffffffffffffffff16815250600790600461013d9291906101fb565b505f60085561012c600955348015610153575f80fd5b506040516117e53803806117e5833981810160405281019061017591906102fb565b815f806101000a81548173ffffffffffffffffffffffffffffffffffffffff021916908373ffffffffffffffffffffffffffffffffffffffff1602179055508060015f6101000a81548173ffffffffffffffffffffffffffffffffffffffff021916908373ffffffffffffffffffffffffffffffffffffffff1602179055505050610339565b828054828255905f5260205f20908101928215610271579160200282015b82811115610270578251825f6101000a81548173ffffffffffffffffffffffffffffffffffffffff021916908373ffffffffffffffffffffffffffffffffffffffff16021790555091602001919060010190610219565b5b50905061027e9190610282565b5090565b5b80821115610299575f815f905550600101610283565b5090565b5f80fd5b5f73ffffffffffffffffffffffffffffffffffffffff82169050919050565b5f6102ca826102a1565b9050919050565b6102da816102c0565b81146102e4575f80fd5b50565b5f815190506102f5816102d1565b92915050565b5f80604083850312156103115761031061029d565b5b5f61031e858286016102e7565b925050602061032f858286016102e7565b9150509250929050565b61149f806103465f395ff3fe6080604052600436106100c1575f3560e01c806390d5d0c31161007e578063c08d1fe511610058578063c08d1fe514610255578063ce6e1c4e1461027f578063d84c1ac9146102a7578063f71d96cb146102bd576100c1565b806390d5d0c3146101c55780639d7b3f2d146101ef578063a040478d14610219576100c1565b8063086f7815146100c5578063190cf745146100ef578063228cb7331461012b57806327b5db8a146101555780633c6a7f9b1461015f57806355d0738814610189575b5f80fd5b3480156100d0575f80fd5b506100d96102f9565b6040516100e6919061102c565b60405180910390f35b3480156100fa575f80fd5b50610115600480360381019061011091906110a3565b6102ff565b60405161012291906110e8565b60405180910390f35b348015610136575f80fd5b5061013f61031c565b60405161014c919061102c565b60405180910390f35b61015d610322565b005b34801561016a575f80fd5b50610173610737565b604051610180919061115c565b60405180910390f35b348015610194575f80fd5b506101af60048036038101906101aa919061119f565b61075a565b6040516101bc91906111d9565b60405180910390f35b3480156101d0575f80fd5b506101d9610795565b6040516101e6919061102c565b60405180910390f35b3480156101fa575f80fd5b5061020361079b565b6040516102109190611212565b60405180910390f35b348015610224575f80fd5b5061023f600480360381019061023a91906110a3565b6107c0565b60405161024c919061102c565b60405180910390f35b348015610260575f80fd5b506102696107d5565b604051610276919061102c565b60405180910390f35b34801561028a575f80fd5b506102a560048036038101906102a0919061119f565b6107db565b005b3480156102b2575f80fd5b506102bb610934565b005b3480156102c8575f80fd5b506102e360048036038101906102de919061119f565b610c45565b6040516102f091906111d9565b60405180910390f35b60085481565b6005602052805f5260405f205f915054906101000a900460ff1681565b60035481565b600280541061032f575f80fd5b5f60025411156103ac5760065f8154811061034d5761034c61122b565b5b905f5260205f20015f9054906101000a900473ffffffffffffffffffffffffffffffffffffffff1673ffffffffffffffffffffffffffffffffffffffff163373ffffffffffffffffffffffffffffffffffffffff16036103ab575f80fd5b5b670de0b6b3a764000034146103bf575f80fd5b3373ffffffffffffffffffffffffffffffffffffffff1660075f815481106103ea576103e961122b565b5b905f5260205f20015f9054906101000a900473ffffffffffffffffffffffffffffffffffffffff1673ffffffffffffffffffffffffffffffffffffffff161415801561049e57503373ffffffffffffffffffffffffffffffffffffffff16600760018154811061045d5761045c61122b565b5b905f5260205f20015f9054906101000a900473ffffffffffffffffffffffffffffffffffffffff1673ffffffffffffffffffffffffffffffffffffffff1614155b801561051257503373ffffffffffffffffffffffffffffffffffffffff1660076002815481106104d1576104d061122b565b5b905f5260205f20015f9054906101000a900473ffffffffffffffffffffffffffffffffffffffff1673ffffffffffffffffffffffffffffffffffffffff1614155b801561058657503373ffffffffffffffffffffffffffffffffffffffff1660076003815481106105455761054461122b565b5b905f5260205f20015f9054906101000a900473ffffffffffffffffffffffffffffffffffffffff1673ffffffffffffffffffffffffffffffffffffffff1614155b156105cc575f6105cb576040517f08c379a00000000000000000000000000000000000000000000000000000000081526004016105c2906112d8565b60405180910390fd5b5b3460035f8282546105dd9190611323565b92505081905550600160055f3373ffffffffffffffffffffffffffffffffffffffff1673ffffffffffffffffffffffffffffffffffffffff1681526020019081526020015f205f6101000a81548160ff021916908315150217905550600633908060018154018082558091505060019003905f5260205f20015f9091909190916101000a81548173ffffffffffffffffffffffffffffffffffffffff021916908373ffffffffffffffffffffffffffffffffffffffff16021790555060025f8154809291906106ab90611356565b9190505550600160025403610735575f8054906101000a900473ffffffffffffffffffffffffffffffffffffffff1673ffffffffffffffffffffffffffffffffffffffff1663a63f7c536040518163ffffffff1660e01b81526004015f604051808303815f87803b15801561071e575f80fd5b505af1158015610730573d5f803e3d5ffd5b505050505b565b5f8054906101000a900473ffffffffffffffffffffffffffffffffffffffff1681565b60078181548110610769575f80fd5b905f5260205f20015f915054906101000a900473ffffffffffffffffffffffffffffffffffffffff1681565b60025481565b60015f9054906101000a900473ffffffffffffffffffffffffffffffffffffffff1681565b6004602052805f5260405f205f915090505481565b60095481565b60028054146107e8575f80fd5b60055f3373ffffffffffffffffffffffffffffffffffffffff1673ffffffffffffffffffffffffffffffffffffffff1681526020019081526020015f205f9054906101000a900460ff1661083a575f80fd5b5f8114806108485750600181145b806108535750600281145b8061085e5750600381145b806108695750600481145b610871575f80fd5b8060045f3373ffffffffffffffffffffffffffffffffffffffff1673ffffffffffffffffffffffffffffffffffffffff1681526020019081526020015f20819055505f60055f3373ffffffffffffffffffffffffffffffffffffffff1673ffffffffffffffffffffffffffffffffffffffff1681526020019081526020015f205f6101000a81548160ff02191690831515021790555060085f81548092919061091990611356565b919050555060026008540361093157610930610c80565b5b50565b60016002541480156109d357506009545f8054906101000a900473ffffffffffffffffffffffffffffffffffffffff1673ffffffffffffffffffffffffffffffffffffffff1663bc06b8cd6040518163ffffffff1660e01b8152600401602060405180830381865afa1580156109ac573d5f803e3d5ffd5b505050506040513d601f19601f820116820180604052508101906109d091906113b1565b10155b15610a63575f60065f815481106109ed576109ec61122b565b5b905f5260205f20015f9054906101000a900473ffffffffffffffffffffffffffffffffffffffff1690508073ffffffffffffffffffffffffffffffffffffffff166108fc60035490811502906040515f60405180830381858888f19350505050158015610a5c573d5f803e3d5ffd5b5050610c3b565b60028054148015610a7657506001600854145b8015610b0f57506009545f8054906101000a900473ffffffffffffffffffffffffffffffffffffffff1673ffffffffffffffffffffffffffffffffffffffff1663bc06b8cd6040518163ffffffff1660e01b8152600401602060405180830381865afa158015610ae8573d5f803e3d5ffd5b505050506040513d601f19601f82011682018060405250810190610b0c91906113b1565b10155b15610c3a575f60065f81548110610b2957610b2861122b565b5b905f5260205f20015f9054906101000a900473ffffffffffffffffffffffffffffffffffffffff1690505f6006600181548110610b6957610b6861122b565b5b905f5260205f20015f9054906101000a900473ffffffffffffffffffffffffffffffffffffffff1690508173ffffffffffffffffffffffffffffffffffffffff166108fc6002600354610bbc9190611409565b90811502906040515f60405180830381858888f19350505050158015610be4573d5f803e3d5ffd5b508073ffffffffffffffffffffffffffffffffffffffff166108fc6002600354610c0e9190611409565b90811502906040515f60405180830381858888f19350505050158015610c36573d5f803e3d5ffd5b5050505b5b610c43610fbe565b565b60068181548110610c54575f80fd5b905f5260205f20015f915054906101000a900473ffffffffffffffffffffffffffffffffffffffff1681565b5f60045f60065f81548110610c9857610c9761122b565b5b905f5260205f20015f9054906101000a900473ffffffffffffffffffffffffffffffffffffffff1673ffffffffffffffffffffffffffffffffffffffff1673ffffffffffffffffffffffffffffffffffffffff1681526020019081526020015f205490505f60045f6006600181548110610d1557610d1461122b565b5b905f5260205f20015f9054906101000a900473ffffffffffffffffffffffffffffffffffffffff1673ffffffffffffffffffffffffffffffffffffffff1673ffffffffffffffffffffffffffffffffffffffff1681526020019081526020015f205490505f60065f81548110610d8e57610d8d61122b565b5b905f5260205f20015f9054906101000a900473ffffffffffffffffffffffffffffffffffffffff1690505f6006600181548110610dce57610dcd61122b565b5b905f5260205f20015f9054906101000a900473ffffffffffffffffffffffffffffffffffffffff169050826003600186610e089190611323565b610e129190611439565b1480610e355750826005600386610e299190611323565b610e339190611439565b145b15610e85578173ffffffffffffffffffffffffffffffffffffffff166108fc60035490811502906040515f60405180830381858888f19350505050158015610e7f573d5f803e3d5ffd5b50610fb8565b836003600185610e959190611323565b610e9f9190611439565b1480610ec25750836005600385610eb69190611323565b610ec09190611439565b145b15610f12578073ffffffffffffffffffffffffffffffffffffffff166108fc60035490811502906040515f60405180830381858888f19350505050158015610f0c573d5f803e3d5ffd5b50610fb7565b8173ffffffffffffffffffffffffffffffffffffffff166108fc6002600354610f3b9190611409565b90811502906040515f60405180830381858888f19350505050158015610f63573d5f803e3d5ffd5b508073ffffffffffffffffffffffffffffffffffffffff166108fc6002600354610f8d9190611409565b90811502906040515f60405180830381858888f19350505050158015610fb5573d5f803e3d5ffd5b505b5b50505050565b5f60038190555060065f610fd29190610fdb565b5f600281905550565b5080545f8255905f5260205f2090810190610ff69190610ff9565b50565b5b80821115611010575f815f905550600101610ffa565b5090565b5f819050919050565b61102681611014565b82525050565b5f60208201905061103f5f83018461101d565b92915050565b5f80fd5b5f73ffffffffffffffffffffffffffffffffffffffff82169050919050565b5f61107282611049565b9050919050565b61108281611068565b811461108c575f80fd5b50565b5f8135905061109d81611079565b92915050565b5f602082840312156110b8576110b7611045565b5b5f6110c58482850161108f565b91505092915050565b5f8115159050919050565b6110e2816110ce565b82525050565b5f6020820190506110fb5f8301846110d9565b92915050565b5f819050919050565b5f61112461111f61111a84611049565b611101565b611049565b9050919050565b5f6111358261110a565b9050919050565b5f6111468261112b565b9050919050565b6111568161113c565b82525050565b5f60208201905061116f5f83018461114d565b92915050565b61117e81611014565b8114611188575f80fd5b50565b5f8135905061119981611175565b92915050565b5f602082840312156111b4576111b3611045565b5b5f6111c18482850161118b565b91505092915050565b6111d381611068565b82525050565b5f6020820190506111ec5f8301846111ca565b92915050565b5f6111fc8261112b565b9050919050565b61120c816111f2565b82525050565b5f6020820190506112255f830184611203565b92915050565b7f4e487b71000000000000000000000000000000000000000000000000000000005f52603260045260245ffd5b5f82825260208201905092915050565b7f596f7520617265206e6f7420616c6c6f77656420746f20706c617920746869735f8201527f2067616d65000000000000000000000000000000000000000000000000000000602082015250565b5f6112c2602583611258565b91506112cd82611268565b604082019050919050565b5f6020820190508181035f8301526112ef816112b6565b9050919050565b7f4e487b71000000000000000000000000000000000000000000000000000000005f52601160045260245ffd5b5f61132d82611014565b915061133883611014565b92508282019050808211156113505761134f6112f6565b5b92915050565b5f61136082611014565b91507fffffffffffffffffffffffffffffffffffffffffffffffffffffffffffffffff8203611392576113916112f6565b5b600182019050919050565b5f815190506113ab81611175565b92915050565b5f602082840312156113c6576113c5611045565b5b5f6113d38482850161139d565b91505092915050565b7f4e487b71000000000000000000000000000000000000000000000000000000005f52601260045260245ffd5b5f61141382611014565b915061141e83611014565b92508261142e5761142d6113dc565b5b828204905092915050565b5f61144382611014565b915061144e83611014565b92508261145e5761145d6113dc565b5b82820690509291505056fea26469706673582212200cb3732f57e300ab3a828ec93d6563156ccab25de7105136b3ef58c6004493c564736f6c634300081a0033",
					"opcodes": "PUSH1 0x80 PUSH1 0x40 MSTORE PUSH0 PUSH1 0x2 SSTORE PUSH0 PUSH1 0x3 SSTORE PUSH1 0x40 MLOAD DUP1 PUSH1 0x80 ADD PUSH1 0x40 MSTORE DUP1 PUSH20 0x5B38DA6A701C568545DCFCB03FCB875F56BEDDC4 PUSH20 0xFFFFFFFFFFFFFFFFFFFFFFFFFFFFFFFFFFFFFFFF AND PUSH20 0xFFFFFFFFFFFFFFFFFFFFFFFFFFFFFFFFFFFFFFFF AND DUP2 MSTORE PUSH1 0x20 ADD PUSH20 0xAB8483F64D9C6D1ECF9B849AE677DD3315835CB2 PUSH20 0xFFFFFFFFFFFFFFFFFFFFFFFFFFFFFFFFFFFFFFFF AND PUSH20 0xFFFFFFFFFFFFFFFFFFFFFFFFFFFFFFFFFFFFFFFF AND DUP2 MSTORE PUSH1 0x20 ADD PUSH20 0x4B20993BC481177EC7E8F571CECAE8A9E22C02DB PUSH20 0xFFFFFFFFFFFFFFFFFFFFFFFFFFFFFFFFFFFFFFFF AND PUSH20 0xFFFFFFFFFFFFFFFFFFFFFFFFFFFFFFFFFFFFFFFF AND DUP2 MSTORE PUSH1 0x20 ADD PUSH20 0x78731D3CA6B7E34AC0F824C42A7CC18A495CABAB PUSH20 0xFFFFFFFFFFFFFFFFFFFFFFFFFFFFFFFFFFFFFFFF AND PUSH20 0xFFFFFFFFFFFFFFFFFFFFFFFFFFFFFFFFFFFFFFFF AND DUP2 MSTORE POP PUSH1 0x7 SWAP1 PUSH1 0x4 PUSH2 0x13D SWAP3 SWAP2 SWAP1 PUSH2 0x1FB JUMP JUMPDEST POP PUSH0 PUSH1 0x8 SSTORE PUSH2 0x12C PUSH1 0x9 SSTORE CALLVALUE DUP1 ISZERO PUSH2 0x153 JUMPI PUSH0 DUP1 REVERT JUMPDEST POP PUSH1 0x40 MLOAD PUSH2 0x17E5 CODESIZE SUB DUP1 PUSH2 0x17E5 DUP4 CODECOPY DUP2 DUP2 ADD PUSH1 0x40 MSTORE DUP2 ADD SWAP1 PUSH2 0x175 SWAP2 SWAP1 PUSH2 0x2FB JUMP JUMPDEST DUP2 PUSH0 DUP1 PUSH2 0x100 EXP DUP2 SLOAD DUP2 PUSH20 0xFFFFFFFFFFFFFFFFFFFFFFFFFFFFFFFFFFFFFFFF MUL NOT AND SWAP1 DUP4 PUSH20 0xFFFFFFFFFFFFFFFFFFFFFFFFFFFFFFFFFFFFFFFF AND MUL OR SWAP1 SSTORE POP DUP1 PUSH1 0x1 PUSH0 PUSH2 0x100 EXP DUP2 SLOAD DUP2 PUSH20 0xFFFFFFFFFFFFFFFFFFFFFFFFFFFFFFFFFFFFFFFF MUL NOT AND SWAP1 DUP4 PUSH20 0xFFFFFFFFFFFFFFFFFFFFFFFFFFFFFFFFFFFFFFFF AND MUL OR SWAP1 SSTORE POP POP POP PUSH2 0x339 JUMP JUMPDEST DUP3 DUP1 SLOAD DUP3 DUP3 SSTORE SWAP1 PUSH0 MSTORE PUSH1 0x20 PUSH0 KECCAK256 SWAP1 DUP2 ADD SWAP3 DUP3 ISZERO PUSH2 0x271 JUMPI SWAP2 PUSH1 0x20 MUL DUP3 ADD JUMPDEST DUP3 DUP2 GT ISZERO PUSH2 0x270 JUMPI DUP3 MLOAD DUP3 PUSH0 PUSH2 0x100 EXP DUP2 SLOAD DUP2 PUSH20 0xFFFFFFFFFFFFFFFFFFFFFFFFFFFFFFFFFFFFFFFF MUL NOT AND SWAP1 DUP4 PUSH20 0xFFFFFFFFFFFFFFFFFFFFFFFFFFFFFFFFFFFFFFFF AND MUL OR SWAP1 SSTORE POP SWAP2 PUSH1 0x20 ADD SWAP2 SWAP1 PUSH1 0x1 ADD SWAP1 PUSH2 0x219 JUMP JUMPDEST JUMPDEST POP SWAP1 POP PUSH2 0x27E SWAP2 SWAP1 PUSH2 0x282 JUMP JUMPDEST POP SWAP1 JUMP JUMPDEST JUMPDEST DUP1 DUP3 GT ISZERO PUSH2 0x299 JUMPI PUSH0 DUP2 PUSH0 SWAP1 SSTORE POP PUSH1 0x1 ADD PUSH2 0x283 JUMP JUMPDEST POP SWAP1 JUMP JUMPDEST PUSH0 DUP1 REVERT JUMPDEST PUSH0 PUSH20 0xFFFFFFFFFFFFFFFFFFFFFFFFFFFFFFFFFFFFFFFF DUP3 AND SWAP1 POP SWAP2 SWAP1 POP JUMP JUMPDEST PUSH0 PUSH2 0x2CA DUP3 PUSH2 0x2A1 JUMP JUMPDEST SWAP1 POP SWAP2 SWAP1 POP JUMP JUMPDEST PUSH2 0x2DA DUP2 PUSH2 0x2C0 JUMP JUMPDEST DUP2 EQ PUSH2 0x2E4 JUMPI PUSH0 DUP1 REVERT JUMPDEST POP JUMP JUMPDEST PUSH0 DUP2 MLOAD SWAP1 POP PUSH2 0x2F5 DUP2 PUSH2 0x2D1 JUMP JUMPDEST SWAP3 SWAP2 POP POP JUMP JUMPDEST PUSH0 DUP1 PUSH1 0x40 DUP4 DUP6 SUB SLT ISZERO PUSH2 0x311 JUMPI PUSH2 0x310 PUSH2 0x29D JUMP JUMPDEST JUMPDEST PUSH0 PUSH2 0x31E DUP6 DUP3 DUP7 ADD PUSH2 0x2E7 JUMP JUMPDEST SWAP3 POP POP PUSH1 0x20 PUSH2 0x32F DUP6 DUP3 DUP7 ADD PUSH2 0x2E7 JUMP JUMPDEST SWAP2 POP POP SWAP3 POP SWAP3 SWAP1 POP JUMP JUMPDEST PUSH2 0x149F DUP1 PUSH2 0x346 PUSH0 CODECOPY PUSH0 RETURN INVALID PUSH1 0x80 PUSH1 0x40 MSTORE PUSH1 0x4 CALLDATASIZE LT PUSH2 0xC1 JUMPI PUSH0 CALLDATALOAD PUSH1 0xE0 SHR DUP1 PUSH4 0x90D5D0C3 GT PUSH2 0x7E JUMPI DUP1 PUSH4 0xC08D1FE5 GT PUSH2 0x58 JUMPI DUP1 PUSH4 0xC08D1FE5 EQ PUSH2 0x255 JUMPI DUP1 PUSH4 0xCE6E1C4E EQ PUSH2 0x27F JUMPI DUP1 PUSH4 0xD84C1AC9 EQ PUSH2 0x2A7 JUMPI DUP1 PUSH4 0xF71D96CB EQ PUSH2 0x2BD JUMPI PUSH2 0xC1 JUMP JUMPDEST DUP1 PUSH4 0x90D5D0C3 EQ PUSH2 0x1C5 JUMPI DUP1 PUSH4 0x9D7B3F2D EQ PUSH2 0x1EF JUMPI DUP1 PUSH4 0xA040478D EQ PUSH2 0x219 JUMPI PUSH2 0xC1 JUMP JUMPDEST DUP1 PUSH4 0x86F7815 EQ PUSH2 0xC5 JUMPI DUP1 PUSH4 0x190CF745 EQ PUSH2 0xEF JUMPI DUP1 PUSH4 0x228CB733 EQ PUSH2 0x12B JUMPI DUP1 PUSH4 0x27B5DB8A EQ PUSH2 0x155 JUMPI DUP1 PUSH4 0x3C6A7F9B EQ PUSH2 0x15F JUMPI DUP1 PUSH4 0x55D07388 EQ PUSH2 0x189 JUMPI JUMPDEST PUSH0 DUP1 REVERT JUMPDEST CALLVALUE DUP1 ISZERO PUSH2 0xD0 JUMPI PUSH0 DUP1 REVERT JUMPDEST POP PUSH2 0xD9 PUSH2 0x2F9 JUMP JUMPDEST PUSH1 0x40 MLOAD PUSH2 0xE6 SWAP2 SWAP1 PUSH2 0x102C JUMP JUMPDEST PUSH1 0x40 MLOAD DUP1 SWAP2 SUB SWAP1 RETURN JUMPDEST CALLVALUE DUP1 ISZERO PUSH2 0xFA JUMPI PUSH0 DUP1 REVERT JUMPDEST POP PUSH2 0x115 PUSH1 0x4 DUP1 CALLDATASIZE SUB DUP2 ADD SWAP1 PUSH2 0x110 SWAP2 SWAP1 PUSH2 0x10A3 JUMP JUMPDEST PUSH2 0x2FF JUMP JUMPDEST PUSH1 0x40 MLOAD PUSH2 0x122 SWAP2 SWAP1 PUSH2 0x10E8 JUMP JUMPDEST PUSH1 0x40 MLOAD DUP1 SWAP2 SUB SWAP1 RETURN JUMPDEST CALLVALUE DUP1 ISZERO PUSH2 0x136 JUMPI PUSH0 DUP1 REVERT JUMPDEST POP PUSH2 0x13F PUSH2 0x31C JUMP JUMPDEST PUSH1 0x40 MLOAD PUSH2 0x14C SWAP2 SWAP1 PUSH2 0x102C JUMP JUMPDEST PUSH1 0x40 MLOAD DUP1 SWAP2 SUB SWAP1 RETURN JUMPDEST PUSH2 0x15D PUSH2 0x322 JUMP JUMPDEST STOP JUMPDEST CALLVALUE DUP1 ISZERO PUSH2 0x16A JUMPI PUSH0 DUP1 REVERT JUMPDEST POP PUSH2 0x173 PUSH2 0x737 JUMP JUMPDEST PUSH1 0x40 MLOAD PUSH2 0x180 SWAP2 SWAP1 PUSH2 0x115C JUMP JUMPDEST PUSH1 0x40 MLOAD DUP1 SWAP2 SUB SWAP1 RETURN JUMPDEST CALLVALUE DUP1 ISZERO PUSH2 0x194 JUMPI PUSH0 DUP1 REVERT JUMPDEST POP PUSH2 0x1AF PUSH1 0x4 DUP1 CALLDATASIZE SUB DUP2 ADD SWAP1 PUSH2 0x1AA SWAP2 SWAP1 PUSH2 0x119F JUMP JUMPDEST PUSH2 0x75A JUMP JUMPDEST PUSH1 0x40 MLOAD PUSH2 0x1BC SWAP2 SWAP1 PUSH2 0x11D9 JUMP JUMPDEST PUSH1 0x40 MLOAD DUP1 SWAP2 SUB SWAP1 RETURN JUMPDEST CALLVALUE DUP1 ISZERO PUSH2 0x1D0 JUMPI PUSH0 DUP1 REVERT JUMPDEST POP PUSH2 0x1D9 PUSH2 0x795 JUMP JUMPDEST PUSH1 0x40 MLOAD PUSH2 0x1E6 SWAP2 SWAP1 PUSH2 0x102C JUMP JUMPDEST PUSH1 0x40 MLOAD DUP1 SWAP2 SUB SWAP1 RETURN JUMPDEST CALLVALUE DUP1 ISZERO PUSH2 0x1FA JUMPI PUSH0 DUP1 REVERT JUMPDEST POP PUSH2 0x203 PUSH2 0x79B JUMP JUMPDEST PUSH1 0x40 MLOAD PUSH2 0x210 SWAP2 SWAP1 PUSH2 0x1212 JUMP JUMPDEST PUSH1 0x40 MLOAD DUP1 SWAP2 SUB SWAP1 RETURN JUMPDEST CALLVALUE DUP1 ISZERO PUSH2 0x224 JUMPI PUSH0 DUP1 REVERT JUMPDEST POP PUSH2 0x23F PUSH1 0x4 DUP1 CALLDATASIZE SUB DUP2 ADD SWAP1 PUSH2 0x23A SWAP2 SWAP1 PUSH2 0x10A3 JUMP JUMPDEST PUSH2 0x7C0 JUMP JUMPDEST PUSH1 0x40 MLOAD PUSH2 0x24C SWAP2 SWAP1 PUSH2 0x102C JUMP JUMPDEST PUSH1 0x40 MLOAD DUP1 SWAP2 SUB SWAP1 RETURN JUMPDEST CALLVALUE DUP1 ISZERO PUSH2 0x260 JUMPI PUSH0 DUP1 REVERT JUMPDEST POP PUSH2 0x269 PUSH2 0x7D5 JUMP JUMPDEST PUSH1 0x40 MLOAD PUSH2 0x276 SWAP2 SWAP1 PUSH2 0x102C JUMP JUMPDEST PUSH1 0x40 MLOAD DUP1 SWAP2 SUB SWAP1 RETURN JUMPDEST CALLVALUE DUP1 ISZERO PUSH2 0x28A JUMPI PUSH0 DUP1 REVERT JUMPDEST POP PUSH2 0x2A5 PUSH1 0x4 DUP1 CALLDATASIZE SUB DUP2 ADD SWAP1 PUSH2 0x2A0 SWAP2 SWAP1 PUSH2 0x119F JUMP JUMPDEST PUSH2 0x7DB JUMP JUMPDEST STOP JUMPDEST CALLVALUE DUP1 ISZERO PUSH2 0x2B2 JUMPI PUSH0 DUP1 REVERT JUMPDEST POP PUSH2 0x2BB PUSH2 0x934 JUMP JUMPDEST STOP JUMPDEST CALLVALUE DUP1 ISZERO PUSH2 0x2C8 JUMPI PUSH0 DUP1 REVERT JUMPDEST POP PUSH2 0x2E3 PUSH1 0x4 DUP1 CALLDATASIZE SUB DUP2 ADD SWAP1 PUSH2 0x2DE SWAP2 SWAP1 PUSH2 0x119F JUMP JUMPDEST PUSH2 0xC45 JUMP JUMPDEST PUSH1 0x40 MLOAD PUSH2 0x2F0 SWAP2 SWAP1 PUSH2 0x11D9 JUMP JUMPDEST PUSH1 0x40 MLOAD DUP1 SWAP2 SUB SWAP1 RETURN JUMPDEST PUSH1 0x8 SLOAD DUP2 JUMP JUMPDEST PUSH1 0x5 PUSH1 0x20 MSTORE DUP1 PUSH0 MSTORE PUSH1 0x40 PUSH0 KECCAK256 PUSH0 SWAP2 POP SLOAD SWAP1 PUSH2 0x100 EXP SWAP1 DIV PUSH1 0xFF AND DUP2 JUMP JUMPDEST PUSH1 0x3 SLOAD DUP2 JUMP JUMPDEST PUSH1 0x2 DUP1 SLOAD LT PUSH2 0x32F JUMPI PUSH0 DUP1 REVERT JUMPDEST PUSH0 PUSH1 0x2 SLOAD GT ISZERO PUSH2 0x3AC JUMPI PUSH1 0x6 PUSH0 DUP2 SLOAD DUP2 LT PUSH2 0x34D JUMPI PUSH2 0x34C PUSH2 0x122B JUMP JUMPDEST JUMPDEST SWAP1 PUSH0 MSTORE PUSH1 0x20 PUSH0 KECCAK256 ADD PUSH0 SWAP1 SLOAD SWAP1 PUSH2 0x100 EXP SWAP1 DIV PUSH20 0xFFFFFFFFFFFFFFFFFFFFFFFFFFFFFFFFFFFFFFFF AND PUSH20 0xFFFFFFFFFFFFFFFFFFFFFFFFFFFFFFFFFFFFFFFF AND CALLER PUSH20 0xFFFFFFFFFFFFFFFFFFFFFFFFFFFFFFFFFFFFFFFF AND SUB PUSH2 0x3AB JUMPI PUSH0 DUP1 REVERT JUMPDEST JUMPDEST PUSH8 0xDE0B6B3A7640000 CALLVALUE EQ PUSH2 0x3BF JUMPI PUSH0 DUP1 REVERT JUMPDEST CALLER PUSH20 0xFFFFFFFFFFFFFFFFFFFFFFFFFFFFFFFFFFFFFFFF AND PUSH1 0x7 PUSH0 DUP2 SLOAD DUP2 LT PUSH2 0x3EA JUMPI PUSH2 0x3E9 PUSH2 0x122B JUMP JUMPDEST JUMPDEST SWAP1 PUSH0 MSTORE PUSH1 0x20 PUSH0 KECCAK256 ADD PUSH0 SWAP1 SLOAD SWAP1 PUSH2 0x100 EXP SWAP1 DIV PUSH20 0xFFFFFFFFFFFFFFFFFFFFFFFFFFFFFFFFFFFFFFFF AND PUSH20 0xFFFFFFFFFFFFFFFFFFFFFFFFFFFFFFFFFFFFFFFF AND EQ ISZERO DUP1 ISZERO PUSH2 0x49E JUMPI POP CALLER PUSH20 0xFFFFFFFFFFFFFFFFFFFFFFFFFFFFFFFFFFFFFFFF AND PUSH1 0x7 PUSH1 0x1 DUP2 SLOAD DUP2 LT PUSH2 0x45D JUMPI PUSH2 0x45C PUSH2 0x122B JUMP JUMPDEST JUMPDEST SWAP1 PUSH0 MSTORE PUSH1 0x20 PUSH0 KECCAK256 ADD PUSH0 SWAP1 SLOAD SWAP1 PUSH2 0x100 EXP SWAP1 DIV PUSH20 0xFFFFFFFFFFFFFFFFFFFFFFFFFFFFFFFFFFFFFFFF AND PUSH20 0xFFFFFFFFFFFFFFFFFFFFFFFFFFFFFFFFFFFFFFFF AND EQ ISZERO JUMPDEST DUP1 ISZERO PUSH2 0x512 JUMPI POP CALLER PUSH20 0xFFFFFFFFFFFFFFFFFFFFFFFFFFFFFFFFFFFFFFFF AND PUSH1 0x7 PUSH1 0x2 DUP2 SLOAD DUP2 LT PUSH2 0x4D1 JUMPI PUSH2 0x4D0 PUSH2 0x122B JUMP JUMPDEST JUMPDEST SWAP1 PUSH0 MSTORE PUSH1 0x20 PUSH0 KECCAK256 ADD PUSH0 SWAP1 SLOAD SWAP1 PUSH2 0x100 EXP SWAP1 DIV PUSH20 0xFFFFFFFFFFFFFFFFFFFFFFFFFFFFFFFFFFFFFFFF AND PUSH20 0xFFFFFFFFFFFFFFFFFFFFFFFFFFFFFFFFFFFFFFFF AND EQ ISZERO JUMPDEST DUP1 ISZERO PUSH2 0x586 JUMPI POP CALLER PUSH20 0xFFFFFFFFFFFFFFFFFFFFFFFFFFFFFFFFFFFFFFFF AND PUSH1 0x7 PUSH1 0x3 DUP2 SLOAD DUP2 LT PUSH2 0x545 JUMPI PUSH2 0x544 PUSH2 0x122B JUMP JUMPDEST JUMPDEST SWAP1 PUSH0 MSTORE PUSH1 0x20 PUSH0 KECCAK256 ADD PUSH0 SWAP1 SLOAD SWAP1 PUSH2 0x100 EXP SWAP1 DIV PUSH20 0xFFFFFFFFFFFFFFFFFFFFFFFFFFFFFFFFFFFFFFFF AND PUSH20 0xFFFFFFFFFFFFFFFFFFFFFFFFFFFFFFFFFFFFFFFF AND EQ ISZERO JUMPDEST ISZERO PUSH2 0x5CC JUMPI PUSH0 PUSH2 0x5CB JUMPI PUSH1 0x40 MLOAD PUSH32 0x8C379A000000000000000000000000000000000000000000000000000000000 DUP2 MSTORE PUSH1 0x4 ADD PUSH2 0x5C2 SWAP1 PUSH2 0x12D8 JUMP JUMPDEST PUSH1 0x40 MLOAD DUP1 SWAP2 SUB SWAP1 REVERT JUMPDEST JUMPDEST CALLVALUE PUSH1 0x3 PUSH0 DUP3 DUP3 SLOAD PUSH2 0x5DD SWAP2 SWAP1 PUSH2 0x1323 JUMP JUMPDEST SWAP3 POP POP DUP2 SWAP1 SSTORE POP PUSH1 0x1 PUSH1 0x5 PUSH0 CALLER PUSH20 0xFFFFFFFFFFFFFFFFFFFFFFFFFFFFFFFFFFFFFFFF AND PUSH20 0xFFFFFFFFFFFFFFFFFFFFFFFFFFFFFFFFFFFFFFFF AND DUP2 MSTORE PUSH1 0x20 ADD SWAP1 DUP2 MSTORE PUSH1 0x20 ADD PUSH0 KECCAK256 PUSH0 PUSH2 0x100 EXP DUP2 SLOAD DUP2 PUSH1 0xFF MUL NOT AND SWAP1 DUP4 ISZERO ISZERO MUL OR SWAP1 SSTORE POP PUSH1 0x6 CALLER SWAP1 DUP1 PUSH1 0x1 DUP2 SLOAD ADD DUP1 DUP3 SSTORE DUP1 SWAP2 POP POP PUSH1 0x1 SWAP1 SUB SWAP1 PUSH0 MSTORE PUSH1 0x20 PUSH0 KECCAK256 ADD PUSH0 SWAP1 SWAP2 SWAP1 SWAP2 SWAP1 SWAP2 PUSH2 0x100 EXP DUP2 SLOAD DUP2 PUSH20 0xFFFFFFFFFFFFFFFFFFFFFFFFFFFFFFFFFFFFFFFF MUL NOT AND SWAP1 DUP4 PUSH20 0xFFFFFFFFFFFFFFFFFFFFFFFFFFFFFFFFFFFFFFFF AND MUL OR SWAP1 SSTORE POP PUSH1 0x2 PUSH0 DUP2 SLOAD DUP1 SWAP3 SWAP2 SWAP1 PUSH2 0x6AB SWAP1 PUSH2 0x1356 JUMP JUMPDEST SWAP2 SWAP1 POP SSTORE POP PUSH1 0x1 PUSH1 0x2 SLOAD SUB PUSH2 0x735 JUMPI PUSH0 DUP1 SLOAD SWAP1 PUSH2 0x100 EXP SWAP1 DIV PUSH20 0xFFFFFFFFFFFFFFFFFFFFFFFFFFFFFFFFFFFFFFFF AND PUSH20 0xFFFFFFFFFFFFFFFFFFFFFFFFFFFFFFFFFFFFFFFF AND PUSH4 0xA63F7C53 PUSH1 0x40 MLOAD DUP2 PUSH4 0xFFFFFFFF AND PUSH1 0xE0 SHL DUP2 MSTORE PUSH1 0x4 ADD PUSH0 PUSH1 0x40 MLOAD DUP1 DUP4 SUB DUP2 PUSH0 DUP8 DUP1 EXTCODESIZE ISZERO DUP1 ISZERO PUSH2 0x71E JUMPI PUSH0 DUP1 REVERT JUMPDEST POP GAS CALL ISZERO DUP1 ISZERO PUSH2 0x730 JUMPI RETURNDATASIZE PUSH0 DUP1 RETURNDATACOPY RETURNDATASIZE PUSH0 REVERT JUMPDEST POP POP POP POP JUMPDEST JUMP JUMPDEST PUSH0 DUP1 SLOAD SWAP1 PUSH2 0x100 EXP SWAP1 DIV PUSH20 0xFFFFFFFFFFFFFFFFFFFFFFFFFFFFFFFFFFFFFFFF AND DUP2 JUMP JUMPDEST PUSH1 0x7 DUP2 DUP2 SLOAD DUP2 LT PUSH2 0x769 JUMPI PUSH0 DUP1 REVERT JUMPDEST SWAP1 PUSH0 MSTORE PUSH1 0x20 PUSH0 KECCAK256 ADD PUSH0 SWAP2 POP SLOAD SWAP1 PUSH2 0x100 EXP SWAP1 DIV PUSH20 0xFFFFFFFFFFFFFFFFFFFFFFFFFFFFFFFFFFFFFFFF AND DUP2 JUMP JUMPDEST PUSH1 0x2 SLOAD DUP2 JUMP JUMPDEST PUSH1 0x1 PUSH0 SWAP1 SLOAD SWAP1 PUSH2 0x100 EXP SWAP1 DIV PUSH20 0xFFFFFFFFFFFFFFFFFFFFFFFFFFFFFFFFFFFFFFFF AND DUP2 JUMP JUMPDEST PUSH1 0x4 PUSH1 0x20 MSTORE DUP1 PUSH0 MSTORE PUSH1 0x40 PUSH0 KECCAK256 PUSH0 SWAP2 POP SWAP1 POP SLOAD DUP2 JUMP JUMPDEST PUSH1 0x9 SLOAD DUP2 JUMP JUMPDEST PUSH1 0x2 DUP1 SLOAD EQ PUSH2 0x7E8 JUMPI PUSH0 DUP1 REVERT JUMPDEST PUSH1 0x5 PUSH0 CALLER PUSH20 0xFFFFFFFFFFFFFFFFFFFFFFFFFFFFFFFFFFFFFFFF AND PUSH20 0xFFFFFFFFFFFFFFFFFFFFFFFFFFFFFFFFFFFFFFFF AND DUP2 MSTORE PUSH1 0x20 ADD SWAP1 DUP2 MSTORE PUSH1 0x20 ADD PUSH0 KECCAK256 PUSH0 SWAP1 SLOAD SWAP1 PUSH2 0x100 EXP SWAP1 DIV PUSH1 0xFF AND PUSH2 0x83A JUMPI PUSH0 DUP1 REVERT JUMPDEST PUSH0 DUP2 EQ DUP1 PUSH2 0x848 JUMPI POP PUSH1 0x1 DUP2 EQ JUMPDEST DUP1 PUSH2 0x853 JUMPI POP PUSH1 0x2 DUP2 EQ JUMPDEST DUP1 PUSH2 0x85E JUMPI POP PUSH1 0x3 DUP2 EQ JUMPDEST DUP1 PUSH2 0x869 JUMPI POP PUSH1 0x4 DUP2 EQ JUMPDEST PUSH2 0x871 JUMPI PUSH0 DUP1 REVERT JUMPDEST DUP1 PUSH1 0x4 PUSH0 CALLER PUSH20 0xFFFFFFFFFFFFFFFFFFFFFFFFFFFFFFFFFFFFFFFF AND PUSH20 0xFFFFFFFFFFFFFFFFFFFFFFFFFFFFFFFFFFFFFFFF AND DUP2 MSTORE PUSH1 0x20 ADD SWAP1 DUP2 MSTORE PUSH1 0x20 ADD PUSH0 KECCAK256 DUP2 SWAP1 SSTORE POP PUSH0 PUSH1 0x5 PUSH0 CALLER PUSH20 0xFFFFFFFFFFFFFFFFFFFFFFFFFFFFFFFFFFFFFFFF AND PUSH20 0xFFFFFFFFFFFFFFFFFFFFFFFFFFFFFFFFFFFFFFFF AND DUP2 MSTORE PUSH1 0x20 ADD SWAP1 DUP2 MSTORE PUSH1 0x20 ADD PUSH0 KECCAK256 PUSH0 PUSH2 0x100 EXP DUP2 SLOAD DUP2 PUSH1 0xFF MUL NOT AND SWAP1 DUP4 ISZERO ISZERO MUL OR SWAP1 SSTORE POP PUSH1 0x8 PUSH0 DUP2 SLOAD DUP1 SWAP3 SWAP2 SWAP1 PUSH2 0x919 SWAP1 PUSH2 0x1356 JUMP JUMPDEST SWAP2 SWAP1 POP SSTORE POP PUSH1 0x2 PUSH1 0x8 SLOAD SUB PUSH2 0x931 JUMPI PUSH2 0x930 PUSH2 0xC80 JUMP JUMPDEST JUMPDEST POP JUMP JUMPDEST PUSH1 0x1 PUSH1 0x2 SLOAD EQ DUP1 ISZERO PUSH2 0x9D3 JUMPI POP PUSH1 0x9 SLOAD PUSH0 DUP1 SLOAD SWAP1 PUSH2 0x100 EXP SWAP1 DIV PUSH20 0xFFFFFFFFFFFFFFFFFFFFFFFFFFFFFFFFFFFFFFFF AND PUSH20 0xFFFFFFFFFFFFFFFFFFFFFFFFFFFFFFFFFFFFFFFF AND PUSH4 0xBC06B8CD PUSH1 0x40 MLOAD DUP2 PUSH4 0xFFFFFFFF AND PUSH1 0xE0 SHL DUP2 MSTORE PUSH1 0x4 ADD PUSH1 0x20 PUSH1 0x40 MLOAD DUP1 DUP4 SUB DUP2 DUP7 GAS STATICCALL ISZERO DUP1 ISZERO PUSH2 0x9AC JUMPI RETURNDATASIZE PUSH0 DUP1 RETURNDATACOPY RETURNDATASIZE PUSH0 REVERT JUMPDEST POP POP POP POP PUSH1 0x40 MLOAD RETURNDATASIZE PUSH1 0x1F NOT PUSH1 0x1F DUP3 ADD AND DUP3 ADD DUP1 PUSH1 0x40 MSTORE POP DUP2 ADD SWAP1 PUSH2 0x9D0 SWAP2 SWAP1 PUSH2 0x13B1 JUMP JUMPDEST LT ISZERO JUMPDEST ISZERO PUSH2 0xA63 JUMPI PUSH0 PUSH1 0x6 PUSH0 DUP2 SLOAD DUP2 LT PUSH2 0x9ED JUMPI PUSH2 0x9EC PUSH2 0x122B JUMP JUMPDEST JUMPDEST SWAP1 PUSH0 MSTORE PUSH1 0x20 PUSH0 KECCAK256 ADD PUSH0 SWAP1 SLOAD SWAP1 PUSH2 0x100 EXP SWAP1 DIV PUSH20 0xFFFFFFFFFFFFFFFFFFFFFFFFFFFFFFFFFFFFFFFF AND SWAP1 POP DUP1 PUSH20 0xFFFFFFFFFFFFFFFFFFFFFFFFFFFFFFFFFFFFFFFF AND PUSH2 0x8FC PUSH1 0x3 SLOAD SWAP1 DUP2 ISZERO MUL SWAP1 PUSH1 0x40 MLOAD PUSH0 PUSH1 0x40 MLOAD DUP1 DUP4 SUB DUP2 DUP6 DUP9 DUP9 CALL SWAP4 POP POP POP POP ISZERO DUP1 ISZERO PUSH2 0xA5C JUMPI RETURNDATASIZE PUSH0 DUP1 RETURNDATACOPY RETURNDATASIZE PUSH0 REVERT JUMPDEST POP POP PUSH2 0xC3B JUMP JUMPDEST PUSH1 0x2 DUP1 SLOAD EQ DUP1 ISZERO PUSH2 0xA76 JUMPI POP PUSH1 0x1 PUSH1 0x8 SLOAD EQ JUMPDEST DUP1 ISZERO PUSH2 0xB0F JUMPI POP PUSH1 0x9 SLOAD PUSH0 DUP1 SLOAD SWAP1 PUSH2 0x100 EXP SWAP1 DIV PUSH20 0xFFFFFFFFFFFFFFFFFFFFFFFFFFFFFFFFFFFFFFFF AND PUSH20 0xFFFFFFFFFFFFFFFFFFFFFFFFFFFFFFFFFFFFFFFF AND PUSH4 0xBC06B8CD PUSH1 0x40 MLOAD DUP2 PUSH4 0xFFFFFFFF AND PUSH1 0xE0 SHL DUP2 MSTORE PUSH1 0x4 ADD PUSH1 0x20 PUSH1 0x40 MLOAD DUP1 DUP4 SUB DUP2 DUP7 GAS STATICCALL ISZERO DUP1 ISZERO PUSH2 0xAE8 JUMPI RETURNDATASIZE PUSH0 DUP1 RETURNDATACOPY RETURNDATASIZE PUSH0 REVERT JUMPDEST POP POP POP POP PUSH1 0x40 MLOAD RETURNDATASIZE PUSH1 0x1F NOT PUSH1 0x1F DUP3 ADD AND DUP3 ADD DUP1 PUSH1 0x40 MSTORE POP DUP2 ADD SWAP1 PUSH2 0xB0C SWAP2 SWAP1 PUSH2 0x13B1 JUMP JUMPDEST LT ISZERO JUMPDEST ISZERO PUSH2 0xC3A JUMPI PUSH0 PUSH1 0x6 PUSH0 DUP2 SLOAD DUP2 LT PUSH2 0xB29 JUMPI PUSH2 0xB28 PUSH2 0x122B JUMP JUMPDEST JUMPDEST SWAP1 PUSH0 MSTORE PUSH1 0x20 PUSH0 KECCAK256 ADD PUSH0 SWAP1 SLOAD SWAP1 PUSH2 0x100 EXP SWAP1 DIV PUSH20 0xFFFFFFFFFFFFFFFFFFFFFFFFFFFFFFFFFFFFFFFF AND SWAP1 POP PUSH0 PUSH1 0x6 PUSH1 0x1 DUP2 SLOAD DUP2 LT PUSH2 0xB69 JUMPI PUSH2 0xB68 PUSH2 0x122B JUMP JUMPDEST JUMPDEST SWAP1 PUSH0 MSTORE PUSH1 0x20 PUSH0 KECCAK256 ADD PUSH0 SWAP1 SLOAD SWAP1 PUSH2 0x100 EXP SWAP1 DIV PUSH20 0xFFFFFFFFFFFFFFFFFFFFFFFFFFFFFFFFFFFFFFFF AND SWAP1 POP DUP2 PUSH20 0xFFFFFFFFFFFFFFFFFFFFFFFFFFFFFFFFFFFFFFFF AND PUSH2 0x8FC PUSH1 0x2 PUSH1 0x3 SLOAD PUSH2 0xBBC SWAP2 SWAP1 PUSH2 0x1409 JUMP JUMPDEST SWAP1 DUP2 ISZERO MUL SWAP1 PUSH1 0x40 MLOAD PUSH0 PUSH1 0x40 MLOAD DUP1 DUP4 SUB DUP2 DUP6 DUP9 DUP9 CALL SWAP4 POP POP POP POP ISZERO DUP1 ISZERO PUSH2 0xBE4 JUMPI RETURNDATASIZE PUSH0 DUP1 RETURNDATACOPY RETURNDATASIZE PUSH0 REVERT JUMPDEST POP DUP1 PUSH20 0xFFFFFFFFFFFFFFFFFFFFFFFFFFFFFFFFFFFFFFFF AND PUSH2 0x8FC PUSH1 0x2 PUSH1 0x3 SLOAD PUSH2 0xC0E SWAP2 SWAP1 PUSH2 0x1409 JUMP JUMPDEST SWAP1 DUP2 ISZERO MUL SWAP1 PUSH1 0x40 MLOAD PUSH0 PUSH1 0x40 MLOAD DUP1 DUP4 SUB DUP2 DUP6 DUP9 DUP9 CALL SWAP4 POP POP POP POP ISZERO DUP1 ISZERO PUSH2 0xC36 JUMPI RETURNDATASIZE PUSH0 DUP1 RETURNDATACOPY RETURNDATASIZE PUSH0 REVERT JUMPDEST POP POP POP JUMPDEST JUMPDEST PUSH2 0xC43 PUSH2 0xFBE JUMP JUMPDEST JUMP JUMPDEST PUSH1 0x6 DUP2 DUP2 SLOAD DUP2 LT PUSH2 0xC54 JUMPI PUSH0 DUP1 REVERT JUMPDEST SWAP1 PUSH0 MSTORE PUSH1 0x20 PUSH0 KECCAK256 ADD PUSH0 SWAP2 POP SLOAD SWAP1 PUSH2 0x100 EXP SWAP1 DIV PUSH20 0xFFFFFFFFFFFFFFFFFFFFFFFFFFFFFFFFFFFFFFFF AND DUP2 JUMP JUMPDEST PUSH0 PUSH1 0x4 PUSH0 PUSH1 0x6 PUSH0 DUP2 SLOAD DUP2 LT PUSH2 0xC98 JUMPI PUSH2 0xC97 PUSH2 0x122B JUMP JUMPDEST JUMPDEST SWAP1 PUSH0 MSTORE PUSH1 0x20 PUSH0 KECCAK256 ADD PUSH0 SWAP1 SLOAD SWAP1 PUSH2 0x100 EXP SWAP1 DIV PUSH20 0xFFFFFFFFFFFFFFFFFFFFFFFFFFFFFFFFFFFFFFFF AND PUSH20 0xFFFFFFFFFFFFFFFFFFFFFFFFFFFFFFFFFFFFFFFF AND PUSH20 0xFFFFFFFFFFFFFFFFFFFFFFFFFFFFFFFFFFFFFFFF AND DUP2 MSTORE PUSH1 0x20 ADD SWAP1 DUP2 MSTORE PUSH1 0x20 ADD PUSH0 KECCAK256 SLOAD SWAP1 POP PUSH0 PUSH1 0x4 PUSH0 PUSH1 0x6 PUSH1 0x1 DUP2 SLOAD DUP2 LT PUSH2 0xD15 JUMPI PUSH2 0xD14 PUSH2 0x122B JUMP JUMPDEST JUMPDEST SWAP1 PUSH0 MSTORE PUSH1 0x20 PUSH0 KECCAK256 ADD PUSH0 SWAP1 SLOAD SWAP1 PUSH2 0x100 EXP SWAP1 DIV PUSH20 0xFFFFFFFFFFFFFFFFFFFFFFFFFFFFFFFFFFFFFFFF AND PUSH20 0xFFFFFFFFFFFFFFFFFFFFFFFFFFFFFFFFFFFFFFFF AND PUSH20 0xFFFFFFFFFFFFFFFFFFFFFFFFFFFFFFFFFFFFFFFF AND DUP2 MSTORE PUSH1 0x20 ADD SWAP1 DUP2 MSTORE PUSH1 0x20 ADD PUSH0 KECCAK256 SLOAD SWAP1 POP PUSH0 PUSH1 0x6 PUSH0 DUP2 SLOAD DUP2 LT PUSH2 0xD8E JUMPI PUSH2 0xD8D PUSH2 0x122B JUMP JUMPDEST JUMPDEST SWAP1 PUSH0 MSTORE PUSH1 0x20 PUSH0 KECCAK256 ADD PUSH0 SWAP1 SLOAD SWAP1 PUSH2 0x100 EXP SWAP1 DIV PUSH20 0xFFFFFFFFFFFFFFFFFFFFFFFFFFFFFFFFFFFFFFFF AND SWAP1 POP PUSH0 PUSH1 0x6 PUSH1 0x1 DUP2 SLOAD DUP2 LT PUSH2 0xDCE JUMPI PUSH2 0xDCD PUSH2 0x122B JUMP JUMPDEST JUMPDEST SWAP1 PUSH0 MSTORE PUSH1 0x20 PUSH0 KECCAK256 ADD PUSH0 SWAP1 SLOAD SWAP1 PUSH2 0x100 EXP SWAP1 DIV PUSH20 0xFFFFFFFFFFFFFFFFFFFFFFFFFFFFFFFFFFFFFFFF AND SWAP1 POP DUP3 PUSH1 0x3 PUSH1 0x1 DUP7 PUSH2 0xE08 SWAP2 SWAP1 PUSH2 0x1323 JUMP JUMPDEST PUSH2 0xE12 SWAP2 SWAP1 PUSH2 0x1439 JUMP JUMPDEST EQ DUP1 PUSH2 0xE35 JUMPI POP DUP3 PUSH1 0x5 PUSH1 0x3 DUP7 PUSH2 0xE29 SWAP2 SWAP1 PUSH2 0x1323 JUMP JUMPDEST PUSH2 0xE33 SWAP2 SWAP1 PUSH2 0x1439 JUMP JUMPDEST EQ JUMPDEST ISZERO PUSH2 0xE85 JUMPI DUP2 PUSH20 0xFFFFFFFFFFFFFFFFFFFFFFFFFFFFFFFFFFFFFFFF AND PUSH2 0x8FC PUSH1 0x3 SLOAD SWAP1 DUP2 ISZERO MUL SWAP1 PUSH1 0x40 MLOAD PUSH0 PUSH1 0x40 MLOAD DUP1 DUP4 SUB DUP2 DUP6 DUP9 DUP9 CALL SWAP4 POP POP POP POP ISZERO DUP1 ISZERO PUSH2 0xE7F JUMPI RETURNDATASIZE PUSH0 DUP1 RETURNDATACOPY RETURNDATASIZE PUSH0 REVERT JUMPDEST POP PUSH2 0xFB8 JUMP JUMPDEST DUP4 PUSH1 0x3 PUSH1 0x1 DUP6 PUSH2 0xE95 SWAP2 SWAP1 PUSH2 0x1323 JUMP JUMPDEST PUSH2 0xE9F SWAP2 SWAP1 PUSH2 0x1439 JUMP JUMPDEST EQ DUP1 PUSH2 0xEC2 JUMPI POP DUP4 PUSH1 0x5 PUSH1 0x3 DUP6 PUSH2 0xEB6 SWAP2 SWAP1 PUSH2 0x1323 JUMP JUMPDEST PUSH2 0xEC0 SWAP2 SWAP1 PUSH2 0x1439 JUMP JUMPDEST EQ JUMPDEST ISZERO PUSH2 0xF12 JUMPI DUP1 PUSH20 0xFFFFFFFFFFFFFFFFFFFFFFFFFFFFFFFFFFFFFFFF AND PUSH2 0x8FC PUSH1 0x3 SLOAD SWAP1 DUP2 ISZERO MUL SWAP1 PUSH1 0x40 MLOAD PUSH0 PUSH1 0x40 MLOAD DUP1 DUP4 SUB DUP2 DUP6 DUP9 DUP9 CALL SWAP4 POP POP POP POP ISZERO DUP1 ISZERO PUSH2 0xF0C JUMPI RETURNDATASIZE PUSH0 DUP1 RETURNDATACOPY RETURNDATASIZE PUSH0 REVERT JUMPDEST POP PUSH2 0xFB7 JUMP JUMPDEST DUP2 PUSH20 0xFFFFFFFFFFFFFFFFFFFFFFFFFFFFFFFFFFFFFFFF AND PUSH2 0x8FC PUSH1 0x2 PUSH1 0x3 SLOAD PUSH2 0xF3B SWAP2 SWAP1 PUSH2 0x1409 JUMP JUMPDEST SWAP1 DUP2 ISZERO MUL SWAP1 PUSH1 0x40 MLOAD PUSH0 PUSH1 0x40 MLOAD DUP1 DUP4 SUB DUP2 DUP6 DUP9 DUP9 CALL SWAP4 POP POP POP POP ISZERO DUP1 ISZERO PUSH2 0xF63 JUMPI RETURNDATASIZE PUSH0 DUP1 RETURNDATACOPY RETURNDATASIZE PUSH0 REVERT JUMPDEST POP DUP1 PUSH20 0xFFFFFFFFFFFFFFFFFFFFFFFFFFFFFFFFFFFFFFFF AND PUSH2 0x8FC PUSH1 0x2 PUSH1 0x3 SLOAD PUSH2 0xF8D SWAP2 SWAP1 PUSH2 0x1409 JUMP JUMPDEST SWAP1 DUP2 ISZERO MUL SWAP1 PUSH1 0x40 MLOAD PUSH0 PUSH1 0x40 MLOAD DUP1 DUP4 SUB DUP2 DUP6 DUP9 DUP9 CALL SWAP4 POP POP POP POP ISZERO DUP1 ISZERO PUSH2 0xFB5 JUMPI RETURNDATASIZE PUSH0 DUP1 RETURNDATACOPY RETURNDATASIZE PUSH0 REVERT JUMPDEST POP JUMPDEST JUMPDEST POP POP POP POP JUMP JUMPDEST PUSH0 PUSH1 0x3 DUP2 SWAP1 SSTORE POP PUSH1 0x6 PUSH0 PUSH2 0xFD2 SWAP2 SWAP1 PUSH2 0xFDB JUMP JUMPDEST PUSH0 PUSH1 0x2 DUP2 SWAP1 SSTORE POP JUMP JUMPDEST POP DUP1 SLOAD PUSH0 DUP3 SSTORE SWAP1 PUSH0 MSTORE PUSH1 0x20 PUSH0 KECCAK256 SWAP1 DUP2 ADD SWAP1 PUSH2 0xFF6 SWAP2 SWAP1 PUSH2 0xFF9 JUMP JUMPDEST POP JUMP JUMPDEST JUMPDEST DUP1 DUP3 GT ISZERO PUSH2 0x1010 JUMPI PUSH0 DUP2 PUSH0 SWAP1 SSTORE POP PUSH1 0x1 ADD PUSH2 0xFFA JUMP JUMPDEST POP SWAP1 JUMP JUMPDEST PUSH0 DUP2 SWAP1 POP SWAP2 SWAP1 POP JUMP JUMPDEST PUSH2 0x1026 DUP2 PUSH2 0x1014 JUMP JUMPDEST DUP3 MSTORE POP POP JUMP JUMPDEST PUSH0 PUSH1 0x20 DUP3 ADD SWAP1 POP PUSH2 0x103F PUSH0 DUP4 ADD DUP5 PUSH2 0x101D JUMP JUMPDEST SWAP3 SWAP2 POP POP JUMP JUMPDEST PUSH0 DUP1 REVERT JUMPDEST PUSH0 PUSH20 0xFFFFFFFFFFFFFFFFFFFFFFFFFFFFFFFFFFFFFFFF DUP3 AND SWAP1 POP SWAP2 SWAP1 POP JUMP JUMPDEST PUSH0 PUSH2 0x1072 DUP3 PUSH2 0x1049 JUMP JUMPDEST SWAP1 POP SWAP2 SWAP1 POP JUMP JUMPDEST PUSH2 0x1082 DUP2 PUSH2 0x1068 JUMP JUMPDEST DUP2 EQ PUSH2 0x108C JUMPI PUSH0 DUP1 REVERT JUMPDEST POP JUMP JUMPDEST PUSH0 DUP2 CALLDATALOAD SWAP1 POP PUSH2 0x109D DUP2 PUSH2 0x1079 JUMP JUMPDEST SWAP3 SWAP2 POP POP JUMP JUMPDEST PUSH0 PUSH1 0x20 DUP3 DUP5 SUB SLT ISZERO PUSH2 0x10B8 JUMPI PUSH2 0x10B7 PUSH2 0x1045 JUMP JUMPDEST JUMPDEST PUSH0 PUSH2 0x10C5 DUP5 DUP3 DUP6 ADD PUSH2 0x108F JUMP JUMPDEST SWAP2 POP POP SWAP3 SWAP2 POP POP JUMP JUMPDEST PUSH0 DUP2 ISZERO ISZERO SWAP1 POP SWAP2 SWAP1 POP JUMP JUMPDEST PUSH2 0x10E2 DUP2 PUSH2 0x10CE JUMP JUMPDEST DUP3 MSTORE POP POP JUMP JUMPDEST PUSH0 PUSH1 0x20 DUP3 ADD SWAP1 POP PUSH2 0x10FB PUSH0 DUP4 ADD DUP5 PUSH2 0x10D9 JUMP JUMPDEST SWAP3 SWAP2 POP POP JUMP JUMPDEST PUSH0 DUP2 SWAP1 POP SWAP2 SWAP1 POP JUMP JUMPDEST PUSH0 PUSH2 0x1124 PUSH2 0x111F PUSH2 0x111A DUP5 PUSH2 0x1049 JUMP JUMPDEST PUSH2 0x1101 JUMP JUMPDEST PUSH2 0x1049 JUMP JUMPDEST SWAP1 POP SWAP2 SWAP1 POP JUMP JUMPDEST PUSH0 PUSH2 0x1135 DUP3 PUSH2 0x110A JUMP JUMPDEST SWAP1 POP SWAP2 SWAP1 POP JUMP JUMPDEST PUSH0 PUSH2 0x1146 DUP3 PUSH2 0x112B JUMP JUMPDEST SWAP1 POP SWAP2 SWAP1 POP JUMP JUMPDEST PUSH2 0x1156 DUP2 PUSH2 0x113C JUMP JUMPDEST DUP3 MSTORE POP POP JUMP JUMPDEST PUSH0 PUSH1 0x20 DUP3 ADD SWAP1 POP PUSH2 0x116F PUSH0 DUP4 ADD DUP5 PUSH2 0x114D JUMP JUMPDEST SWAP3 SWAP2 POP POP JUMP JUMPDEST PUSH2 0x117E DUP2 PUSH2 0x1014 JUMP JUMPDEST DUP2 EQ PUSH2 0x1188 JUMPI PUSH0 DUP1 REVERT JUMPDEST POP JUMP JUMPDEST PUSH0 DUP2 CALLDATALOAD SWAP1 POP PUSH2 0x1199 DUP2 PUSH2 0x1175 JUMP JUMPDEST SWAP3 SWAP2 POP POP JUMP JUMPDEST PUSH0 PUSH1 0x20 DUP3 DUP5 SUB SLT ISZERO PUSH2 0x11B4 JUMPI PUSH2 0x11B3 PUSH2 0x1045 JUMP JUMPDEST JUMPDEST PUSH0 PUSH2 0x11C1 DUP5 DUP3 DUP6 ADD PUSH2 0x118B JUMP JUMPDEST SWAP2 POP POP SWAP3 SWAP2 POP POP JUMP JUMPDEST PUSH2 0x11D3 DUP2 PUSH2 0x1068 JUMP JUMPDEST DUP3 MSTORE POP POP JUMP JUMPDEST PUSH0 PUSH1 0x20 DUP3 ADD SWAP1 POP PUSH2 0x11EC PUSH0 DUP4 ADD DUP5 PUSH2 0x11CA JUMP JUMPDEST SWAP3 SWAP2 POP POP JUMP JUMPDEST PUSH0 PUSH2 0x11FC DUP3 PUSH2 0x112B JUMP JUMPDEST SWAP1 POP SWAP2 SWAP1 POP JUMP JUMPDEST PUSH2 0x120C DUP2 PUSH2 0x11F2 JUMP JUMPDEST DUP3 MSTORE POP POP JUMP JUMPDEST PUSH0 PUSH1 0x20 DUP3 ADD SWAP1 POP PUSH2 0x1225 PUSH0 DUP4 ADD DUP5 PUSH2 0x1203 JUMP JUMPDEST SWAP3 SWAP2 POP POP JUMP JUMPDEST PUSH32 0x4E487B7100000000000000000000000000000000000000000000000000000000 PUSH0 MSTORE PUSH1 0x32 PUSH1 0x4 MSTORE PUSH1 0x24 PUSH0 REVERT JUMPDEST PUSH0 DUP3 DUP3 MSTORE PUSH1 0x20 DUP3 ADD SWAP1 POP SWAP3 SWAP2 POP POP JUMP JUMPDEST PUSH32 0x596F7520617265206E6F7420616C6C6F77656420746F20706C61792074686973 PUSH0 DUP3 ADD MSTORE PUSH32 0x2067616D65000000000000000000000000000000000000000000000000000000 PUSH1 0x20 DUP3 ADD MSTORE POP JUMP JUMPDEST PUSH0 PUSH2 0x12C2 PUSH1 0x25 DUP4 PUSH2 0x1258 JUMP JUMPDEST SWAP2 POP PUSH2 0x12CD DUP3 PUSH2 0x1268 JUMP JUMPDEST PUSH1 0x40 DUP3 ADD SWAP1 POP SWAP2 SWAP1 POP JUMP JUMPDEST PUSH0 PUSH1 0x20 DUP3 ADD SWAP1 POP DUP2 DUP2 SUB PUSH0 DUP4 ADD MSTORE PUSH2 0x12EF DUP2 PUSH2 0x12B6 JUMP JUMPDEST SWAP1 POP SWAP2 SWAP1 POP JUMP JUMPDEST PUSH32 0x4E487B7100000000000000000000000000000000000000000000000000000000 PUSH0 MSTORE PUSH1 0x11 PUSH1 0x4 MSTORE PUSH1 0x24 PUSH0 REVERT JUMPDEST PUSH0 PUSH2 0x132D DUP3 PUSH2 0x1014 JUMP JUMPDEST SWAP2 POP PUSH2 0x1338 DUP4 PUSH2 0x1014 JUMP JUMPDEST SWAP3 POP DUP3 DUP3 ADD SWAP1 POP DUP1 DUP3 GT ISZERO PUSH2 0x1350 JUMPI PUSH2 0x134F PUSH2 0x12F6 JUMP JUMPDEST JUMPDEST SWAP3 SWAP2 POP POP JUMP JUMPDEST PUSH0 PUSH2 0x1360 DUP3 PUSH2 0x1014 JUMP JUMPDEST SWAP2 POP PUSH32 0xFFFFFFFFFFFFFFFFFFFFFFFFFFFFFFFFFFFFFFFFFFFFFFFFFFFFFFFFFFFFFFFF DUP3 SUB PUSH2 0x1392 JUMPI PUSH2 0x1391 PUSH2 0x12F6 JUMP JUMPDEST JUMPDEST PUSH1 0x1 DUP3 ADD SWAP1 POP SWAP2 SWAP1 POP JUMP JUMPDEST PUSH0 DUP2 MLOAD SWAP1 POP PUSH2 0x13AB DUP2 PUSH2 0x1175 JUMP JUMPDEST SWAP3 SWAP2 POP POP JUMP JUMPDEST PUSH0 PUSH1 0x20 DUP3 DUP5 SUB SLT ISZERO PUSH2 0x13C6 JUMPI PUSH2 0x13C5 PUSH2 0x1045 JUMP JUMPDEST JUMPDEST PUSH0 PUSH2 0x13D3 DUP5 DUP3 DUP6 ADD PUSH2 0x139D JUMP JUMPDEST SWAP2 POP POP SWAP3 SWAP2 POP POP JUMP JUMPDEST PUSH32 0x4E487B7100000000000000000000000000000000000000000000000000000000 PUSH0 MSTORE PUSH1 0x12 PUSH1 0x4 MSTORE PUSH1 0x24 PUSH0 REVERT JUMPDEST PUSH0 PUSH2 0x1413 DUP3 PUSH2 0x1014 JUMP JUMPDEST SWAP2 POP PUSH2 0x141E DUP4 PUSH2 0x1014 JUMP JUMPDEST SWAP3 POP DUP3 PUSH2 0x142E JUMPI PUSH2 0x142D PUSH2 0x13DC JUMP JUMPDEST JUMPDEST DUP3 DUP3 DIV SWAP1 POP SWAP3 SWAP2 POP POP JUMP JUMPDEST PUSH0 PUSH2 0x1443 DUP3 PUSH2 0x1014 JUMP JUMPDEST SWAP2 POP PUSH2 0x144E DUP4 PUSH2 0x1014 JUMP JUMPDEST SWAP3 POP DUP3 PUSH2 0x145E JUMPI PUSH2 0x145D PUSH2 0x13DC JUMP JUMPDEST JUMPDEST DUP3 DUP3 MOD SWAP1 POP SWAP3 SWAP2 POP POP JUMP INVALID LOG2 PUSH5 0x6970667358 0x22 SLT KECCAK256 0xC 0xB3 PUSH20 0x2F57E300AB3A828EC93D6563156CCAB25DE71051 CALLDATASIZE 0xB3 0xEF PC 0xC6 STOP PREVRANDAO SWAP4 0xC5 PUSH5 0x736F6C6343 STOP ADDMOD BYTE STOP CALLER "
				},
				"gasEstimates": {
					"creation": {
						"codeDepositCost": "1055800",
						"executionCost": "infinite",
						"totalCost": "infinite"
					},
					"external": {
						"addPlayer()": "infinite",
						"allowPlayers(uint256)": "5055",
						"cancelGame()": "infinite",
						"commitReveal()": "infinite",
						"input(uint256)": "infinite",
						"numInput()": "2426",
						"numPlayer()": "2448",
						"player_choice(address)": "2869",
						"player_not_played(address)": "2856",
						"players(uint256)": "5032",
						"reward()": "2470",
						"timeLimit()": "2447",
						"timeUnit()": "infinite"
					},
					"internal": {
						"_checkWinnerAndPay()": "infinite",
						"reset()": "infinite"
					}
				},
				"methodIdentifiers": {
					"addPlayer()": "27b5db8a",
					"allowPlayers(uint256)": "55d07388",
					"cancelGame()": "d84c1ac9",
					"commitReveal()": "9d7b3f2d",
					"input(uint256)": "ce6e1c4e",
					"numInput()": "086f7815",
					"numPlayer()": "90d5d0c3",
					"player_choice(address)": "a040478d",
					"player_not_played(address)": "190cf745",
					"players(uint256)": "f71d96cb",
					"reward()": "228cb733",
					"timeLimit()": "c08d1fe5",
					"timeUnit()": "3c6a7f9b"
				}
			},
			"storageLayout": {
				"storage": [
					{
						"astId": 206,
						"contract": "RPS.sol:RPS",
						"label": "timeUnit",
						"offset": 0,
						"slot": "0",
						"type": "t_contract(TimeUnit)666"
					},
					{
						"astId": 209,
						"contract": "RPS.sol:RPS",
						"label": "commitReveal",
						"offset": 0,
						"slot": "1",
						"type": "t_contract(CommitReveal)199"
					},
					{
						"astId": 212,
						"contract": "RPS.sol:RPS",
						"label": "numPlayer",
						"offset": 0,
						"slot": "2",
						"type": "t_uint256"
					},
					{
						"astId": 215,
						"contract": "RPS.sol:RPS",
						"label": "reward",
						"offset": 0,
						"slot": "3",
						"type": "t_uint256"
					},
					{
						"astId": 219,
						"contract": "RPS.sol:RPS",
						"label": "player_choice",
						"offset": 0,
						"slot": "4",
						"type": "t_mapping(t_address,t_uint256)"
					},
					{
						"astId": 223,
						"contract": "RPS.sol:RPS",
						"label": "player_not_played",
						"offset": 0,
						"slot": "5",
						"type": "t_mapping(t_address,t_bool)"
					},
					{
						"astId": 226,
						"contract": "RPS.sol:RPS",
						"label": "players",
						"offset": 0,
						"slot": "6",
						"type": "t_array(t_address)dyn_storage"
					},
					{
						"astId": 234,
						"contract": "RPS.sol:RPS",
						"label": "allowPlayers",
						"offset": 0,
						"slot": "7",
						"type": "t_array(t_address)dyn_storage"
					},
					{
						"astId": 237,
						"contract": "RPS.sol:RPS",
						"label": "numInput",
						"offset": 0,
						"slot": "8",
						"type": "t_uint256"
					},
					{
						"astId": 240,
						"contract": "RPS.sol:RPS",
						"label": "timeLimit",
						"offset": 0,
						"slot": "9",
						"type": "t_uint256"
					}
				],
				"types": {
					"t_address": {
						"encoding": "inplace",
						"label": "address",
						"numberOfBytes": "20"
					},
					"t_array(t_address)dyn_storage": {
						"base": "t_address",
						"encoding": "dynamic_array",
						"label": "address[]",
						"numberOfBytes": "32"
					},
					"t_bool": {
						"encoding": "inplace",
						"label": "bool",
						"numberOfBytes": "1"
					},
					"t_contract(CommitReveal)199": {
						"encoding": "inplace",
						"label": "contract CommitReveal",
						"numberOfBytes": "20"
					},
					"t_contract(TimeUnit)666": {
						"encoding": "inplace",
						"label": "contract TimeUnit",
						"numberOfBytes": "20"
					},
					"t_mapping(t_address,t_bool)": {
						"encoding": "mapping",
						"key": "t_address",
						"label": "mapping(address => bool)",
						"numberOfBytes": "32",
						"value": "t_bool"
					},
					"t_mapping(t_address,t_uint256)": {
						"encoding": "mapping",
						"key": "t_address",
						"label": "mapping(address => uint256)",
						"numberOfBytes": "32",
						"value": "t_uint256"
					},
					"t_uint256": {
						"encoding": "inplace",
						"label": "uint256",
						"numberOfBytes": "32"
					}
				}
			},
			"userdoc": {
				"kind": "user",
				"methods": {},
				"version": 1
			}
		}
	}
}