{
	"RPS.sol": {
		"RPS": {
			"abi": [
				{
					"inputs": [
						{
							"internalType": "address",
							"name": "_timeUnit",
							"type": "address"
						},
						{
							"internalType": "address",
							"name": "_commitReveal",
							"type": "address"
						}
					],
					"stateMutability": "nonpayable",
					"type": "constructor"
				},
				{
					"inputs": [],
					"name": "addPlayer",
					"outputs": [],
					"stateMutability": "payable",
					"type": "function"
				},
				{
					"inputs": [
						{
							"internalType": "uint256",
							"name": "",
							"type": "uint256"
						}
					],
					"name": "allowPlayers",
					"outputs": [
						{
							"internalType": "address",
							"name": "",
							"type": "address"
						}
					],
					"stateMutability": "view",
					"type": "function"
				},
				{
					"inputs": [],
					"name": "cancelGame",
					"outputs": [],
					"stateMutability": "nonpayable",
					"type": "function"
				},
				{
					"inputs": [
						{
							"internalType": "bytes32",
							"name": "hash",
							"type": "bytes32"
						}
					],
					"name": "commit",
					"outputs": [],
					"stateMutability": "nonpayable",
					"type": "function"
				},
				{
					"inputs": [],
					"name": "commitReveal",
					"outputs": [
						{
							"internalType": "contract CommitReveal",
							"name": "",
							"type": "address"
						}
					],
					"stateMutability": "view",
					"type": "function"
				},
				{
					"inputs": [],
					"name": "numInput",
					"outputs": [
						{
							"internalType": "uint256",
							"name": "",
							"type": "uint256"
						}
					],
					"stateMutability": "view",
					"type": "function"
				},
				{
					"inputs": [],
					"name": "numPlayer",
					"outputs": [
						{
							"internalType": "uint256",
							"name": "",
							"type": "uint256"
						}
					],
					"stateMutability": "view",
					"type": "function"
				},
				{
					"inputs": [],
					"name": "numReveal",
					"outputs": [
						{
							"internalType": "uint256",
							"name": "",
							"type": "uint256"
						}
					],
					"stateMutability": "view",
					"type": "function"
				},
				{
					"inputs": [
						{
							"internalType": "address",
							"name": "",
							"type": "address"
						}
					],
					"name": "player_choice",
					"outputs": [
						{
							"internalType": "uint256",
							"name": "",
							"type": "uint256"
						}
					],
					"stateMutability": "view",
					"type": "function"
				},
				{
					"inputs": [
						{
							"internalType": "address",
							"name": "",
							"type": "address"
						}
					],
					"name": "player_not_played",
					"outputs": [
						{
							"internalType": "bool",
							"name": "",
							"type": "bool"
						}
					],
					"stateMutability": "view",
					"type": "function"
				},
				{
					"inputs": [
						{
							"internalType": "uint256",
							"name": "",
							"type": "uint256"
						}
					],
					"name": "players",
					"outputs": [
						{
							"internalType": "address",
							"name": "",
							"type": "address"
						}
					],
					"stateMutability": "view",
					"type": "function"
				},
				{
					"inputs": [
						{
							"internalType": "bytes32",
							"name": "hash",
							"type": "bytes32"
						}
					],
					"name": "reveal",
					"outputs": [],
					"stateMutability": "nonpayable",
					"type": "function"
				},
				{
					"inputs": [],
					"name": "reward",
					"outputs": [
						{
							"internalType": "uint256",
							"name": "",
							"type": "uint256"
						}
					],
					"stateMutability": "view",
					"type": "function"
				},
				{
					"inputs": [],
					"name": "timeLimit",
					"outputs": [
						{
							"internalType": "uint256",
							"name": "",
							"type": "uint256"
						}
					],
					"stateMutability": "view",
					"type": "function"
				},
				{
					"inputs": [],
					"name": "timeUnit",
					"outputs": [
						{
							"internalType": "contract TimeUnit",
							"name": "",
							"type": "address"
						}
					],
					"stateMutability": "view",
					"type": "function"
				}
			],
			"devdoc": {
				"kind": "dev",
				"methods": {},
				"version": 1
			},
			"evm": {
				"assembly": "    /* \"RPS.sol\":125:4692  contract RPS {... */\n  mstore(0x40, 0x80)\n    /* \"RPS.sol\":237:238  0 */\n  0x00\n    /* \"RPS.sol\":213:238  uint public numPlayer = 0 */\n  0x02\n  sstore\n    /* \"RPS.sol\":265:266  0 */\n  0x00\n    /* \"RPS.sol\":244:266  uint public reward = 0 */\n  0x03\n  sstore\n    /* \"RPS.sol\":296:297  0 */\n  0x00\n    /* \"RPS.sol\":272:297  uint public numReveal = 0 */\n  0x04\n  sstore\n    /* \"RPS.sol\":498:704  address[] public allowPlayers = [0x5B38Da6a701c568545dCfcB03FcB875f56beddC4, 0xAb8483F64d9C6d1EcF9b849Ae677dD3315835cb2,0x4B20993Bc481177ec7E8f571ceCaE8A9e22C02db,0x78731D3Ca6b7E34aC0F824c42a7cC18A495cabaB] */\n  mload(0x40)\n  dup1\n  0x80\n  add\n  0x40\n  mstore\n  dup1\n    /* \"RPS.sol\":531:573  0x5B38Da6a701c568545dCfcB03FcB875f56beddC4 */\n  0x5b38da6a701c568545dcfcb03fcb875f56beddc4\n    /* \"RPS.sol\":498:704  address[] public allowPlayers = [0x5B38Da6a701c568545dCfcB03FcB875f56beddC4, 0xAb8483F64d9C6d1EcF9b849Ae677dD3315835cb2,0x4B20993Bc481177ec7E8f571ceCaE8A9e22C02db,0x78731D3Ca6b7E34aC0F824c42a7cC18A495cabaB] */\n  0xffffffffffffffffffffffffffffffffffffffff\n  and\n  0xffffffffffffffffffffffffffffffffffffffff\n  and\n  dup2\n  mstore\n  0x20\n  add\n    /* \"RPS.sol\":575:617  0xAb8483F64d9C6d1EcF9b849Ae677dD3315835cb2 */\n  0xab8483f64d9c6d1ecf9b849ae677dd3315835cb2\n    /* \"RPS.sol\":498:704  address[] public allowPlayers = [0x5B38Da6a701c568545dCfcB03FcB875f56beddC4, 0xAb8483F64d9C6d1EcF9b849Ae677dD3315835cb2,0x4B20993Bc481177ec7E8f571ceCaE8A9e22C02db,0x78731D3Ca6b7E34aC0F824c42a7cC18A495cabaB] */\n  0xffffffffffffffffffffffffffffffffffffffff\n  and\n  0xffffffffffffffffffffffffffffffffffffffff\n  and\n  dup2\n  mstore\n  0x20\n  add\n    /* \"RPS.sol\":618:660  0x4B20993Bc481177ec7E8f571ceCaE8A9e22C02db */\n  0x4b20993bc481177ec7e8f571cecae8a9e22c02db\n    /* \"RPS.sol\":498:704  address[] public allowPlayers = [0x5B38Da6a701c568545dCfcB03FcB875f56beddC4, 0xAb8483F64d9C6d1EcF9b849Ae677dD3315835cb2,0x4B20993Bc481177ec7E8f571ceCaE8A9e22C02db,0x78731D3Ca6b7E34aC0F824c42a7cC18A495cabaB] */\n  0xffffffffffffffffffffffffffffffffffffffff\n  and\n  0xffffffffffffffffffffffffffffffffffffffff\n  and\n  dup2\n  mstore\n  0x20\n  add\n    /* \"RPS.sol\":661:703  0x78731D3Ca6b7E34aC0F824c42a7cC18A495cabaB */\n  0x78731d3ca6b7e34ac0f824c42a7cc18a495cabab\n    /* \"RPS.sol\":498:704  address[] public allowPlayers = [0x5B38Da6a701c568545dCfcB03FcB875f56beddC4, 0xAb8483F64d9C6d1EcF9b849Ae677dD3315835cb2,0x4B20993Bc481177ec7E8f571ceCaE8A9e22C02db,0x78731D3Ca6b7E34aC0F824c42a7cC18A495cabaB] */\n  0xffffffffffffffffffffffffffffffffffffffff\n  and\n  0xffffffffffffffffffffffffffffffffffffffff\n  and\n  dup2\n  mstore\n  pop\n  0x08\n  swap1\n  0x04\n  tag_1\n  swap3\n  swap2\n  swap1\n  tag_2\n  jump\t// in\ntag_1:\n  pop\n    /* \"RPS.sol\":734:735  0 */\n  0x00\n    /* \"RPS.sol\":711:735  uint public numInput = 0 */\n  0x09\n  sstore\n    /* \"RPS.sol\":765:767  30 */\n  0x1e\n    /* \"RPS.sol\":741:767  uint public timeLimit = 30 */\n  0x0a\n  sstore\n    /* \"RPS.sol\":773:925  constructor(address _timeUnit, address _commitReveal){... */\n  callvalue\n  dup1\n  iszero\n  tag_3\n  jumpi\n  0x00\n  dup1\n  revert\ntag_3:\n  pop\n  mload(0x40)\n  sub(codesize, bytecodeSize)\n  dup1\n  bytecodeSize\n  dup4\n  codecopy\n  dup2\n  dup2\n  add\n  0x40\n  mstore\n  dup2\n  add\n  swap1\n  tag_4\n  swap2\n  swap1\n  tag_5\n  jump\t// in\ntag_4:\n    /* \"RPS.sol\":856:865  _timeUnit */\n  dup2\n    /* \"RPS.sol\":836:844  timeUnit */\n  0x00\n  dup1\n    /* \"RPS.sol\":836:866  timeUnit = TimeUnit(_timeUnit) */\n  0x0100\n  exp\n  dup2\n  sload\n  dup2\n  0xffffffffffffffffffffffffffffffffffffffff\n  mul\n  not\n  and\n  swap1\n  dup4\n  0xffffffffffffffffffffffffffffffffffffffff\n  and\n  mul\n  or\n  swap1\n  sstore\n  pop\n    /* \"RPS.sol\":904:917  _commitReveal */\n  dup1\n    /* \"RPS.sol\":876:888  commitReveal */\n  0x01\n  0x00\n    /* \"RPS.sol\":876:918  commitReveal = CommitReveal(_commitReveal) */\n  0x0100\n  exp\n  dup2\n  sload\n  dup2\n  0xffffffffffffffffffffffffffffffffffffffff\n  mul\n  not\n  and\n  swap1\n  dup4\n  0xffffffffffffffffffffffffffffffffffffffff\n  and\n  mul\n  or\n  swap1\n  sstore\n  pop\n    /* \"RPS.sol\":773:925  constructor(address _timeUnit, address _commitReveal){... */\n  pop\n  pop\n    /* \"RPS.sol\":125:4692  contract RPS {... */\n  jump(tag_8)\ntag_2:\n  dup3\n  dup1\n  sload\n  dup3\n  dup3\n  sstore\n  swap1\n  0x00\n  mstore\n  keccak256(0x00, 0x20)\n  swap1\n  dup2\n  add\n  swap3\n  dup3\n  iszero\n  tag_9\n  jumpi\n  swap2\n  0x20\n  mul\n  dup3\n  add\ntag_10:\n  dup3\n  dup2\n  gt\n  iszero\n  tag_11\n  jumpi\n  dup3\n  mload\n  dup3\n  exp(0x0100, 0x00)\n  dup2\n  sload\n  dup2\n  0xffffffffffffffffffffffffffffffffffffffff\n  mul\n  not\n  and\n  swap1\n  dup4\n  0xffffffffffffffffffffffffffffffffffffffff\n  and\n  mul\n  or\n  swap1\n  sstore\n  pop\n  swap2\n  0x20\n  add\n  swap2\n  swap1\n  0x01\n  add\n  swap1\n  jump(tag_10)\ntag_11:\ntag_9:\n  pop\n  swap1\n  pop\n  tag_12\n  swap2\n  swap1\n  tag_13\n  jump\t// in\ntag_12:\n  pop\n  swap1\n  jump\t// out\ntag_13:\ntag_14:\n  dup1\n  dup3\n  gt\n  iszero\n  tag_15\n  jumpi\n  0x00\n  dup2\n  0x00\n  swap1\n  sstore\n  pop\n  0x01\n  add\n  jump(tag_14)\ntag_15:\n  pop\n  swap1\n  jump\t// out\n    /* \"#utility.yul\":88:205   */\ntag_17:\n    /* \"#utility.yul\":197:198   */\n  0x00\n    /* \"#utility.yul\":194:195   */\n  dup1\n    /* \"#utility.yul\":187:199   */\n  revert\n    /* \"#utility.yul\":334:460   */\ntag_19:\n    /* \"#utility.yul\":371:378   */\n  0x00\n    /* \"#utility.yul\":411:453   */\n  0xffffffffffffffffffffffffffffffffffffffff\n    /* \"#utility.yul\":404:409   */\n  dup3\n    /* \"#utility.yul\":400:454   */\n  and\n    /* \"#utility.yul\":389:454   */\n  swap1\n  pop\n    /* \"#utility.yul\":334:460   */\n  swap2\n  swap1\n  pop\n  jump\t// out\n    /* \"#utility.yul\":466:562   */\ntag_20:\n    /* \"#utility.yul\":503:510   */\n  0x00\n    /* \"#utility.yul\":532:556   */\n  tag_29\n    /* \"#utility.yul\":550:555   */\n  dup3\n    /* \"#utility.yul\":532:556   */\n  tag_19\n  jump\t// in\ntag_29:\n    /* \"#utility.yul\":521:556   */\n  swap1\n  pop\n    /* \"#utility.yul\":466:562   */\n  swap2\n  swap1\n  pop\n  jump\t// out\n    /* \"#utility.yul\":568:690   */\ntag_21:\n    /* \"#utility.yul\":641:665   */\n  tag_31\n    /* \"#utility.yul\":659:664   */\n  dup2\n    /* \"#utility.yul\":641:665   */\n  tag_20\n  jump\t// in\ntag_31:\n    /* \"#utility.yul\":634:639   */\n  dup2\n    /* \"#utility.yul\":631:666   */\n  eq\n    /* \"#utility.yul\":621:684   */\n  tag_32\n  jumpi\n    /* \"#utility.yul\":680:681   */\n  0x00\n    /* \"#utility.yul\":677:678   */\n  dup1\n    /* \"#utility.yul\":670:682   */\n  revert\n    /* \"#utility.yul\":621:684   */\ntag_32:\n    /* \"#utility.yul\":568:690   */\n  pop\n  jump\t// out\n    /* \"#utility.yul\":696:839   */\ntag_22:\n    /* \"#utility.yul\":753:758   */\n  0x00\n    /* \"#utility.yul\":784:790   */\n  dup2\n    /* \"#utility.yul\":778:791   */\n  mload\n    /* \"#utility.yul\":769:791   */\n  swap1\n  pop\n    /* \"#utility.yul\":800:833   */\n  tag_34\n    /* \"#utility.yul\":827:832   */\n  dup2\n    /* \"#utility.yul\":800:833   */\n  tag_21\n  jump\t// in\ntag_34:\n    /* \"#utility.yul\":696:839   */\n  swap3\n  swap2\n  pop\n  pop\n  jump\t// out\n    /* \"#utility.yul\":845:1352   */\ntag_5:\n    /* \"#utility.yul\":924:930   */\n  0x00\n    /* \"#utility.yul\":932:938   */\n  dup1\n    /* \"#utility.yul\":981:983   */\n  0x40\n    /* \"#utility.yul\":969:978   */\n  dup4\n    /* \"#utility.yul\":960:967   */\n  dup6\n    /* \"#utility.yul\":956:979   */\n  sub\n    /* \"#utility.yul\":952:984   */\n  slt\n    /* \"#utility.yul\":949:1068   */\n  iszero\n  tag_36\n  jumpi\n    /* \"#utility.yul\":987:1066   */\n  tag_37\n  tag_17\n  jump\t// in\ntag_37:\n    /* \"#utility.yul\":949:1068   */\ntag_36:\n    /* \"#utility.yul\":1107:1108   */\n  0x00\n    /* \"#utility.yul\":1132:1196   */\n  tag_38\n    /* \"#utility.yul\":1188:1195   */\n  dup6\n    /* \"#utility.yul\":1179:1185   */\n  dup3\n    /* \"#utility.yul\":1168:1177   */\n  dup7\n    /* \"#utility.yul\":1164:1186   */\n  add\n    /* \"#utility.yul\":1132:1196   */\n  tag_22\n  jump\t// in\ntag_38:\n    /* \"#utility.yul\":1122:1196   */\n  swap3\n  pop\n    /* \"#utility.yul\":1078:1206   */\n  pop\n    /* \"#utility.yul\":1245:1247   */\n  0x20\n    /* \"#utility.yul\":1271:1335   */\n  tag_39\n    /* \"#utility.yul\":1327:1334   */\n  dup6\n    /* \"#utility.yul\":1318:1324   */\n  dup3\n    /* \"#utility.yul\":1307:1316   */\n  dup7\n    /* \"#utility.yul\":1303:1325   */\n  add\n    /* \"#utility.yul\":1271:1335   */\n  tag_22\n  jump\t// in\ntag_39:\n    /* \"#utility.yul\":1261:1335   */\n  swap2\n  pop\n    /* \"#utility.yul\":1216:1345   */\n  pop\n    /* \"#utility.yul\":845:1352   */\n  swap3\n  pop\n  swap3\n  swap1\n  pop\n  jump\t// out\n    /* \"RPS.sol\":125:4692  contract RPS {... */\ntag_8:\n  dataSize(sub_0)\n  dup1\n  dataOffset(sub_0)\n  0x00\n  codecopy\n  0x00\n  return\nstop\n\nsub_0: assembly {\n        /* \"RPS.sol\":125:4692  contract RPS {... */\n      mstore(0x40, 0x80)\n      jumpi(tag_1, lt(calldatasize, 0x04))\n      shr(0xe0, calldataload(0x00))\n      dup1\n      0x90d5d0c3\n      gt\n      tag_17\n      jumpi\n      dup1\n      0xc876e615\n      gt\n      tag_18\n      jumpi\n      dup1\n      0xc876e615\n      eq\n      tag_13\n      jumpi\n      dup1\n      0xd84c1ac9\n      eq\n      tag_14\n      jumpi\n      dup1\n      0xf14fcbc8\n      eq\n      tag_15\n      jumpi\n      dup1\n      0xf71d96cb\n      eq\n      tag_16\n      jumpi\n      jump(tag_1)\n    tag_18:\n      dup1\n      0x90d5d0c3\n      eq\n      tag_9\n      jumpi\n      dup1\n      0x9d7b3f2d\n      eq\n      tag_10\n      jumpi\n      dup1\n      0xa040478d\n      eq\n      tag_11\n      jumpi\n      dup1\n      0xc08d1fe5\n      eq\n      tag_12\n      jumpi\n      jump(tag_1)\n    tag_17:\n      dup1\n      0x27b5db8a\n      gt\n      tag_19\n      jumpi\n      dup1\n      0x27b5db8a\n      eq\n      tag_5\n      jumpi\n      dup1\n      0x3c6a7f9b\n      eq\n      tag_6\n      jumpi\n      dup1\n      0x55d07388\n      eq\n      tag_7\n      jumpi\n      dup1\n      0x701fd0f1\n      eq\n      tag_8\n      jumpi\n      jump(tag_1)\n    tag_19:\n      dup1\n      0x086f7815\n      eq\n      tag_2\n      jumpi\n      dup1\n      0x190cf745\n      eq\n      tag_3\n      jumpi\n      dup1\n      0x228cb733\n      eq\n      tag_4\n      jumpi\n    tag_1:\n      0x00\n      dup1\n      revert\n        /* \"RPS.sol\":711:735  uint public numInput = 0 */\n    tag_2:\n      callvalue\n      dup1\n      iszero\n      tag_20\n      jumpi\n      0x00\n      dup1\n      revert\n    tag_20:\n      pop\n      tag_21\n      tag_22\n      jump\t// in\n    tag_21:\n      mload(0x40)\n      tag_23\n      swap2\n      swap1\n      tag_24\n      jump\t// in\n    tag_23:\n      mload(0x40)\n      dup1\n      swap2\n      sub\n      swap1\n      return\n        /* \"RPS.sol\":416:465  mapping(address => bool) public player_not_played */\n    tag_3:\n      callvalue\n      dup1\n      iszero\n      tag_25\n      jumpi\n      0x00\n      dup1\n      revert\n    tag_25:\n      pop\n      tag_26\n      0x04\n      dup1\n      calldatasize\n      sub\n      dup2\n      add\n      swap1\n      tag_27\n      swap2\n      swap1\n      tag_28\n      jump\t// in\n    tag_27:\n      tag_29\n      jump\t// in\n    tag_26:\n      mload(0x40)\n      tag_30\n      swap2\n      swap1\n      tag_31\n      jump\t// in\n    tag_30:\n      mload(0x40)\n      dup1\n      swap2\n      sub\n      swap1\n      return\n        /* \"RPS.sol\":244:266  uint public reward = 0 */\n    tag_4:\n      callvalue\n      dup1\n      iszero\n      tag_32\n      jumpi\n      0x00\n      dup1\n      revert\n    tag_32:\n      pop\n      tag_33\n      tag_34\n      jump\t// in\n    tag_33:\n      mload(0x40)\n      tag_35\n      swap2\n      swap1\n      tag_24\n      jump\t// in\n    tag_35:\n      mload(0x40)\n      dup1\n      swap2\n      sub\n      swap1\n      return\n        /* \"RPS.sol\":930:1554  function addPlayer() public payable {... */\n    tag_5:\n      tag_36\n      tag_37\n      jump\t// in\n    tag_36:\n      stop\n        /* \"RPS.sol\":144:168  TimeUnit public timeUnit */\n    tag_6:\n      callvalue\n      dup1\n      iszero\n      tag_38\n      jumpi\n      0x00\n      dup1\n      revert\n    tag_38:\n      pop\n      tag_39\n      tag_40\n      jump\t// in\n    tag_39:\n      mload(0x40)\n      tag_41\n      swap2\n      swap1\n      tag_42\n      jump\t// in\n    tag_41:\n      mload(0x40)\n      dup1\n      swap2\n      sub\n      swap1\n      return\n        /* \"RPS.sol\":498:704  address[] public allowPlayers = [0x5B38Da6a701c568545dCfcB03FcB875f56beddC4, 0xAb8483F64d9C6d1EcF9b849Ae677dD3315835cb2,0x4B20993Bc481177ec7E8f571ceCaE8A9e22C02db,0x78731D3Ca6b7E34aC0F824c42a7cC18A495cabaB] */\n    tag_7:\n      callvalue\n      dup1\n      iszero\n      tag_43\n      jumpi\n      0x00\n      dup1\n      revert\n    tag_43:\n      pop\n      tag_44\n      0x04\n      dup1\n      calldatasize\n      sub\n      dup2\n      add\n      swap1\n      tag_45\n      swap2\n      swap1\n      tag_46\n      jump\t// in\n    tag_45:\n      tag_47\n      jump\t// in\n    tag_44:\n      mload(0x40)\n      tag_48\n      swap2\n      swap1\n      tag_49\n      jump\t// in\n    tag_48:\n      mload(0x40)\n      dup1\n      swap2\n      sub\n      swap1\n      return\n        /* \"RPS.sol\":2161:2577  function reveal(bytes32 hash) public {... */\n    tag_8:\n      callvalue\n      dup1\n      iszero\n      tag_50\n      jumpi\n      0x00\n      dup1\n      revert\n    tag_50:\n      pop\n      tag_51\n      0x04\n      dup1\n      calldatasize\n      sub\n      dup2\n      add\n      swap1\n      tag_52\n      swap2\n      swap1\n      tag_53\n      jump\t// in\n    tag_52:\n      tag_54\n      jump\t// in\n    tag_51:\n      stop\n        /* \"RPS.sol\":213:238  uint public numPlayer = 0 */\n    tag_9:\n      callvalue\n      dup1\n      iszero\n      tag_55\n      jumpi\n      0x00\n      dup1\n      revert\n    tag_55:\n      pop\n      tag_56\n      tag_57\n      jump\t// in\n    tag_56:\n      mload(0x40)\n      tag_58\n      swap2\n      swap1\n      tag_24\n      jump\t// in\n    tag_58:\n      mload(0x40)\n      dup1\n      swap2\n      sub\n      swap1\n      return\n        /* \"RPS.sol\":174:206  CommitReveal public commitReveal */\n    tag_10:\n      callvalue\n      dup1\n      iszero\n      tag_59\n      jumpi\n      0x00\n      dup1\n      revert\n    tag_59:\n      pop\n      tag_60\n      tag_61\n      jump\t// in\n    tag_60:\n      mload(0x40)\n      tag_62\n      swap2\n      swap1\n      tag_63\n      jump\t// in\n    tag_62:\n      mload(0x40)\n      dup1\n      swap2\n      sub\n      swap1\n      return\n        /* \"RPS.sol\":303:349  mapping (address => uint) public player_choice */\n    tag_11:\n      callvalue\n      dup1\n      iszero\n      tag_64\n      jumpi\n      0x00\n      dup1\n      revert\n    tag_64:\n      pop\n      tag_65\n      0x04\n      dup1\n      calldatasize\n      sub\n      dup2\n      add\n      swap1\n      tag_66\n      swap2\n      swap1\n      tag_28\n      jump\t// in\n    tag_66:\n      tag_67\n      jump\t// in\n    tag_65:\n      mload(0x40)\n      tag_68\n      swap2\n      swap1\n      tag_24\n      jump\t// in\n    tag_68:\n      mload(0x40)\n      dup1\n      swap2\n      sub\n      swap1\n      return\n        /* \"RPS.sol\":741:767  uint public timeLimit = 30 */\n    tag_12:\n      callvalue\n      dup1\n      iszero\n      tag_69\n      jumpi\n      0x00\n      dup1\n      revert\n    tag_69:\n      pop\n      tag_70\n      tag_71\n      jump\t// in\n    tag_70:\n      mload(0x40)\n      tag_72\n      swap2\n      swap1\n      tag_24\n      jump\t// in\n    tag_72:\n      mload(0x40)\n      dup1\n      swap2\n      sub\n      swap1\n      return\n        /* \"RPS.sol\":272:297  uint public numReveal = 0 */\n    tag_13:\n      callvalue\n      dup1\n      iszero\n      tag_73\n      jumpi\n      0x00\n      dup1\n      revert\n    tag_73:\n      pop\n      tag_74\n      tag_75\n      jump\t// in\n    tag_74:\n      mload(0x40)\n      tag_76\n      swap2\n      swap1\n      tag_24\n      jump\t// in\n    tag_76:\n      mload(0x40)\n      dup1\n      swap2\n      sub\n      swap1\n      return\n        /* \"RPS.sol\":3338:4381  function cancelGame() public {... */\n    tag_14:\n      callvalue\n      dup1\n      iszero\n      tag_77\n      jumpi\n      0x00\n      dup1\n      revert\n    tag_77:\n      pop\n      tag_78\n      tag_79\n      jump\t// in\n    tag_78:\n      stop\n        /* \"RPS.sol\":1560:2155  function commit(bytes32 hash) public  {... */\n    tag_15:\n      callvalue\n      dup1\n      iszero\n      tag_80\n      jumpi\n      0x00\n      dup1\n      revert\n    tag_80:\n      pop\n      tag_81\n      0x04\n      dup1\n      calldatasize\n      sub\n      dup2\n      add\n      swap1\n      tag_82\n      swap2\n      swap1\n      tag_53\n      jump\t// in\n    tag_82:\n      tag_83\n      jump\t// in\n    tag_81:\n      stop\n        /* \"RPS.sol\":471:495  address[] public players */\n    tag_16:\n      callvalue\n      dup1\n      iszero\n      tag_84\n      jumpi\n      0x00\n      dup1\n      revert\n    tag_84:\n      pop\n      tag_85\n      0x04\n      dup1\n      calldatasize\n      sub\n      dup2\n      add\n      swap1\n      tag_86\n      swap2\n      swap1\n      tag_46\n      jump\t// in\n    tag_86:\n      tag_87\n      jump\t// in\n    tag_85:\n      mload(0x40)\n      tag_88\n      swap2\n      swap1\n      tag_49\n      jump\t// in\n    tag_88:\n      mload(0x40)\n      dup1\n      swap2\n      sub\n      swap1\n      return\n        /* \"RPS.sol\":711:735  uint public numInput = 0 */\n    tag_22:\n      sload(0x09)\n      dup2\n      jump\t// out\n        /* \"RPS.sol\":416:465  mapping(address => bool) public player_not_played */\n    tag_29:\n      mstore(0x20, 0x06)\n      dup1\n      0x00\n      mstore\n      keccak256(0x00, 0x40)\n      0x00\n      swap2\n      pop\n      sload\n      swap1\n      0x0100\n      exp\n      swap1\n      div\n      0xff\n      and\n      dup2\n      jump\t// out\n        /* \"RPS.sol\":244:266  uint public reward = 0 */\n    tag_34:\n      sload(0x03)\n      dup2\n      jump\t// out\n        /* \"RPS.sol\":930:1554  function addPlayer() public payable {... */\n    tag_37:\n        /* \"RPS.sol\":996:997  2 */\n      0x02\n        /* \"RPS.sol\":984:993  numPlayer */\n      dup1\n      sload\n        /* \"RPS.sol\":984:997  numPlayer < 2 */\n      lt\n        /* \"RPS.sol\":976:998  require(numPlayer < 2) */\n      tag_90\n      jumpi\n      0x00\n      dup1\n      revert\n    tag_90:\n        /* \"RPS.sol\":1024:1025  0 */\n      0x00\n        /* \"RPS.sol\":1012:1021  numPlayer */\n      sload(0x02)\n        /* \"RPS.sol\":1012:1025  numPlayer > 0 */\n      gt\n        /* \"RPS.sol\":1008:1085  if (numPlayer > 0) {... */\n      iszero\n      tag_91\n      jumpi\n        /* \"RPS.sol\":1063:1070  players */\n      0x07\n        /* \"RPS.sol\":1071:1072  0 */\n      0x00\n        /* \"RPS.sol\":1063:1073  players[0] */\n      dup2\n      sload\n      dup2\n      lt\n      tag_92\n      jumpi\n      tag_93\n      tag_94\n      jump\t// in\n    tag_93:\n    tag_92:\n      swap1\n      0x00\n      mstore\n      keccak256(0x00, 0x20)\n      add\n      0x00\n      swap1\n      sload\n      swap1\n      0x0100\n      exp\n      swap1\n      div\n      0xffffffffffffffffffffffffffffffffffffffff\n      and\n        /* \"RPS.sol\":1049:1073  msg.sender != players[0] */\n      0xffffffffffffffffffffffffffffffffffffffff\n      and\n        /* \"RPS.sol\":1049:1059  msg.sender */\n      caller\n        /* \"RPS.sol\":1049:1073  msg.sender != players[0] */\n      0xffffffffffffffffffffffffffffffffffffffff\n      and\n      sub\n        /* \"RPS.sol\":1041:1074  require(msg.sender != players[0]) */\n      tag_96\n      jumpi\n      0x00\n      dup1\n      revert\n    tag_96:\n        /* \"RPS.sol\":1008:1085  if (numPlayer > 0) {... */\n    tag_91:\n        /* \"RPS.sol\":1115:1122  1 ether */\n      0x0de0b6b3a7640000\n        /* \"RPS.sol\":1102:1111  msg.value */\n      callvalue\n        /* \"RPS.sol\":1102:1122  msg.value == 1 ether */\n      eq\n        /* \"RPS.sol\":1094:1123  require(msg.value == 1 ether) */\n      tag_97\n      jumpi\n      0x00\n      dup1\n      revert\n    tag_97:\n        /* \"RPS.sol\":1149:1159  msg.sender */\n      caller\n        /* \"RPS.sol\":1130:1159  allowPlayers[0] != msg.sender */\n      0xffffffffffffffffffffffffffffffffffffffff\n      and\n        /* \"RPS.sol\":1130:1142  allowPlayers */\n      0x08\n        /* \"RPS.sol\":1143:1144  0 */\n      0x00\n        /* \"RPS.sol\":1130:1145  allowPlayers[0] */\n      dup2\n      sload\n      dup2\n      lt\n      tag_98\n      jumpi\n      tag_99\n      tag_94\n      jump\t// in\n    tag_99:\n    tag_98:\n      swap1\n      0x00\n      mstore\n      keccak256(0x00, 0x20)\n      add\n      0x00\n      swap1\n      sload\n      swap1\n      0x0100\n      exp\n      swap1\n      div\n      0xffffffffffffffffffffffffffffffffffffffff\n      and\n        /* \"RPS.sol\":1130:1159  allowPlayers[0] != msg.sender */\n      0xffffffffffffffffffffffffffffffffffffffff\n      and\n      eq\n      iszero\n        /* \"RPS.sol\":1130:1192  allowPlayers[0] != msg.sender && allowPlayers[1] != msg.sender */\n      dup1\n      iszero\n      tag_101\n      jumpi\n      pop\n        /* \"RPS.sol\":1182:1192  msg.sender */\n      caller\n        /* \"RPS.sol\":1163:1192  allowPlayers[1] != msg.sender */\n      0xffffffffffffffffffffffffffffffffffffffff\n      and\n        /* \"RPS.sol\":1163:1175  allowPlayers */\n      0x08\n        /* \"RPS.sol\":1176:1177  1 */\n      0x01\n        /* \"RPS.sol\":1163:1178  allowPlayers[1] */\n      dup2\n      sload\n      dup2\n      lt\n      tag_102\n      jumpi\n      tag_103\n      tag_94\n      jump\t// in\n    tag_103:\n    tag_102:\n      swap1\n      0x00\n      mstore\n      keccak256(0x00, 0x20)\n      add\n      0x00\n      swap1\n      sload\n      swap1\n      0x0100\n      exp\n      swap1\n      div\n      0xffffffffffffffffffffffffffffffffffffffff\n      and\n        /* \"RPS.sol\":1163:1192  allowPlayers[1] != msg.sender */\n      0xffffffffffffffffffffffffffffffffffffffff\n      and\n      eq\n      iszero\n        /* \"RPS.sol\":1130:1192  allowPlayers[0] != msg.sender && allowPlayers[1] != msg.sender */\n    tag_101:\n        /* \"RPS.sol\":1130:1225  allowPlayers[0] != msg.sender && allowPlayers[1] != msg.sender && allowPlayers[2] != msg.sender */\n      dup1\n      iszero\n      tag_105\n      jumpi\n      pop\n        /* \"RPS.sol\":1215:1225  msg.sender */\n      caller\n        /* \"RPS.sol\":1196:1225  allowPlayers[2] != msg.sender */\n      0xffffffffffffffffffffffffffffffffffffffff\n      and\n        /* \"RPS.sol\":1196:1208  allowPlayers */\n      0x08\n        /* \"RPS.sol\":1209:1210  2 */\n      0x02\n        /* \"RPS.sol\":1196:1211  allowPlayers[2] */\n      dup2\n      sload\n      dup2\n      lt\n      tag_106\n      jumpi\n      tag_107\n      tag_94\n      jump\t// in\n    tag_107:\n    tag_106:\n      swap1\n      0x00\n      mstore\n      keccak256(0x00, 0x20)\n      add\n      0x00\n      swap1\n      sload\n      swap1\n      0x0100\n      exp\n      swap1\n      div\n      0xffffffffffffffffffffffffffffffffffffffff\n      and\n        /* \"RPS.sol\":1196:1225  allowPlayers[2] != msg.sender */\n      0xffffffffffffffffffffffffffffffffffffffff\n      and\n      eq\n      iszero\n        /* \"RPS.sol\":1130:1225  allowPlayers[0] != msg.sender && allowPlayers[1] != msg.sender && allowPlayers[2] != msg.sender */\n    tag_105:\n        /* \"RPS.sol\":1130:1258  allowPlayers[0] != msg.sender && allowPlayers[1] != msg.sender && allowPlayers[2] != msg.sender && allowPlayers[3] != msg.sender */\n      dup1\n      iszero\n      tag_109\n      jumpi\n      pop\n        /* \"RPS.sol\":1248:1258  msg.sender */\n      caller\n        /* \"RPS.sol\":1229:1258  allowPlayers[3] != msg.sender */\n      0xffffffffffffffffffffffffffffffffffffffff\n      and\n        /* \"RPS.sol\":1229:1241  allowPlayers */\n      0x08\n        /* \"RPS.sol\":1242:1243  3 */\n      0x03\n        /* \"RPS.sol\":1229:1244  allowPlayers[3] */\n      dup2\n      sload\n      dup2\n      lt\n      tag_110\n      jumpi\n      tag_111\n      tag_94\n      jump\t// in\n    tag_111:\n    tag_110:\n      swap1\n      0x00\n      mstore\n      keccak256(0x00, 0x20)\n      add\n      0x00\n      swap1\n      sload\n      swap1\n      0x0100\n      exp\n      swap1\n      div\n      0xffffffffffffffffffffffffffffffffffffffff\n      and\n        /* \"RPS.sol\":1229:1258  allowPlayers[3] != msg.sender */\n      0xffffffffffffffffffffffffffffffffffffffff\n      and\n      eq\n      iszero\n        /* \"RPS.sol\":1130:1258  allowPlayers[0] != msg.sender && allowPlayers[1] != msg.sender && allowPlayers[2] != msg.sender && allowPlayers[3] != msg.sender */\n    tag_109:\n        /* \"RPS.sol\":1127:1324  if(allowPlayers[0] != msg.sender && allowPlayers[1] != msg.sender && allowPlayers[2] != msg.sender && allowPlayers[3] != msg.sender){... */\n      iszero\n      tag_113\n      jumpi\n        /* \"RPS.sol\":1272:1277  false */\n      0x00\n        /* \"RPS.sol\":1264:1319  require(false, \"You are not allowed to play this game\") */\n      tag_114\n      jumpi\n      mload(0x40)\n      0x08c379a000000000000000000000000000000000000000000000000000000000\n      dup2\n      mstore\n      0x04\n      add\n      tag_115\n      swap1\n      tag_116\n      jump\t// in\n    tag_115:\n      mload(0x40)\n      dup1\n      swap2\n      sub\n      swap1\n      revert\n    tag_114:\n        /* \"RPS.sol\":1127:1324  if(allowPlayers[0] != msg.sender && allowPlayers[1] != msg.sender && allowPlayers[2] != msg.sender && allowPlayers[3] != msg.sender){... */\n    tag_113:\n        /* \"RPS.sol\":1343:1352  msg.value */\n      callvalue\n        /* \"RPS.sol\":1333:1339  reward */\n      0x03\n      0x00\n        /* \"RPS.sol\":1333:1352  reward += msg.value */\n      dup3\n      dup3\n      sload\n      tag_117\n      swap2\n      swap1\n      tag_118\n      jump\t// in\n    tag_117:\n      swap3\n      pop\n      pop\n      dup2\n      swap1\n      sstore\n      pop\n        /* \"RPS.sol\":1394:1398  true */\n      0x01\n        /* \"RPS.sol\":1362:1379  player_not_played */\n      0x06\n        /* \"RPS.sol\":1362:1391  player_not_played[msg.sender] */\n      0x00\n        /* \"RPS.sol\":1380:1390  msg.sender */\n      caller\n        /* \"RPS.sol\":1362:1391  player_not_played[msg.sender] */\n      0xffffffffffffffffffffffffffffffffffffffff\n      and\n      0xffffffffffffffffffffffffffffffffffffffff\n      and\n      dup2\n      mstore\n      0x20\n      add\n      swap1\n      dup2\n      mstore\n      0x20\n      add\n      0x00\n      keccak256\n      0x00\n        /* \"RPS.sol\":1362:1398  player_not_played[msg.sender] = true */\n      0x0100\n      exp\n      dup2\n      sload\n      dup2\n      0xff\n      mul\n      not\n      and\n      swap1\n      dup4\n      iszero\n      iszero\n      mul\n      or\n      swap1\n      sstore\n      pop\n        /* \"RPS.sol\":1408:1415  players */\n      0x07\n        /* \"RPS.sol\":1421:1431  msg.sender */\n      caller\n        /* \"RPS.sol\":1408:1432  players.push(msg.sender) */\n      swap1\n      dup1\n      0x01\n      dup2\n      sload\n      add\n      dup1\n      dup3\n      sstore\n      dup1\n      swap2\n      pop\n      pop\n      0x01\n      swap1\n      sub\n      swap1\n      0x00\n      mstore\n      keccak256(0x00, 0x20)\n      add\n      0x00\n      swap1\n      swap2\n      swap1\n      swap2\n      swap1\n      swap2\n      0x0100\n      exp\n      dup2\n      sload\n      dup2\n      0xffffffffffffffffffffffffffffffffffffffff\n      mul\n      not\n      and\n      swap1\n      dup4\n      0xffffffffffffffffffffffffffffffffffffffff\n      and\n      mul\n      or\n      swap1\n      sstore\n      pop\n        /* \"RPS.sol\":1442:1451  numPlayer */\n      0x02\n      0x00\n        /* \"RPS.sol\":1442:1453  numPlayer++ */\n      dup2\n      sload\n      dup1\n      swap3\n      swap2\n      swap1\n      tag_120\n      swap1\n      tag_121\n      jump\t// in\n    tag_120:\n      swap2\n      swap1\n      pop\n      sstore\n      pop\n        /* \"RPS.sol\":1498:1499  1 */\n      0x01\n        /* \"RPS.sol\":1485:1494  numPlayer */\n      sload(0x02)\n        /* \"RPS.sol\":1485:1499  numPlayer == 1 */\n      sub\n        /* \"RPS.sol\":1482:1548  if(numPlayer == 1){... */\n      tag_122\n      jumpi\n        /* \"RPS.sol\":1514:1522  timeUnit */\n      0x00\n      dup1\n      sload\n      swap1\n      0x0100\n      exp\n      swap1\n      div\n      0xffffffffffffffffffffffffffffffffffffffff\n      and\n        /* \"RPS.sol\":1514:1535  timeUnit.setStartTime */\n      0xffffffffffffffffffffffffffffffffffffffff\n      and\n      0xa63f7c53\n        /* \"RPS.sol\":1514:1537  timeUnit.setStartTime() */\n      mload(0x40)\n      dup2\n      0xffffffff\n      and\n      0xe0\n      shl\n      dup2\n      mstore\n      0x04\n      add\n      0x00\n      mload(0x40)\n      dup1\n      dup4\n      sub\n      dup2\n      0x00\n      dup8\n      dup1\n      extcodesize\n      iszero\n      dup1\n      iszero\n      tag_123\n      jumpi\n      0x00\n      dup1\n      revert\n    tag_123:\n      pop\n      gas\n      call\n      iszero\n      dup1\n      iszero\n      tag_125\n      jumpi\n      returndatasize\n      0x00\n      dup1\n      returndatacopy\n      revert(0x00, returndatasize)\n    tag_125:\n      pop\n      pop\n      pop\n      pop\n        /* \"RPS.sol\":1482:1548  if(numPlayer == 1){... */\n    tag_122:\n        /* \"RPS.sol\":930:1554  function addPlayer() public payable {... */\n      jump\t// out\n        /* \"RPS.sol\":144:168  TimeUnit public timeUnit */\n    tag_40:\n      0x00\n      dup1\n      sload\n      swap1\n      0x0100\n      exp\n      swap1\n      div\n      0xffffffffffffffffffffffffffffffffffffffff\n      and\n      dup2\n      jump\t// out\n        /* \"RPS.sol\":498:704  address[] public allowPlayers = [0x5B38Da6a701c568545dCfcB03FcB875f56beddC4, 0xAb8483F64d9C6d1EcF9b849Ae677dD3315835cb2,0x4B20993Bc481177ec7E8f571ceCaE8A9e22C02db,0x78731D3Ca6b7E34aC0F824c42a7cC18A495cabaB] */\n    tag_47:\n      0x08\n      dup2\n      dup2\n      sload\n      dup2\n      lt\n      tag_126\n      jumpi\n      0x00\n      dup1\n      revert\n    tag_126:\n      swap1\n      0x00\n      mstore\n      keccak256(0x00, 0x20)\n      add\n      0x00\n      swap2\n      pop\n      sload\n      swap1\n      0x0100\n      exp\n      swap1\n      div\n      0xffffffffffffffffffffffffffffffffffffffff\n      and\n      dup2\n      jump\t// out\n        /* \"RPS.sol\":2161:2577  function reveal(bytes32 hash) public {... */\n    tag_54:\n        /* \"RPS.sol\":2229:2230  2 */\n      0x02\n        /* \"RPS.sol\":2216:2225  numPlayer */\n      dup1\n      sload\n        /* \"RPS.sol\":2216:2230  numPlayer == 2 */\n      eq\n        /* \"RPS.sol\":2208:2231  require(numPlayer == 2) */\n      tag_129\n      jumpi\n      0x00\n      dup1\n      revert\n    tag_129:\n        /* \"RPS.sol\":2261:2262  2 */\n      0x02\n        /* \"RPS.sol\":2249:2257  numInput */\n      sload(0x09)\n        /* \"RPS.sol\":2249:2262  numInput == 2 */\n      eq\n        /* \"RPS.sol\":2241:2263  require(numInput == 2) */\n      tag_130\n      jumpi\n      0x00\n      dup1\n      revert\n    tag_130:\n        /* \"RPS.sol\":2273:2285  commitReveal */\n      0x01\n      0x00\n      swap1\n      sload\n      swap1\n      0x0100\n      exp\n      swap1\n      div\n      0xffffffffffffffffffffffffffffffffffffffff\n      and\n        /* \"RPS.sol\":2273:2292  commitReveal.reveal */\n      0xffffffffffffffffffffffffffffffffffffffff\n      and\n      0xad487790\n        /* \"RPS.sol\":2293:2297  hash */\n      dup3\n        /* \"RPS.sol\":2298:2308  msg.sender */\n      caller\n        /* \"RPS.sol\":2273:2309  commitReveal.reveal(hash,msg.sender) */\n      mload(0x40)\n      dup4\n      0xffffffff\n      and\n      0xe0\n      shl\n      dup2\n      mstore\n      0x04\n      add\n      tag_131\n      swap3\n      swap2\n      swap1\n      tag_132\n      jump\t// in\n    tag_131:\n      0x00\n      mload(0x40)\n      dup1\n      dup4\n      sub\n      dup2\n      0x00\n      dup8\n      dup1\n      extcodesize\n      iszero\n      dup1\n      iszero\n      tag_133\n      jumpi\n      0x00\n      dup1\n      revert\n    tag_133:\n      pop\n      gas\n      call\n      iszero\n      dup1\n      iszero\n      tag_135\n      jumpi\n      returndatasize\n      0x00\n      dup1\n      returndatacopy\n      revert(0x00, returndatasize)\n    tag_135:\n      pop\n      pop\n      pop\n      pop\n        /* \"RPS.sol\":2319:2330  uint choice */\n      0x00\n        /* \"RPS.sol\":2344:2348  hash */\n      dup2\n        /* \"RPS.sol\":2349:2351  31 */\n      0x1f\n        /* \"RPS.sol\":2344:2352  hash[31] */\n      0x20\n      dup2\n      lt\n      tag_136\n      jumpi\n      tag_137\n      tag_94\n      jump\t// in\n    tag_137:\n    tag_136:\n      byte\n      0xf8\n      shl\n        /* \"RPS.sol\":2338:2353  uint8(hash[31]) */\n      0xf8\n      shr\n        /* \"RPS.sol\":2333:2354  uint(uint8(hash[31])) */\n      0xff\n      and\n        /* \"RPS.sol\":2319:2354  uint choice = uint(uint8(hash[31])) */\n      swap1\n      pop\n        /* \"RPS.sol\":2382:2383  0 */\n      0x00\n        /* \"RPS.sol\":2372:2378  choice */\n      dup2\n        /* \"RPS.sol\":2372:2383  choice >= 0 */\n      lt\n      iszero\n        /* \"RPS.sol\":2372:2398  choice >= 0 && choice <= 4 */\n      dup1\n      iszero\n      tag_138\n      jumpi\n      pop\n        /* \"RPS.sol\":2397:2398  4 */\n      0x04\n        /* \"RPS.sol\":2387:2393  choice */\n      dup2\n        /* \"RPS.sol\":2387:2398  choice <= 4 */\n      gt\n      iszero\n        /* \"RPS.sol\":2372:2398  choice >= 0 && choice <= 4 */\n    tag_138:\n        /* \"RPS.sol\":2364:2423  require(choice >= 0 && choice <= 4, \"choice is not valid.\") */\n      tag_139\n      jumpi\n      mload(0x40)\n      0x08c379a000000000000000000000000000000000000000000000000000000000\n      dup2\n      mstore\n      0x04\n      add\n      tag_140\n      swap1\n      tag_141\n      jump\t// in\n    tag_140:\n      mload(0x40)\n      dup1\n      swap2\n      sub\n      swap1\n      revert\n    tag_139:\n        /* \"RPS.sol\":2461:2467  choice */\n      dup1\n        /* \"RPS.sol\":2433:2446  player_choice */\n      0x05\n        /* \"RPS.sol\":2433:2458  player_choice[msg.sender] */\n      0x00\n        /* \"RPS.sol\":2447:2457  msg.sender */\n      caller\n        /* \"RPS.sol\":2433:2458  player_choice[msg.sender] */\n      0xffffffffffffffffffffffffffffffffffffffff\n      and\n      0xffffffffffffffffffffffffffffffffffffffff\n      and\n      dup2\n      mstore\n      0x20\n      add\n      swap1\n      dup2\n      mstore\n      0x20\n      add\n      0x00\n      keccak256\n        /* \"RPS.sol\":2433:2467  player_choice[msg.sender] = choice */\n      dup2\n      swap1\n      sstore\n      pop\n        /* \"RPS.sol\":2477:2486  numReveal */\n      0x04\n      0x00\n        /* \"RPS.sol\":2477:2489  numReveal ++ */\n      dup2\n      sload\n      dup1\n      swap3\n      swap2\n      swap1\n      tag_142\n      swap1\n      tag_121\n      jump\t// in\n    tag_142:\n      swap2\n      swap1\n      pop\n      sstore\n      pop\n        /* \"RPS.sol\":2515:2516  2 */\n      0x02\n        /* \"RPS.sol\":2502:2511  numReveal */\n      sload(0x04)\n        /* \"RPS.sol\":2502:2516  numReveal == 2 */\n      sub\n        /* \"RPS.sol\":2499:2562  if(numReveal == 2){... */\n      tag_143\n      jumpi\n        /* \"RPS.sol\":2531:2551  _checkWinnerAndPay() */\n      tag_144\n        /* \"RPS.sol\":2531:2549  _checkWinnerAndPay */\n      tag_145\n        /* \"RPS.sol\":2531:2551  _checkWinnerAndPay() */\n      jump\t// in\n    tag_144:\n        /* \"RPS.sol\":2499:2562  if(numReveal == 2){... */\n    tag_143:\n        /* \"RPS.sol\":2198:2577  {... */\n      pop\n        /* \"RPS.sol\":2161:2577  function reveal(bytes32 hash) public {... */\n      pop\n      jump\t// out\n        /* \"RPS.sol\":213:238  uint public numPlayer = 0 */\n    tag_57:\n      sload(0x02)\n      dup2\n      jump\t// out\n        /* \"RPS.sol\":174:206  CommitReveal public commitReveal */\n    tag_61:\n      0x01\n      0x00\n      swap1\n      sload\n      swap1\n      0x0100\n      exp\n      swap1\n      div\n      0xffffffffffffffffffffffffffffffffffffffff\n      and\n      dup2\n      jump\t// out\n        /* \"RPS.sol\":303:349  mapping (address => uint) public player_choice */\n    tag_67:\n      mstore(0x20, 0x05)\n      dup1\n      0x00\n      mstore\n      keccak256(0x00, 0x40)\n      0x00\n      swap2\n      pop\n      swap1\n      pop\n      sload\n      dup2\n      jump\t// out\n        /* \"RPS.sol\":741:767  uint public timeLimit = 30 */\n    tag_71:\n      sload(0x0a)\n      dup2\n      jump\t// out\n        /* \"RPS.sol\":272:297  uint public numReveal = 0 */\n    tag_75:\n      sload(0x04)\n      dup2\n      jump\t// out\n        /* \"RPS.sol\":3338:4381  function cancelGame() public {... */\n    tag_79:\n        /* \"RPS.sol\":3393:3394  1 */\n      0x01\n        /* \"RPS.sol\":3380:3389  numPlayer */\n      sload(0x02)\n        /* \"RPS.sol\":3380:3394  numPlayer == 1 */\n      eq\n        /* \"RPS.sol\":3380:3436  numPlayer == 1 && timeUnit.elapsedSeconds() >= timeLimit */\n      dup1\n      iszero\n      tag_147\n      jumpi\n      pop\n        /* \"RPS.sol\":3427:3436  timeLimit */\n      sload(0x0a)\n        /* \"RPS.sol\":3398:3406  timeUnit */\n      0x00\n      dup1\n      sload\n      swap1\n      0x0100\n      exp\n      swap1\n      div\n      0xffffffffffffffffffffffffffffffffffffffff\n      and\n        /* \"RPS.sol\":3398:3421  timeUnit.elapsedSeconds */\n      0xffffffffffffffffffffffffffffffffffffffff\n      and\n      0xbc06b8cd\n        /* \"RPS.sol\":3398:3423  timeUnit.elapsedSeconds() */\n      mload(0x40)\n      dup2\n      0xffffffff\n      and\n      0xe0\n      shl\n      dup2\n      mstore\n      0x04\n      add\n      0x20\n      mload(0x40)\n      dup1\n      dup4\n      sub\n      dup2\n      dup7\n      gas\n      staticcall\n      iszero\n      dup1\n      iszero\n      tag_149\n      jumpi\n      returndatasize\n      0x00\n      dup1\n      returndatacopy\n      revert(0x00, returndatasize)\n    tag_149:\n      pop\n      pop\n      pop\n      pop\n      mload(0x40)\n      returndatasize\n      not(0x1f)\n      0x1f\n      dup3\n      add\n      and\n      dup3\n      add\n      dup1\n      0x40\n      mstore\n      pop\n      dup2\n      add\n      swap1\n      tag_150\n      swap2\n      swap1\n      tag_151\n      jump\t// in\n    tag_150:\n        /* \"RPS.sol\":3398:3436  timeUnit.elapsedSeconds() >= timeLimit */\n      lt\n      iszero\n        /* \"RPS.sol\":3380:3436  numPlayer == 1 && timeUnit.elapsedSeconds() >= timeLimit */\n    tag_147:\n        /* \"RPS.sol\":3377:4358  if(numPlayer == 1 && timeUnit.elapsedSeconds() >= timeLimit){... */\n      iszero\n      tag_152\n      jumpi\n        /* \"RPS.sol\":3451:3475  address payable  account */\n      0x00\n        /* \"RPS.sol\":3486:3493  players */\n      0x07\n        /* \"RPS.sol\":3494:3495  0 */\n      0x00\n        /* \"RPS.sol\":3486:3496  players[0] */\n      dup2\n      sload\n      dup2\n      lt\n      tag_153\n      jumpi\n      tag_154\n      tag_94\n      jump\t// in\n    tag_154:\n    tag_153:\n      swap1\n      0x00\n      mstore\n      keccak256(0x00, 0x20)\n      add\n      0x00\n      swap1\n      sload\n      swap1\n      0x0100\n      exp\n      swap1\n      div\n      0xffffffffffffffffffffffffffffffffffffffff\n      and\n        /* \"RPS.sol\":3451:3497  address payable  account = payable(players[0]) */\n      swap1\n      pop\n        /* \"RPS.sol\":3511:3518  account */\n      dup1\n        /* \"RPS.sol\":3511:3527  account.transfer */\n      0xffffffffffffffffffffffffffffffffffffffff\n      and\n        /* \"RPS.sol\":3511:3535  account.transfer(reward) */\n      0x08fc\n        /* \"RPS.sol\":3528:3534  reward */\n      sload(0x03)\n        /* \"RPS.sol\":3511:3535  account.transfer(reward) */\n      swap1\n      dup2\n      iszero\n      mul\n      swap1\n      mload(0x40)\n      0x00\n      mload(0x40)\n      dup1\n      dup4\n      sub\n      dup2\n      dup6\n      dup9\n      dup9\n      call\n      swap4\n      pop\n      pop\n      pop\n      pop\n      iszero\n      dup1\n      iszero\n      tag_157\n      jumpi\n      returndatasize\n      0x00\n      dup1\n      returndatacopy\n      revert(0x00, returndatasize)\n    tag_157:\n      pop\n        /* \"RPS.sol\":3437:3546  {... */\n      pop\n        /* \"RPS.sol\":3377:4358  if(numPlayer == 1 && timeUnit.elapsedSeconds() >= timeLimit){... */\n      jump(tag_158)\n    tag_152:\n        /* \"RPS.sol\":3577:3578  2 */\n      0x02\n        /* \"RPS.sol\":3564:3573  numPlayer */\n      dup1\n      sload\n        /* \"RPS.sol\":3564:3578  numPlayer == 2 */\n      eq\n        /* \"RPS.sol\":3564:3596  numPlayer == 2 && numReveal == 0 */\n      dup1\n      iszero\n      tag_159\n      jumpi\n      pop\n        /* \"RPS.sol\":3595:3596  0 */\n      0x00\n        /* \"RPS.sol\":3582:3591  numReveal */\n      sload(0x04)\n        /* \"RPS.sol\":3582:3596  numReveal == 0 */\n      eq\n        /* \"RPS.sol\":3564:3596  numPlayer == 2 && numReveal == 0 */\n    tag_159:\n        /* \"RPS.sol\":3564:3638  numPlayer == 2 && numReveal == 0 && timeUnit.elapsedSeconds() >= timeLimit */\n      dup1\n      iszero\n      tag_160\n      jumpi\n      pop\n        /* \"RPS.sol\":3629:3638  timeLimit */\n      sload(0x0a)\n        /* \"RPS.sol\":3600:3608  timeUnit */\n      0x00\n      dup1\n      sload\n      swap1\n      0x0100\n      exp\n      swap1\n      div\n      0xffffffffffffffffffffffffffffffffffffffff\n      and\n        /* \"RPS.sol\":3600:3623  timeUnit.elapsedSeconds */\n      0xffffffffffffffffffffffffffffffffffffffff\n      and\n      0xbc06b8cd\n        /* \"RPS.sol\":3600:3625  timeUnit.elapsedSeconds() */\n      mload(0x40)\n      dup2\n      0xffffffff\n      and\n      0xe0\n      shl\n      dup2\n      mstore\n      0x04\n      add\n      0x20\n      mload(0x40)\n      dup1\n      dup4\n      sub\n      dup2\n      dup7\n      gas\n      staticcall\n      iszero\n      dup1\n      iszero\n      tag_162\n      jumpi\n      returndatasize\n      0x00\n      dup1\n      returndatacopy\n      revert(0x00, returndatasize)\n    tag_162:\n      pop\n      pop\n      pop\n      pop\n      mload(0x40)\n      returndatasize\n      not(0x1f)\n      0x1f\n      dup3\n      add\n      and\n      dup3\n      add\n      dup1\n      0x40\n      mstore\n      pop\n      dup2\n      add\n      swap1\n      tag_163\n      swap2\n      swap1\n      tag_151\n      jump\t// in\n    tag_163:\n        /* \"RPS.sol\":3600:3638  timeUnit.elapsedSeconds() >= timeLimit */\n      lt\n      iszero\n        /* \"RPS.sol\":3564:3638  numPlayer == 2 && numReveal == 0 && timeUnit.elapsedSeconds() >= timeLimit */\n    tag_160:\n        /* \"RPS.sol\":3560:4358  if (numPlayer == 2 && numReveal == 0 && timeUnit.elapsedSeconds() >= timeLimit){... */\n      iszero\n      tag_164\n      jumpi\n        /* \"RPS.sol\":3653:3677  address payable account1 */\n      0x00\n        /* \"RPS.sol\":3688:3695  players */\n      0x07\n        /* \"RPS.sol\":3696:3697  0 */\n      0x00\n        /* \"RPS.sol\":3688:3698  players[0] */\n      dup2\n      sload\n      dup2\n      lt\n      tag_165\n      jumpi\n      tag_166\n      tag_94\n      jump\t// in\n    tag_166:\n    tag_165:\n      swap1\n      0x00\n      mstore\n      keccak256(0x00, 0x20)\n      add\n      0x00\n      swap1\n      sload\n      swap1\n      0x0100\n      exp\n      swap1\n      div\n      0xffffffffffffffffffffffffffffffffffffffff\n      and\n        /* \"RPS.sol\":3653:3699  address payable account1 = payable(players[0]) */\n      swap1\n      pop\n        /* \"RPS.sol\":3713:3737  address payable account2 */\n      0x00\n        /* \"RPS.sol\":3748:3755  players */\n      0x07\n        /* \"RPS.sol\":3756:3757  1 */\n      0x01\n        /* \"RPS.sol\":3748:3758  players[1] */\n      dup2\n      sload\n      dup2\n      lt\n      tag_168\n      jumpi\n      tag_169\n      tag_94\n      jump\t// in\n    tag_169:\n    tag_168:\n      swap1\n      0x00\n      mstore\n      keccak256(0x00, 0x20)\n      add\n      0x00\n      swap1\n      sload\n      swap1\n      0x0100\n      exp\n      swap1\n      div\n      0xffffffffffffffffffffffffffffffffffffffff\n      and\n        /* \"RPS.sol\":3713:3759  address payable account2 = payable(players[1]) */\n      swap1\n      pop\n        /* \"RPS.sol\":3773:3781  account1 */\n      dup2\n        /* \"RPS.sol\":3773:3790  account1.transfer */\n      0xffffffffffffffffffffffffffffffffffffffff\n      and\n        /* \"RPS.sol\":3773:3800  account1.transfer(reward/2) */\n      0x08fc\n        /* \"RPS.sol\":3798:3799  2 */\n      0x02\n        /* \"RPS.sol\":3791:3797  reward */\n      sload(0x03)\n        /* \"RPS.sol\":3791:3799  reward/2 */\n      tag_171\n      swap2\n      swap1\n      tag_172\n      jump\t// in\n    tag_171:\n        /* \"RPS.sol\":3773:3800  account1.transfer(reward/2) */\n      swap1\n      dup2\n      iszero\n      mul\n      swap1\n      mload(0x40)\n      0x00\n      mload(0x40)\n      dup1\n      dup4\n      sub\n      dup2\n      dup6\n      dup9\n      dup9\n      call\n      swap4\n      pop\n      pop\n      pop\n      pop\n      iszero\n      dup1\n      iszero\n      tag_174\n      jumpi\n      returndatasize\n      0x00\n      dup1\n      returndatacopy\n      revert(0x00, returndatasize)\n    tag_174:\n      pop\n        /* \"RPS.sol\":3814:3822  account2 */\n      dup1\n        /* \"RPS.sol\":3814:3831  account2.transfer */\n      0xffffffffffffffffffffffffffffffffffffffff\n      and\n        /* \"RPS.sol\":3814:3841  account2.transfer(reward/2) */\n      0x08fc\n        /* \"RPS.sol\":3839:3840  2 */\n      0x02\n        /* \"RPS.sol\":3832:3838  reward */\n      sload(0x03)\n        /* \"RPS.sol\":3832:3840  reward/2 */\n      tag_175\n      swap2\n      swap1\n      tag_172\n      jump\t// in\n    tag_175:\n        /* \"RPS.sol\":3814:3841  account2.transfer(reward/2) */\n      swap1\n      dup2\n      iszero\n      mul\n      swap1\n      mload(0x40)\n      0x00\n      mload(0x40)\n      dup1\n      dup4\n      sub\n      dup2\n      dup6\n      dup9\n      dup9\n      call\n      swap4\n      pop\n      pop\n      pop\n      pop\n      iszero\n      dup1\n      iszero\n      tag_177\n      jumpi\n      returndatasize\n      0x00\n      dup1\n      returndatacopy\n      revert(0x00, returndatasize)\n    tag_177:\n      pop\n        /* \"RPS.sol\":3639:3852  {... */\n      pop\n      pop\n        /* \"RPS.sol\":3560:4358  if (numPlayer == 2 && numReveal == 0 && timeUnit.elapsedSeconds() >= timeLimit){... */\n      jump(tag_178)\n    tag_164:\n        /* \"RPS.sol\":3883:3884  2 */\n      0x02\n        /* \"RPS.sol\":3870:3879  numPlayer */\n      dup1\n      sload\n        /* \"RPS.sol\":3870:3884  numPlayer == 2 */\n      eq\n        /* \"RPS.sol\":3870:3902  numPlayer == 2 && numReveal <= 1 */\n      dup1\n      iszero\n      tag_179\n      jumpi\n      pop\n        /* \"RPS.sol\":3901:3902  1 */\n      0x01\n        /* \"RPS.sol\":3888:3897  numReveal */\n      sload(0x04)\n        /* \"RPS.sol\":3888:3902  numReveal <= 1 */\n      gt\n      iszero\n        /* \"RPS.sol\":3870:3902  numPlayer == 2 && numReveal <= 1 */\n    tag_179:\n        /* \"RPS.sol\":3870:3944  numPlayer == 2 && numReveal <= 1 && timeUnit.elapsedSeconds() >= timeLimit */\n      dup1\n      iszero\n      tag_180\n      jumpi\n      pop\n        /* \"RPS.sol\":3935:3944  timeLimit */\n      sload(0x0a)\n        /* \"RPS.sol\":3906:3914  timeUnit */\n      0x00\n      dup1\n      sload\n      swap1\n      0x0100\n      exp\n      swap1\n      div\n      0xffffffffffffffffffffffffffffffffffffffff\n      and\n        /* \"RPS.sol\":3906:3929  timeUnit.elapsedSeconds */\n      0xffffffffffffffffffffffffffffffffffffffff\n      and\n      0xbc06b8cd\n        /* \"RPS.sol\":3906:3931  timeUnit.elapsedSeconds() */\n      mload(0x40)\n      dup2\n      0xffffffff\n      and\n      0xe0\n      shl\n      dup2\n      mstore\n      0x04\n      add\n      0x20\n      mload(0x40)\n      dup1\n      dup4\n      sub\n      dup2\n      dup7\n      gas\n      staticcall\n      iszero\n      dup1\n      iszero\n      tag_182\n      jumpi\n      returndatasize\n      0x00\n      dup1\n      returndatacopy\n      revert(0x00, returndatasize)\n    tag_182:\n      pop\n      pop\n      pop\n      pop\n      mload(0x40)\n      returndatasize\n      not(0x1f)\n      0x1f\n      dup3\n      add\n      and\n      dup3\n      add\n      dup1\n      0x40\n      mstore\n      pop\n      dup2\n      add\n      swap1\n      tag_183\n      swap2\n      swap1\n      tag_151\n      jump\t// in\n    tag_183:\n        /* \"RPS.sol\":3906:3944  timeUnit.elapsedSeconds() >= timeLimit */\n      lt\n      iszero\n        /* \"RPS.sol\":3870:3944  numPlayer == 2 && numReveal <= 1 && timeUnit.elapsedSeconds() >= timeLimit */\n    tag_180:\n        /* \"RPS.sol\":3866:4358  if (numPlayer == 2 && numReveal <= 1 && timeUnit.elapsedSeconds() >= timeLimit) {... */\n      iszero\n      tag_184\n      jumpi\n        /* \"RPS.sol\":3960:3983  address payable account */\n      0x00\n        /* \"RPS.sol\":3994:4004  msg.sender */\n      caller\n        /* \"RPS.sol\":3960:4005  address payable account = payable(msg.sender) */\n      swap1\n      pop\n        /* \"RPS.sol\":4019:4033  address target */\n      0x00\n        /* \"RPS.sol\":4064:4071  players */\n      0x07\n        /* \"RPS.sol\":4072:4073  0 */\n      0x00\n        /* \"RPS.sol\":4064:4074  players[0] */\n      dup2\n      sload\n      dup2\n      lt\n      tag_185\n      jumpi\n      tag_186\n      tag_94\n      jump\t// in\n    tag_186:\n    tag_185:\n      swap1\n      0x00\n      mstore\n      keccak256(0x00, 0x20)\n      add\n      0x00\n      swap1\n      sload\n      swap1\n      0x0100\n      exp\n      swap1\n      div\n      0xffffffffffffffffffffffffffffffffffffffff\n      and\n        /* \"RPS.sol\":4050:4074  msg.sender == players[0] */\n      0xffffffffffffffffffffffffffffffffffffffff\n      and\n        /* \"RPS.sol\":4050:4060  msg.sender */\n      caller\n        /* \"RPS.sol\":4050:4074  msg.sender == players[0] */\n      0xffffffffffffffffffffffffffffffffffffffff\n      and\n      sub\n        /* \"RPS.sol\":4047:4132  if(msg.sender == players[0])target = players[1];... */\n      tag_188\n      jumpi\n        /* \"RPS.sol\":4084:4091  players */\n      0x07\n        /* \"RPS.sol\":4092:4093  1 */\n      0x01\n        /* \"RPS.sol\":4084:4094  players[1] */\n      dup2\n      sload\n      dup2\n      lt\n      tag_189\n      jumpi\n      tag_190\n      tag_94\n      jump\t// in\n    tag_190:\n    tag_189:\n      swap1\n      0x00\n      mstore\n      keccak256(0x00, 0x20)\n      add\n      0x00\n      swap1\n      sload\n      swap1\n      0x0100\n      exp\n      swap1\n      div\n      0xffffffffffffffffffffffffffffffffffffffff\n      and\n        /* \"RPS.sol\":4075:4094  target = players[1] */\n      swap1\n      pop\n        /* \"RPS.sol\":4047:4132  if(msg.sender == players[0])target = players[1];... */\n      jump(tag_192)\n    tag_188:\n        /* \"RPS.sol\":4122:4129  players */\n      0x07\n        /* \"RPS.sol\":4130:4131  0 */\n      0x00\n        /* \"RPS.sol\":4122:4132  players[0] */\n      dup2\n      sload\n      dup2\n      lt\n      tag_193\n      jumpi\n      tag_194\n      tag_94\n      jump\t// in\n    tag_194:\n    tag_193:\n      swap1\n      0x00\n      mstore\n      keccak256(0x00, 0x20)\n      add\n      0x00\n      swap1\n      sload\n      swap1\n      0x0100\n      exp\n      swap1\n      div\n      0xffffffffffffffffffffffffffffffffffffffff\n      and\n        /* \"RPS.sol\":4113:4132  target = players[0] */\n      swap1\n      pop\n        /* \"RPS.sol\":4047:4132  if(msg.sender == players[0])target = players[1];... */\n    tag_192:\n        /* \"RPS.sol\":4149:4162  bool revealed */\n      0x00\n        /* \"RPS.sol\":4166:4178  commitReveal */\n      0x01\n      0x00\n      swap1\n      sload\n      swap1\n      0x0100\n      exp\n      swap1\n      div\n      0xffffffffffffffffffffffffffffffffffffffff\n      and\n        /* \"RPS.sol\":4166:4186  commitReveal.commits */\n      0xffffffffffffffffffffffffffffffffffffffff\n      and\n      0x7b43a8e6\n        /* \"RPS.sol\":4187:4193  target */\n      dup4\n        /* \"RPS.sol\":4166:4194  commitReveal.commits(target) */\n      mload(0x40)\n      dup3\n      0xffffffff\n      and\n      0xe0\n      shl\n      dup2\n      mstore\n      0x04\n      add\n      tag_196\n      swap2\n      swap1\n      tag_49\n      jump\t// in\n    tag_196:\n      0x60\n      mload(0x40)\n      dup1\n      dup4\n      sub\n      dup2\n      dup7\n      gas\n      staticcall\n      iszero\n      dup1\n      iszero\n      tag_198\n      jumpi\n      returndatasize\n      0x00\n      dup1\n      returndatacopy\n      revert(0x00, returndatasize)\n    tag_198:\n      pop\n      pop\n      pop\n      pop\n      mload(0x40)\n      returndatasize\n      not(0x1f)\n      0x1f\n      dup3\n      add\n      and\n      dup3\n      add\n      dup1\n      0x40\n      mstore\n      pop\n      dup2\n      add\n      swap1\n      tag_199\n      swap2\n      swap1\n      tag_200\n      jump\t// in\n    tag_199:\n        /* \"RPS.sol\":4146:4194  (,,bool revealed) = commitReveal.commits(target) */\n      swap3\n      pop\n      pop\n      pop\n        /* \"RPS.sol\":4212:4220  revealed */\n      dup1\n        /* \"RPS.sol\":4208:4279  if(!revealed) {... */\n      tag_201\n      jumpi\n        /* \"RPS.sol\":4240:4247  account */\n      dup3\n        /* \"RPS.sol\":4240:4256  account.transfer */\n      0xffffffffffffffffffffffffffffffffffffffff\n      and\n        /* \"RPS.sol\":4240:4264  account.transfer(reward) */\n      0x08fc\n        /* \"RPS.sol\":4257:4263  reward */\n      sload(0x03)\n        /* \"RPS.sol\":4240:4264  account.transfer(reward) */\n      swap1\n      dup2\n      iszero\n      mul\n      swap1\n      mload(0x40)\n      0x00\n      mload(0x40)\n      dup1\n      dup4\n      sub\n      dup2\n      dup6\n      dup9\n      dup9\n      call\n      swap4\n      pop\n      pop\n      pop\n      pop\n      iszero\n      dup1\n      iszero\n      tag_203\n      jumpi\n      returndatasize\n      0x00\n      dup1\n      returndatacopy\n      revert(0x00, returndatasize)\n    tag_203:\n      pop\n        /* \"RPS.sol\":4208:4279  if(!revealed) {... */\n    tag_201:\n        /* \"RPS.sol\":3946:4289  {... */\n      pop\n      pop\n      pop\n        /* \"RPS.sol\":3866:4358  if (numPlayer == 2 && numReveal <= 1 && timeUnit.elapsedSeconds() >= timeLimit) {... */\n      jump(tag_204)\n    tag_184:\n        /* \"RPS.sol\":4325:4330  false */\n      0x00\n        /* \"RPS.sol\":4317:4347  require(false,\"cannot refund\") */\n      tag_205\n      jumpi\n      mload(0x40)\n      0x08c379a000000000000000000000000000000000000000000000000000000000\n      dup2\n      mstore\n      0x04\n      add\n      tag_206\n      swap1\n      tag_207\n      jump\t// in\n    tag_206:\n      mload(0x40)\n      dup1\n      swap2\n      sub\n      swap1\n      revert\n    tag_205:\n        /* \"RPS.sol\":3866:4358  if (numPlayer == 2 && numReveal <= 1 && timeUnit.elapsedSeconds() >= timeLimit) {... */\n    tag_204:\n        /* \"RPS.sol\":3560:4358  if (numPlayer == 2 && numReveal == 0 && timeUnit.elapsedSeconds() >= timeLimit){... */\n    tag_178:\n        /* \"RPS.sol\":3377:4358  if(numPlayer == 1 && timeUnit.elapsedSeconds() >= timeLimit){... */\n    tag_158:\n        /* \"RPS.sol\":4367:4374  reset() */\n      tag_208\n        /* \"RPS.sol\":4367:4372  reset */\n      tag_209\n        /* \"RPS.sol\":4367:4374  reset() */\n      jump\t// in\n    tag_208:\n        /* \"RPS.sol\":3338:4381  function cancelGame() public {... */\n      jump\t// out\n        /* \"RPS.sol\":1560:2155  function commit(bytes32 hash) public  {... */\n    tag_83:\n        /* \"RPS.sol\":1629:1630  2 */\n      0x02\n        /* \"RPS.sol\":1616:1625  numPlayer */\n      dup1\n      sload\n        /* \"RPS.sol\":1616:1630  numPlayer == 2 */\n      eq\n        /* \"RPS.sol\":1608:1631  require(numPlayer == 2) */\n      tag_211\n      jumpi\n      0x00\n      dup1\n      revert\n    tag_211:\n        /* \"RPS.sol\":1649:1666  player_not_played */\n      0x06\n        /* \"RPS.sol\":1649:1678  player_not_played[msg.sender] */\n      0x00\n        /* \"RPS.sol\":1667:1677  msg.sender */\n      caller\n        /* \"RPS.sol\":1649:1678  player_not_played[msg.sender] */\n      0xffffffffffffffffffffffffffffffffffffffff\n      and\n      0xffffffffffffffffffffffffffffffffffffffff\n      and\n      dup2\n      mstore\n      0x20\n      add\n      swap1\n      dup2\n      mstore\n      0x20\n      add\n      0x00\n      keccak256\n      0x00\n      swap1\n      sload\n      swap1\n      0x0100\n      exp\n      swap1\n      div\n      0xff\n      and\n        /* \"RPS.sol\":1641:1679  require(player_not_played[msg.sender]) */\n      tag_212\n      jumpi\n      0x00\n      dup1\n      revert\n    tag_212:\n        /* \"RPS.sol\":1852:1864  commitReveal */\n      0x01\n      0x00\n      swap1\n      sload\n      swap1\n      0x0100\n      exp\n      swap1\n      div\n      0xffffffffffffffffffffffffffffffffffffffff\n      and\n        /* \"RPS.sol\":1852:1871  commitReveal.commit */\n      0xffffffffffffffffffffffffffffffffffffffff\n      and\n      0x5a746101\n        /* \"RPS.sol\":1872:1876  hash */\n      dup3\n        /* \"RPS.sol\":1877:1887  msg.sender */\n      caller\n        /* \"RPS.sol\":1852:1888  commitReveal.commit(hash,msg.sender) */\n      mload(0x40)\n      dup4\n      0xffffffff\n      and\n      0xe0\n      shl\n      dup2\n      mstore\n      0x04\n      add\n      tag_213\n      swap3\n      swap2\n      swap1\n      tag_132\n      jump\t// in\n    tag_213:\n      0x00\n      mload(0x40)\n      dup1\n      dup4\n      sub\n      dup2\n      0x00\n      dup8\n      dup1\n      extcodesize\n      iszero\n      dup1\n      iszero\n      tag_214\n      jumpi\n      0x00\n      dup1\n      revert\n    tag_214:\n      pop\n      gas\n      call\n      iszero\n      dup1\n      iszero\n      tag_216\n      jumpi\n      returndatasize\n      0x00\n      dup1\n      returndatacopy\n      revert(0x00, returndatasize)\n    tag_216:\n      pop\n      pop\n      pop\n      pop\n        /* \"RPS.sol\":1949:1966  player_not_played */\n      0x06\n        /* \"RPS.sol\":1949:1978  player_not_played[msg.sender] */\n      0x00\n        /* \"RPS.sol\":1967:1977  msg.sender */\n      caller\n        /* \"RPS.sol\":1949:1978  player_not_played[msg.sender] */\n      0xffffffffffffffffffffffffffffffffffffffff\n      and\n      0xffffffffffffffffffffffffffffffffffffffff\n      and\n      dup2\n      mstore\n      0x20\n      add\n      swap1\n      dup2\n      mstore\n      0x20\n      add\n      0x00\n      keccak256\n      0x00\n      swap1\n      sload\n      swap1\n      0x0100\n      exp\n      swap1\n      div\n      0xff\n      and\n        /* \"RPS.sol\":1945:2067  if (player_not_played[msg.sender]) {... */\n      iszero\n      tag_217\n      jumpi\n        /* \"RPS.sol\":1994:2002  numInput */\n      0x09\n      0x00\n        /* \"RPS.sol\":1994:2005  numInput ++ */\n      dup2\n      sload\n      dup1\n      swap3\n      swap2\n      swap1\n      tag_218\n      swap1\n      tag_121\n      jump\t// in\n    tag_218:\n      swap2\n      swap1\n      pop\n      sstore\n      pop\n        /* \"RPS.sol\":2051:2056  false */\n      0x00\n        /* \"RPS.sol\":2019:2036  player_not_played */\n      0x06\n        /* \"RPS.sol\":2019:2048  player_not_played[msg.sender] */\n      0x00\n        /* \"RPS.sol\":2037:2047  msg.sender */\n      caller\n        /* \"RPS.sol\":2019:2048  player_not_played[msg.sender] */\n      0xffffffffffffffffffffffffffffffffffffffff\n      and\n      0xffffffffffffffffffffffffffffffffffffffff\n      and\n      dup2\n      mstore\n      0x20\n      add\n      swap1\n      dup2\n      mstore\n      0x20\n      add\n      0x00\n      keccak256\n      0x00\n        /* \"RPS.sol\":2019:2056  player_not_played[msg.sender] = false */\n      0x0100\n      exp\n      dup2\n      sload\n      dup2\n      0xff\n      mul\n      not\n      and\n      swap1\n      dup4\n      iszero\n      iszero\n      mul\n      or\n      swap1\n      sstore\n      pop\n        /* \"RPS.sol\":1945:2067  if (player_not_played[msg.sender]) {... */\n    tag_217:\n        /* \"RPS.sol\":1560:2155  function commit(bytes32 hash) public  {... */\n      pop\n      jump\t// out\n        /* \"RPS.sol\":471:495  address[] public players */\n    tag_87:\n      0x07\n      dup2\n      dup2\n      sload\n      dup2\n      lt\n      tag_219\n      jumpi\n      0x00\n      dup1\n      revert\n    tag_219:\n      swap1\n      0x00\n      mstore\n      keccak256(0x00, 0x20)\n      add\n      0x00\n      swap2\n      pop\n      sload\n      swap1\n      0x0100\n      exp\n      swap1\n      div\n      0xffffffffffffffffffffffffffffffffffffffff\n      and\n      dup2\n      jump\t// out\n        /* \"RPS.sol\":2583:3332  function _checkWinnerAndPay() private {... */\n    tag_145:\n        /* \"RPS.sol\":2631:2644  uint p0Choice */\n      0x00\n        /* \"RPS.sol\":2647:2660  player_choice */\n      0x05\n        /* \"RPS.sol\":2647:2672  player_choice[players[0]] */\n      0x00\n        /* \"RPS.sol\":2661:2668  players */\n      0x07\n        /* \"RPS.sol\":2669:2670  0 */\n      0x00\n        /* \"RPS.sol\":2661:2671  players[0] */\n      dup2\n      sload\n      dup2\n      lt\n      tag_222\n      jumpi\n      tag_223\n      tag_94\n      jump\t// in\n    tag_223:\n    tag_222:\n      swap1\n      0x00\n      mstore\n      keccak256(0x00, 0x20)\n      add\n      0x00\n      swap1\n      sload\n      swap1\n      0x0100\n      exp\n      swap1\n      div\n      0xffffffffffffffffffffffffffffffffffffffff\n      and\n        /* \"RPS.sol\":2647:2672  player_choice[players[0]] */\n      0xffffffffffffffffffffffffffffffffffffffff\n      and\n      0xffffffffffffffffffffffffffffffffffffffff\n      and\n      dup2\n      mstore\n      0x20\n      add\n      swap1\n      dup2\n      mstore\n      0x20\n      add\n      0x00\n      keccak256\n      sload\n        /* \"RPS.sol\":2631:2672  uint p0Choice = player_choice[players[0]] */\n      swap1\n      pop\n        /* \"RPS.sol\":2682:2695  uint p1Choice */\n      0x00\n        /* \"RPS.sol\":2698:2711  player_choice */\n      0x05\n        /* \"RPS.sol\":2698:2723  player_choice[players[1]] */\n      0x00\n        /* \"RPS.sol\":2712:2719  players */\n      0x07\n        /* \"RPS.sol\":2720:2721  1 */\n      0x01\n        /* \"RPS.sol\":2712:2722  players[1] */\n      dup2\n      sload\n      dup2\n      lt\n      tag_225\n      jumpi\n      tag_226\n      tag_94\n      jump\t// in\n    tag_226:\n    tag_225:\n      swap1\n      0x00\n      mstore\n      keccak256(0x00, 0x20)\n      add\n      0x00\n      swap1\n      sload\n      swap1\n      0x0100\n      exp\n      swap1\n      div\n      0xffffffffffffffffffffffffffffffffffffffff\n      and\n        /* \"RPS.sol\":2698:2723  player_choice[players[1]] */\n      0xffffffffffffffffffffffffffffffffffffffff\n      and\n      0xffffffffffffffffffffffffffffffffffffffff\n      and\n      dup2\n      mstore\n      0x20\n      add\n      swap1\n      dup2\n      mstore\n      0x20\n      add\n      0x00\n      keccak256\n      sload\n        /* \"RPS.sol\":2682:2723  uint p1Choice = player_choice[players[1]] */\n      swap1\n      pop\n        /* \"RPS.sol\":2733:2757  address payable account0 */\n      0x00\n        /* \"RPS.sol\":2768:2775  players */\n      0x07\n        /* \"RPS.sol\":2776:2777  0 */\n      0x00\n        /* \"RPS.sol\":2768:2778  players[0] */\n      dup2\n      sload\n      dup2\n      lt\n      tag_228\n      jumpi\n      tag_229\n      tag_94\n      jump\t// in\n    tag_229:\n    tag_228:\n      swap1\n      0x00\n      mstore\n      keccak256(0x00, 0x20)\n      add\n      0x00\n      swap1\n      sload\n      swap1\n      0x0100\n      exp\n      swap1\n      div\n      0xffffffffffffffffffffffffffffffffffffffff\n      and\n        /* \"RPS.sol\":2733:2779  address payable account0 = payable(players[0]) */\n      swap1\n      pop\n        /* \"RPS.sol\":2789:2813  address payable account1 */\n      0x00\n        /* \"RPS.sol\":2824:2831  players */\n      0x07\n        /* \"RPS.sol\":2832:2833  1 */\n      0x01\n        /* \"RPS.sol\":2824:2834  players[1] */\n      dup2\n      sload\n      dup2\n      lt\n      tag_231\n      jumpi\n      tag_232\n      tag_94\n      jump\t// in\n    tag_232:\n    tag_231:\n      swap1\n      0x00\n      mstore\n      keccak256(0x00, 0x20)\n      add\n      0x00\n      swap1\n      sload\n      swap1\n      0x0100\n      exp\n      swap1\n      div\n      0xffffffffffffffffffffffffffffffffffffffff\n      and\n        /* \"RPS.sol\":2789:2835  address payable account1 = payable(players[1]) */\n      swap1\n      pop\n        /* \"RPS.sol\":2871:2879  p1Choice */\n      dup3\n        /* \"RPS.sol\":2866:2867  3 */\n      0x03\n        /* \"RPS.sol\":2861:2862  1 */\n      0x01\n        /* \"RPS.sol\":2850:2858  p0Choice */\n      dup7\n        /* \"RPS.sol\":2850:2862  p0Choice + 1 */\n      tag_234\n      swap2\n      swap1\n      tag_118\n      jump\t// in\n    tag_234:\n        /* \"RPS.sol\":2849:2867  (p0Choice + 1) % 3 */\n      tag_235\n      swap2\n      swap1\n      tag_236\n      jump\t// in\n    tag_235:\n        /* \"RPS.sol\":2849:2879  (p0Choice + 1) % 3 == p1Choice */\n      eq\n        /* \"RPS.sol\":2849:2913  (p0Choice + 1) % 3 == p1Choice || (p0Choice + 3) % 5 == p1Choice */\n      dup1\n      tag_237\n      jumpi\n      pop\n        /* \"RPS.sol\":2905:2913  p1Choice */\n      dup3\n        /* \"RPS.sol\":2900:2901  5 */\n      0x05\n        /* \"RPS.sol\":2895:2896  3 */\n      0x03\n        /* \"RPS.sol\":2884:2892  p0Choice */\n      dup7\n        /* \"RPS.sol\":2884:2896  p0Choice + 3 */\n      tag_238\n      swap2\n      swap1\n      tag_118\n      jump\t// in\n    tag_238:\n        /* \"RPS.sol\":2883:2901  (p0Choice + 3) % 5 */\n      tag_239\n      swap2\n      swap1\n      tag_236\n      jump\t// in\n    tag_239:\n        /* \"RPS.sol\":2883:2913  (p0Choice + 3) % 5 == p1Choice */\n      eq\n        /* \"RPS.sol\":2849:2913  (p0Choice + 1) % 3 == p1Choice || (p0Choice + 3) % 5 == p1Choice */\n    tag_237:\n        /* \"RPS.sol\":2845:3309  if ((p0Choice + 1) % 3 == p1Choice || (p0Choice + 3) % 5 == p1Choice) {... */\n      iszero\n      tag_240\n      jumpi\n        /* \"RPS.sol\":2961:2969  account0 */\n      dup2\n        /* \"RPS.sol\":2961:2978  account0.transfer */\n      0xffffffffffffffffffffffffffffffffffffffff\n      and\n        /* \"RPS.sol\":2961:2986  account0.transfer(reward) */\n      0x08fc\n        /* \"RPS.sol\":2979:2985  reward */\n      sload(0x03)\n        /* \"RPS.sol\":2961:2986  account0.transfer(reward) */\n      swap1\n      dup2\n      iszero\n      mul\n      swap1\n      mload(0x40)\n      0x00\n      mload(0x40)\n      dup1\n      dup4\n      sub\n      dup2\n      dup6\n      dup9\n      dup9\n      call\n      swap4\n      pop\n      pop\n      pop\n      pop\n      iszero\n      dup1\n      iszero\n      tag_242\n      jumpi\n      returndatasize\n      0x00\n      dup1\n      returndatacopy\n      revert(0x00, returndatasize)\n    tag_242:\n      pop\n        /* \"RPS.sol\":2845:3309  if ((p0Choice + 1) % 3 == p1Choice || (p0Choice + 3) % 5 == p1Choice) {... */\n      jump(tag_243)\n    tag_240:\n        /* \"RPS.sol\":3037:3045  p0Choice */\n      dup4\n        /* \"RPS.sol\":3032:3033  3 */\n      0x03\n        /* \"RPS.sol\":3027:3028  1 */\n      0x01\n        /* \"RPS.sol\":3016:3024  p1Choice */\n      dup6\n        /* \"RPS.sol\":3016:3028  p1Choice + 1 */\n      tag_244\n      swap2\n      swap1\n      tag_118\n      jump\t// in\n    tag_244:\n        /* \"RPS.sol\":3015:3033  (p1Choice + 1) % 3 */\n      tag_245\n      swap2\n      swap1\n      tag_236\n      jump\t// in\n    tag_245:\n        /* \"RPS.sol\":3015:3045  (p1Choice + 1) % 3 == p0Choice */\n      eq\n        /* \"RPS.sol\":3015:3079  (p1Choice + 1) % 3 == p0Choice || (p1Choice + 3) % 5 == p0Choice */\n      dup1\n      tag_246\n      jumpi\n      pop\n        /* \"RPS.sol\":3071:3079  p0Choice */\n      dup4\n        /* \"RPS.sol\":3066:3067  5 */\n      0x05\n        /* \"RPS.sol\":3061:3062  3 */\n      0x03\n        /* \"RPS.sol\":3050:3058  p1Choice */\n      dup6\n        /* \"RPS.sol\":3050:3062  p1Choice + 3 */\n      tag_247\n      swap2\n      swap1\n      tag_118\n      jump\t// in\n    tag_247:\n        /* \"RPS.sol\":3049:3067  (p1Choice + 3) % 5 */\n      tag_248\n      swap2\n      swap1\n      tag_236\n      jump\t// in\n    tag_248:\n        /* \"RPS.sol\":3049:3079  (p1Choice + 3) % 5 == p0Choice */\n      eq\n        /* \"RPS.sol\":3015:3079  (p1Choice + 1) % 3 == p0Choice || (p1Choice + 3) % 5 == p0Choice */\n    tag_246:\n        /* \"RPS.sol\":3011:3309  if ((p1Choice + 1) % 3 == p0Choice || (p1Choice + 3) % 5 == p0Choice) {... */\n      iszero\n      tag_249\n      jumpi\n        /* \"RPS.sol\":3127:3135  account1 */\n      dup1\n        /* \"RPS.sol\":3127:3144  account1.transfer */\n      0xffffffffffffffffffffffffffffffffffffffff\n      and\n        /* \"RPS.sol\":3127:3152  account1.transfer(reward) */\n      0x08fc\n        /* \"RPS.sol\":3145:3151  reward */\n      sload(0x03)\n        /* \"RPS.sol\":3127:3152  account1.transfer(reward) */\n      swap1\n      dup2\n      iszero\n      mul\n      swap1\n      mload(0x40)\n      0x00\n      mload(0x40)\n      dup1\n      dup4\n      sub\n      dup2\n      dup6\n      dup9\n      dup9\n      call\n      swap4\n      pop\n      pop\n      pop\n      pop\n      iszero\n      dup1\n      iszero\n      tag_251\n      jumpi\n      returndatasize\n      0x00\n      dup1\n      returndatacopy\n      revert(0x00, returndatasize)\n    tag_251:\n      pop\n        /* \"RPS.sol\":3011:3309  if ((p1Choice + 1) % 3 == p0Choice || (p1Choice + 3) % 5 == p0Choice) {... */\n      jump(tag_252)\n    tag_249:\n        /* \"RPS.sol\":3226:3234  account0 */\n      dup2\n        /* \"RPS.sol\":3226:3243  account0.transfer */\n      0xffffffffffffffffffffffffffffffffffffffff\n      and\n        /* \"RPS.sol\":3226:3255  account0.transfer(reward / 2) */\n      0x08fc\n        /* \"RPS.sol\":3253:3254  2 */\n      0x02\n        /* \"RPS.sol\":3244:3250  reward */\n      sload(0x03)\n        /* \"RPS.sol\":3244:3254  reward / 2 */\n      tag_253\n      swap2\n      swap1\n      tag_172\n      jump\t// in\n    tag_253:\n        /* \"RPS.sol\":3226:3255  account0.transfer(reward / 2) */\n      swap1\n      dup2\n      iszero\n      mul\n      swap1\n      mload(0x40)\n      0x00\n      mload(0x40)\n      dup1\n      dup4\n      sub\n      dup2\n      dup6\n      dup9\n      dup9\n      call\n      swap4\n      pop\n      pop\n      pop\n      pop\n      iszero\n      dup1\n      iszero\n      tag_255\n      jumpi\n      returndatasize\n      0x00\n      dup1\n      returndatacopy\n      revert(0x00, returndatasize)\n    tag_255:\n      pop\n        /* \"RPS.sol\":3269:3277  account1 */\n      dup1\n        /* \"RPS.sol\":3269:3286  account1.transfer */\n      0xffffffffffffffffffffffffffffffffffffffff\n      and\n        /* \"RPS.sol\":3269:3298  account1.transfer(reward / 2) */\n      0x08fc\n        /* \"RPS.sol\":3296:3297  2 */\n      0x02\n        /* \"RPS.sol\":3287:3293  reward */\n      sload(0x03)\n        /* \"RPS.sol\":3287:3297  reward / 2 */\n      tag_256\n      swap2\n      swap1\n      tag_172\n      jump\t// in\n    tag_256:\n        /* \"RPS.sol\":3269:3298  account1.transfer(reward / 2) */\n      swap1\n      dup2\n      iszero\n      mul\n      swap1\n      mload(0x40)\n      0x00\n      mload(0x40)\n      dup1\n      dup4\n      sub\n      dup2\n      dup6\n      dup9\n      dup9\n      call\n      swap4\n      pop\n      pop\n      pop\n      pop\n      iszero\n      dup1\n      iszero\n      tag_258\n      jumpi\n      returndatasize\n      0x00\n      dup1\n      returndatacopy\n      revert(0x00, returndatasize)\n    tag_258:\n      pop\n        /* \"RPS.sol\":3011:3309  if ((p1Choice + 1) % 3 == p0Choice || (p1Choice + 3) % 5 == p0Choice) {... */\n    tag_252:\n        /* \"RPS.sol\":2845:3309  if ((p0Choice + 1) % 3 == p1Choice || (p0Choice + 3) % 5 == p1Choice) {... */\n    tag_243:\n        /* \"RPS.sol\":3318:3325  reset() */\n      tag_259\n        /* \"RPS.sol\":3318:3323  reset */\n      tag_209\n        /* \"RPS.sol\":3318:3325  reset() */\n      jump\t// in\n    tag_259:\n        /* \"RPS.sol\":2621:3332  {... */\n      pop\n      pop\n      pop\n      pop\n        /* \"RPS.sol\":2583:3332  function _checkWinnerAndPay() private {... */\n      jump\t// out\n        /* \"RPS.sol\":4387:4690  function reset() private {... */\n    tag_209:\n        /* \"RPS.sol\":4431:4432  0 */\n      0x00\n        /* \"RPS.sol\":4422:4428  reward */\n      0x03\n        /* \"RPS.sol\":4422:4432  reward = 0 */\n      dup2\n      swap1\n      sstore\n      pop\n        /* \"RPS.sol\":4447:4453  uint i */\n      0x00\n        /* \"RPS.sol\":4442:4591  for (uint i = 0; i < players.length; i++) {... */\n    tag_261:\n        /* \"RPS.sol\":4463:4470  players */\n      0x07\n        /* \"RPS.sol\":4463:4477  players.length */\n      dup1\n      sload\n      swap1\n      pop\n        /* \"RPS.sol\":4459:4460  i */\n      dup2\n        /* \"RPS.sol\":4459:4477  i < players.length */\n      lt\n        /* \"RPS.sol\":4442:4591  for (uint i = 0; i < players.length; i++) {... */\n      iszero\n      tag_262\n      jumpi\n        /* \"RPS.sol\":4505:4518  player_choice */\n      0x05\n        /* \"RPS.sol\":4505:4530  player_choice[players[i]] */\n      0x00\n        /* \"RPS.sol\":4519:4526  players */\n      0x07\n        /* \"RPS.sol\":4527:4528  i */\n      dup4\n        /* \"RPS.sol\":4519:4529  players[i] */\n      dup2\n      sload\n      dup2\n      lt\n      tag_264\n      jumpi\n      tag_265\n      tag_94\n      jump\t// in\n    tag_265:\n    tag_264:\n      swap1\n      0x00\n      mstore\n      keccak256(0x00, 0x20)\n      add\n      0x00\n      swap1\n      sload\n      swap1\n      0x0100\n      exp\n      swap1\n      div\n      0xffffffffffffffffffffffffffffffffffffffff\n      and\n        /* \"RPS.sol\":4505:4530  player_choice[players[i]] */\n      0xffffffffffffffffffffffffffffffffffffffff\n      and\n      0xffffffffffffffffffffffffffffffffffffffff\n      and\n      dup2\n      mstore\n      0x20\n      add\n      swap1\n      dup2\n      mstore\n      0x20\n      add\n      0x00\n      keccak256\n        /* \"RPS.sol\":4498:4530  delete player_choice[players[i]] */\n      0x00\n      swap1\n      sstore\n        /* \"RPS.sol\":4551:4568  player_not_played */\n      0x06\n        /* \"RPS.sol\":4551:4580  player_not_played[players[i]] */\n      0x00\n        /* \"RPS.sol\":4569:4576  players */\n      0x07\n        /* \"RPS.sol\":4577:4578  i */\n      dup4\n        /* \"RPS.sol\":4569:4579  players[i] */\n      dup2\n      sload\n      dup2\n      lt\n      tag_267\n      jumpi\n      tag_268\n      tag_94\n      jump\t// in\n    tag_268:\n    tag_267:\n      swap1\n      0x00\n      mstore\n      keccak256(0x00, 0x20)\n      add\n      0x00\n      swap1\n      sload\n      swap1\n      0x0100\n      exp\n      swap1\n      div\n      0xffffffffffffffffffffffffffffffffffffffff\n      and\n        /* \"RPS.sol\":4551:4580  player_not_played[players[i]] */\n      0xffffffffffffffffffffffffffffffffffffffff\n      and\n      0xffffffffffffffffffffffffffffffffffffffff\n      and\n      dup2\n      mstore\n      0x20\n      add\n      swap1\n      dup2\n      mstore\n      0x20\n      add\n      0x00\n      keccak256\n      0x00\n        /* \"RPS.sol\":4544:4580  delete player_not_played[players[i]] */\n      0x0100\n      exp\n      dup2\n      sload\n      swap1\n      0xff\n      mul\n      not\n      and\n      swap1\n      sstore\n        /* \"RPS.sol\":4479:4482  i++ */\n      dup1\n      dup1\n      0x01\n      add\n      swap2\n      pop\n      pop\n        /* \"RPS.sol\":4442:4591  for (uint i = 0; i < players.length; i++) {... */\n      jump(tag_261)\n    tag_262:\n      pop\n        /* \"RPS.sol\":4607:4614  players */\n      0x07\n      0x00\n        /* \"RPS.sol\":4600:4614  delete players */\n      tag_270\n      swap2\n      swap1\n      tag_271\n      jump\t// in\n    tag_270:\n        /* \"RPS.sol\":4636:4637  0 */\n      0x00\n        /* \"RPS.sol\":4624:4633  numPlayer */\n      0x02\n        /* \"RPS.sol\":4624:4637  numPlayer = 0 */\n      dup2\n      swap1\n      sstore\n      pop\n        /* \"RPS.sol\":4658:4659  0 */\n      0x00\n        /* \"RPS.sol\":4647:4655  numInput */\n      0x09\n        /* \"RPS.sol\":4647:4659  numInput = 0 */\n      dup2\n      swap1\n      sstore\n      pop\n        /* \"RPS.sol\":4681:4682  0 */\n      0x00\n        /* \"RPS.sol\":4669:4678  numReveal */\n      0x04\n        /* \"RPS.sol\":4669:4682  numReveal = 0 */\n      dup2\n      swap1\n      sstore\n      pop\n        /* \"RPS.sol\":4387:4690  function reset() private {... */\n      jump\t// out\n    tag_271:\n      pop\n      dup1\n      sload\n      0x00\n      dup3\n      sstore\n      swap1\n      0x00\n      mstore\n      keccak256(0x00, 0x20)\n      swap1\n      dup2\n      add\n      swap1\n      tag_273\n      swap2\n      swap1\n      tag_274\n      jump\t// in\n    tag_273:\n      pop\n      jump\t// out\n    tag_274:\n    tag_275:\n      dup1\n      dup3\n      gt\n      iszero\n      tag_276\n      jumpi\n      0x00\n      dup2\n      0x00\n      swap1\n      sstore\n      pop\n      0x01\n      add\n      jump(tag_275)\n    tag_276:\n      pop\n      swap1\n      jump\t// out\n        /* \"#utility.yul\":7:84   */\n    tag_277:\n        /* \"#utility.yul\":44:51   */\n      0x00\n        /* \"#utility.yul\":73:78   */\n      dup2\n        /* \"#utility.yul\":62:78   */\n      swap1\n      pop\n        /* \"#utility.yul\":7:84   */\n      swap2\n      swap1\n      pop\n      jump\t// out\n        /* \"#utility.yul\":90:208   */\n    tag_278:\n        /* \"#utility.yul\":177:201   */\n      tag_321\n        /* \"#utility.yul\":195:200   */\n      dup2\n        /* \"#utility.yul\":177:201   */\n      tag_277\n      jump\t// in\n    tag_321:\n        /* \"#utility.yul\":172:175   */\n      dup3\n        /* \"#utility.yul\":165:202   */\n      mstore\n        /* \"#utility.yul\":90:208   */\n      pop\n      pop\n      jump\t// out\n        /* \"#utility.yul\":214:436   */\n    tag_24:\n        /* \"#utility.yul\":307:311   */\n      0x00\n        /* \"#utility.yul\":345:347   */\n      0x20\n        /* \"#utility.yul\":334:343   */\n      dup3\n        /* \"#utility.yul\":330:348   */\n      add\n        /* \"#utility.yul\":322:348   */\n      swap1\n      pop\n        /* \"#utility.yul\":358:429   */\n      tag_323\n        /* \"#utility.yul\":426:427   */\n      0x00\n        /* \"#utility.yul\":415:424   */\n      dup4\n        /* \"#utility.yul\":411:428   */\n      add\n        /* \"#utility.yul\":402:408   */\n      dup5\n        /* \"#utility.yul\":358:429   */\n      tag_278\n      jump\t// in\n    tag_323:\n        /* \"#utility.yul\":214:436   */\n      swap3\n      swap2\n      pop\n      pop\n      jump\t// out\n        /* \"#utility.yul\":523:640   */\n    tag_280:\n        /* \"#utility.yul\":632:633   */\n      0x00\n        /* \"#utility.yul\":629:630   */\n      dup1\n        /* \"#utility.yul\":622:634   */\n      revert\n        /* \"#utility.yul\":769:895   */\n    tag_282:\n        /* \"#utility.yul\":806:813   */\n      0x00\n        /* \"#utility.yul\":846:888   */\n      0xffffffffffffffffffffffffffffffffffffffff\n        /* \"#utility.yul\":839:844   */\n      dup3\n        /* \"#utility.yul\":835:889   */\n      and\n        /* \"#utility.yul\":824:889   */\n      swap1\n      pop\n        /* \"#utility.yul\":769:895   */\n      swap2\n      swap1\n      pop\n      jump\t// out\n        /* \"#utility.yul\":901:997   */\n    tag_283:\n        /* \"#utility.yul\":938:945   */\n      0x00\n        /* \"#utility.yul\":967:991   */\n      tag_329\n        /* \"#utility.yul\":985:990   */\n      dup3\n        /* \"#utility.yul\":967:991   */\n      tag_282\n      jump\t// in\n    tag_329:\n        /* \"#utility.yul\":956:991   */\n      swap1\n      pop\n        /* \"#utility.yul\":901:997   */\n      swap2\n      swap1\n      pop\n      jump\t// out\n        /* \"#utility.yul\":1003:1125   */\n    tag_284:\n        /* \"#utility.yul\":1076:1100   */\n      tag_331\n        /* \"#utility.yul\":1094:1099   */\n      dup2\n        /* \"#utility.yul\":1076:1100   */\n      tag_283\n      jump\t// in\n    tag_331:\n        /* \"#utility.yul\":1069:1074   */\n      dup2\n        /* \"#utility.yul\":1066:1101   */\n      eq\n        /* \"#utility.yul\":1056:1119   */\n      tag_332\n      jumpi\n        /* \"#utility.yul\":1115:1116   */\n      0x00\n        /* \"#utility.yul\":1112:1113   */\n      dup1\n        /* \"#utility.yul\":1105:1117   */\n      revert\n        /* \"#utility.yul\":1056:1119   */\n    tag_332:\n        /* \"#utility.yul\":1003:1125   */\n      pop\n      jump\t// out\n        /* \"#utility.yul\":1131:1270   */\n    tag_285:\n        /* \"#utility.yul\":1177:1182   */\n      0x00\n        /* \"#utility.yul\":1215:1221   */\n      dup2\n        /* \"#utility.yul\":1202:1222   */\n      calldataload\n        /* \"#utility.yul\":1193:1222   */\n      swap1\n      pop\n        /* \"#utility.yul\":1231:1264   */\n      tag_334\n        /* \"#utility.yul\":1258:1263   */\n      dup2\n        /* \"#utility.yul\":1231:1264   */\n      tag_284\n      jump\t// in\n    tag_334:\n        /* \"#utility.yul\":1131:1270   */\n      swap3\n      swap2\n      pop\n      pop\n      jump\t// out\n        /* \"#utility.yul\":1276:1605   */\n    tag_28:\n        /* \"#utility.yul\":1335:1341   */\n      0x00\n        /* \"#utility.yul\":1384:1386   */\n      0x20\n        /* \"#utility.yul\":1372:1381   */\n      dup3\n        /* \"#utility.yul\":1363:1370   */\n      dup5\n        /* \"#utility.yul\":1359:1382   */\n      sub\n        /* \"#utility.yul\":1355:1387   */\n      slt\n        /* \"#utility.yul\":1352:1471   */\n      iszero\n      tag_336\n      jumpi\n        /* \"#utility.yul\":1390:1469   */\n      tag_337\n      tag_280\n      jump\t// in\n    tag_337:\n        /* \"#utility.yul\":1352:1471   */\n    tag_336:\n        /* \"#utility.yul\":1510:1511   */\n      0x00\n        /* \"#utility.yul\":1535:1588   */\n      tag_338\n        /* \"#utility.yul\":1580:1587   */\n      dup5\n        /* \"#utility.yul\":1571:1577   */\n      dup3\n        /* \"#utility.yul\":1560:1569   */\n      dup6\n        /* \"#utility.yul\":1556:1578   */\n      add\n        /* \"#utility.yul\":1535:1588   */\n      tag_285\n      jump\t// in\n    tag_338:\n        /* \"#utility.yul\":1525:1588   */\n      swap2\n      pop\n        /* \"#utility.yul\":1481:1598   */\n      pop\n        /* \"#utility.yul\":1276:1605   */\n      swap3\n      swap2\n      pop\n      pop\n      jump\t// out\n        /* \"#utility.yul\":1611:1701   */\n    tag_286:\n        /* \"#utility.yul\":1645:1652   */\n      0x00\n        /* \"#utility.yul\":1688:1693   */\n      dup2\n        /* \"#utility.yul\":1681:1694   */\n      iszero\n        /* \"#utility.yul\":1674:1695   */\n      iszero\n        /* \"#utility.yul\":1663:1695   */\n      swap1\n      pop\n        /* \"#utility.yul\":1611:1701   */\n      swap2\n      swap1\n      pop\n      jump\t// out\n        /* \"#utility.yul\":1707:1816   */\n    tag_287:\n        /* \"#utility.yul\":1788:1809   */\n      tag_341\n        /* \"#utility.yul\":1803:1808   */\n      dup2\n        /* \"#utility.yul\":1788:1809   */\n      tag_286\n      jump\t// in\n    tag_341:\n        /* \"#utility.yul\":1783:1786   */\n      dup3\n        /* \"#utility.yul\":1776:1810   */\n      mstore\n        /* \"#utility.yul\":1707:1816   */\n      pop\n      pop\n      jump\t// out\n        /* \"#utility.yul\":1822:2032   */\n    tag_31:\n        /* \"#utility.yul\":1909:1913   */\n      0x00\n        /* \"#utility.yul\":1947:1949   */\n      0x20\n        /* \"#utility.yul\":1936:1945   */\n      dup3\n        /* \"#utility.yul\":1932:1950   */\n      add\n        /* \"#utility.yul\":1924:1950   */\n      swap1\n      pop\n        /* \"#utility.yul\":1960:2025   */\n      tag_343\n        /* \"#utility.yul\":2022:2023   */\n      0x00\n        /* \"#utility.yul\":2011:2020   */\n      dup4\n        /* \"#utility.yul\":2007:2024   */\n      add\n        /* \"#utility.yul\":1998:2004   */\n      dup5\n        /* \"#utility.yul\":1960:2025   */\n      tag_287\n      jump\t// in\n    tag_343:\n        /* \"#utility.yul\":1822:2032   */\n      swap3\n      swap2\n      pop\n      pop\n      jump\t// out\n        /* \"#utility.yul\":2038:2098   */\n    tag_288:\n        /* \"#utility.yul\":2066:2069   */\n      0x00\n        /* \"#utility.yul\":2087:2092   */\n      dup2\n        /* \"#utility.yul\":2080:2092   */\n      swap1\n      pop\n        /* \"#utility.yul\":2038:2098   */\n      swap2\n      swap1\n      pop\n      jump\t// out\n        /* \"#utility.yul\":2104:2246   */\n    tag_289:\n        /* \"#utility.yul\":2154:2163   */\n      0x00\n        /* \"#utility.yul\":2187:2240   */\n      tag_346\n        /* \"#utility.yul\":2205:2239   */\n      tag_347\n        /* \"#utility.yul\":2214:2238   */\n      tag_348\n        /* \"#utility.yul\":2232:2237   */\n      dup5\n        /* \"#utility.yul\":2214:2238   */\n      tag_282\n      jump\t// in\n    tag_348:\n        /* \"#utility.yul\":2205:2239   */\n      tag_288\n      jump\t// in\n    tag_347:\n        /* \"#utility.yul\":2187:2240   */\n      tag_282\n      jump\t// in\n    tag_346:\n        /* \"#utility.yul\":2174:2240   */\n      swap1\n      pop\n        /* \"#utility.yul\":2104:2246   */\n      swap2\n      swap1\n      pop\n      jump\t// out\n        /* \"#utility.yul\":2252:2378   */\n    tag_290:\n        /* \"#utility.yul\":2302:2311   */\n      0x00\n        /* \"#utility.yul\":2335:2372   */\n      tag_350\n        /* \"#utility.yul\":2366:2371   */\n      dup3\n        /* \"#utility.yul\":2335:2372   */\n      tag_289\n      jump\t// in\n    tag_350:\n        /* \"#utility.yul\":2322:2372   */\n      swap1\n      pop\n        /* \"#utility.yul\":2252:2378   */\n      swap2\n      swap1\n      pop\n      jump\t// out\n        /* \"#utility.yul\":2384:2526   */\n    tag_291:\n        /* \"#utility.yul\":2450:2459   */\n      0x00\n        /* \"#utility.yul\":2483:2520   */\n      tag_352\n        /* \"#utility.yul\":2514:2519   */\n      dup3\n        /* \"#utility.yul\":2483:2520   */\n      tag_290\n      jump\t// in\n    tag_352:\n        /* \"#utility.yul\":2470:2520   */\n      swap1\n      pop\n        /* \"#utility.yul\":2384:2526   */\n      swap2\n      swap1\n      pop\n      jump\t// out\n        /* \"#utility.yul\":2532:2695   */\n    tag_292:\n        /* \"#utility.yul\":2635:2688   */\n      tag_354\n        /* \"#utility.yul\":2682:2687   */\n      dup2\n        /* \"#utility.yul\":2635:2688   */\n      tag_291\n      jump\t// in\n    tag_354:\n        /* \"#utility.yul\":2630:2633   */\n      dup3\n        /* \"#utility.yul\":2623:2689   */\n      mstore\n        /* \"#utility.yul\":2532:2695   */\n      pop\n      pop\n      jump\t// out\n        /* \"#utility.yul\":2701:2955   */\n    tag_42:\n        /* \"#utility.yul\":2810:2814   */\n      0x00\n        /* \"#utility.yul\":2848:2850   */\n      0x20\n        /* \"#utility.yul\":2837:2846   */\n      dup3\n        /* \"#utility.yul\":2833:2851   */\n      add\n        /* \"#utility.yul\":2825:2851   */\n      swap1\n      pop\n        /* \"#utility.yul\":2861:2948   */\n      tag_356\n        /* \"#utility.yul\":2945:2946   */\n      0x00\n        /* \"#utility.yul\":2934:2943   */\n      dup4\n        /* \"#utility.yul\":2930:2947   */\n      add\n        /* \"#utility.yul\":2921:2927   */\n      dup5\n        /* \"#utility.yul\":2861:2948   */\n      tag_292\n      jump\t// in\n    tag_356:\n        /* \"#utility.yul\":2701:2955   */\n      swap3\n      swap2\n      pop\n      pop\n      jump\t// out\n        /* \"#utility.yul\":2961:3083   */\n    tag_293:\n        /* \"#utility.yul\":3034:3058   */\n      tag_358\n        /* \"#utility.yul\":3052:3057   */\n      dup2\n        /* \"#utility.yul\":3034:3058   */\n      tag_277\n      jump\t// in\n    tag_358:\n        /* \"#utility.yul\":3027:3032   */\n      dup2\n        /* \"#utility.yul\":3024:3059   */\n      eq\n        /* \"#utility.yul\":3014:3077   */\n      tag_359\n      jumpi\n        /* \"#utility.yul\":3073:3074   */\n      0x00\n        /* \"#utility.yul\":3070:3071   */\n      dup1\n        /* \"#utility.yul\":3063:3075   */\n      revert\n        /* \"#utility.yul\":3014:3077   */\n    tag_359:\n        /* \"#utility.yul\":2961:3083   */\n      pop\n      jump\t// out\n        /* \"#utility.yul\":3089:3228   */\n    tag_294:\n        /* \"#utility.yul\":3135:3140   */\n      0x00\n        /* \"#utility.yul\":3173:3179   */\n      dup2\n        /* \"#utility.yul\":3160:3180   */\n      calldataload\n        /* \"#utility.yul\":3151:3180   */\n      swap1\n      pop\n        /* \"#utility.yul\":3189:3222   */\n      tag_361\n        /* \"#utility.yul\":3216:3221   */\n      dup2\n        /* \"#utility.yul\":3189:3222   */\n      tag_293\n      jump\t// in\n    tag_361:\n        /* \"#utility.yul\":3089:3228   */\n      swap3\n      swap2\n      pop\n      pop\n      jump\t// out\n        /* \"#utility.yul\":3234:3563   */\n    tag_46:\n        /* \"#utility.yul\":3293:3299   */\n      0x00\n        /* \"#utility.yul\":3342:3344   */\n      0x20\n        /* \"#utility.yul\":3330:3339   */\n      dup3\n        /* \"#utility.yul\":3321:3328   */\n      dup5\n        /* \"#utility.yul\":3317:3340   */\n      sub\n        /* \"#utility.yul\":3313:3345   */\n      slt\n        /* \"#utility.yul\":3310:3429   */\n      iszero\n      tag_363\n      jumpi\n        /* \"#utility.yul\":3348:3427   */\n      tag_364\n      tag_280\n      jump\t// in\n    tag_364:\n        /* \"#utility.yul\":3310:3429   */\n    tag_363:\n        /* \"#utility.yul\":3468:3469   */\n      0x00\n        /* \"#utility.yul\":3493:3546   */\n      tag_365\n        /* \"#utility.yul\":3538:3545   */\n      dup5\n        /* \"#utility.yul\":3529:3535   */\n      dup3\n        /* \"#utility.yul\":3518:3527   */\n      dup6\n        /* \"#utility.yul\":3514:3536   */\n      add\n        /* \"#utility.yul\":3493:3546   */\n      tag_294\n      jump\t// in\n    tag_365:\n        /* \"#utility.yul\":3483:3546   */\n      swap2\n      pop\n        /* \"#utility.yul\":3439:3556   */\n      pop\n        /* \"#utility.yul\":3234:3563   */\n      swap3\n      swap2\n      pop\n      pop\n      jump\t// out\n        /* \"#utility.yul\":3569:3687   */\n    tag_295:\n        /* \"#utility.yul\":3656:3680   */\n      tag_367\n        /* \"#utility.yul\":3674:3679   */\n      dup2\n        /* \"#utility.yul\":3656:3680   */\n      tag_283\n      jump\t// in\n    tag_367:\n        /* \"#utility.yul\":3651:3654   */\n      dup3\n        /* \"#utility.yul\":3644:3681   */\n      mstore\n        /* \"#utility.yul\":3569:3687   */\n      pop\n      pop\n      jump\t// out\n        /* \"#utility.yul\":3693:3915   */\n    tag_49:\n        /* \"#utility.yul\":3786:3790   */\n      0x00\n        /* \"#utility.yul\":3824:3826   */\n      0x20\n        /* \"#utility.yul\":3813:3822   */\n      dup3\n        /* \"#utility.yul\":3809:3827   */\n      add\n        /* \"#utility.yul\":3801:3827   */\n      swap1\n      pop\n        /* \"#utility.yul\":3837:3908   */\n      tag_369\n        /* \"#utility.yul\":3905:3906   */\n      0x00\n        /* \"#utility.yul\":3894:3903   */\n      dup4\n        /* \"#utility.yul\":3890:3907   */\n      add\n        /* \"#utility.yul\":3881:3887   */\n      dup5\n        /* \"#utility.yul\":3837:3908   */\n      tag_295\n      jump\t// in\n    tag_369:\n        /* \"#utility.yul\":3693:3915   */\n      swap3\n      swap2\n      pop\n      pop\n      jump\t// out\n        /* \"#utility.yul\":3921:3998   */\n    tag_296:\n        /* \"#utility.yul\":3958:3965   */\n      0x00\n        /* \"#utility.yul\":3987:3992   */\n      dup2\n        /* \"#utility.yul\":3976:3992   */\n      swap1\n      pop\n        /* \"#utility.yul\":3921:3998   */\n      swap2\n      swap1\n      pop\n      jump\t// out\n        /* \"#utility.yul\":4004:4126   */\n    tag_297:\n        /* \"#utility.yul\":4077:4101   */\n      tag_372\n        /* \"#utility.yul\":4095:4100   */\n      dup2\n        /* \"#utility.yul\":4077:4101   */\n      tag_296\n      jump\t// in\n    tag_372:\n        /* \"#utility.yul\":4070:4075   */\n      dup2\n        /* \"#utility.yul\":4067:4102   */\n      eq\n        /* \"#utility.yul\":4057:4120   */\n      tag_373\n      jumpi\n        /* \"#utility.yul\":4116:4117   */\n      0x00\n        /* \"#utility.yul\":4113:4114   */\n      dup1\n        /* \"#utility.yul\":4106:4118   */\n      revert\n        /* \"#utility.yul\":4057:4120   */\n    tag_373:\n        /* \"#utility.yul\":4004:4126   */\n      pop\n      jump\t// out\n        /* \"#utility.yul\":4132:4271   */\n    tag_298:\n        /* \"#utility.yul\":4178:4183   */\n      0x00\n        /* \"#utility.yul\":4216:4222   */\n      dup2\n        /* \"#utility.yul\":4203:4223   */\n      calldataload\n        /* \"#utility.yul\":4194:4223   */\n      swap1\n      pop\n        /* \"#utility.yul\":4232:4265   */\n      tag_375\n        /* \"#utility.yul\":4259:4264   */\n      dup2\n        /* \"#utility.yul\":4232:4265   */\n      tag_297\n      jump\t// in\n    tag_375:\n        /* \"#utility.yul\":4132:4271   */\n      swap3\n      swap2\n      pop\n      pop\n      jump\t// out\n        /* \"#utility.yul\":4277:4606   */\n    tag_53:\n        /* \"#utility.yul\":4336:4342   */\n      0x00\n        /* \"#utility.yul\":4385:4387   */\n      0x20\n        /* \"#utility.yul\":4373:4382   */\n      dup3\n        /* \"#utility.yul\":4364:4371   */\n      dup5\n        /* \"#utility.yul\":4360:4383   */\n      sub\n        /* \"#utility.yul\":4356:4388   */\n      slt\n        /* \"#utility.yul\":4353:4472   */\n      iszero\n      tag_377\n      jumpi\n        /* \"#utility.yul\":4391:4470   */\n      tag_378\n      tag_280\n      jump\t// in\n    tag_378:\n        /* \"#utility.yul\":4353:4472   */\n    tag_377:\n        /* \"#utility.yul\":4511:4512   */\n      0x00\n        /* \"#utility.yul\":4536:4589   */\n      tag_379\n        /* \"#utility.yul\":4581:4588   */\n      dup5\n        /* \"#utility.yul\":4572:4578   */\n      dup3\n        /* \"#utility.yul\":4561:4570   */\n      dup6\n        /* \"#utility.yul\":4557:4579   */\n      add\n        /* \"#utility.yul\":4536:4589   */\n      tag_298\n      jump\t// in\n    tag_379:\n        /* \"#utility.yul\":4526:4589   */\n      swap2\n      pop\n        /* \"#utility.yul\":4482:4599   */\n      pop\n        /* \"#utility.yul\":4277:4606   */\n      swap3\n      swap2\n      pop\n      pop\n      jump\t// out\n        /* \"#utility.yul\":4612:4758   */\n    tag_299:\n        /* \"#utility.yul\":4682:4691   */\n      0x00\n        /* \"#utility.yul\":4715:4752   */\n      tag_381\n        /* \"#utility.yul\":4746:4751   */\n      dup3\n        /* \"#utility.yul\":4715:4752   */\n      tag_290\n      jump\t// in\n    tag_381:\n        /* \"#utility.yul\":4702:4752   */\n      swap1\n      pop\n        /* \"#utility.yul\":4612:4758   */\n      swap2\n      swap1\n      pop\n      jump\t// out\n        /* \"#utility.yul\":4764:4935   */\n    tag_300:\n        /* \"#utility.yul\":4871:4928   */\n      tag_383\n        /* \"#utility.yul\":4922:4927   */\n      dup2\n        /* \"#utility.yul\":4871:4928   */\n      tag_299\n      jump\t// in\n    tag_383:\n        /* \"#utility.yul\":4866:4869   */\n      dup3\n        /* \"#utility.yul\":4859:4929   */\n      mstore\n        /* \"#utility.yul\":4764:4935   */\n      pop\n      pop\n      jump\t// out\n        /* \"#utility.yul\":4941:5203   */\n    tag_63:\n        /* \"#utility.yul\":5054:5058   */\n      0x00\n        /* \"#utility.yul\":5092:5094   */\n      0x20\n        /* \"#utility.yul\":5081:5090   */\n      dup3\n        /* \"#utility.yul\":5077:5095   */\n      add\n        /* \"#utility.yul\":5069:5095   */\n      swap1\n      pop\n        /* \"#utility.yul\":5105:5196   */\n      tag_385\n        /* \"#utility.yul\":5193:5194   */\n      0x00\n        /* \"#utility.yul\":5182:5191   */\n      dup4\n        /* \"#utility.yul\":5178:5195   */\n      add\n        /* \"#utility.yul\":5169:5175   */\n      dup5\n        /* \"#utility.yul\":5105:5196   */\n      tag_300\n      jump\t// in\n    tag_385:\n        /* \"#utility.yul\":4941:5203   */\n      swap3\n      swap2\n      pop\n      pop\n      jump\t// out\n        /* \"#utility.yul\":5209:5389   */\n    tag_94:\n        /* \"#utility.yul\":5257:5334   */\n      0x4e487b7100000000000000000000000000000000000000000000000000000000\n        /* \"#utility.yul\":5254:5255   */\n      0x00\n        /* \"#utility.yul\":5247:5335   */\n      mstore\n        /* \"#utility.yul\":5354:5358   */\n      0x32\n        /* \"#utility.yul\":5351:5352   */\n      0x04\n        /* \"#utility.yul\":5344:5359   */\n      mstore\n        /* \"#utility.yul\":5378:5382   */\n      0x24\n        /* \"#utility.yul\":5375:5376   */\n      0x00\n        /* \"#utility.yul\":5368:5383   */\n      revert\n        /* \"#utility.yul\":5395:5564   */\n    tag_301:\n        /* \"#utility.yul\":5479:5490   */\n      0x00\n        /* \"#utility.yul\":5513:5519   */\n      dup3\n        /* \"#utility.yul\":5508:5511   */\n      dup3\n        /* \"#utility.yul\":5501:5520   */\n      mstore\n        /* \"#utility.yul\":5553:5557   */\n      0x20\n        /* \"#utility.yul\":5548:5551   */\n      dup3\n        /* \"#utility.yul\":5544:5558   */\n      add\n        /* \"#utility.yul\":5529:5558   */\n      swap1\n      pop\n        /* \"#utility.yul\":5395:5564   */\n      swap3\n      swap2\n      pop\n      pop\n      jump\t// out\n        /* \"#utility.yul\":5570:5794   */\n    tag_302:\n        /* \"#utility.yul\":5710:5744   */\n      0x596f7520617265206e6f7420616c6c6f77656420746f20706c61792074686973\n        /* \"#utility.yul\":5706:5707   */\n      0x00\n        /* \"#utility.yul\":5698:5704   */\n      dup3\n        /* \"#utility.yul\":5694:5708   */\n      add\n        /* \"#utility.yul\":5687:5745   */\n      mstore\n        /* \"#utility.yul\":5779:5786   */\n      0x2067616d65000000000000000000000000000000000000000000000000000000\n        /* \"#utility.yul\":5774:5776   */\n      0x20\n        /* \"#utility.yul\":5766:5772   */\n      dup3\n        /* \"#utility.yul\":5762:5777   */\n      add\n        /* \"#utility.yul\":5755:5787   */\n      mstore\n        /* \"#utility.yul\":5570:5794   */\n      pop\n      jump\t// out\n        /* \"#utility.yul\":5800:6166   */\n    tag_303:\n        /* \"#utility.yul\":5942:5945   */\n      0x00\n        /* \"#utility.yul\":5963:6030   */\n      tag_390\n        /* \"#utility.yul\":6027:6029   */\n      0x25\n        /* \"#utility.yul\":6022:6025   */\n      dup4\n        /* \"#utility.yul\":5963:6030   */\n      tag_301\n      jump\t// in\n    tag_390:\n        /* \"#utility.yul\":5956:6030   */\n      swap2\n      pop\n        /* \"#utility.yul\":6039:6132   */\n      tag_391\n        /* \"#utility.yul\":6128:6131   */\n      dup3\n        /* \"#utility.yul\":6039:6132   */\n      tag_302\n      jump\t// in\n    tag_391:\n        /* \"#utility.yul\":6157:6159   */\n      0x40\n        /* \"#utility.yul\":6152:6155   */\n      dup3\n        /* \"#utility.yul\":6148:6160   */\n      add\n        /* \"#utility.yul\":6141:6160   */\n      swap1\n      pop\n        /* \"#utility.yul\":5800:6166   */\n      swap2\n      swap1\n      pop\n      jump\t// out\n        /* \"#utility.yul\":6172:6591   */\n    tag_116:\n        /* \"#utility.yul\":6338:6342   */\n      0x00\n        /* \"#utility.yul\":6376:6378   */\n      0x20\n        /* \"#utility.yul\":6365:6374   */\n      dup3\n        /* \"#utility.yul\":6361:6379   */\n      add\n        /* \"#utility.yul\":6353:6379   */\n      swap1\n      pop\n        /* \"#utility.yul\":6425:6434   */\n      dup2\n        /* \"#utility.yul\":6419:6423   */\n      dup2\n        /* \"#utility.yul\":6415:6435   */\n      sub\n        /* \"#utility.yul\":6411:6412   */\n      0x00\n        /* \"#utility.yul\":6400:6409   */\n      dup4\n        /* \"#utility.yul\":6396:6413   */\n      add\n        /* \"#utility.yul\":6389:6436   */\n      mstore\n        /* \"#utility.yul\":6453:6584   */\n      tag_393\n        /* \"#utility.yul\":6579:6583   */\n      dup2\n        /* \"#utility.yul\":6453:6584   */\n      tag_303\n      jump\t// in\n    tag_393:\n        /* \"#utility.yul\":6445:6584   */\n      swap1\n      pop\n        /* \"#utility.yul\":6172:6591   */\n      swap2\n      swap1\n      pop\n      jump\t// out\n        /* \"#utility.yul\":6597:6777   */\n    tag_304:\n        /* \"#utility.yul\":6645:6722   */\n      0x4e487b7100000000000000000000000000000000000000000000000000000000\n        /* \"#utility.yul\":6642:6643   */\n      0x00\n        /* \"#utility.yul\":6635:6723   */\n      mstore\n        /* \"#utility.yul\":6742:6746   */\n      0x11\n        /* \"#utility.yul\":6739:6740   */\n      0x04\n        /* \"#utility.yul\":6732:6747   */\n      mstore\n        /* \"#utility.yul\":6766:6770   */\n      0x24\n        /* \"#utility.yul\":6763:6764   */\n      0x00\n        /* \"#utility.yul\":6756:6771   */\n      revert\n        /* \"#utility.yul\":6783:6974   */\n    tag_118:\n        /* \"#utility.yul\":6823:6826   */\n      0x00\n        /* \"#utility.yul\":6842:6862   */\n      tag_396\n        /* \"#utility.yul\":6860:6861   */\n      dup3\n        /* \"#utility.yul\":6842:6862   */\n      tag_277\n      jump\t// in\n    tag_396:\n        /* \"#utility.yul\":6837:6862   */\n      swap2\n      pop\n        /* \"#utility.yul\":6876:6896   */\n      tag_397\n        /* \"#utility.yul\":6894:6895   */\n      dup4\n        /* \"#utility.yul\":6876:6896   */\n      tag_277\n      jump\t// in\n    tag_397:\n        /* \"#utility.yul\":6871:6896   */\n      swap3\n      pop\n        /* \"#utility.yul\":6919:6920   */\n      dup3\n        /* \"#utility.yul\":6916:6917   */\n      dup3\n        /* \"#utility.yul\":6912:6921   */\n      add\n        /* \"#utility.yul\":6905:6921   */\n      swap1\n      pop\n        /* \"#utility.yul\":6940:6943   */\n      dup1\n        /* \"#utility.yul\":6937:6938   */\n      dup3\n        /* \"#utility.yul\":6934:6944   */\n      gt\n        /* \"#utility.yul\":6931:6967   */\n      iszero\n      tag_398\n      jumpi\n        /* \"#utility.yul\":6947:6965   */\n      tag_399\n      tag_304\n      jump\t// in\n    tag_399:\n        /* \"#utility.yul\":6931:6967   */\n    tag_398:\n        /* \"#utility.yul\":6783:6974   */\n      swap3\n      swap2\n      pop\n      pop\n      jump\t// out\n        /* \"#utility.yul\":6980:7213   */\n    tag_121:\n        /* \"#utility.yul\":7019:7022   */\n      0x00\n        /* \"#utility.yul\":7042:7066   */\n      tag_401\n        /* \"#utility.yul\":7060:7065   */\n      dup3\n        /* \"#utility.yul\":7042:7066   */\n      tag_277\n      jump\t// in\n    tag_401:\n        /* \"#utility.yul\":7033:7066   */\n      swap2\n      pop\n        /* \"#utility.yul\":7088:7154   */\n      0xffffffffffffffffffffffffffffffffffffffffffffffffffffffffffffffff\n        /* \"#utility.yul\":7081:7086   */\n      dup3\n        /* \"#utility.yul\":7078:7155   */\n      sub\n        /* \"#utility.yul\":7075:7178   */\n      tag_402\n      jumpi\n        /* \"#utility.yul\":7158:7176   */\n      tag_403\n      tag_304\n      jump\t// in\n    tag_403:\n        /* \"#utility.yul\":7075:7178   */\n    tag_402:\n        /* \"#utility.yul\":7205:7206   */\n      0x01\n        /* \"#utility.yul\":7198:7203   */\n      dup3\n        /* \"#utility.yul\":7194:7207   */\n      add\n        /* \"#utility.yul\":7187:7207   */\n      swap1\n      pop\n        /* \"#utility.yul\":6980:7213   */\n      swap2\n      swap1\n      pop\n      jump\t// out\n        /* \"#utility.yul\":7219:7337   */\n    tag_305:\n        /* \"#utility.yul\":7306:7330   */\n      tag_405\n        /* \"#utility.yul\":7324:7329   */\n      dup2\n        /* \"#utility.yul\":7306:7330   */\n      tag_296\n      jump\t// in\n    tag_405:\n        /* \"#utility.yul\":7301:7304   */\n      dup3\n        /* \"#utility.yul\":7294:7331   */\n      mstore\n        /* \"#utility.yul\":7219:7337   */\n      pop\n      pop\n      jump\t// out\n        /* \"#utility.yul\":7343:7675   */\n    tag_132:\n        /* \"#utility.yul\":7464:7468   */\n      0x00\n        /* \"#utility.yul\":7502:7504   */\n      0x40\n        /* \"#utility.yul\":7491:7500   */\n      dup3\n        /* \"#utility.yul\":7487:7505   */\n      add\n        /* \"#utility.yul\":7479:7505   */\n      swap1\n      pop\n        /* \"#utility.yul\":7515:7586   */\n      tag_407\n        /* \"#utility.yul\":7583:7584   */\n      0x00\n        /* \"#utility.yul\":7572:7581   */\n      dup4\n        /* \"#utility.yul\":7568:7585   */\n      add\n        /* \"#utility.yul\":7559:7565   */\n      dup6\n        /* \"#utility.yul\":7515:7586   */\n      tag_305\n      jump\t// in\n    tag_407:\n        /* \"#utility.yul\":7596:7668   */\n      tag_408\n        /* \"#utility.yul\":7664:7666   */\n      0x20\n        /* \"#utility.yul\":7653:7662   */\n      dup4\n        /* \"#utility.yul\":7649:7667   */\n      add\n        /* \"#utility.yul\":7640:7646   */\n      dup5\n        /* \"#utility.yul\":7596:7668   */\n      tag_295\n      jump\t// in\n    tag_408:\n        /* \"#utility.yul\":7343:7675   */\n      swap4\n      swap3\n      pop\n      pop\n      pop\n      jump\t// out\n        /* \"#utility.yul\":7681:7851   */\n    tag_306:\n        /* \"#utility.yul\":7821:7843   */\n      0x63686f696365206973206e6f742076616c69642e000000000000000000000000\n        /* \"#utility.yul\":7817:7818   */\n      0x00\n        /* \"#utility.yul\":7809:7815   */\n      dup3\n        /* \"#utility.yul\":7805:7819   */\n      add\n        /* \"#utility.yul\":7798:7844   */\n      mstore\n        /* \"#utility.yul\":7681:7851   */\n      pop\n      jump\t// out\n        /* \"#utility.yul\":7857:8223   */\n    tag_307:\n        /* \"#utility.yul\":7999:8002   */\n      0x00\n        /* \"#utility.yul\":8020:8087   */\n      tag_411\n        /* \"#utility.yul\":8084:8086   */\n      0x14\n        /* \"#utility.yul\":8079:8082   */\n      dup4\n        /* \"#utility.yul\":8020:8087   */\n      tag_301\n      jump\t// in\n    tag_411:\n        /* \"#utility.yul\":8013:8087   */\n      swap2\n      pop\n        /* \"#utility.yul\":8096:8189   */\n      tag_412\n        /* \"#utility.yul\":8185:8188   */\n      dup3\n        /* \"#utility.yul\":8096:8189   */\n      tag_306\n      jump\t// in\n    tag_412:\n        /* \"#utility.yul\":8214:8216   */\n      0x20\n        /* \"#utility.yul\":8209:8212   */\n      dup3\n        /* \"#utility.yul\":8205:8217   */\n      add\n        /* \"#utility.yul\":8198:8217   */\n      swap1\n      pop\n        /* \"#utility.yul\":7857:8223   */\n      swap2\n      swap1\n      pop\n      jump\t// out\n        /* \"#utility.yul\":8229:8648   */\n    tag_141:\n        /* \"#utility.yul\":8395:8399   */\n      0x00\n        /* \"#utility.yul\":8433:8435   */\n      0x20\n        /* \"#utility.yul\":8422:8431   */\n      dup3\n        /* \"#utility.yul\":8418:8436   */\n      add\n        /* \"#utility.yul\":8410:8436   */\n      swap1\n      pop\n        /* \"#utility.yul\":8482:8491   */\n      dup2\n        /* \"#utility.yul\":8476:8480   */\n      dup2\n        /* \"#utility.yul\":8472:8492   */\n      sub\n        /* \"#utility.yul\":8468:8469   */\n      0x00\n        /* \"#utility.yul\":8457:8466   */\n      dup4\n        /* \"#utility.yul\":8453:8470   */\n      add\n        /* \"#utility.yul\":8446:8493   */\n      mstore\n        /* \"#utility.yul\":8510:8641   */\n      tag_414\n        /* \"#utility.yul\":8636:8640   */\n      dup2\n        /* \"#utility.yul\":8510:8641   */\n      tag_307\n      jump\t// in\n    tag_414:\n        /* \"#utility.yul\":8502:8641   */\n      swap1\n      pop\n        /* \"#utility.yul\":8229:8648   */\n      swap2\n      swap1\n      pop\n      jump\t// out\n        /* \"#utility.yul\":8654:8797   */\n    tag_308:\n        /* \"#utility.yul\":8711:8716   */\n      0x00\n        /* \"#utility.yul\":8742:8748   */\n      dup2\n        /* \"#utility.yul\":8736:8749   */\n      mload\n        /* \"#utility.yul\":8727:8749   */\n      swap1\n      pop\n        /* \"#utility.yul\":8758:8791   */\n      tag_416\n        /* \"#utility.yul\":8785:8790   */\n      dup2\n        /* \"#utility.yul\":8758:8791   */\n      tag_293\n      jump\t// in\n    tag_416:\n        /* \"#utility.yul\":8654:8797   */\n      swap3\n      swap2\n      pop\n      pop\n      jump\t// out\n        /* \"#utility.yul\":8803:9154   */\n    tag_151:\n        /* \"#utility.yul\":8873:8879   */\n      0x00\n        /* \"#utility.yul\":8922:8924   */\n      0x20\n        /* \"#utility.yul\":8910:8919   */\n      dup3\n        /* \"#utility.yul\":8901:8908   */\n      dup5\n        /* \"#utility.yul\":8897:8920   */\n      sub\n        /* \"#utility.yul\":8893:8925   */\n      slt\n        /* \"#utility.yul\":8890:9009   */\n      iszero\n      tag_418\n      jumpi\n        /* \"#utility.yul\":8928:9007   */\n      tag_419\n      tag_280\n      jump\t// in\n    tag_419:\n        /* \"#utility.yul\":8890:9009   */\n    tag_418:\n        /* \"#utility.yul\":9048:9049   */\n      0x00\n        /* \"#utility.yul\":9073:9137   */\n      tag_420\n        /* \"#utility.yul\":9129:9136   */\n      dup5\n        /* \"#utility.yul\":9120:9126   */\n      dup3\n        /* \"#utility.yul\":9109:9118   */\n      dup6\n        /* \"#utility.yul\":9105:9127   */\n      add\n        /* \"#utility.yul\":9073:9137   */\n      tag_308\n      jump\t// in\n    tag_420:\n        /* \"#utility.yul\":9063:9137   */\n      swap2\n      pop\n        /* \"#utility.yul\":9019:9147   */\n      pop\n        /* \"#utility.yul\":8803:9154   */\n      swap3\n      swap2\n      pop\n      pop\n      jump\t// out\n        /* \"#utility.yul\":9160:9340   */\n    tag_309:\n        /* \"#utility.yul\":9208:9285   */\n      0x4e487b7100000000000000000000000000000000000000000000000000000000\n        /* \"#utility.yul\":9205:9206   */\n      0x00\n        /* \"#utility.yul\":9198:9286   */\n      mstore\n        /* \"#utility.yul\":9305:9309   */\n      0x12\n        /* \"#utility.yul\":9302:9303   */\n      0x04\n        /* \"#utility.yul\":9295:9310   */\n      mstore\n        /* \"#utility.yul\":9329:9333   */\n      0x24\n        /* \"#utility.yul\":9326:9327   */\n      0x00\n        /* \"#utility.yul\":9319:9334   */\n      revert\n        /* \"#utility.yul\":9346:9531   */\n    tag_172:\n        /* \"#utility.yul\":9386:9387   */\n      0x00\n        /* \"#utility.yul\":9403:9423   */\n      tag_423\n        /* \"#utility.yul\":9421:9422   */\n      dup3\n        /* \"#utility.yul\":9403:9423   */\n      tag_277\n      jump\t// in\n    tag_423:\n        /* \"#utility.yul\":9398:9423   */\n      swap2\n      pop\n        /* \"#utility.yul\":9437:9457   */\n      tag_424\n        /* \"#utility.yul\":9455:9456   */\n      dup4\n        /* \"#utility.yul\":9437:9457   */\n      tag_277\n      jump\t// in\n    tag_424:\n        /* \"#utility.yul\":9432:9457   */\n      swap3\n      pop\n        /* \"#utility.yul\":9476:9477   */\n      dup3\n        /* \"#utility.yul\":9466:9501   */\n      tag_425\n      jumpi\n        /* \"#utility.yul\":9481:9499   */\n      tag_426\n      tag_309\n      jump\t// in\n    tag_426:\n        /* \"#utility.yul\":9466:9501   */\n    tag_425:\n        /* \"#utility.yul\":9523:9524   */\n      dup3\n        /* \"#utility.yul\":9520:9521   */\n      dup3\n        /* \"#utility.yul\":9516:9525   */\n      div\n        /* \"#utility.yul\":9511:9525   */\n      swap1\n      pop\n        /* \"#utility.yul\":9346:9531   */\n      swap3\n      swap2\n      pop\n      pop\n      jump\t// out\n        /* \"#utility.yul\":9537:9680   */\n    tag_310:\n        /* \"#utility.yul\":9594:9599   */\n      0x00\n        /* \"#utility.yul\":9625:9631   */\n      dup2\n        /* \"#utility.yul\":9619:9632   */\n      mload\n        /* \"#utility.yul\":9610:9632   */\n      swap1\n      pop\n        /* \"#utility.yul\":9641:9674   */\n      tag_428\n        /* \"#utility.yul\":9668:9673   */\n      dup2\n        /* \"#utility.yul\":9641:9674   */\n      tag_297\n      jump\t// in\n    tag_428:\n        /* \"#utility.yul\":9537:9680   */\n      swap3\n      swap2\n      pop\n      pop\n      jump\t// out\n        /* \"#utility.yul\":9686:9787   */\n    tag_311:\n        /* \"#utility.yul\":9722:9729   */\n      0x00\n        /* \"#utility.yul\":9762:9780   */\n      0xffffffffffffffff\n        /* \"#utility.yul\":9755:9760   */\n      dup3\n        /* \"#utility.yul\":9751:9781   */\n      and\n        /* \"#utility.yul\":9740:9781   */\n      swap1\n      pop\n        /* \"#utility.yul\":9686:9787   */\n      swap2\n      swap1\n      pop\n      jump\t// out\n        /* \"#utility.yul\":9793:9913   */\n    tag_312:\n        /* \"#utility.yul\":9865:9888   */\n      tag_431\n        /* \"#utility.yul\":9882:9887   */\n      dup2\n        /* \"#utility.yul\":9865:9888   */\n      tag_311\n      jump\t// in\n    tag_431:\n        /* \"#utility.yul\":9858:9863   */\n      dup2\n        /* \"#utility.yul\":9855:9889   */\n      eq\n        /* \"#utility.yul\":9845:9907   */\n      tag_432\n      jumpi\n        /* \"#utility.yul\":9903:9904   */\n      0x00\n        /* \"#utility.yul\":9900:9901   */\n      dup1\n        /* \"#utility.yul\":9893:9905   */\n      revert\n        /* \"#utility.yul\":9845:9907   */\n    tag_432:\n        /* \"#utility.yul\":9793:9913   */\n      pop\n      jump\t// out\n        /* \"#utility.yul\":9919:10060   */\n    tag_313:\n        /* \"#utility.yul\":9975:9980   */\n      0x00\n        /* \"#utility.yul\":10006:10012   */\n      dup2\n        /* \"#utility.yul\":10000:10013   */\n      mload\n        /* \"#utility.yul\":9991:10013   */\n      swap1\n      pop\n        /* \"#utility.yul\":10022:10054   */\n      tag_434\n        /* \"#utility.yul\":10048:10053   */\n      dup2\n        /* \"#utility.yul\":10022:10054   */\n      tag_312\n      jump\t// in\n    tag_434:\n        /* \"#utility.yul\":9919:10060   */\n      swap3\n      swap2\n      pop\n      pop\n      jump\t// out\n        /* \"#utility.yul\":10066:10182   */\n    tag_314:\n        /* \"#utility.yul\":10136:10157   */\n      tag_436\n        /* \"#utility.yul\":10151:10156   */\n      dup2\n        /* \"#utility.yul\":10136:10157   */\n      tag_286\n      jump\t// in\n    tag_436:\n        /* \"#utility.yul\":10129:10134   */\n      dup2\n        /* \"#utility.yul\":10126:10158   */\n      eq\n        /* \"#utility.yul\":10116:10176   */\n      tag_437\n      jumpi\n        /* \"#utility.yul\":10172:10173   */\n      0x00\n        /* \"#utility.yul\":10169:10170   */\n      dup1\n        /* \"#utility.yul\":10162:10174   */\n      revert\n        /* \"#utility.yul\":10116:10176   */\n    tag_437:\n        /* \"#utility.yul\":10066:10182   */\n      pop\n      jump\t// out\n        /* \"#utility.yul\":10188:10325   */\n    tag_315:\n        /* \"#utility.yul\":10242:10247   */\n      0x00\n        /* \"#utility.yul\":10273:10279   */\n      dup2\n        /* \"#utility.yul\":10267:10280   */\n      mload\n        /* \"#utility.yul\":10258:10280   */\n      swap1\n      pop\n        /* \"#utility.yul\":10289:10319   */\n      tag_439\n        /* \"#utility.yul\":10313:10318   */\n      dup2\n        /* \"#utility.yul\":10289:10319   */\n      tag_314\n      jump\t// in\n    tag_439:\n        /* \"#utility.yul\":10188:10325   */\n      swap3\n      swap2\n      pop\n      pop\n      jump\t// out\n        /* \"#utility.yul\":10331:10986   */\n    tag_200:\n        /* \"#utility.yul\":10415:10421   */\n      0x00\n        /* \"#utility.yul\":10423:10429   */\n      dup1\n        /* \"#utility.yul\":10431:10437   */\n      0x00\n        /* \"#utility.yul\":10480:10482   */\n      0x60\n        /* \"#utility.yul\":10468:10477   */\n      dup5\n        /* \"#utility.yul\":10459:10466   */\n      dup7\n        /* \"#utility.yul\":10455:10478   */\n      sub\n        /* \"#utility.yul\":10451:10483   */\n      slt\n        /* \"#utility.yul\":10448:10567   */\n      iszero\n      tag_441\n      jumpi\n        /* \"#utility.yul\":10486:10565   */\n      tag_442\n      tag_280\n      jump\t// in\n    tag_442:\n        /* \"#utility.yul\":10448:10567   */\n    tag_441:\n        /* \"#utility.yul\":10606:10607   */\n      0x00\n        /* \"#utility.yul\":10631:10695   */\n      tag_443\n        /* \"#utility.yul\":10687:10694   */\n      dup7\n        /* \"#utility.yul\":10678:10684   */\n      dup3\n        /* \"#utility.yul\":10667:10676   */\n      dup8\n        /* \"#utility.yul\":10663:10685   */\n      add\n        /* \"#utility.yul\":10631:10695   */\n      tag_310\n      jump\t// in\n    tag_443:\n        /* \"#utility.yul\":10621:10695   */\n      swap4\n      pop\n        /* \"#utility.yul\":10577:10705   */\n      pop\n        /* \"#utility.yul\":10744:10746   */\n      0x20\n        /* \"#utility.yul\":10770:10833   */\n      tag_444\n        /* \"#utility.yul\":10825:10832   */\n      dup7\n        /* \"#utility.yul\":10816:10822   */\n      dup3\n        /* \"#utility.yul\":10805:10814   */\n      dup8\n        /* \"#utility.yul\":10801:10823   */\n      add\n        /* \"#utility.yul\":10770:10833   */\n      tag_313\n      jump\t// in\n    tag_444:\n        /* \"#utility.yul\":10760:10833   */\n      swap3\n      pop\n        /* \"#utility.yul\":10715:10843   */\n      pop\n        /* \"#utility.yul\":10882:10884   */\n      0x40\n        /* \"#utility.yul\":10908:10969   */\n      tag_445\n        /* \"#utility.yul\":10961:10968   */\n      dup7\n        /* \"#utility.yul\":10952:10958   */\n      dup3\n        /* \"#utility.yul\":10941:10950   */\n      dup8\n        /* \"#utility.yul\":10937:10959   */\n      add\n        /* \"#utility.yul\":10908:10969   */\n      tag_315\n      jump\t// in\n    tag_445:\n        /* \"#utility.yul\":10898:10969   */\n      swap2\n      pop\n        /* \"#utility.yul\":10853:10979   */\n      pop\n        /* \"#utility.yul\":10331:10986   */\n      swap3\n      pop\n      swap3\n      pop\n      swap3\n      jump\t// out\n        /* \"#utility.yul\":10992:11155   */\n    tag_316:\n        /* \"#utility.yul\":11132:11147   */\n      0x63616e6e6f7420726566756e6400000000000000000000000000000000000000\n        /* \"#utility.yul\":11128:11129   */\n      0x00\n        /* \"#utility.yul\":11120:11126   */\n      dup3\n        /* \"#utility.yul\":11116:11130   */\n      add\n        /* \"#utility.yul\":11109:11148   */\n      mstore\n        /* \"#utility.yul\":10992:11155   */\n      pop\n      jump\t// out\n        /* \"#utility.yul\":11161:11527   */\n    tag_317:\n        /* \"#utility.yul\":11303:11306   */\n      0x00\n        /* \"#utility.yul\":11324:11391   */\n      tag_448\n        /* \"#utility.yul\":11388:11390   */\n      0x0d\n        /* \"#utility.yul\":11383:11386   */\n      dup4\n        /* \"#utility.yul\":11324:11391   */\n      tag_301\n      jump\t// in\n    tag_448:\n        /* \"#utility.yul\":11317:11391   */\n      swap2\n      pop\n        /* \"#utility.yul\":11400:11493   */\n      tag_449\n        /* \"#utility.yul\":11489:11492   */\n      dup3\n        /* \"#utility.yul\":11400:11493   */\n      tag_316\n      jump\t// in\n    tag_449:\n        /* \"#utility.yul\":11518:11520   */\n      0x20\n        /* \"#utility.yul\":11513:11516   */\n      dup3\n        /* \"#utility.yul\":11509:11521   */\n      add\n        /* \"#utility.yul\":11502:11521   */\n      swap1\n      pop\n        /* \"#utility.yul\":11161:11527   */\n      swap2\n      swap1\n      pop\n      jump\t// out\n        /* \"#utility.yul\":11533:11952   */\n    tag_207:\n        /* \"#utility.yul\":11699:11703   */\n      0x00\n        /* \"#utility.yul\":11737:11739   */\n      0x20\n        /* \"#utility.yul\":11726:11735   */\n      dup3\n        /* \"#utility.yul\":11722:11740   */\n      add\n        /* \"#utility.yul\":11714:11740   */\n      swap1\n      pop\n        /* \"#utility.yul\":11786:11795   */\n      dup2\n        /* \"#utility.yul\":11780:11784   */\n      dup2\n        /* \"#utility.yul\":11776:11796   */\n      sub\n        /* \"#utility.yul\":11772:11773   */\n      0x00\n        /* \"#utility.yul\":11761:11770   */\n      dup4\n        /* \"#utility.yul\":11757:11774   */\n      add\n        /* \"#utility.yul\":11750:11797   */\n      mstore\n        /* \"#utility.yul\":11814:11945   */\n      tag_451\n        /* \"#utility.yul\":11940:11944   */\n      dup2\n        /* \"#utility.yul\":11814:11945   */\n      tag_317\n      jump\t// in\n    tag_451:\n        /* \"#utility.yul\":11806:11945   */\n      swap1\n      pop\n        /* \"#utility.yul\":11533:11952   */\n      swap2\n      swap1\n      pop\n      jump\t// out\n        /* \"#utility.yul\":11958:12134   */\n    tag_236:\n        /* \"#utility.yul\":11990:11991   */\n      0x00\n        /* \"#utility.yul\":12007:12027   */\n      tag_453\n        /* \"#utility.yul\":12025:12026   */\n      dup3\n        /* \"#utility.yul\":12007:12027   */\n      tag_277\n      jump\t// in\n    tag_453:\n        /* \"#utility.yul\":12002:12027   */\n      swap2\n      pop\n        /* \"#utility.yul\":12041:12061   */\n      tag_454\n        /* \"#utility.yul\":12059:12060   */\n      dup4\n        /* \"#utility.yul\":12041:12061   */\n      tag_277\n      jump\t// in\n    tag_454:\n        /* \"#utility.yul\":12036:12061   */\n      swap3\n      pop\n        /* \"#utility.yul\":12080:12081   */\n      dup3\n        /* \"#utility.yul\":12070:12105   */\n      tag_455\n      jumpi\n        /* \"#utility.yul\":12085:12103   */\n      tag_456\n      tag_309\n      jump\t// in\n    tag_456:\n        /* \"#utility.yul\":12070:12105   */\n    tag_455:\n        /* \"#utility.yul\":12126:12127   */\n      dup3\n        /* \"#utility.yul\":12123:12124   */\n      dup3\n        /* \"#utility.yul\":12119:12128   */\n      mod\n        /* \"#utility.yul\":12114:12128   */\n      swap1\n      pop\n        /* \"#utility.yul\":11958:12134   */\n      swap3\n      swap2\n      pop\n      pop\n      jump\t// out\n\n    auxdata: 0xa2646970667358221220436c1dbb63f2f2552752c12964dfd204be87ffbc32525889fce69ebc1f00819264736f6c634300081a0033\n}\n",
				"bytecode": {
					"linkReferences": {},
					"object": "60806040525f6002555f6003555f6004556040518060800160405280735b38da6a701c568545dcfcb03fcb875f56beddc473ffffffffffffffffffffffffffffffffffffffff1673ffffffffffffffffffffffffffffffffffffffff16815260200173ab8483f64d9c6d1ecf9b849ae677dd3315835cb273ffffffffffffffffffffffffffffffffffffffff1673ffffffffffffffffffffffffffffffffffffffff168152602001734b20993bc481177ec7e8f571cecae8a9e22c02db73ffffffffffffffffffffffffffffffffffffffff1673ffffffffffffffffffffffffffffffffffffffff1681526020017378731d3ca6b7e34ac0f824c42a7cc18a495cabab73ffffffffffffffffffffffffffffffffffffffff1673ffffffffffffffffffffffffffffffffffffffff1681525060089060046101419291906101fe565b505f600955601e600a55348015610156575f80fd5b5060405161207b38038061207b833981810160405281019061017891906102fe565b815f806101000a81548173ffffffffffffffffffffffffffffffffffffffff021916908373ffffffffffffffffffffffffffffffffffffffff1602179055508060015f6101000a81548173ffffffffffffffffffffffffffffffffffffffff021916908373ffffffffffffffffffffffffffffffffffffffff160217905550505061033c565b828054828255905f5260205f20908101928215610274579160200282015b82811115610273578251825f6101000a81548173ffffffffffffffffffffffffffffffffffffffff021916908373ffffffffffffffffffffffffffffffffffffffff1602179055509160200191906001019061021c565b5b5090506102819190610285565b5090565b5b8082111561029c575f815f905550600101610286565b5090565b5f80fd5b5f73ffffffffffffffffffffffffffffffffffffffff82169050919050565b5f6102cd826102a4565b9050919050565b6102dd816102c3565b81146102e7575f80fd5b50565b5f815190506102f8816102d4565b92915050565b5f8060408385031215610314576103136102a0565b5b5f610321858286016102ea565b9250506020610332858286016102ea565b9150509250929050565b611d32806103495f395ff3fe6080604052600436106100e7575f3560e01c806390d5d0c311610089578063c876e61511610058578063c876e615146102cd578063d84c1ac9146102f7578063f14fcbc81461030d578063f71d96cb14610335576100e7565b806390d5d0c3146102135780639d7b3f2d1461023d578063a040478d14610267578063c08d1fe5146102a3576100e7565b806327b5db8a116100c557806327b5db8a1461017b5780633c6a7f9b1461018557806355d07388146101af578063701fd0f1146101eb576100e7565b8063086f7815146100eb578063190cf74514610115578063228cb73314610151575b5f80fd5b3480156100f6575f80fd5b506100ff610371565b60405161010c9190611690565b60405180910390f35b348015610120575f80fd5b5061013b60048036038101906101369190611707565b610377565b604051610148919061174c565b60405180910390f35b34801561015c575f80fd5b50610165610394565b6040516101729190611690565b60405180910390f35b61018361039a565b005b348015610190575f80fd5b506101996107af565b6040516101a691906117c0565b60405180910390f35b3480156101ba575f80fd5b506101d560048036038101906101d09190611803565b6107d2565b6040516101e2919061183d565b60405180910390f35b3480156101f6575f80fd5b50610211600480360381019061020c9190611889565b61080d565b005b34801561021e575f80fd5b50610227610992565b6040516102349190611690565b60405180910390f35b348015610248575f80fd5b50610251610998565b60405161025e91906118d4565b60405180910390f35b348015610272575f80fd5b5061028d60048036038101906102889190611707565b6109bd565b60405161029a9190611690565b60405180910390f35b3480156102ae575f80fd5b506102b76109d2565b6040516102c49190611690565b60405180910390f35b3480156102d8575f80fd5b506102e16109d8565b6040516102ee9190611690565b60405180910390f35b348015610302575f80fd5b5061030b6109de565b005b348015610318575f80fd5b50610333600480360381019061032e9190611889565b610fce565b005b348015610340575f80fd5b5061035b60048036038101906103569190611803565b611174565b604051610368919061183d565b60405180910390f35b60095481565b6006602052805f5260405f205f915054906101000a900460ff1681565b60035481565b60028054106103a7575f80fd5b5f60025411156104245760075f815481106103c5576103c46118ed565b5b905f5260205f20015f9054906101000a900473ffffffffffffffffffffffffffffffffffffffff1673ffffffffffffffffffffffffffffffffffffffff163373ffffffffffffffffffffffffffffffffffffffff1603610423575f80fd5b5b670de0b6b3a76400003414610437575f80fd5b3373ffffffffffffffffffffffffffffffffffffffff1660085f81548110610462576104616118ed565b5b905f5260205f20015f9054906101000a900473ffffffffffffffffffffffffffffffffffffffff1673ffffffffffffffffffffffffffffffffffffffff161415801561051657503373ffffffffffffffffffffffffffffffffffffffff1660086001815481106104d5576104d46118ed565b5b905f5260205f20015f9054906101000a900473ffffffffffffffffffffffffffffffffffffffff1673ffffffffffffffffffffffffffffffffffffffff1614155b801561058a57503373ffffffffffffffffffffffffffffffffffffffff166008600281548110610549576105486118ed565b5b905f5260205f20015f9054906101000a900473ffffffffffffffffffffffffffffffffffffffff1673ffffffffffffffffffffffffffffffffffffffff1614155b80156105fe57503373ffffffffffffffffffffffffffffffffffffffff1660086003815481106105bd576105bc6118ed565b5b905f5260205f20015f9054906101000a900473ffffffffffffffffffffffffffffffffffffffff1673ffffffffffffffffffffffffffffffffffffffff1614155b15610644575f610643576040517f08c379a000000000000000000000000000000000000000000000000000000000815260040161063a9061199a565b60405180910390fd5b5b3460035f82825461065591906119e5565b92505081905550600160065f3373ffffffffffffffffffffffffffffffffffffffff1673ffffffffffffffffffffffffffffffffffffffff1681526020019081526020015f205f6101000a81548160ff021916908315150217905550600733908060018154018082558091505060019003905f5260205f20015f9091909190916101000a81548173ffffffffffffffffffffffffffffffffffffffff021916908373ffffffffffffffffffffffffffffffffffffffff16021790555060025f81548092919061072390611a18565b91905055506001600254036107ad575f8054906101000a900473ffffffffffffffffffffffffffffffffffffffff1673ffffffffffffffffffffffffffffffffffffffff1663a63f7c536040518163ffffffff1660e01b81526004015f604051808303815f87803b158015610796575f80fd5b505af11580156107a8573d5f803e3d5ffd5b505050505b565b5f8054906101000a900473ffffffffffffffffffffffffffffffffffffffff1681565b600881815481106107e1575f80fd5b905f5260205f20015f915054906101000a900473ffffffffffffffffffffffffffffffffffffffff1681565b600280541461081a575f80fd5b600260095414610828575f80fd5b60015f9054906101000a900473ffffffffffffffffffffffffffffffffffffffff1673ffffffffffffffffffffffffffffffffffffffff1663ad48779082336040518363ffffffff1660e01b8152600401610884929190611a6e565b5f604051808303815f87803b15801561089b575f80fd5b505af11580156108ad573d5f803e3d5ffd5b505050505f81601f602081106108c6576108c56118ed565b5b1a60f81b60f81c60ff1690505f81101580156108e3575060048111155b610922576040517f08c379a000000000000000000000000000000000000000000000000000000000815260040161091990611adf565b60405180910390fd5b8060055f3373ffffffffffffffffffffffffffffffffffffffff1673ffffffffffffffffffffffffffffffffffffffff1681526020019081526020015f208190555060045f81548092919061097690611a18565b919050555060026004540361098e5761098d6111af565b5b5050565b60025481565b60015f9054906101000a900473ffffffffffffffffffffffffffffffffffffffff1681565b6005602052805f5260405f205f915090505481565b600a5481565b60045481565b6001600254148015610a7d5750600a545f8054906101000a900473ffffffffffffffffffffffffffffffffffffffff1673ffffffffffffffffffffffffffffffffffffffff1663bc06b8cd6040518163ffffffff1660e01b8152600401602060405180830381865afa158015610a56573d5f803e3d5ffd5b505050506040513d601f19601f82011682018060405250810190610a7a9190611b11565b10155b15610b0d575f60075f81548110610a9757610a966118ed565b5b905f5260205f20015f9054906101000a900473ffffffffffffffffffffffffffffffffffffffff1690508073ffffffffffffffffffffffffffffffffffffffff166108fc60035490811502906040515f60405180830381858888f19350505050158015610b06573d5f803e3d5ffd5b5050610fc4565b60028054148015610b1f57505f600454145b8015610bb85750600a545f8054906101000a900473ffffffffffffffffffffffffffffffffffffffff1673ffffffffffffffffffffffffffffffffffffffff1663bc06b8cd6040518163ffffffff1660e01b8152600401602060405180830381865afa158015610b91573d5f803e3d5ffd5b505050506040513d601f19601f82011682018060405250810190610bb59190611b11565b10155b15610ce7575f60075f81548110610bd257610bd16118ed565b5b905f5260205f20015f9054906101000a900473ffffffffffffffffffffffffffffffffffffffff1690505f6007600181548110610c1257610c116118ed565b5b905f5260205f20015f9054906101000a900473ffffffffffffffffffffffffffffffffffffffff1690508173ffffffffffffffffffffffffffffffffffffffff166108fc6002600354610c659190611b69565b90811502906040515f60405180830381858888f19350505050158015610c8d573d5f803e3d5ffd5b508073ffffffffffffffffffffffffffffffffffffffff166108fc6002600354610cb79190611b69565b90811502906040515f60405180830381858888f19350505050158015610cdf573d5f803e3d5ffd5b505050610fc3565b60028054148015610cfb5750600160045411155b8015610d945750600a545f8054906101000a900473ffffffffffffffffffffffffffffffffffffffff1673ffffffffffffffffffffffffffffffffffffffff1663bc06b8cd6040518163ffffffff1660e01b8152600401602060405180830381865afa158015610d6d573d5f803e3d5ffd5b505050506040513d601f19601f82011682018060405250810190610d919190611b11565b10155b15610f81575f3390505f60075f81548110610db257610db16118ed565b5b905f5260205f20015f9054906101000a900473ffffffffffffffffffffffffffffffffffffffff1673ffffffffffffffffffffffffffffffffffffffff163373ffffffffffffffffffffffffffffffffffffffff1603610e50576007600181548110610e2157610e206118ed565b5b905f5260205f20015f9054906101000a900473ffffffffffffffffffffffffffffffffffffffff169050610e8f565b60075f81548110610e6457610e636118ed565b5b905f5260205f20015f9054906101000a900473ffffffffffffffffffffffffffffffffffffffff1690505b5f60015f9054906101000a900473ffffffffffffffffffffffffffffffffffffffff1673ffffffffffffffffffffffffffffffffffffffff16637b43a8e6836040518263ffffffff1660e01b8152600401610eea919061183d565b606060405180830381865afa158015610f05573d5f803e3d5ffd5b505050506040513d601f19601f82011682018060405250810190610f299190611c14565b9250505080610f79578273ffffffffffffffffffffffffffffffffffffffff166108fc60035490811502906040515f60405180830381858888f19350505050158015610f77573d5f803e3d5ffd5b505b505050610fc2565b5f610fc1576040517f08c379a0000000000000000000000000000000000000000000000000000000008152600401610fb890611cae565b60405180910390fd5b5b5b5b610fcc6114f5565b565b6002805414610fdb575f80fd5b60065f3373ffffffffffffffffffffffffffffffffffffffff1673ffffffffffffffffffffffffffffffffffffffff1681526020019081526020015f205f9054906101000a900460ff1661102d575f80fd5b60015f9054906101000a900473ffffffffffffffffffffffffffffffffffffffff1673ffffffffffffffffffffffffffffffffffffffff16635a74610182336040518363ffffffff1660e01b8152600401611089929190611a6e565b5f604051808303815f87803b1580156110a0575f80fd5b505af11580156110b2573d5f803e3d5ffd5b5050505060065f3373ffffffffffffffffffffffffffffffffffffffff1673ffffffffffffffffffffffffffffffffffffffff1681526020019081526020015f205f9054906101000a900460ff16156111715760095f81548092919061111790611a18565b91905055505f60065f3373ffffffffffffffffffffffffffffffffffffffff1673ffffffffffffffffffffffffffffffffffffffff1681526020019081526020015f205f6101000a81548160ff0219169083151502179055505b50565b60078181548110611183575f80fd5b905f5260205f20015f915054906101000a900473ffffffffffffffffffffffffffffffffffffffff1681565b5f60055f60075f815481106111c7576111c66118ed565b5b905f5260205f20015f9054906101000a900473ffffffffffffffffffffffffffffffffffffffff1673ffffffffffffffffffffffffffffffffffffffff1673ffffffffffffffffffffffffffffffffffffffff1681526020019081526020015f205490505f60055f6007600181548110611244576112436118ed565b5b905f5260205f20015f9054906101000a900473ffffffffffffffffffffffffffffffffffffffff1673ffffffffffffffffffffffffffffffffffffffff1673ffffffffffffffffffffffffffffffffffffffff1681526020019081526020015f205490505f60075f815481106112bd576112bc6118ed565b5b905f5260205f20015f9054906101000a900473ffffffffffffffffffffffffffffffffffffffff1690505f60076001815481106112fd576112fc6118ed565b5b905f5260205f20015f9054906101000a900473ffffffffffffffffffffffffffffffffffffffff16905082600360018661133791906119e5565b6113419190611ccc565b1480611364575082600560038661135891906119e5565b6113629190611ccc565b145b156113b4578173ffffffffffffffffffffffffffffffffffffffff166108fc60035490811502906040515f60405180830381858888f193505050501580156113ae573d5f803e3d5ffd5b506114e7565b8360036001856113c491906119e5565b6113ce9190611ccc565b14806113f157508360056003856113e591906119e5565b6113ef9190611ccc565b145b15611441578073ffffffffffffffffffffffffffffffffffffffff166108fc60035490811502906040515f60405180830381858888f1935050505015801561143b573d5f803e3d5ffd5b506114e6565b8173ffffffffffffffffffffffffffffffffffffffff166108fc600260035461146a9190611b69565b90811502906040515f60405180830381858888f19350505050158015611492573d5f803e3d5ffd5b508073ffffffffffffffffffffffffffffffffffffffff166108fc60026003546114bc9190611b69565b90811502906040515f60405180830381858888f193505050501580156114e4573d5f803e3d5ffd5b505b5b6114ef6114f5565b50505050565b5f6003819055505f5b60078054905081101561161a5760055f60078381548110611522576115216118ed565b5b905f5260205f20015f9054906101000a900473ffffffffffffffffffffffffffffffffffffffff1673ffffffffffffffffffffffffffffffffffffffff1673ffffffffffffffffffffffffffffffffffffffff1681526020019081526020015f205f905560065f6007838154811061159d5761159c6118ed565b5b905f5260205f20015f9054906101000a900473ffffffffffffffffffffffffffffffffffffffff1673ffffffffffffffffffffffffffffffffffffffff1673ffffffffffffffffffffffffffffffffffffffff1681526020019081526020015f205f6101000a81549060ff021916905580806001019150506114fe565b5060075f611628919061163f565b5f6002819055505f6009819055505f600481905550565b5080545f8255905f5260205f209081019061165a919061165d565b50565b5b80821115611674575f815f90555060010161165e565b5090565b5f819050919050565b61168a81611678565b82525050565b5f6020820190506116a35f830184611681565b92915050565b5f80fd5b5f73ffffffffffffffffffffffffffffffffffffffff82169050919050565b5f6116d6826116ad565b9050919050565b6116e6816116cc565b81146116f0575f80fd5b50565b5f81359050611701816116dd565b92915050565b5f6020828403121561171c5761171b6116a9565b5b5f611729848285016116f3565b91505092915050565b5f8115159050919050565b61174681611732565b82525050565b5f60208201905061175f5f83018461173d565b92915050565b5f819050919050565b5f61178861178361177e846116ad565b611765565b6116ad565b9050919050565b5f6117998261176e565b9050919050565b5f6117aa8261178f565b9050919050565b6117ba816117a0565b82525050565b5f6020820190506117d35f8301846117b1565b92915050565b6117e281611678565b81146117ec575f80fd5b50565b5f813590506117fd816117d9565b92915050565b5f60208284031215611818576118176116a9565b5b5f611825848285016117ef565b91505092915050565b611837816116cc565b82525050565b5f6020820190506118505f83018461182e565b92915050565b5f819050919050565b61186881611856565b8114611872575f80fd5b50565b5f813590506118838161185f565b92915050565b5f6020828403121561189e5761189d6116a9565b5b5f6118ab84828501611875565b91505092915050565b5f6118be8261178f565b9050919050565b6118ce816118b4565b82525050565b5f6020820190506118e75f8301846118c5565b92915050565b7f4e487b71000000000000000000000000000000000000000000000000000000005f52603260045260245ffd5b5f82825260208201905092915050565b7f596f7520617265206e6f7420616c6c6f77656420746f20706c617920746869735f8201527f2067616d65000000000000000000000000000000000000000000000000000000602082015250565b5f61198460258361191a565b915061198f8261192a565b604082019050919050565b5f6020820190508181035f8301526119b181611978565b9050919050565b7f4e487b71000000000000000000000000000000000000000000000000000000005f52601160045260245ffd5b5f6119ef82611678565b91506119fa83611678565b9250828201905080821115611a1257611a116119b8565b5b92915050565b5f611a2282611678565b91507fffffffffffffffffffffffffffffffffffffffffffffffffffffffffffffffff8203611a5457611a536119b8565b5b600182019050919050565b611a6881611856565b82525050565b5f604082019050611a815f830185611a5f565b611a8e602083018461182e565b9392505050565b7f63686f696365206973206e6f742076616c69642e0000000000000000000000005f82015250565b5f611ac960148361191a565b9150611ad482611a95565b602082019050919050565b5f6020820190508181035f830152611af681611abd565b9050919050565b5f81519050611b0b816117d9565b92915050565b5f60208284031215611b2657611b256116a9565b5b5f611b3384828501611afd565b91505092915050565b7f4e487b71000000000000000000000000000000000000000000000000000000005f52601260045260245ffd5b5f611b7382611678565b9150611b7e83611678565b925082611b8e57611b8d611b3c565b5b828204905092915050565b5f81519050611ba78161185f565b92915050565b5f67ffffffffffffffff82169050919050565b611bc981611bad565b8114611bd3575f80fd5b50565b5f81519050611be481611bc0565b92915050565b611bf381611732565b8114611bfd575f80fd5b50565b5f81519050611c0e81611bea565b92915050565b5f805f60608486031215611c2b57611c2a6116a9565b5b5f611c3886828701611b99565b9350506020611c4986828701611bd6565b9250506040611c5a86828701611c00565b9150509250925092565b7f63616e6e6f7420726566756e64000000000000000000000000000000000000005f82015250565b5f611c98600d8361191a565b9150611ca382611c64565b602082019050919050565b5f6020820190508181035f830152611cc581611c8c565b9050919050565b5f611cd682611678565b9150611ce183611678565b925082611cf157611cf0611b3c565b5b82820690509291505056fea2646970667358221220436c1dbb63f2f2552752c12964dfd204be87ffbc32525889fce69ebc1f00819264736f6c634300081a0033",
					"opcodes": "PUSH1 0x80 PUSH1 0x40 MSTORE PUSH0 PUSH1 0x2 SSTORE PUSH0 PUSH1 0x3 SSTORE PUSH0 PUSH1 0x4 SSTORE PUSH1 0x40 MLOAD DUP1 PUSH1 0x80 ADD PUSH1 0x40 MSTORE DUP1 PUSH20 0x5B38DA6A701C568545DCFCB03FCB875F56BEDDC4 PUSH20 0xFFFFFFFFFFFFFFFFFFFFFFFFFFFFFFFFFFFFFFFF AND PUSH20 0xFFFFFFFFFFFFFFFFFFFFFFFFFFFFFFFFFFFFFFFF AND DUP2 MSTORE PUSH1 0x20 ADD PUSH20 0xAB8483F64D9C6D1ECF9B849AE677DD3315835CB2 PUSH20 0xFFFFFFFFFFFFFFFFFFFFFFFFFFFFFFFFFFFFFFFF AND PUSH20 0xFFFFFFFFFFFFFFFFFFFFFFFFFFFFFFFFFFFFFFFF AND DUP2 MSTORE PUSH1 0x20 ADD PUSH20 0x4B20993BC481177EC7E8F571CECAE8A9E22C02DB PUSH20 0xFFFFFFFFFFFFFFFFFFFFFFFFFFFFFFFFFFFFFFFF AND PUSH20 0xFFFFFFFFFFFFFFFFFFFFFFFFFFFFFFFFFFFFFFFF AND DUP2 MSTORE PUSH1 0x20 ADD PUSH20 0x78731D3CA6B7E34AC0F824C42A7CC18A495CABAB PUSH20 0xFFFFFFFFFFFFFFFFFFFFFFFFFFFFFFFFFFFFFFFF AND PUSH20 0xFFFFFFFFFFFFFFFFFFFFFFFFFFFFFFFFFFFFFFFF AND DUP2 MSTORE POP PUSH1 0x8 SWAP1 PUSH1 0x4 PUSH2 0x141 SWAP3 SWAP2 SWAP1 PUSH2 0x1FE JUMP JUMPDEST POP PUSH0 PUSH1 0x9 SSTORE PUSH1 0x1E PUSH1 0xA SSTORE CALLVALUE DUP1 ISZERO PUSH2 0x156 JUMPI PUSH0 DUP1 REVERT JUMPDEST POP PUSH1 0x40 MLOAD PUSH2 0x207B CODESIZE SUB DUP1 PUSH2 0x207B DUP4 CODECOPY DUP2 DUP2 ADD PUSH1 0x40 MSTORE DUP2 ADD SWAP1 PUSH2 0x178 SWAP2 SWAP1 PUSH2 0x2FE JUMP JUMPDEST DUP2 PUSH0 DUP1 PUSH2 0x100 EXP DUP2 SLOAD DUP2 PUSH20 0xFFFFFFFFFFFFFFFFFFFFFFFFFFFFFFFFFFFFFFFF MUL NOT AND SWAP1 DUP4 PUSH20 0xFFFFFFFFFFFFFFFFFFFFFFFFFFFFFFFFFFFFFFFF AND MUL OR SWAP1 SSTORE POP DUP1 PUSH1 0x1 PUSH0 PUSH2 0x100 EXP DUP2 SLOAD DUP2 PUSH20 0xFFFFFFFFFFFFFFFFFFFFFFFFFFFFFFFFFFFFFFFF MUL NOT AND SWAP1 DUP4 PUSH20 0xFFFFFFFFFFFFFFFFFFFFFFFFFFFFFFFFFFFFFFFF AND MUL OR SWAP1 SSTORE POP POP POP PUSH2 0x33C JUMP JUMPDEST DUP3 DUP1 SLOAD DUP3 DUP3 SSTORE SWAP1 PUSH0 MSTORE PUSH1 0x20 PUSH0 KECCAK256 SWAP1 DUP2 ADD SWAP3 DUP3 ISZERO PUSH2 0x274 JUMPI SWAP2 PUSH1 0x20 MUL DUP3 ADD JUMPDEST DUP3 DUP2 GT ISZERO PUSH2 0x273 JUMPI DUP3 MLOAD DUP3 PUSH0 PUSH2 0x100 EXP DUP2 SLOAD DUP2 PUSH20 0xFFFFFFFFFFFFFFFFFFFFFFFFFFFFFFFFFFFFFFFF MUL NOT AND SWAP1 DUP4 PUSH20 0xFFFFFFFFFFFFFFFFFFFFFFFFFFFFFFFFFFFFFFFF AND MUL OR SWAP1 SSTORE POP SWAP2 PUSH1 0x20 ADD SWAP2 SWAP1 PUSH1 0x1 ADD SWAP1 PUSH2 0x21C JUMP JUMPDEST JUMPDEST POP SWAP1 POP PUSH2 0x281 SWAP2 SWAP1 PUSH2 0x285 JUMP JUMPDEST POP SWAP1 JUMP JUMPDEST JUMPDEST DUP1 DUP3 GT ISZERO PUSH2 0x29C JUMPI PUSH0 DUP2 PUSH0 SWAP1 SSTORE POP PUSH1 0x1 ADD PUSH2 0x286 JUMP JUMPDEST POP SWAP1 JUMP JUMPDEST PUSH0 DUP1 REVERT JUMPDEST PUSH0 PUSH20 0xFFFFFFFFFFFFFFFFFFFFFFFFFFFFFFFFFFFFFFFF DUP3 AND SWAP1 POP SWAP2 SWAP1 POP JUMP JUMPDEST PUSH0 PUSH2 0x2CD DUP3 PUSH2 0x2A4 JUMP JUMPDEST SWAP1 POP SWAP2 SWAP1 POP JUMP JUMPDEST PUSH2 0x2DD DUP2 PUSH2 0x2C3 JUMP JUMPDEST DUP2 EQ PUSH2 0x2E7 JUMPI PUSH0 DUP1 REVERT JUMPDEST POP JUMP JUMPDEST PUSH0 DUP2 MLOAD SWAP1 POP PUSH2 0x2F8 DUP2 PUSH2 0x2D4 JUMP JUMPDEST SWAP3 SWAP2 POP POP JUMP JUMPDEST PUSH0 DUP1 PUSH1 0x40 DUP4 DUP6 SUB SLT ISZERO PUSH2 0x314 JUMPI PUSH2 0x313 PUSH2 0x2A0 JUMP JUMPDEST JUMPDEST PUSH0 PUSH2 0x321 DUP6 DUP3 DUP7 ADD PUSH2 0x2EA JUMP JUMPDEST SWAP3 POP POP PUSH1 0x20 PUSH2 0x332 DUP6 DUP3 DUP7 ADD PUSH2 0x2EA JUMP JUMPDEST SWAP2 POP POP SWAP3 POP SWAP3 SWAP1 POP JUMP JUMPDEST PUSH2 0x1D32 DUP1 PUSH2 0x349 PUSH0 CODECOPY PUSH0 RETURN INVALID PUSH1 0x80 PUSH1 0x40 MSTORE PUSH1 0x4 CALLDATASIZE LT PUSH2 0xE7 JUMPI PUSH0 CALLDATALOAD PUSH1 0xE0 SHR DUP1 PUSH4 0x90D5D0C3 GT PUSH2 0x89 JUMPI DUP1 PUSH4 0xC876E615 GT PUSH2 0x58 JUMPI DUP1 PUSH4 0xC876E615 EQ PUSH2 0x2CD JUMPI DUP1 PUSH4 0xD84C1AC9 EQ PUSH2 0x2F7 JUMPI DUP1 PUSH4 0xF14FCBC8 EQ PUSH2 0x30D JUMPI DUP1 PUSH4 0xF71D96CB EQ PUSH2 0x335 JUMPI PUSH2 0xE7 JUMP JUMPDEST DUP1 PUSH4 0x90D5D0C3 EQ PUSH2 0x213 JUMPI DUP1 PUSH4 0x9D7B3F2D EQ PUSH2 0x23D JUMPI DUP1 PUSH4 0xA040478D EQ PUSH2 0x267 JUMPI DUP1 PUSH4 0xC08D1FE5 EQ PUSH2 0x2A3 JUMPI PUSH2 0xE7 JUMP JUMPDEST DUP1 PUSH4 0x27B5DB8A GT PUSH2 0xC5 JUMPI DUP1 PUSH4 0x27B5DB8A EQ PUSH2 0x17B JUMPI DUP1 PUSH4 0x3C6A7F9B EQ PUSH2 0x185 JUMPI DUP1 PUSH4 0x55D07388 EQ PUSH2 0x1AF JUMPI DUP1 PUSH4 0x701FD0F1 EQ PUSH2 0x1EB JUMPI PUSH2 0xE7 JUMP JUMPDEST DUP1 PUSH4 0x86F7815 EQ PUSH2 0xEB JUMPI DUP1 PUSH4 0x190CF745 EQ PUSH2 0x115 JUMPI DUP1 PUSH4 0x228CB733 EQ PUSH2 0x151 JUMPI JUMPDEST PUSH0 DUP1 REVERT JUMPDEST CALLVALUE DUP1 ISZERO PUSH2 0xF6 JUMPI PUSH0 DUP1 REVERT JUMPDEST POP PUSH2 0xFF PUSH2 0x371 JUMP JUMPDEST PUSH1 0x40 MLOAD PUSH2 0x10C SWAP2 SWAP1 PUSH2 0x1690 JUMP JUMPDEST PUSH1 0x40 MLOAD DUP1 SWAP2 SUB SWAP1 RETURN JUMPDEST CALLVALUE DUP1 ISZERO PUSH2 0x120 JUMPI PUSH0 DUP1 REVERT JUMPDEST POP PUSH2 0x13B PUSH1 0x4 DUP1 CALLDATASIZE SUB DUP2 ADD SWAP1 PUSH2 0x136 SWAP2 SWAP1 PUSH2 0x1707 JUMP JUMPDEST PUSH2 0x377 JUMP JUMPDEST PUSH1 0x40 MLOAD PUSH2 0x148 SWAP2 SWAP1 PUSH2 0x174C JUMP JUMPDEST PUSH1 0x40 MLOAD DUP1 SWAP2 SUB SWAP1 RETURN JUMPDEST CALLVALUE DUP1 ISZERO PUSH2 0x15C JUMPI PUSH0 DUP1 REVERT JUMPDEST POP PUSH2 0x165 PUSH2 0x394 JUMP JUMPDEST PUSH1 0x40 MLOAD PUSH2 0x172 SWAP2 SWAP1 PUSH2 0x1690 JUMP JUMPDEST PUSH1 0x40 MLOAD DUP1 SWAP2 SUB SWAP1 RETURN JUMPDEST PUSH2 0x183 PUSH2 0x39A JUMP JUMPDEST STOP JUMPDEST CALLVALUE DUP1 ISZERO PUSH2 0x190 JUMPI PUSH0 DUP1 REVERT JUMPDEST POP PUSH2 0x199 PUSH2 0x7AF JUMP JUMPDEST PUSH1 0x40 MLOAD PUSH2 0x1A6 SWAP2 SWAP1 PUSH2 0x17C0 JUMP JUMPDEST PUSH1 0x40 MLOAD DUP1 SWAP2 SUB SWAP1 RETURN JUMPDEST CALLVALUE DUP1 ISZERO PUSH2 0x1BA JUMPI PUSH0 DUP1 REVERT JUMPDEST POP PUSH2 0x1D5 PUSH1 0x4 DUP1 CALLDATASIZE SUB DUP2 ADD SWAP1 PUSH2 0x1D0 SWAP2 SWAP1 PUSH2 0x1803 JUMP JUMPDEST PUSH2 0x7D2 JUMP JUMPDEST PUSH1 0x40 MLOAD PUSH2 0x1E2 SWAP2 SWAP1 PUSH2 0x183D JUMP JUMPDEST PUSH1 0x40 MLOAD DUP1 SWAP2 SUB SWAP1 RETURN JUMPDEST CALLVALUE DUP1 ISZERO PUSH2 0x1F6 JUMPI PUSH0 DUP1 REVERT JUMPDEST POP PUSH2 0x211 PUSH1 0x4 DUP1 CALLDATASIZE SUB DUP2 ADD SWAP1 PUSH2 0x20C SWAP2 SWAP1 PUSH2 0x1889 JUMP JUMPDEST PUSH2 0x80D JUMP JUMPDEST STOP JUMPDEST CALLVALUE DUP1 ISZERO PUSH2 0x21E JUMPI PUSH0 DUP1 REVERT JUMPDEST POP PUSH2 0x227 PUSH2 0x992 JUMP JUMPDEST PUSH1 0x40 MLOAD PUSH2 0x234 SWAP2 SWAP1 PUSH2 0x1690 JUMP JUMPDEST PUSH1 0x40 MLOAD DUP1 SWAP2 SUB SWAP1 RETURN JUMPDEST CALLVALUE DUP1 ISZERO PUSH2 0x248 JUMPI PUSH0 DUP1 REVERT JUMPDEST POP PUSH2 0x251 PUSH2 0x998 JUMP JUMPDEST PUSH1 0x40 MLOAD PUSH2 0x25E SWAP2 SWAP1 PUSH2 0x18D4 JUMP JUMPDEST PUSH1 0x40 MLOAD DUP1 SWAP2 SUB SWAP1 RETURN JUMPDEST CALLVALUE DUP1 ISZERO PUSH2 0x272 JUMPI PUSH0 DUP1 REVERT JUMPDEST POP PUSH2 0x28D PUSH1 0x4 DUP1 CALLDATASIZE SUB DUP2 ADD SWAP1 PUSH2 0x288 SWAP2 SWAP1 PUSH2 0x1707 JUMP JUMPDEST PUSH2 0x9BD JUMP JUMPDEST PUSH1 0x40 MLOAD PUSH2 0x29A SWAP2 SWAP1 PUSH2 0x1690 JUMP JUMPDEST PUSH1 0x40 MLOAD DUP1 SWAP2 SUB SWAP1 RETURN JUMPDEST CALLVALUE DUP1 ISZERO PUSH2 0x2AE JUMPI PUSH0 DUP1 REVERT JUMPDEST POP PUSH2 0x2B7 PUSH2 0x9D2 JUMP JUMPDEST PUSH1 0x40 MLOAD PUSH2 0x2C4 SWAP2 SWAP1 PUSH2 0x1690 JUMP JUMPDEST PUSH1 0x40 MLOAD DUP1 SWAP2 SUB SWAP1 RETURN JUMPDEST CALLVALUE DUP1 ISZERO PUSH2 0x2D8 JUMPI PUSH0 DUP1 REVERT JUMPDEST POP PUSH2 0x2E1 PUSH2 0x9D8 JUMP JUMPDEST PUSH1 0x40 MLOAD PUSH2 0x2EE SWAP2 SWAP1 PUSH2 0x1690 JUMP JUMPDEST PUSH1 0x40 MLOAD DUP1 SWAP2 SUB SWAP1 RETURN JUMPDEST CALLVALUE DUP1 ISZERO PUSH2 0x302 JUMPI PUSH0 DUP1 REVERT JUMPDEST POP PUSH2 0x30B PUSH2 0x9DE JUMP JUMPDEST STOP JUMPDEST CALLVALUE DUP1 ISZERO PUSH2 0x318 JUMPI PUSH0 DUP1 REVERT JUMPDEST POP PUSH2 0x333 PUSH1 0x4 DUP1 CALLDATASIZE SUB DUP2 ADD SWAP1 PUSH2 0x32E SWAP2 SWAP1 PUSH2 0x1889 JUMP JUMPDEST PUSH2 0xFCE JUMP JUMPDEST STOP JUMPDEST CALLVALUE DUP1 ISZERO PUSH2 0x340 JUMPI PUSH0 DUP1 REVERT JUMPDEST POP PUSH2 0x35B PUSH1 0x4 DUP1 CALLDATASIZE SUB DUP2 ADD SWAP1 PUSH2 0x356 SWAP2 SWAP1 PUSH2 0x1803 JUMP JUMPDEST PUSH2 0x1174 JUMP JUMPDEST PUSH1 0x40 MLOAD PUSH2 0x368 SWAP2 SWAP1 PUSH2 0x183D JUMP JUMPDEST PUSH1 0x40 MLOAD DUP1 SWAP2 SUB SWAP1 RETURN JUMPDEST PUSH1 0x9 SLOAD DUP2 JUMP JUMPDEST PUSH1 0x6 PUSH1 0x20 MSTORE DUP1 PUSH0 MSTORE PUSH1 0x40 PUSH0 KECCAK256 PUSH0 SWAP2 POP SLOAD SWAP1 PUSH2 0x100 EXP SWAP1 DIV PUSH1 0xFF AND DUP2 JUMP JUMPDEST PUSH1 0x3 SLOAD DUP2 JUMP JUMPDEST PUSH1 0x2 DUP1 SLOAD LT PUSH2 0x3A7 JUMPI PUSH0 DUP1 REVERT JUMPDEST PUSH0 PUSH1 0x2 SLOAD GT ISZERO PUSH2 0x424 JUMPI PUSH1 0x7 PUSH0 DUP2 SLOAD DUP2 LT PUSH2 0x3C5 JUMPI PUSH2 0x3C4 PUSH2 0x18ED JUMP JUMPDEST JUMPDEST SWAP1 PUSH0 MSTORE PUSH1 0x20 PUSH0 KECCAK256 ADD PUSH0 SWAP1 SLOAD SWAP1 PUSH2 0x100 EXP SWAP1 DIV PUSH20 0xFFFFFFFFFFFFFFFFFFFFFFFFFFFFFFFFFFFFFFFF AND PUSH20 0xFFFFFFFFFFFFFFFFFFFFFFFFFFFFFFFFFFFFFFFF AND CALLER PUSH20 0xFFFFFFFFFFFFFFFFFFFFFFFFFFFFFFFFFFFFFFFF AND SUB PUSH2 0x423 JUMPI PUSH0 DUP1 REVERT JUMPDEST JUMPDEST PUSH8 0xDE0B6B3A7640000 CALLVALUE EQ PUSH2 0x437 JUMPI PUSH0 DUP1 REVERT JUMPDEST CALLER PUSH20 0xFFFFFFFFFFFFFFFFFFFFFFFFFFFFFFFFFFFFFFFF AND PUSH1 0x8 PUSH0 DUP2 SLOAD DUP2 LT PUSH2 0x462 JUMPI PUSH2 0x461 PUSH2 0x18ED JUMP JUMPDEST JUMPDEST SWAP1 PUSH0 MSTORE PUSH1 0x20 PUSH0 KECCAK256 ADD PUSH0 SWAP1 SLOAD SWAP1 PUSH2 0x100 EXP SWAP1 DIV PUSH20 0xFFFFFFFFFFFFFFFFFFFFFFFFFFFFFFFFFFFFFFFF AND PUSH20 0xFFFFFFFFFFFFFFFFFFFFFFFFFFFFFFFFFFFFFFFF AND EQ ISZERO DUP1 ISZERO PUSH2 0x516 JUMPI POP CALLER PUSH20 0xFFFFFFFFFFFFFFFFFFFFFFFFFFFFFFFFFFFFFFFF AND PUSH1 0x8 PUSH1 0x1 DUP2 SLOAD DUP2 LT PUSH2 0x4D5 JUMPI PUSH2 0x4D4 PUSH2 0x18ED JUMP JUMPDEST JUMPDEST SWAP1 PUSH0 MSTORE PUSH1 0x20 PUSH0 KECCAK256 ADD PUSH0 SWAP1 SLOAD SWAP1 PUSH2 0x100 EXP SWAP1 DIV PUSH20 0xFFFFFFFFFFFFFFFFFFFFFFFFFFFFFFFFFFFFFFFF AND PUSH20 0xFFFFFFFFFFFFFFFFFFFFFFFFFFFFFFFFFFFFFFFF AND EQ ISZERO JUMPDEST DUP1 ISZERO PUSH2 0x58A JUMPI POP CALLER PUSH20 0xFFFFFFFFFFFFFFFFFFFFFFFFFFFFFFFFFFFFFFFF AND PUSH1 0x8 PUSH1 0x2 DUP2 SLOAD DUP2 LT PUSH2 0x549 JUMPI PUSH2 0x548 PUSH2 0x18ED JUMP JUMPDEST JUMPDEST SWAP1 PUSH0 MSTORE PUSH1 0x20 PUSH0 KECCAK256 ADD PUSH0 SWAP1 SLOAD SWAP1 PUSH2 0x100 EXP SWAP1 DIV PUSH20 0xFFFFFFFFFFFFFFFFFFFFFFFFFFFFFFFFFFFFFFFF AND PUSH20 0xFFFFFFFFFFFFFFFFFFFFFFFFFFFFFFFFFFFFFFFF AND EQ ISZERO JUMPDEST DUP1 ISZERO PUSH2 0x5FE JUMPI POP CALLER PUSH20 0xFFFFFFFFFFFFFFFFFFFFFFFFFFFFFFFFFFFFFFFF AND PUSH1 0x8 PUSH1 0x3 DUP2 SLOAD DUP2 LT PUSH2 0x5BD JUMPI PUSH2 0x5BC PUSH2 0x18ED JUMP JUMPDEST JUMPDEST SWAP1 PUSH0 MSTORE PUSH1 0x20 PUSH0 KECCAK256 ADD PUSH0 SWAP1 SLOAD SWAP1 PUSH2 0x100 EXP SWAP1 DIV PUSH20 0xFFFFFFFFFFFFFFFFFFFFFFFFFFFFFFFFFFFFFFFF AND PUSH20 0xFFFFFFFFFFFFFFFFFFFFFFFFFFFFFFFFFFFFFFFF AND EQ ISZERO JUMPDEST ISZERO PUSH2 0x644 JUMPI PUSH0 PUSH2 0x643 JUMPI PUSH1 0x40 MLOAD PUSH32 0x8C379A000000000000000000000000000000000000000000000000000000000 DUP2 MSTORE PUSH1 0x4 ADD PUSH2 0x63A SWAP1 PUSH2 0x199A JUMP JUMPDEST PUSH1 0x40 MLOAD DUP1 SWAP2 SUB SWAP1 REVERT JUMPDEST JUMPDEST CALLVALUE PUSH1 0x3 PUSH0 DUP3 DUP3 SLOAD PUSH2 0x655 SWAP2 SWAP1 PUSH2 0x19E5 JUMP JUMPDEST SWAP3 POP POP DUP2 SWAP1 SSTORE POP PUSH1 0x1 PUSH1 0x6 PUSH0 CALLER PUSH20 0xFFFFFFFFFFFFFFFFFFFFFFFFFFFFFFFFFFFFFFFF AND PUSH20 0xFFFFFFFFFFFFFFFFFFFFFFFFFFFFFFFFFFFFFFFF AND DUP2 MSTORE PUSH1 0x20 ADD SWAP1 DUP2 MSTORE PUSH1 0x20 ADD PUSH0 KECCAK256 PUSH0 PUSH2 0x100 EXP DUP2 SLOAD DUP2 PUSH1 0xFF MUL NOT AND SWAP1 DUP4 ISZERO ISZERO MUL OR SWAP1 SSTORE POP PUSH1 0x7 CALLER SWAP1 DUP1 PUSH1 0x1 DUP2 SLOAD ADD DUP1 DUP3 SSTORE DUP1 SWAP2 POP POP PUSH1 0x1 SWAP1 SUB SWAP1 PUSH0 MSTORE PUSH1 0x20 PUSH0 KECCAK256 ADD PUSH0 SWAP1 SWAP2 SWAP1 SWAP2 SWAP1 SWAP2 PUSH2 0x100 EXP DUP2 SLOAD DUP2 PUSH20 0xFFFFFFFFFFFFFFFFFFFFFFFFFFFFFFFFFFFFFFFF MUL NOT AND SWAP1 DUP4 PUSH20 0xFFFFFFFFFFFFFFFFFFFFFFFFFFFFFFFFFFFFFFFF AND MUL OR SWAP1 SSTORE POP PUSH1 0x2 PUSH0 DUP2 SLOAD DUP1 SWAP3 SWAP2 SWAP1 PUSH2 0x723 SWAP1 PUSH2 0x1A18 JUMP JUMPDEST SWAP2 SWAP1 POP SSTORE POP PUSH1 0x1 PUSH1 0x2 SLOAD SUB PUSH2 0x7AD JUMPI PUSH0 DUP1 SLOAD SWAP1 PUSH2 0x100 EXP SWAP1 DIV PUSH20 0xFFFFFFFFFFFFFFFFFFFFFFFFFFFFFFFFFFFFFFFF AND PUSH20 0xFFFFFFFFFFFFFFFFFFFFFFFFFFFFFFFFFFFFFFFF AND PUSH4 0xA63F7C53 PUSH1 0x40 MLOAD DUP2 PUSH4 0xFFFFFFFF AND PUSH1 0xE0 SHL DUP2 MSTORE PUSH1 0x4 ADD PUSH0 PUSH1 0x40 MLOAD DUP1 DUP4 SUB DUP2 PUSH0 DUP8 DUP1 EXTCODESIZE ISZERO DUP1 ISZERO PUSH2 0x796 JUMPI PUSH0 DUP1 REVERT JUMPDEST POP GAS CALL ISZERO DUP1 ISZERO PUSH2 0x7A8 JUMPI RETURNDATASIZE PUSH0 DUP1 RETURNDATACOPY RETURNDATASIZE PUSH0 REVERT JUMPDEST POP POP POP POP JUMPDEST JUMP JUMPDEST PUSH0 DUP1 SLOAD SWAP1 PUSH2 0x100 EXP SWAP1 DIV PUSH20 0xFFFFFFFFFFFFFFFFFFFFFFFFFFFFFFFFFFFFFFFF AND DUP2 JUMP JUMPDEST PUSH1 0x8 DUP2 DUP2 SLOAD DUP2 LT PUSH2 0x7E1 JUMPI PUSH0 DUP1 REVERT JUMPDEST SWAP1 PUSH0 MSTORE PUSH1 0x20 PUSH0 KECCAK256 ADD PUSH0 SWAP2 POP SLOAD SWAP1 PUSH2 0x100 EXP SWAP1 DIV PUSH20 0xFFFFFFFFFFFFFFFFFFFFFFFFFFFFFFFFFFFFFFFF AND DUP2 JUMP JUMPDEST PUSH1 0x2 DUP1 SLOAD EQ PUSH2 0x81A JUMPI PUSH0 DUP1 REVERT JUMPDEST PUSH1 0x2 PUSH1 0x9 SLOAD EQ PUSH2 0x828 JUMPI PUSH0 DUP1 REVERT JUMPDEST PUSH1 0x1 PUSH0 SWAP1 SLOAD SWAP1 PUSH2 0x100 EXP SWAP1 DIV PUSH20 0xFFFFFFFFFFFFFFFFFFFFFFFFFFFFFFFFFFFFFFFF AND PUSH20 0xFFFFFFFFFFFFFFFFFFFFFFFFFFFFFFFFFFFFFFFF AND PUSH4 0xAD487790 DUP3 CALLER PUSH1 0x40 MLOAD DUP4 PUSH4 0xFFFFFFFF AND PUSH1 0xE0 SHL DUP2 MSTORE PUSH1 0x4 ADD PUSH2 0x884 SWAP3 SWAP2 SWAP1 PUSH2 0x1A6E JUMP JUMPDEST PUSH0 PUSH1 0x40 MLOAD DUP1 DUP4 SUB DUP2 PUSH0 DUP8 DUP1 EXTCODESIZE ISZERO DUP1 ISZERO PUSH2 0x89B JUMPI PUSH0 DUP1 REVERT JUMPDEST POP GAS CALL ISZERO DUP1 ISZERO PUSH2 0x8AD JUMPI RETURNDATASIZE PUSH0 DUP1 RETURNDATACOPY RETURNDATASIZE PUSH0 REVERT JUMPDEST POP POP POP POP PUSH0 DUP2 PUSH1 0x1F PUSH1 0x20 DUP2 LT PUSH2 0x8C6 JUMPI PUSH2 0x8C5 PUSH2 0x18ED JUMP JUMPDEST JUMPDEST BYTE PUSH1 0xF8 SHL PUSH1 0xF8 SHR PUSH1 0xFF AND SWAP1 POP PUSH0 DUP2 LT ISZERO DUP1 ISZERO PUSH2 0x8E3 JUMPI POP PUSH1 0x4 DUP2 GT ISZERO JUMPDEST PUSH2 0x922 JUMPI PUSH1 0x40 MLOAD PUSH32 0x8C379A000000000000000000000000000000000000000000000000000000000 DUP2 MSTORE PUSH1 0x4 ADD PUSH2 0x919 SWAP1 PUSH2 0x1ADF JUMP JUMPDEST PUSH1 0x40 MLOAD DUP1 SWAP2 SUB SWAP1 REVERT JUMPDEST DUP1 PUSH1 0x5 PUSH0 CALLER PUSH20 0xFFFFFFFFFFFFFFFFFFFFFFFFFFFFFFFFFFFFFFFF AND PUSH20 0xFFFFFFFFFFFFFFFFFFFFFFFFFFFFFFFFFFFFFFFF AND DUP2 MSTORE PUSH1 0x20 ADD SWAP1 DUP2 MSTORE PUSH1 0x20 ADD PUSH0 KECCAK256 DUP2 SWAP1 SSTORE POP PUSH1 0x4 PUSH0 DUP2 SLOAD DUP1 SWAP3 SWAP2 SWAP1 PUSH2 0x976 SWAP1 PUSH2 0x1A18 JUMP JUMPDEST SWAP2 SWAP1 POP SSTORE POP PUSH1 0x2 PUSH1 0x4 SLOAD SUB PUSH2 0x98E JUMPI PUSH2 0x98D PUSH2 0x11AF JUMP JUMPDEST JUMPDEST POP POP JUMP JUMPDEST PUSH1 0x2 SLOAD DUP2 JUMP JUMPDEST PUSH1 0x1 PUSH0 SWAP1 SLOAD SWAP1 PUSH2 0x100 EXP SWAP1 DIV PUSH20 0xFFFFFFFFFFFFFFFFFFFFFFFFFFFFFFFFFFFFFFFF AND DUP2 JUMP JUMPDEST PUSH1 0x5 PUSH1 0x20 MSTORE DUP1 PUSH0 MSTORE PUSH1 0x40 PUSH0 KECCAK256 PUSH0 SWAP2 POP SWAP1 POP SLOAD DUP2 JUMP JUMPDEST PUSH1 0xA SLOAD DUP2 JUMP JUMPDEST PUSH1 0x4 SLOAD DUP2 JUMP JUMPDEST PUSH1 0x1 PUSH1 0x2 SLOAD EQ DUP1 ISZERO PUSH2 0xA7D JUMPI POP PUSH1 0xA SLOAD PUSH0 DUP1 SLOAD SWAP1 PUSH2 0x100 EXP SWAP1 DIV PUSH20 0xFFFFFFFFFFFFFFFFFFFFFFFFFFFFFFFFFFFFFFFF AND PUSH20 0xFFFFFFFFFFFFFFFFFFFFFFFFFFFFFFFFFFFFFFFF AND PUSH4 0xBC06B8CD PUSH1 0x40 MLOAD DUP2 PUSH4 0xFFFFFFFF AND PUSH1 0xE0 SHL DUP2 MSTORE PUSH1 0x4 ADD PUSH1 0x20 PUSH1 0x40 MLOAD DUP1 DUP4 SUB DUP2 DUP7 GAS STATICCALL ISZERO DUP1 ISZERO PUSH2 0xA56 JUMPI RETURNDATASIZE PUSH0 DUP1 RETURNDATACOPY RETURNDATASIZE PUSH0 REVERT JUMPDEST POP POP POP POP PUSH1 0x40 MLOAD RETURNDATASIZE PUSH1 0x1F NOT PUSH1 0x1F DUP3 ADD AND DUP3 ADD DUP1 PUSH1 0x40 MSTORE POP DUP2 ADD SWAP1 PUSH2 0xA7A SWAP2 SWAP1 PUSH2 0x1B11 JUMP JUMPDEST LT ISZERO JUMPDEST ISZERO PUSH2 0xB0D JUMPI PUSH0 PUSH1 0x7 PUSH0 DUP2 SLOAD DUP2 LT PUSH2 0xA97 JUMPI PUSH2 0xA96 PUSH2 0x18ED JUMP JUMPDEST JUMPDEST SWAP1 PUSH0 MSTORE PUSH1 0x20 PUSH0 KECCAK256 ADD PUSH0 SWAP1 SLOAD SWAP1 PUSH2 0x100 EXP SWAP1 DIV PUSH20 0xFFFFFFFFFFFFFFFFFFFFFFFFFFFFFFFFFFFFFFFF AND SWAP1 POP DUP1 PUSH20 0xFFFFFFFFFFFFFFFFFFFFFFFFFFFFFFFFFFFFFFFF AND PUSH2 0x8FC PUSH1 0x3 SLOAD SWAP1 DUP2 ISZERO MUL SWAP1 PUSH1 0x40 MLOAD PUSH0 PUSH1 0x40 MLOAD DUP1 DUP4 SUB DUP2 DUP6 DUP9 DUP9 CALL SWAP4 POP POP POP POP ISZERO DUP1 ISZERO PUSH2 0xB06 JUMPI RETURNDATASIZE PUSH0 DUP1 RETURNDATACOPY RETURNDATASIZE PUSH0 REVERT JUMPDEST POP POP PUSH2 0xFC4 JUMP JUMPDEST PUSH1 0x2 DUP1 SLOAD EQ DUP1 ISZERO PUSH2 0xB1F JUMPI POP PUSH0 PUSH1 0x4 SLOAD EQ JUMPDEST DUP1 ISZERO PUSH2 0xBB8 JUMPI POP PUSH1 0xA SLOAD PUSH0 DUP1 SLOAD SWAP1 PUSH2 0x100 EXP SWAP1 DIV PUSH20 0xFFFFFFFFFFFFFFFFFFFFFFFFFFFFFFFFFFFFFFFF AND PUSH20 0xFFFFFFFFFFFFFFFFFFFFFFFFFFFFFFFFFFFFFFFF AND PUSH4 0xBC06B8CD PUSH1 0x40 MLOAD DUP2 PUSH4 0xFFFFFFFF AND PUSH1 0xE0 SHL DUP2 MSTORE PUSH1 0x4 ADD PUSH1 0x20 PUSH1 0x40 MLOAD DUP1 DUP4 SUB DUP2 DUP7 GAS STATICCALL ISZERO DUP1 ISZERO PUSH2 0xB91 JUMPI RETURNDATASIZE PUSH0 DUP1 RETURNDATACOPY RETURNDATASIZE PUSH0 REVERT JUMPDEST POP POP POP POP PUSH1 0x40 MLOAD RETURNDATASIZE PUSH1 0x1F NOT PUSH1 0x1F DUP3 ADD AND DUP3 ADD DUP1 PUSH1 0x40 MSTORE POP DUP2 ADD SWAP1 PUSH2 0xBB5 SWAP2 SWAP1 PUSH2 0x1B11 JUMP JUMPDEST LT ISZERO JUMPDEST ISZERO PUSH2 0xCE7 JUMPI PUSH0 PUSH1 0x7 PUSH0 DUP2 SLOAD DUP2 LT PUSH2 0xBD2 JUMPI PUSH2 0xBD1 PUSH2 0x18ED JUMP JUMPDEST JUMPDEST SWAP1 PUSH0 MSTORE PUSH1 0x20 PUSH0 KECCAK256 ADD PUSH0 SWAP1 SLOAD SWAP1 PUSH2 0x100 EXP SWAP1 DIV PUSH20 0xFFFFFFFFFFFFFFFFFFFFFFFFFFFFFFFFFFFFFFFF AND SWAP1 POP PUSH0 PUSH1 0x7 PUSH1 0x1 DUP2 SLOAD DUP2 LT PUSH2 0xC12 JUMPI PUSH2 0xC11 PUSH2 0x18ED JUMP JUMPDEST JUMPDEST SWAP1 PUSH0 MSTORE PUSH1 0x20 PUSH0 KECCAK256 ADD PUSH0 SWAP1 SLOAD SWAP1 PUSH2 0x100 EXP SWAP1 DIV PUSH20 0xFFFFFFFFFFFFFFFFFFFFFFFFFFFFFFFFFFFFFFFF AND SWAP1 POP DUP2 PUSH20 0xFFFFFFFFFFFFFFFFFFFFFFFFFFFFFFFFFFFFFFFF AND PUSH2 0x8FC PUSH1 0x2 PUSH1 0x3 SLOAD PUSH2 0xC65 SWAP2 SWAP1 PUSH2 0x1B69 JUMP JUMPDEST SWAP1 DUP2 ISZERO MUL SWAP1 PUSH1 0x40 MLOAD PUSH0 PUSH1 0x40 MLOAD DUP1 DUP4 SUB DUP2 DUP6 DUP9 DUP9 CALL SWAP4 POP POP POP POP ISZERO DUP1 ISZERO PUSH2 0xC8D JUMPI RETURNDATASIZE PUSH0 DUP1 RETURNDATACOPY RETURNDATASIZE PUSH0 REVERT JUMPDEST POP DUP1 PUSH20 0xFFFFFFFFFFFFFFFFFFFFFFFFFFFFFFFFFFFFFFFF AND PUSH2 0x8FC PUSH1 0x2 PUSH1 0x3 SLOAD PUSH2 0xCB7 SWAP2 SWAP1 PUSH2 0x1B69 JUMP JUMPDEST SWAP1 DUP2 ISZERO MUL SWAP1 PUSH1 0x40 MLOAD PUSH0 PUSH1 0x40 MLOAD DUP1 DUP4 SUB DUP2 DUP6 DUP9 DUP9 CALL SWAP4 POP POP POP POP ISZERO DUP1 ISZERO PUSH2 0xCDF JUMPI RETURNDATASIZE PUSH0 DUP1 RETURNDATACOPY RETURNDATASIZE PUSH0 REVERT JUMPDEST POP POP POP PUSH2 0xFC3 JUMP JUMPDEST PUSH1 0x2 DUP1 SLOAD EQ DUP1 ISZERO PUSH2 0xCFB JUMPI POP PUSH1 0x1 PUSH1 0x4 SLOAD GT ISZERO JUMPDEST DUP1 ISZERO PUSH2 0xD94 JUMPI POP PUSH1 0xA SLOAD PUSH0 DUP1 SLOAD SWAP1 PUSH2 0x100 EXP SWAP1 DIV PUSH20 0xFFFFFFFFFFFFFFFFFFFFFFFFFFFFFFFFFFFFFFFF AND PUSH20 0xFFFFFFFFFFFFFFFFFFFFFFFFFFFFFFFFFFFFFFFF AND PUSH4 0xBC06B8CD PUSH1 0x40 MLOAD DUP2 PUSH4 0xFFFFFFFF AND PUSH1 0xE0 SHL DUP2 MSTORE PUSH1 0x4 ADD PUSH1 0x20 PUSH1 0x40 MLOAD DUP1 DUP4 SUB DUP2 DUP7 GAS STATICCALL ISZERO DUP1 ISZERO PUSH2 0xD6D JUMPI RETURNDATASIZE PUSH0 DUP1 RETURNDATACOPY RETURNDATASIZE PUSH0 REVERT JUMPDEST POP POP POP POP PUSH1 0x40 MLOAD RETURNDATASIZE PUSH1 0x1F NOT PUSH1 0x1F DUP3 ADD AND DUP3 ADD DUP1 PUSH1 0x40 MSTORE POP DUP2 ADD SWAP1 PUSH2 0xD91 SWAP2 SWAP1 PUSH2 0x1B11 JUMP JUMPDEST LT ISZERO JUMPDEST ISZERO PUSH2 0xF81 JUMPI PUSH0 CALLER SWAP1 POP PUSH0 PUSH1 0x7 PUSH0 DUP2 SLOAD DUP2 LT PUSH2 0xDB2 JUMPI PUSH2 0xDB1 PUSH2 0x18ED JUMP JUMPDEST JUMPDEST SWAP1 PUSH0 MSTORE PUSH1 0x20 PUSH0 KECCAK256 ADD PUSH0 SWAP1 SLOAD SWAP1 PUSH2 0x100 EXP SWAP1 DIV PUSH20 0xFFFFFFFFFFFFFFFFFFFFFFFFFFFFFFFFFFFFFFFF AND PUSH20 0xFFFFFFFFFFFFFFFFFFFFFFFFFFFFFFFFFFFFFFFF AND CALLER PUSH20 0xFFFFFFFFFFFFFFFFFFFFFFFFFFFFFFFFFFFFFFFF AND SUB PUSH2 0xE50 JUMPI PUSH1 0x7 PUSH1 0x1 DUP2 SLOAD DUP2 LT PUSH2 0xE21 JUMPI PUSH2 0xE20 PUSH2 0x18ED JUMP JUMPDEST JUMPDEST SWAP1 PUSH0 MSTORE PUSH1 0x20 PUSH0 KECCAK256 ADD PUSH0 SWAP1 SLOAD SWAP1 PUSH2 0x100 EXP SWAP1 DIV PUSH20 0xFFFFFFFFFFFFFFFFFFFFFFFFFFFFFFFFFFFFFFFF AND SWAP1 POP PUSH2 0xE8F JUMP JUMPDEST PUSH1 0x7 PUSH0 DUP2 SLOAD DUP2 LT PUSH2 0xE64 JUMPI PUSH2 0xE63 PUSH2 0x18ED JUMP JUMPDEST JUMPDEST SWAP1 PUSH0 MSTORE PUSH1 0x20 PUSH0 KECCAK256 ADD PUSH0 SWAP1 SLOAD SWAP1 PUSH2 0x100 EXP SWAP1 DIV PUSH20 0xFFFFFFFFFFFFFFFFFFFFFFFFFFFFFFFFFFFFFFFF AND SWAP1 POP JUMPDEST PUSH0 PUSH1 0x1 PUSH0 SWAP1 SLOAD SWAP1 PUSH2 0x100 EXP SWAP1 DIV PUSH20 0xFFFFFFFFFFFFFFFFFFFFFFFFFFFFFFFFFFFFFFFF AND PUSH20 0xFFFFFFFFFFFFFFFFFFFFFFFFFFFFFFFFFFFFFFFF AND PUSH4 0x7B43A8E6 DUP4 PUSH1 0x40 MLOAD DUP3 PUSH4 0xFFFFFFFF AND PUSH1 0xE0 SHL DUP2 MSTORE PUSH1 0x4 ADD PUSH2 0xEEA SWAP2 SWAP1 PUSH2 0x183D JUMP JUMPDEST PUSH1 0x60 PUSH1 0x40 MLOAD DUP1 DUP4 SUB DUP2 DUP7 GAS STATICCALL ISZERO DUP1 ISZERO PUSH2 0xF05 JUMPI RETURNDATASIZE PUSH0 DUP1 RETURNDATACOPY RETURNDATASIZE PUSH0 REVERT JUMPDEST POP POP POP POP PUSH1 0x40 MLOAD RETURNDATASIZE PUSH1 0x1F NOT PUSH1 0x1F DUP3 ADD AND DUP3 ADD DUP1 PUSH1 0x40 MSTORE POP DUP2 ADD SWAP1 PUSH2 0xF29 SWAP2 SWAP1 PUSH2 0x1C14 JUMP JUMPDEST SWAP3 POP POP POP DUP1 PUSH2 0xF79 JUMPI DUP3 PUSH20 0xFFFFFFFFFFFFFFFFFFFFFFFFFFFFFFFFFFFFFFFF AND PUSH2 0x8FC PUSH1 0x3 SLOAD SWAP1 DUP2 ISZERO MUL SWAP1 PUSH1 0x40 MLOAD PUSH0 PUSH1 0x40 MLOAD DUP1 DUP4 SUB DUP2 DUP6 DUP9 DUP9 CALL SWAP4 POP POP POP POP ISZERO DUP1 ISZERO PUSH2 0xF77 JUMPI RETURNDATASIZE PUSH0 DUP1 RETURNDATACOPY RETURNDATASIZE PUSH0 REVERT JUMPDEST POP JUMPDEST POP POP POP PUSH2 0xFC2 JUMP JUMPDEST PUSH0 PUSH2 0xFC1 JUMPI PUSH1 0x40 MLOAD PUSH32 0x8C379A000000000000000000000000000000000000000000000000000000000 DUP2 MSTORE PUSH1 0x4 ADD PUSH2 0xFB8 SWAP1 PUSH2 0x1CAE JUMP JUMPDEST PUSH1 0x40 MLOAD DUP1 SWAP2 SUB SWAP1 REVERT JUMPDEST JUMPDEST JUMPDEST JUMPDEST PUSH2 0xFCC PUSH2 0x14F5 JUMP JUMPDEST JUMP JUMPDEST PUSH1 0x2 DUP1 SLOAD EQ PUSH2 0xFDB JUMPI PUSH0 DUP1 REVERT JUMPDEST PUSH1 0x6 PUSH0 CALLER PUSH20 0xFFFFFFFFFFFFFFFFFFFFFFFFFFFFFFFFFFFFFFFF AND PUSH20 0xFFFFFFFFFFFFFFFFFFFFFFFFFFFFFFFFFFFFFFFF AND DUP2 MSTORE PUSH1 0x20 ADD SWAP1 DUP2 MSTORE PUSH1 0x20 ADD PUSH0 KECCAK256 PUSH0 SWAP1 SLOAD SWAP1 PUSH2 0x100 EXP SWAP1 DIV PUSH1 0xFF AND PUSH2 0x102D JUMPI PUSH0 DUP1 REVERT JUMPDEST PUSH1 0x1 PUSH0 SWAP1 SLOAD SWAP1 PUSH2 0x100 EXP SWAP1 DIV PUSH20 0xFFFFFFFFFFFFFFFFFFFFFFFFFFFFFFFFFFFFFFFF AND PUSH20 0xFFFFFFFFFFFFFFFFFFFFFFFFFFFFFFFFFFFFFFFF AND PUSH4 0x5A746101 DUP3 CALLER PUSH1 0x40 MLOAD DUP4 PUSH4 0xFFFFFFFF AND PUSH1 0xE0 SHL DUP2 MSTORE PUSH1 0x4 ADD PUSH2 0x1089 SWAP3 SWAP2 SWAP1 PUSH2 0x1A6E JUMP JUMPDEST PUSH0 PUSH1 0x40 MLOAD DUP1 DUP4 SUB DUP2 PUSH0 DUP8 DUP1 EXTCODESIZE ISZERO DUP1 ISZERO PUSH2 0x10A0 JUMPI PUSH0 DUP1 REVERT JUMPDEST POP GAS CALL ISZERO DUP1 ISZERO PUSH2 0x10B2 JUMPI RETURNDATASIZE PUSH0 DUP1 RETURNDATACOPY RETURNDATASIZE PUSH0 REVERT JUMPDEST POP POP POP POP PUSH1 0x6 PUSH0 CALLER PUSH20 0xFFFFFFFFFFFFFFFFFFFFFFFFFFFFFFFFFFFFFFFF AND PUSH20 0xFFFFFFFFFFFFFFFFFFFFFFFFFFFFFFFFFFFFFFFF AND DUP2 MSTORE PUSH1 0x20 ADD SWAP1 DUP2 MSTORE PUSH1 0x20 ADD PUSH0 KECCAK256 PUSH0 SWAP1 SLOAD SWAP1 PUSH2 0x100 EXP SWAP1 DIV PUSH1 0xFF AND ISZERO PUSH2 0x1171 JUMPI PUSH1 0x9 PUSH0 DUP2 SLOAD DUP1 SWAP3 SWAP2 SWAP1 PUSH2 0x1117 SWAP1 PUSH2 0x1A18 JUMP JUMPDEST SWAP2 SWAP1 POP SSTORE POP PUSH0 PUSH1 0x6 PUSH0 CALLER PUSH20 0xFFFFFFFFFFFFFFFFFFFFFFFFFFFFFFFFFFFFFFFF AND PUSH20 0xFFFFFFFFFFFFFFFFFFFFFFFFFFFFFFFFFFFFFFFF AND DUP2 MSTORE PUSH1 0x20 ADD SWAP1 DUP2 MSTORE PUSH1 0x20 ADD PUSH0 KECCAK256 PUSH0 PUSH2 0x100 EXP DUP2 SLOAD DUP2 PUSH1 0xFF MUL NOT AND SWAP1 DUP4 ISZERO ISZERO MUL OR SWAP1 SSTORE POP JUMPDEST POP JUMP JUMPDEST PUSH1 0x7 DUP2 DUP2 SLOAD DUP2 LT PUSH2 0x1183 JUMPI PUSH0 DUP1 REVERT JUMPDEST SWAP1 PUSH0 MSTORE PUSH1 0x20 PUSH0 KECCAK256 ADD PUSH0 SWAP2 POP SLOAD SWAP1 PUSH2 0x100 EXP SWAP1 DIV PUSH20 0xFFFFFFFFFFFFFFFFFFFFFFFFFFFFFFFFFFFFFFFF AND DUP2 JUMP JUMPDEST PUSH0 PUSH1 0x5 PUSH0 PUSH1 0x7 PUSH0 DUP2 SLOAD DUP2 LT PUSH2 0x11C7 JUMPI PUSH2 0x11C6 PUSH2 0x18ED JUMP JUMPDEST JUMPDEST SWAP1 PUSH0 MSTORE PUSH1 0x20 PUSH0 KECCAK256 ADD PUSH0 SWAP1 SLOAD SWAP1 PUSH2 0x100 EXP SWAP1 DIV PUSH20 0xFFFFFFFFFFFFFFFFFFFFFFFFFFFFFFFFFFFFFFFF AND PUSH20 0xFFFFFFFFFFFFFFFFFFFFFFFFFFFFFFFFFFFFFFFF AND PUSH20 0xFFFFFFFFFFFFFFFFFFFFFFFFFFFFFFFFFFFFFFFF AND DUP2 MSTORE PUSH1 0x20 ADD SWAP1 DUP2 MSTORE PUSH1 0x20 ADD PUSH0 KECCAK256 SLOAD SWAP1 POP PUSH0 PUSH1 0x5 PUSH0 PUSH1 0x7 PUSH1 0x1 DUP2 SLOAD DUP2 LT PUSH2 0x1244 JUMPI PUSH2 0x1243 PUSH2 0x18ED JUMP JUMPDEST JUMPDEST SWAP1 PUSH0 MSTORE PUSH1 0x20 PUSH0 KECCAK256 ADD PUSH0 SWAP1 SLOAD SWAP1 PUSH2 0x100 EXP SWAP1 DIV PUSH20 0xFFFFFFFFFFFFFFFFFFFFFFFFFFFFFFFFFFFFFFFF AND PUSH20 0xFFFFFFFFFFFFFFFFFFFFFFFFFFFFFFFFFFFFFFFF AND PUSH20 0xFFFFFFFFFFFFFFFFFFFFFFFFFFFFFFFFFFFFFFFF AND DUP2 MSTORE PUSH1 0x20 ADD SWAP1 DUP2 MSTORE PUSH1 0x20 ADD PUSH0 KECCAK256 SLOAD SWAP1 POP PUSH0 PUSH1 0x7 PUSH0 DUP2 SLOAD DUP2 LT PUSH2 0x12BD JUMPI PUSH2 0x12BC PUSH2 0x18ED JUMP JUMPDEST JUMPDEST SWAP1 PUSH0 MSTORE PUSH1 0x20 PUSH0 KECCAK256 ADD PUSH0 SWAP1 SLOAD SWAP1 PUSH2 0x100 EXP SWAP1 DIV PUSH20 0xFFFFFFFFFFFFFFFFFFFFFFFFFFFFFFFFFFFFFFFF AND SWAP1 POP PUSH0 PUSH1 0x7 PUSH1 0x1 DUP2 SLOAD DUP2 LT PUSH2 0x12FD JUMPI PUSH2 0x12FC PUSH2 0x18ED JUMP JUMPDEST JUMPDEST SWAP1 PUSH0 MSTORE PUSH1 0x20 PUSH0 KECCAK256 ADD PUSH0 SWAP1 SLOAD SWAP1 PUSH2 0x100 EXP SWAP1 DIV PUSH20 0xFFFFFFFFFFFFFFFFFFFFFFFFFFFFFFFFFFFFFFFF AND SWAP1 POP DUP3 PUSH1 0x3 PUSH1 0x1 DUP7 PUSH2 0x1337 SWAP2 SWAP1 PUSH2 0x19E5 JUMP JUMPDEST PUSH2 0x1341 SWAP2 SWAP1 PUSH2 0x1CCC JUMP JUMPDEST EQ DUP1 PUSH2 0x1364 JUMPI POP DUP3 PUSH1 0x5 PUSH1 0x3 DUP7 PUSH2 0x1358 SWAP2 SWAP1 PUSH2 0x19E5 JUMP JUMPDEST PUSH2 0x1362 SWAP2 SWAP1 PUSH2 0x1CCC JUMP JUMPDEST EQ JUMPDEST ISZERO PUSH2 0x13B4 JUMPI DUP2 PUSH20 0xFFFFFFFFFFFFFFFFFFFFFFFFFFFFFFFFFFFFFFFF AND PUSH2 0x8FC PUSH1 0x3 SLOAD SWAP1 DUP2 ISZERO MUL SWAP1 PUSH1 0x40 MLOAD PUSH0 PUSH1 0x40 MLOAD DUP1 DUP4 SUB DUP2 DUP6 DUP9 DUP9 CALL SWAP4 POP POP POP POP ISZERO DUP1 ISZERO PUSH2 0x13AE JUMPI RETURNDATASIZE PUSH0 DUP1 RETURNDATACOPY RETURNDATASIZE PUSH0 REVERT JUMPDEST POP PUSH2 0x14E7 JUMP JUMPDEST DUP4 PUSH1 0x3 PUSH1 0x1 DUP6 PUSH2 0x13C4 SWAP2 SWAP1 PUSH2 0x19E5 JUMP JUMPDEST PUSH2 0x13CE SWAP2 SWAP1 PUSH2 0x1CCC JUMP JUMPDEST EQ DUP1 PUSH2 0x13F1 JUMPI POP DUP4 PUSH1 0x5 PUSH1 0x3 DUP6 PUSH2 0x13E5 SWAP2 SWAP1 PUSH2 0x19E5 JUMP JUMPDEST PUSH2 0x13EF SWAP2 SWAP1 PUSH2 0x1CCC JUMP JUMPDEST EQ JUMPDEST ISZERO PUSH2 0x1441 JUMPI DUP1 PUSH20 0xFFFFFFFFFFFFFFFFFFFFFFFFFFFFFFFFFFFFFFFF AND PUSH2 0x8FC PUSH1 0x3 SLOAD SWAP1 DUP2 ISZERO MUL SWAP1 PUSH1 0x40 MLOAD PUSH0 PUSH1 0x40 MLOAD DUP1 DUP4 SUB DUP2 DUP6 DUP9 DUP9 CALL SWAP4 POP POP POP POP ISZERO DUP1 ISZERO PUSH2 0x143B JUMPI RETURNDATASIZE PUSH0 DUP1 RETURNDATACOPY RETURNDATASIZE PUSH0 REVERT JUMPDEST POP PUSH2 0x14E6 JUMP JUMPDEST DUP2 PUSH20 0xFFFFFFFFFFFFFFFFFFFFFFFFFFFFFFFFFFFFFFFF AND PUSH2 0x8FC PUSH1 0x2 PUSH1 0x3 SLOAD PUSH2 0x146A SWAP2 SWAP1 PUSH2 0x1B69 JUMP JUMPDEST SWAP1 DUP2 ISZERO MUL SWAP1 PUSH1 0x40 MLOAD PUSH0 PUSH1 0x40 MLOAD DUP1 DUP4 SUB DUP2 DUP6 DUP9 DUP9 CALL SWAP4 POP POP POP POP ISZERO DUP1 ISZERO PUSH2 0x1492 JUMPI RETURNDATASIZE PUSH0 DUP1 RETURNDATACOPY RETURNDATASIZE PUSH0 REVERT JUMPDEST POP DUP1 PUSH20 0xFFFFFFFFFFFFFFFFFFFFFFFFFFFFFFFFFFFFFFFF AND PUSH2 0x8FC PUSH1 0x2 PUSH1 0x3 SLOAD PUSH2 0x14BC SWAP2 SWAP1 PUSH2 0x1B69 JUMP JUMPDEST SWAP1 DUP2 ISZERO MUL SWAP1 PUSH1 0x40 MLOAD PUSH0 PUSH1 0x40 MLOAD DUP1 DUP4 SUB DUP2 DUP6 DUP9 DUP9 CALL SWAP4 POP POP POP POP ISZERO DUP1 ISZERO PUSH2 0x14E4 JUMPI RETURNDATASIZE PUSH0 DUP1 RETURNDATACOPY RETURNDATASIZE PUSH0 REVERT JUMPDEST POP JUMPDEST JUMPDEST PUSH2 0x14EF PUSH2 0x14F5 JUMP JUMPDEST POP POP POP POP JUMP JUMPDEST PUSH0 PUSH1 0x3 DUP2 SWAP1 SSTORE POP PUSH0 JUMPDEST PUSH1 0x7 DUP1 SLOAD SWAP1 POP DUP2 LT ISZERO PUSH2 0x161A JUMPI PUSH1 0x5 PUSH0 PUSH1 0x7 DUP4 DUP2 SLOAD DUP2 LT PUSH2 0x1522 JUMPI PUSH2 0x1521 PUSH2 0x18ED JUMP JUMPDEST JUMPDEST SWAP1 PUSH0 MSTORE PUSH1 0x20 PUSH0 KECCAK256 ADD PUSH0 SWAP1 SLOAD SWAP1 PUSH2 0x100 EXP SWAP1 DIV PUSH20 0xFFFFFFFFFFFFFFFFFFFFFFFFFFFFFFFFFFFFFFFF AND PUSH20 0xFFFFFFFFFFFFFFFFFFFFFFFFFFFFFFFFFFFFFFFF AND PUSH20 0xFFFFFFFFFFFFFFFFFFFFFFFFFFFFFFFFFFFFFFFF AND DUP2 MSTORE PUSH1 0x20 ADD SWAP1 DUP2 MSTORE PUSH1 0x20 ADD PUSH0 KECCAK256 PUSH0 SWAP1 SSTORE PUSH1 0x6 PUSH0 PUSH1 0x7 DUP4 DUP2 SLOAD DUP2 LT PUSH2 0x159D JUMPI PUSH2 0x159C PUSH2 0x18ED JUMP JUMPDEST JUMPDEST SWAP1 PUSH0 MSTORE PUSH1 0x20 PUSH0 KECCAK256 ADD PUSH0 SWAP1 SLOAD SWAP1 PUSH2 0x100 EXP SWAP1 DIV PUSH20 0xFFFFFFFFFFFFFFFFFFFFFFFFFFFFFFFFFFFFFFFF AND PUSH20 0xFFFFFFFFFFFFFFFFFFFFFFFFFFFFFFFFFFFFFFFF AND PUSH20 0xFFFFFFFFFFFFFFFFFFFFFFFFFFFFFFFFFFFFFFFF AND DUP2 MSTORE PUSH1 0x20 ADD SWAP1 DUP2 MSTORE PUSH1 0x20 ADD PUSH0 KECCAK256 PUSH0 PUSH2 0x100 EXP DUP2 SLOAD SWAP1 PUSH1 0xFF MUL NOT AND SWAP1 SSTORE DUP1 DUP1 PUSH1 0x1 ADD SWAP2 POP POP PUSH2 0x14FE JUMP JUMPDEST POP PUSH1 0x7 PUSH0 PUSH2 0x1628 SWAP2 SWAP1 PUSH2 0x163F JUMP JUMPDEST PUSH0 PUSH1 0x2 DUP2 SWAP1 SSTORE POP PUSH0 PUSH1 0x9 DUP2 SWAP1 SSTORE POP PUSH0 PUSH1 0x4 DUP2 SWAP1 SSTORE POP JUMP JUMPDEST POP DUP1 SLOAD PUSH0 DUP3 SSTORE SWAP1 PUSH0 MSTORE PUSH1 0x20 PUSH0 KECCAK256 SWAP1 DUP2 ADD SWAP1 PUSH2 0x165A SWAP2 SWAP1 PUSH2 0x165D JUMP JUMPDEST POP JUMP JUMPDEST JUMPDEST DUP1 DUP3 GT ISZERO PUSH2 0x1674 JUMPI PUSH0 DUP2 PUSH0 SWAP1 SSTORE POP PUSH1 0x1 ADD PUSH2 0x165E JUMP JUMPDEST POP SWAP1 JUMP JUMPDEST PUSH0 DUP2 SWAP1 POP SWAP2 SWAP1 POP JUMP JUMPDEST PUSH2 0x168A DUP2 PUSH2 0x1678 JUMP JUMPDEST DUP3 MSTORE POP POP JUMP JUMPDEST PUSH0 PUSH1 0x20 DUP3 ADD SWAP1 POP PUSH2 0x16A3 PUSH0 DUP4 ADD DUP5 PUSH2 0x1681 JUMP JUMPDEST SWAP3 SWAP2 POP POP JUMP JUMPDEST PUSH0 DUP1 REVERT JUMPDEST PUSH0 PUSH20 0xFFFFFFFFFFFFFFFFFFFFFFFFFFFFFFFFFFFFFFFF DUP3 AND SWAP1 POP SWAP2 SWAP1 POP JUMP JUMPDEST PUSH0 PUSH2 0x16D6 DUP3 PUSH2 0x16AD JUMP JUMPDEST SWAP1 POP SWAP2 SWAP1 POP JUMP JUMPDEST PUSH2 0x16E6 DUP2 PUSH2 0x16CC JUMP JUMPDEST DUP2 EQ PUSH2 0x16F0 JUMPI PUSH0 DUP1 REVERT JUMPDEST POP JUMP JUMPDEST PUSH0 DUP2 CALLDATALOAD SWAP1 POP PUSH2 0x1701 DUP2 PUSH2 0x16DD JUMP JUMPDEST SWAP3 SWAP2 POP POP JUMP JUMPDEST PUSH0 PUSH1 0x20 DUP3 DUP5 SUB SLT ISZERO PUSH2 0x171C JUMPI PUSH2 0x171B PUSH2 0x16A9 JUMP JUMPDEST JUMPDEST PUSH0 PUSH2 0x1729 DUP5 DUP3 DUP6 ADD PUSH2 0x16F3 JUMP JUMPDEST SWAP2 POP POP SWAP3 SWAP2 POP POP JUMP JUMPDEST PUSH0 DUP2 ISZERO ISZERO SWAP1 POP SWAP2 SWAP1 POP JUMP JUMPDEST PUSH2 0x1746 DUP2 PUSH2 0x1732 JUMP JUMPDEST DUP3 MSTORE POP POP JUMP JUMPDEST PUSH0 PUSH1 0x20 DUP3 ADD SWAP1 POP PUSH2 0x175F PUSH0 DUP4 ADD DUP5 PUSH2 0x173D JUMP JUMPDEST SWAP3 SWAP2 POP POP JUMP JUMPDEST PUSH0 DUP2 SWAP1 POP SWAP2 SWAP1 POP JUMP JUMPDEST PUSH0 PUSH2 0x1788 PUSH2 0x1783 PUSH2 0x177E DUP5 PUSH2 0x16AD JUMP JUMPDEST PUSH2 0x1765 JUMP JUMPDEST PUSH2 0x16AD JUMP JUMPDEST SWAP1 POP SWAP2 SWAP1 POP JUMP JUMPDEST PUSH0 PUSH2 0x1799 DUP3 PUSH2 0x176E JUMP JUMPDEST SWAP1 POP SWAP2 SWAP1 POP JUMP JUMPDEST PUSH0 PUSH2 0x17AA DUP3 PUSH2 0x178F JUMP JUMPDEST SWAP1 POP SWAP2 SWAP1 POP JUMP JUMPDEST PUSH2 0x17BA DUP2 PUSH2 0x17A0 JUMP JUMPDEST DUP3 MSTORE POP POP JUMP JUMPDEST PUSH0 PUSH1 0x20 DUP3 ADD SWAP1 POP PUSH2 0x17D3 PUSH0 DUP4 ADD DUP5 PUSH2 0x17B1 JUMP JUMPDEST SWAP3 SWAP2 POP POP JUMP JUMPDEST PUSH2 0x17E2 DUP2 PUSH2 0x1678 JUMP JUMPDEST DUP2 EQ PUSH2 0x17EC JUMPI PUSH0 DUP1 REVERT JUMPDEST POP JUMP JUMPDEST PUSH0 DUP2 CALLDATALOAD SWAP1 POP PUSH2 0x17FD DUP2 PUSH2 0x17D9 JUMP JUMPDEST SWAP3 SWAP2 POP POP JUMP JUMPDEST PUSH0 PUSH1 0x20 DUP3 DUP5 SUB SLT ISZERO PUSH2 0x1818 JUMPI PUSH2 0x1817 PUSH2 0x16A9 JUMP JUMPDEST JUMPDEST PUSH0 PUSH2 0x1825 DUP5 DUP3 DUP6 ADD PUSH2 0x17EF JUMP JUMPDEST SWAP2 POP POP SWAP3 SWAP2 POP POP JUMP JUMPDEST PUSH2 0x1837 DUP2 PUSH2 0x16CC JUMP JUMPDEST DUP3 MSTORE POP POP JUMP JUMPDEST PUSH0 PUSH1 0x20 DUP3 ADD SWAP1 POP PUSH2 0x1850 PUSH0 DUP4 ADD DUP5 PUSH2 0x182E JUMP JUMPDEST SWAP3 SWAP2 POP POP JUMP JUMPDEST PUSH0 DUP2 SWAP1 POP SWAP2 SWAP1 POP JUMP JUMPDEST PUSH2 0x1868 DUP2 PUSH2 0x1856 JUMP JUMPDEST DUP2 EQ PUSH2 0x1872 JUMPI PUSH0 DUP1 REVERT JUMPDEST POP JUMP JUMPDEST PUSH0 DUP2 CALLDATALOAD SWAP1 POP PUSH2 0x1883 DUP2 PUSH2 0x185F JUMP JUMPDEST SWAP3 SWAP2 POP POP JUMP JUMPDEST PUSH0 PUSH1 0x20 DUP3 DUP5 SUB SLT ISZERO PUSH2 0x189E JUMPI PUSH2 0x189D PUSH2 0x16A9 JUMP JUMPDEST JUMPDEST PUSH0 PUSH2 0x18AB DUP5 DUP3 DUP6 ADD PUSH2 0x1875 JUMP JUMPDEST SWAP2 POP POP SWAP3 SWAP2 POP POP JUMP JUMPDEST PUSH0 PUSH2 0x18BE DUP3 PUSH2 0x178F JUMP JUMPDEST SWAP1 POP SWAP2 SWAP1 POP JUMP JUMPDEST PUSH2 0x18CE DUP2 PUSH2 0x18B4 JUMP JUMPDEST DUP3 MSTORE POP POP JUMP JUMPDEST PUSH0 PUSH1 0x20 DUP3 ADD SWAP1 POP PUSH2 0x18E7 PUSH0 DUP4 ADD DUP5 PUSH2 0x18C5 JUMP JUMPDEST SWAP3 SWAP2 POP POP JUMP JUMPDEST PUSH32 0x4E487B7100000000000000000000000000000000000000000000000000000000 PUSH0 MSTORE PUSH1 0x32 PUSH1 0x4 MSTORE PUSH1 0x24 PUSH0 REVERT JUMPDEST PUSH0 DUP3 DUP3 MSTORE PUSH1 0x20 DUP3 ADD SWAP1 POP SWAP3 SWAP2 POP POP JUMP JUMPDEST PUSH32 0x596F7520617265206E6F7420616C6C6F77656420746F20706C61792074686973 PUSH0 DUP3 ADD MSTORE PUSH32 0x2067616D65000000000000000000000000000000000000000000000000000000 PUSH1 0x20 DUP3 ADD MSTORE POP JUMP JUMPDEST PUSH0 PUSH2 0x1984 PUSH1 0x25 DUP4 PUSH2 0x191A JUMP JUMPDEST SWAP2 POP PUSH2 0x198F DUP3 PUSH2 0x192A JUMP JUMPDEST PUSH1 0x40 DUP3 ADD SWAP1 POP SWAP2 SWAP1 POP JUMP JUMPDEST PUSH0 PUSH1 0x20 DUP3 ADD SWAP1 POP DUP2 DUP2 SUB PUSH0 DUP4 ADD MSTORE PUSH2 0x19B1 DUP2 PUSH2 0x1978 JUMP JUMPDEST SWAP1 POP SWAP2 SWAP1 POP JUMP JUMPDEST PUSH32 0x4E487B7100000000000000000000000000000000000000000000000000000000 PUSH0 MSTORE PUSH1 0x11 PUSH1 0x4 MSTORE PUSH1 0x24 PUSH0 REVERT JUMPDEST PUSH0 PUSH2 0x19EF DUP3 PUSH2 0x1678 JUMP JUMPDEST SWAP2 POP PUSH2 0x19FA DUP4 PUSH2 0x1678 JUMP JUMPDEST SWAP3 POP DUP3 DUP3 ADD SWAP1 POP DUP1 DUP3 GT ISZERO PUSH2 0x1A12 JUMPI PUSH2 0x1A11 PUSH2 0x19B8 JUMP JUMPDEST JUMPDEST SWAP3 SWAP2 POP POP JUMP JUMPDEST PUSH0 PUSH2 0x1A22 DUP3 PUSH2 0x1678 JUMP JUMPDEST SWAP2 POP PUSH32 0xFFFFFFFFFFFFFFFFFFFFFFFFFFFFFFFFFFFFFFFFFFFFFFFFFFFFFFFFFFFFFFFF DUP3 SUB PUSH2 0x1A54 JUMPI PUSH2 0x1A53 PUSH2 0x19B8 JUMP JUMPDEST JUMPDEST PUSH1 0x1 DUP3 ADD SWAP1 POP SWAP2 SWAP1 POP JUMP JUMPDEST PUSH2 0x1A68 DUP2 PUSH2 0x1856 JUMP JUMPDEST DUP3 MSTORE POP POP JUMP JUMPDEST PUSH0 PUSH1 0x40 DUP3 ADD SWAP1 POP PUSH2 0x1A81 PUSH0 DUP4 ADD DUP6 PUSH2 0x1A5F JUMP JUMPDEST PUSH2 0x1A8E PUSH1 0x20 DUP4 ADD DUP5 PUSH2 0x182E JUMP JUMPDEST SWAP4 SWAP3 POP POP POP JUMP JUMPDEST PUSH32 0x63686F696365206973206E6F742076616C69642E000000000000000000000000 PUSH0 DUP3 ADD MSTORE POP JUMP JUMPDEST PUSH0 PUSH2 0x1AC9 PUSH1 0x14 DUP4 PUSH2 0x191A JUMP JUMPDEST SWAP2 POP PUSH2 0x1AD4 DUP3 PUSH2 0x1A95 JUMP JUMPDEST PUSH1 0x20 DUP3 ADD SWAP1 POP SWAP2 SWAP1 POP JUMP JUMPDEST PUSH0 PUSH1 0x20 DUP3 ADD SWAP1 POP DUP2 DUP2 SUB PUSH0 DUP4 ADD MSTORE PUSH2 0x1AF6 DUP2 PUSH2 0x1ABD JUMP JUMPDEST SWAP1 POP SWAP2 SWAP1 POP JUMP JUMPDEST PUSH0 DUP2 MLOAD SWAP1 POP PUSH2 0x1B0B DUP2 PUSH2 0x17D9 JUMP JUMPDEST SWAP3 SWAP2 POP POP JUMP JUMPDEST PUSH0 PUSH1 0x20 DUP3 DUP5 SUB SLT ISZERO PUSH2 0x1B26 JUMPI PUSH2 0x1B25 PUSH2 0x16A9 JUMP JUMPDEST JUMPDEST PUSH0 PUSH2 0x1B33 DUP5 DUP3 DUP6 ADD PUSH2 0x1AFD JUMP JUMPDEST SWAP2 POP POP SWAP3 SWAP2 POP POP JUMP JUMPDEST PUSH32 0x4E487B7100000000000000000000000000000000000000000000000000000000 PUSH0 MSTORE PUSH1 0x12 PUSH1 0x4 MSTORE PUSH1 0x24 PUSH0 REVERT JUMPDEST PUSH0 PUSH2 0x1B73 DUP3 PUSH2 0x1678 JUMP JUMPDEST SWAP2 POP PUSH2 0x1B7E DUP4 PUSH2 0x1678 JUMP JUMPDEST SWAP3 POP DUP3 PUSH2 0x1B8E JUMPI PUSH2 0x1B8D PUSH2 0x1B3C JUMP JUMPDEST JUMPDEST DUP3 DUP3 DIV SWAP1 POP SWAP3 SWAP2 POP POP JUMP JUMPDEST PUSH0 DUP2 MLOAD SWAP1 POP PUSH2 0x1BA7 DUP2 PUSH2 0x185F JUMP JUMPDEST SWAP3 SWAP2 POP POP JUMP JUMPDEST PUSH0 PUSH8 0xFFFFFFFFFFFFFFFF DUP3 AND SWAP1 POP SWAP2 SWAP1 POP JUMP JUMPDEST PUSH2 0x1BC9 DUP2 PUSH2 0x1BAD JUMP JUMPDEST DUP2 EQ PUSH2 0x1BD3 JUMPI PUSH0 DUP1 REVERT JUMPDEST POP JUMP JUMPDEST PUSH0 DUP2 MLOAD SWAP1 POP PUSH2 0x1BE4 DUP2 PUSH2 0x1BC0 JUMP JUMPDEST SWAP3 SWAP2 POP POP JUMP JUMPDEST PUSH2 0x1BF3 DUP2 PUSH2 0x1732 JUMP JUMPDEST DUP2 EQ PUSH2 0x1BFD JUMPI PUSH0 DUP1 REVERT JUMPDEST POP JUMP JUMPDEST PUSH0 DUP2 MLOAD SWAP1 POP PUSH2 0x1C0E DUP2 PUSH2 0x1BEA JUMP JUMPDEST SWAP3 SWAP2 POP POP JUMP JUMPDEST PUSH0 DUP1 PUSH0 PUSH1 0x60 DUP5 DUP7 SUB SLT ISZERO PUSH2 0x1C2B JUMPI PUSH2 0x1C2A PUSH2 0x16A9 JUMP JUMPDEST JUMPDEST PUSH0 PUSH2 0x1C38 DUP7 DUP3 DUP8 ADD PUSH2 0x1B99 JUMP JUMPDEST SWAP4 POP POP PUSH1 0x20 PUSH2 0x1C49 DUP7 DUP3 DUP8 ADD PUSH2 0x1BD6 JUMP JUMPDEST SWAP3 POP POP PUSH1 0x40 PUSH2 0x1C5A DUP7 DUP3 DUP8 ADD PUSH2 0x1C00 JUMP JUMPDEST SWAP2 POP POP SWAP3 POP SWAP3 POP SWAP3 JUMP JUMPDEST PUSH32 0x63616E6E6F7420726566756E6400000000000000000000000000000000000000 PUSH0 DUP3 ADD MSTORE POP JUMP JUMPDEST PUSH0 PUSH2 0x1C98 PUSH1 0xD DUP4 PUSH2 0x191A JUMP JUMPDEST SWAP2 POP PUSH2 0x1CA3 DUP3 PUSH2 0x1C64 JUMP JUMPDEST PUSH1 0x20 DUP3 ADD SWAP1 POP SWAP2 SWAP1 POP JUMP JUMPDEST PUSH0 PUSH1 0x20 DUP3 ADD SWAP1 POP DUP2 DUP2 SUB PUSH0 DUP4 ADD MSTORE PUSH2 0x1CC5 DUP2 PUSH2 0x1C8C JUMP JUMPDEST SWAP1 POP SWAP2 SWAP1 POP JUMP JUMPDEST PUSH0 PUSH2 0x1CD6 DUP3 PUSH2 0x1678 JUMP JUMPDEST SWAP2 POP PUSH2 0x1CE1 DUP4 PUSH2 0x1678 JUMP JUMPDEST SWAP3 POP DUP3 PUSH2 0x1CF1 JUMPI PUSH2 0x1CF0 PUSH2 0x1B3C JUMP JUMPDEST JUMPDEST DUP3 DUP3 MOD SWAP1 POP SWAP3 SWAP2 POP POP JUMP INVALID LOG2 PUSH5 0x6970667358 0x22 SLT KECCAK256 NUMBER PUSH13 0x1DBB63F2F2552752C12964DFD2 DIV 0xBE DUP8 SELFDESTRUCT 0xBC ORIGIN MSTORE PC DUP10 0xFC 0xE6 SWAP15 0xBC 0x1F STOP DUP2 SWAP3 PUSH5 0x736F6C6343 STOP ADDMOD BYTE STOP CALLER "
				},
				"gasEstimates": {
					"creation": {
						"codeDepositCost": "1494800",
						"executionCost": "infinite",
						"totalCost": "infinite"
					},
					"external": {
						"addPlayer()": "infinite",
						"allowPlayers(uint256)": "5011",
						"cancelGame()": "infinite",
						"commit(bytes32)": "infinite",
						"commitReveal()": "infinite",
						"numInput()": "2449",
						"numPlayer()": "2448",
						"numReveal()": "2447",
						"player_choice(address)": "2869",
						"player_not_played(address)": "2879",
						"players(uint256)": "5032",
						"reveal(bytes32)": "infinite",
						"reward()": "2493",
						"timeLimit()": "2514",
						"timeUnit()": "infinite"
					},
					"internal": {
						"_checkWinnerAndPay()": "infinite",
						"reset()": "infinite"
					}
				},
				"methodIdentifiers": {
					"addPlayer()": "27b5db8a",
					"allowPlayers(uint256)": "55d07388",
					"cancelGame()": "d84c1ac9",
					"commit(bytes32)": "f14fcbc8",
					"commitReveal()": "9d7b3f2d",
					"numInput()": "086f7815",
					"numPlayer()": "90d5d0c3",
					"numReveal()": "c876e615",
					"player_choice(address)": "a040478d",
					"player_not_played(address)": "190cf745",
					"players(uint256)": "f71d96cb",
					"reveal(bytes32)": "701fd0f1",
					"reward()": "228cb733",
					"timeLimit()": "c08d1fe5",
					"timeUnit()": "3c6a7f9b"
				}
			},
			"storageLayout": {
				"storage": [
					{
						"astId": 197,
						"contract": "RPS.sol:RPS",
						"label": "timeUnit",
						"offset": 0,
						"slot": "0",
						"type": "t_contract(TimeUnit)810"
					},
					{
						"astId": 200,
						"contract": "RPS.sol:RPS",
						"label": "commitReveal",
						"offset": 0,
						"slot": "1",
						"type": "t_contract(CommitReveal)190"
					},
					{
						"astId": 203,
						"contract": "RPS.sol:RPS",
						"label": "numPlayer",
						"offset": 0,
						"slot": "2",
						"type": "t_uint256"
					},
					{
						"astId": 206,
						"contract": "RPS.sol:RPS",
						"label": "reward",
						"offset": 0,
						"slot": "3",
						"type": "t_uint256"
					},
					{
						"astId": 209,
						"contract": "RPS.sol:RPS",
						"label": "numReveal",
						"offset": 0,
						"slot": "4",
						"type": "t_uint256"
					},
					{
						"astId": 213,
						"contract": "RPS.sol:RPS",
						"label": "player_choice",
						"offset": 0,
						"slot": "5",
						"type": "t_mapping(t_address,t_uint256)"
					},
					{
						"astId": 217,
						"contract": "RPS.sol:RPS",
						"label": "player_not_played",
						"offset": 0,
						"slot": "6",
						"type": "t_mapping(t_address,t_bool)"
					},
					{
						"astId": 220,
						"contract": "RPS.sol:RPS",
						"label": "players",
						"offset": 0,
						"slot": "7",
						"type": "t_array(t_address)dyn_storage"
					},
					{
						"astId": 228,
						"contract": "RPS.sol:RPS",
						"label": "allowPlayers",
						"offset": 0,
						"slot": "8",
						"type": "t_array(t_address)dyn_storage"
					},
					{
						"astId": 231,
						"contract": "RPS.sol:RPS",
						"label": "numInput",
						"offset": 0,
						"slot": "9",
						"type": "t_uint256"
					},
					{
						"astId": 234,
						"contract": "RPS.sol:RPS",
						"label": "timeLimit",
						"offset": 0,
						"slot": "10",
						"type": "t_uint256"
					}
				],
				"types": {
					"t_address": {
						"encoding": "inplace",
						"label": "address",
						"numberOfBytes": "20"
					},
					"t_array(t_address)dyn_storage": {
						"base": "t_address",
						"encoding": "dynamic_array",
						"label": "address[]",
						"numberOfBytes": "32"
					},
					"t_bool": {
						"encoding": "inplace",
						"label": "bool",
						"numberOfBytes": "1"
					},
					"t_contract(CommitReveal)190": {
						"encoding": "inplace",
						"label": "contract CommitReveal",
						"numberOfBytes": "20"
					},
					"t_contract(TimeUnit)810": {
						"encoding": "inplace",
						"label": "contract TimeUnit",
						"numberOfBytes": "20"
					},
					"t_mapping(t_address,t_bool)": {
						"encoding": "mapping",
						"key": "t_address",
						"label": "mapping(address => bool)",
						"numberOfBytes": "32",
						"value": "t_bool"
					},
					"t_mapping(t_address,t_uint256)": {
						"encoding": "mapping",
						"key": "t_address",
						"label": "mapping(address => uint256)",
						"numberOfBytes": "32",
						"value": "t_uint256"
					},
					"t_uint256": {
						"encoding": "inplace",
						"label": "uint256",
						"numberOfBytes": "32"
					}
				}
			},
			"userdoc": {
				"kind": "user",
				"methods": {},
				"version": 1
			}
		}
	}
}